{
  "address": "0x9264416B621054e16fAB8d6423b5a1e354D19fEc",
  "abi": [
    {
      "inputs": [
        {
          "internalType": "address",
          "name": "weth_",
          "type": "address"
        },
        {
          "internalType": "address",
          "name": "registry_",
          "type": "address"
        }
      ],
      "stateMutability": "nonpayable",
      "type": "constructor"
    },
    {
      "anonymous": false,
      "inputs": [
        {
          "indexed": true,
          "internalType": "address",
          "name": "from",
          "type": "address"
        },
        {
          "indexed": true,
          "internalType": "address",
          "name": "to",
          "type": "address"
        },
        {
          "indexed": false,
          "internalType": "bytes",
          "name": "params",
          "type": "bytes"
        }
      ],
      "name": "Executed",
      "type": "event"
    },
    {
      "anonymous": false,
      "inputs": [
        {
          "indexed": true,
          "internalType": "address",
          "name": "from",
          "type": "address"
        }
      ],
      "name": "Initialized",
      "type": "event"
    },
    {
      "anonymous": false,
      "inputs": [
        {
          "indexed": true,
          "internalType": "address",
          "name": "previousOwner",
          "type": "address"
        },
        {
          "indexed": true,
          "internalType": "address",
          "name": "newOwner",
          "type": "address"
        }
      ],
      "name": "OwnershipTransferred",
      "type": "event"
    },
    {
      "anonymous": false,
      "inputs": [
        {
          "indexed": false,
          "internalType": "address",
          "name": "account",
          "type": "address"
        }
      ],
      "name": "Paused",
      "type": "event"
    },
    {
      "anonymous": false,
      "inputs": [
        {
          "indexed": true,
          "internalType": "address[]",
          "name": "connectors",
          "type": "address[]"
        },
        {
          "indexed": false,
          "internalType": "bool[]",
          "name": "registered",
          "type": "bool[]"
        }
      ],
      "name": "RegisteredConnectors",
      "type": "event"
    },
    {
      "anonymous": false,
      "inputs": [
        {
          "indexed": true,
          "internalType": "address[]",
          "name": "options",
          "type": "address[]"
        }
      ],
      "name": "RegisteredOptions",
      "type": "event"
    },
    {
      "anonymous": false,
      "inputs": [
        {
          "indexed": false,
          "internalType": "address",
          "name": "account",
          "type": "address"
        }
      ],
      "name": "Unpaused",
      "type": "event"
    },
    {
      "inputs": [],
      "name": "apiVersion",
      "outputs": [
        {
          "internalType": "string",
          "name": "",
          "type": "string"
        }
      ],
      "stateMutability": "pure",
      "type": "function"
    },
    {
      "inputs": [
        {
          "internalType": "address",
          "name": "connector",
          "type": "address"
        },
        {
          "internalType": "bytes",
          "name": "params",
          "type": "bytes"
        }
      ],
      "name": "executeCall",
      "outputs": [],
      "stateMutability": "payable",
      "type": "function"
    },
    {
      "inputs": [],
      "name": "getCaller",
      "outputs": [
        {
          "internalType": "address",
          "name": "",
          "type": "address"
        }
      ],
      "stateMutability": "view",
      "type": "function"
    },
    {
      "inputs": [
        {
          "internalType": "address",
          "name": "connector",
          "type": "address"
        }
      ],
      "name": "getRegisteredConnector",
      "outputs": [
        {
          "internalType": "bool",
          "name": "",
          "type": "bool"
        }
      ],
      "stateMutability": "view",
      "type": "function"
    },
    {
      "inputs": [
        {
          "internalType": "address",
          "name": "option",
          "type": "address"
        }
      ],
      "name": "getRegisteredOption",
      "outputs": [
        {
          "internalType": "bool",
          "name": "",
          "type": "bool"
        }
      ],
      "stateMutability": "view",
      "type": "function"
    },
    {
      "inputs": [],
      "name": "getRegistry",
      "outputs": [
        {
          "internalType": "contract IRegistry",
          "name": "",
          "type": "address"
        }
      ],
      "stateMutability": "view",
      "type": "function"
    },
    {
      "inputs": [],
      "name": "getRoute",
      "outputs": [
        {
          "internalType": "address",
          "name": "",
          "type": "address"
        }
      ],
      "stateMutability": "view",
      "type": "function"
    },
    {
      "inputs": [],
      "name": "getWeth",
      "outputs": [
        {
          "internalType": "contract IWETH",
          "name": "",
          "type": "address"
        }
      ],
      "stateMutability": "view",
      "type": "function"
    },
    {
      "inputs": [],
      "name": "halt",
      "outputs": [],
      "stateMutability": "nonpayable",
      "type": "function"
    },
    {
      "inputs": [],
      "name": "owner",
      "outputs": [
        {
          "internalType": "address",
          "name": "",
          "type": "address"
        }
      ],
      "stateMutability": "view",
      "type": "function"
    },
    {
      "inputs": [],
      "name": "paused",
      "outputs": [
        {
          "internalType": "bool",
          "name": "",
          "type": "bool"
        }
      ],
      "stateMutability": "view",
      "type": "function"
    },
    {
      "inputs": [],
      "name": "renounceOwnership",
      "outputs": [],
      "stateMutability": "nonpayable",
      "type": "function"
    },
    {
      "inputs": [
        {
          "internalType": "address[]",
          "name": "connectors",
          "type": "address[]"
        },
        {
          "internalType": "bool[]",
          "name": "isValid",
          "type": "bool[]"
        }
      ],
      "name": "setRegisteredConnectors",
      "outputs": [
        {
          "internalType": "bool",
          "name": "",
          "type": "bool"
        }
      ],
      "stateMutability": "nonpayable",
      "type": "function"
    },
    {
      "inputs": [
        {
          "internalType": "address[]",
          "name": "optionAddresses",
          "type": "address[]"
        }
      ],
      "name": "setRegisteredOptions",
      "outputs": [
        {
          "internalType": "bool",
          "name": "",
          "type": "bool"
        }
      ],
      "stateMutability": "nonpayable",
      "type": "function"
    },
    {
      "inputs": [
        {
          "internalType": "address",
          "name": "token",
          "type": "address"
        },
        {
          "internalType": "uint256",
          "name": "amount",
          "type": "uint256"
        }
      ],
      "name": "transferFromCaller",
      "outputs": [
        {
          "internalType": "bool",
          "name": "",
          "type": "bool"
        }
      ],
      "stateMutability": "nonpayable",
      "type": "function"
    },
    {
      "inputs": [
        {
          "internalType": "address",
          "name": "token",
          "type": "address"
        },
        {
          "internalType": "uint256",
          "name": "amount",
          "type": "uint256"
        },
        {
          "internalType": "address",
          "name": "receiver",
          "type": "address"
        }
      ],
      "name": "transferFromCallerToReceiver",
      "outputs": [
        {
          "internalType": "bool",
          "name": "",
          "type": "bool"
        }
      ],
      "stateMutability": "nonpayable",
      "type": "function"
    },
    {
      "inputs": [
        {
          "internalType": "address",
          "name": "newOwner",
          "type": "address"
        }
      ],
      "name": "transferOwnership",
      "outputs": [],
      "stateMutability": "nonpayable",
      "type": "function"
    },
    {
      "stateMutability": "payable",
      "type": "receive"
    }
  ],
  "transactionHash": "0x2b9fe00b030e955ddb8095583b8fa56478d8283788abd8d750c09fa188e1049a",
  "args": [
    "0xC02aaA39b223FE8D0A0e5C4F27eAD9083C756Cc2",
    "0x16274044dab9635Df2B5AeAF7CeCb5f381c71680"
  ],
  "solcInputHash": "c9dcfba636be70a61fb642f1ed49c33f",
  "bytecode": "0x6080604052600580546001600160a01b03199081169091556006805490911690553480156200002d57600080fd5b5060405162001c8d38038062001c8d833981810160405260408110156200005357600080fd5b5080516020909101516000620000716001600160e01b03620001d916565b600080546001600160a01b0319166001600160a01b0383169081178255604051929350917f8be0079c531659141344cd1fd0a4f28419497f9722a3daafe3b4186f6b6457e0908290a3506000805460ff60a01b19169055600180556003546001600160a01b0316156200012b576040805162461bcd60e51b815260206004820152601360248201527f526f757465723a20494e495449414c495a454400000000000000000000000000604482015290519081900360640190fd5b6040516200013990620001dd565b604051809103906000f08015801562000156573d6000803e3d6000fd5b50600480546001600160a01b03199081166001600160a01b0393841617909155600380548216858416179055600280549091169183169190911790556200019c620001d9565b6001600160a01b03167f908408e307fc569b417f6cbec5d5a06f44a0a505ac0479b47d421a4b2fd6a1e660405160405180910390a25050620001eb565b3390565b6101b88062001ad583390190565b6118da80620001fb6000396000f3fe6080604052600436106101025760003560e01c80638da5cb5b11610095578063a3e3808f11610064578063a3e3808f14610510578063ab470f0514610549578063bca8c7b51461055e578063c5eaa129146105dc578063f2fde38b146105f15761017f565b80638da5cb5b14610452578063921875de1461046757806394669bf51461049a578063a2e49f17146104cd5761017f565b80635c975abb116100d15780635c975abb146103985780635ed7ca5b146103ad5780636a595ca4146103c2578063715018a61461043d5761017f565b8063107c279f1461018457806325829410146101b5578063474855281461023f5780635ab1bd53146103835761017f565b3661017f57600054600160a01b900460ff1615610159576040805162461bcd60e51b815260206004820152601060248201526f14185d5cd8589b194e881c185d5cd95960821b604482015290519081900360640190fd5b6003546001600160a01b031661016d610624565b6001600160a01b03161461017d57fe5b005b600080fd5b34801561019057600080fd5b50610199610628565b604080516001600160a01b039092168252519081900360200190f35b3480156101c157600080fd5b506101ca610637565b6040805160208082528351818301528351919283929083019185019080838360005b838110156102045781810151838201526020016101ec565b50505050905090810190601f1680156102315780820380516001836020036101000a031916815260200191505b509250505060405180910390f35b34801561024b57600080fd5b5061036f6004803603604081101561026257600080fd5b810190602081018135600160201b81111561027c57600080fd5b82018360208201111561028e57600080fd5b803590602001918460208302840111600160201b831117156102af57600080fd5b9190808060200260200160405190810160405280939291908181526020018383602002808284376000920191909152509295949360208101935035915050600160201b8111156102fe57600080fd5b82018360208201111561031057600080fd5b803590602001918460208302840111600160201b8311171561033157600080fd5b919080806020026020016040519081016040528093929190818152602001838360200280828437600092019190915250929550610656945050505050565b604080519115158252519081900360200190f35b34801561038f57600080fd5b50610199610829565b3480156103a457600080fd5b5061036f610838565b3480156103b957600080fd5b5061017d610848565b3480156103ce57600080fd5b5061036f600480360360208110156103e557600080fd5b810190602081018135600160201b8111156103ff57600080fd5b82018360208201111561041157600080fd5b803590602001918460208302840111600160201b8311171561043257600080fd5b5090925090506108c4565b34801561044957600080fd5b5061017d6109bb565b34801561045e57600080fd5b50610199610a5d565b34801561047357600080fd5b5061036f6004803603602081101561048a57600080fd5b50356001600160a01b0316610a6c565b3480156104a657600080fd5b5061036f600480360360208110156104bd57600080fd5b50356001600160a01b0316610a8a565b3480156104d957600080fd5b5061036f600480360360608110156104f057600080fd5b506001600160a01b03813581169160208101359160409091013516610aa8565b34801561051c57600080fd5b5061036f6004803603604081101561053357600080fd5b506001600160a01b038135169060200135610c4f565b34801561055557600080fd5b50610199610dfc565b61017d6004803603604081101561057457600080fd5b6001600160a01b038235169190810190604081016020820135600160201b81111561059e57600080fd5b8201836020820111156105b057600080fd5b803590602001918460018302840111600160201b831117156105d157600080fd5b509092509050610e0b565b3480156105e857600080fd5b5061019961102c565b3480156105fd57600080fd5b5061017d6004803603602081101561061457600080fd5b50356001600160a01b031661103b565b3390565b6003546001600160a01b031690565b6040805180820190915260058152640322e302e360dc1b602082015290565b6000610660610624565b6000546001600160a01b039081169116146106b0576040805162461bcd60e51b8152602060048201819052602482015260008051602061185b833981519152604482015290519081900360640190fd5b8251825181146106f9576040805162461bcd60e51b815260206004820152600f60248201526e526f757465723a204c454e4754485360881b604482015290519081900360640190fd5b60005b8181101561076957600085828151811061071257fe5b60200260200101519050600085838151811061072a57fe5b6020908102919091018101516001600160a01b03939093166000908152600790915260409020805460ff191692151592909217909155506001016106fc565b508360405180828051906020019060200280838360005b83811015610798578181015183820152602001610780565b5050505090500191505060405180910390207fddf79900a722be2ea62e189e14c509d39f49d84e9ab1030870e2f2ba23b88e3c846040518080602001828103825283818151815260200191508051906020019060200280838360005b8381101561080c5781810151838201526020016107f4565b505050509050019250505060405180910390a25060019392505050565b6002546001600160a01b031690565b600054600160a01b900460ff1690565b610850610624565b6000546001600160a01b039081169116146108a0576040805162461bcd60e51b8152602060048201819052602482015260008051602061185b833981519152604482015290519081900360640190fd5b6108a8610838565b156108ba576108b5611133565b6108c2565b6108c26111db565b565b600081815b8181101561096c5760008585838181106108df57fe5b905060200201356001600160a01b031690506108fa81611269565b610941576040805162461bcd60e51b81526020600482015260136024820152722937baba32b91d1022ab24a62fa7a82a24a7a760691b604482015290519081900360640190fd5b6001600160a01b03166000908152600860205260409020805460ff19166001908117909155016108c9565b508383604051808383602002808284376040519201829003822094507fd5b92501d17df70c95cffab7a24e434673e899acd72ca2031ae679aadf22d14193506000925050a25060019392505050565b6109c3610624565b6000546001600160a01b03908116911614610a13576040805162461bcd60e51b8152602060048201819052602482015260008051602061185b833981519152604482015290519081900360640190fd5b600080546040516001600160a01b03909116907f8be0079c531659141344cd1fd0a4f28419497f9722a3daafe3b4186f6b6457e0908390a3600080546001600160a01b0319169055565b6000546001600160a01b031690565b6001600160a01b031660009081526007602052604090205460ff1690565b6001600160a01b031660009081526008602052604090205460ff1690565b6000610ab2610624565b6005546001600160a01b03908116911614610b0c576040805162461bcd60e51b81526020600482015260156024820152742937baba32b91d102727aa2fa1a7a72722a1aa27a960591b604482015290519081900360640190fd5b6006546001600160a01b0316610b5d576040805162461bcd60e51b81526020600482015260116024820152702937baba32b91d102727afa1a0a62622a960791b604482015290519081900360640190fd5b600654600160a01b900460ff1615610bb3576040805162461bcd60e51b81526020600482015260146024820152732937baba32b91d1024a72fa2ac22a1aaaa24a7a760611b604482015290519081900360640190fd5b6006805460ff60a01b1916600160a01b9081179091556000540460ff1615610c15576040805162461bcd60e51b815260206004820152601060248201526f14185d5cd8589b194e881c185d5cd95960821b604482015290519081900360640190fd5b610c38610c20610dfc565b6001600160a01b03861690848663ffffffff61155616565b5060016006805460ff60a01b191690559392505050565b6000610c59610624565b6005546001600160a01b03908116911614610cb3576040805162461bcd60e51b81526020600482015260156024820152742937baba32b91d102727aa2fa1a7a72722a1aa27a960591b604482015290519081900360640190fd5b6006546001600160a01b0316610d04576040805162461bcd60e51b81526020600482015260116024820152702937baba32b91d102727afa1a0a62622a960791b604482015290519081900360640190fd5b600654600160a01b900460ff1615610d5a576040805162461bcd60e51b81526020600482015260146024820152732937baba32b91d1024a72fa2ac22a1aaaa24a7a760611b604482015290519081900360640190fd5b6006805460ff60a01b1916600160a01b9081179091556000540460ff1615610dbc576040805162461bcd60e51b815260206004820152601060248201526f14185d5cd8589b194e881c185d5cd95960821b604482015290519081900360640190fd5b610de7610dc7610dfc565b610dcf610624565b6001600160a01b03861691908563ffffffff61155616565b50506006805460ff60a01b1916905550600190565b6006546001600160a01b031690565b600054600160a01b900460ff1615610e5d576040805162461bcd60e51b815260206004820152601060248201526f14185d5cd8589b194e881c185d5cd95960821b604482015290519081900360640190fd5b6001600160a01b03831660009081526007602052604090205460ff16610eca576040805162461bcd60e51b815260206004820152601960248201527f526f757465723a20494e56414c49445f434f4e4e4543544f5200000000000000604482015290519081900360640190fd5b610ed2610624565b600680546001600160a01b039283166001600160a01b03199182161790915560058054868416921682179055600480546040805163bca8c7b560e01b8152928301938452602483019081526044830186905293169263bca8c7b5923492889288928892909190606401848480828437600081840152601f19601f8201169050808301925050509450505050506000604051808303818588803b158015610f7757600080fd5b505af1158015610f8b573d6000803e3d6000fd5b5050600680546001600160a01b03199081169091556005805490911690555050506001600160a01b038316610fbe610624565b6001600160a01b03167fbd0123ee3a8dad3bc2777bd706a3d4b7b89a6f4f7d175b1e00e36558e94d83ab848460405180806020018281038252848482818152602001925080828437600083820152604051601f909101601f19169092018290039550909350505050a3505050565b6004546001600160a01b031690565b611043610624565b6000546001600160a01b03908116911614611093576040805162461bcd60e51b8152602060048201819052602482015260008051602061185b833981519152604482015290519081900360640190fd5b6001600160a01b0381166110d85760405162461bcd60e51b81526004018080602001828103825260268152602001806118356026913960400191505060405180910390fd5b600080546040516001600160a01b03808516939216917f8be0079c531659141344cd1fd0a4f28419497f9722a3daafe3b4186f6b6457e091a3600080546001600160a01b0319166001600160a01b0392909216919091179055565b600054600160a01b900460ff16611188576040805162461bcd60e51b815260206004820152601460248201527314185d5cd8589b194e881b9bdd081c185d5cd95960621b604482015290519081900360640190fd5b6000805460ff60a01b191690557f5db9ee0a495bf2e6ff9c91a7834c1ba4fdd244a5e8aa4e537bd38aeae4b073aa6111be610624565b604080516001600160a01b039092168252519081900360200190a1565b600054600160a01b900460ff161561122d576040805162461bcd60e51b815260206004820152601060248201526f14185d5cd8589b194e881c185d5cd95960821b604482015290519081900360640190fd5b6000805460ff60a01b1916600160a01b1790557f62e78cea01bee320cd4e420270b5ea74000d11b0c9f74754ebdbfc544b05a2586111be610624565b6000600260009054906101000a90046001600160a01b03166001600160a01b031663b000e9ec836001600160a01b031663440f5fd26040518163ffffffff1660e01b815260040160206040518083038186803b1580156112c857600080fd5b505afa1580156112dc573d6000803e3d6000fd5b505050506040513d60208110156112f257600080fd5b50516040805163a1a4076160e01b815290516001600160a01b0387169163a1a40761916004808301926020929190829003018186803b15801561133457600080fd5b505afa158015611348573d6000803e3d6000fd5b505050506040513d602081101561135e57600080fd5b5051604080516316b2542760e31b815290516001600160a01b0388169163b592a138916004808301926020929190829003018186803b1580156113a057600080fd5b505afa1580156113b4573d6000803e3d6000fd5b505050506040513d60208110156113ca57600080fd5b505160408051627f0cfd60e11b815290516001600160a01b0389169162fe19fa916004808301926020929190829003018186803b15801561140a57600080fd5b505afa15801561141e573d6000803e3d6000fd5b505050506040513d602081101561143457600080fd5b50516040805162972d6f60e61b815290516001600160a01b038a16916325cb5bc0916004808301926020929190829003018186803b15801561147557600080fd5b505afa158015611489573d6000803e3d6000fd5b505050506040513d602081101561149f57600080fd5b5051604080516001600160e01b031960e089901b1681526001600160a01b039687166004820152949095166024850152604484019290925260648301526084820152905160a4808301926020929190829003018186803b15801561150257600080fd5b505afa158015611516573d6000803e3d6000fd5b505050506040513d602081101561152c57600080fd5b50516001600160a01b03838116911614801561155057506001600160a01b03821615155b92915050565b604080516001600160a01b0380861660248301528416604482015260648082018490528251808303909101815260849091019091526020810180516001600160e01b03166323b872dd60e01b1790526115b09085906115b6565b50505050565b606061160b826040518060400160405280602081526020017f5361666545524332303a206c6f772d6c6576656c2063616c6c206661696c6564815250856001600160a01b031661166c9092919063ffffffff16565b8051909150156116675780806020019051602081101561162a57600080fd5b50516116675760405162461bcd60e51b815260040180806020018281038252602a81526020018061187b602a913960400191505060405180910390fd5b505050565b606061167b8484600085611683565b949350505050565b606061168e8561182e565b6116df576040805162461bcd60e51b815260206004820152601d60248201527f416464726573733a2063616c6c20746f206e6f6e2d636f6e7472616374000000604482015290519081900360640190fd5b60006060866001600160a01b031685876040518082805190602001908083835b6020831061171e5780518252601f1990920191602091820191016116ff565b6001836020036101000a03801982511681845116808217855250505050505090500191505060006040518083038185875af1925050503d8060008114611780576040519150601f19603f3d011682016040523d82523d6000602084013e611785565b606091505b5091509150811561179957915061167b9050565b8051156117a95780518082602001fd5b8360405162461bcd60e51b81526004018080602001828103825283818151815260200191508051906020019080838360005b838110156117f35781810151838201526020016117db565b50505050905090810190601f1680156118205780820380516001836020036101000a031916815260200191505b509250505060405180910390fd5b3b15159056fe4f776e61626c653a206e6577206f776e657220697320746865207a65726f20616464726573734f776e61626c653a2063616c6c6572206973206e6f7420746865206f776e65725361666545524332303a204552433230206f7065726174696f6e20646964206e6f742073756363656564a26469706673582212206287fa0f5d79b5ec3a313b68f4591d0174758d0fb2789958d16ecbb54a49971f64736f6c63430006020033608060405234801561001057600080fd5b50610198806100206000396000f3fe60806040526004361061001e5760003560e01c8063bca8c7b514610023575b600080fd5b6100a36004803603604081101561003957600080fd5b6001600160a01b03823516919081019060408101602082013564010000000081111561006457600080fd5b82018360208201111561007657600080fd5b8035906020019184600183028401116401000000008311171561009857600080fd5b5090925090506100a5565b005b60006060846001600160a01b0316348585604051808383808284376040519201945060009350909150508083038185875af1925050503d8060008114610107576040519150601f19603f3d011682016040523d82523d6000602084013e61010c565b606091505b50915091508161015b576040805162461bcd60e51b8152602060048201526015602482015274149bdd5d194e8811561150d5551253d397d1905253605a1b604482015290519081900360640190fd5b505050505056fea2646970667358221220b3da7ffeef2f75dac47a588fc70865aeb7ee7167175cfd531ae60558baa247f864736f6c63430006020033",
  "devdoc": {
    "methods": {
      "apiVersion()": {
        "details": "For the npm package: @primitivefi/v1-connectors         For the repository: github.com/primitivefinance/primitive-v1-connectors",
        "returns": {
          "_0": "The apiVersion string."
        }
      },
      "executeCall(address,bytes)": {
        "params": {
          "connector": "The Primitive Connector module to call.",
          "params": "The encoded function data to use."
        }
      },
      "getRegisteredConnector(address)": {
        "params": {
          "connector": "The address of the Connector contract to check if registered."
        }
      },
      "getRegisteredOption(address)": {
        "params": {
          "option": "The address of the Option to check if registered."
        }
      },
      "owner()": {
        "details": "Returns the address of the current owner."
      },
      "paused()": {
        "details": "Returns true if the contract is paused, and false otherwise."
      },
      "renounceOwnership()": {
        "details": "Leaves the contract without owner. It will not be possible to call `onlyOwner` functions anymore. Can only be called by the current owner.     * NOTE: Renouncing ownership will leave the contract without an owner, thereby removing any functionality that is only available to the owner."
      },
      "setRegisteredConnectors(address[],bool[])": {
        "details": "Sets `connectors` to `isValid` in the whitelisted connectors mapping.",
        "params": {
          "connectors": "The array of option addresses to update.",
          "isValid": "Whether or not the optionAddress is registered."
        }
      },
      "setRegisteredOptions(address[])": {
        "details": "Sets `optionAddresses` to true in the whitelisted options mapping, if from Registry.",
        "params": {
          "optionAddresses": "The array of option addresses to update."
        }
      },
      "transferFromCaller(address,uint256)": {
        "params": {
          "amount": "The amount of ERC20 to transfer.",
          "token": "The address of the ERC20."
        },
        "returns": {
          "_0": "Whether or not the transfer succeeded."
        }
      },
      "transferFromCallerToReceiver(address,uint256,address)": {
        "params": {
          "amount": "The amount of ERC20 to transfer.",
          "token": "The address of the ERC20."
        },
        "returns": {
          "_0": "Whether or not the transfer succeeded."
        }
      },
      "transferOwnership(address)": {
        "details": "Transfers ownership of the contract to a new account (`newOwner`). Can only be called by the current owner."
      }
    }
  },
  "userdoc": {
    "methods": {
      "apiVersion()": {
        "notice": "Returns the NPM package version and github version of this contract."
      },
      "executeCall(address,bytes)": {
        "notice": "Executes a call with `params` to the target `connector` contract from `_route`."
      },
      "getCaller()": {
        "notice": "Returns the `_CALLER` which is set to `_msgSender()` during an `executeCall` invocation."
      },
      "getRegisteredConnector(address)": {
        "notice": "Returns a bool if `connector` is registered or not."
      },
      "getRegisteredOption(address)": {
        "notice": "Returns a bool if `option` is registered or not."
      },
      "getRegistry()": {
        "notice": "Returns the Primitive Registry contract address."
      },
      "getRoute()": {
        "notice": "Returns the Route contract which executes functions on behalf of this contract."
      },
      "getWeth()": {
        "notice": "Returns the IWETH contract address."
      },
      "halt()": {
        "notice": "Halts use of `executeCall`, and other functions that change state."
      },
      "setRegisteredConnectors(address[],bool[])": {
        "notice": "Allows the `owner` to set whitelisted connector contracts."
      },
      "setRegisteredOptions(address[])": {
        "notice": "Checks option against Primitive Registry. If from Registry, registers as true.         NOTE: Purposefully does not have `onlyOwner` modifier."
      },
      "transferFromCaller(address,uint256)": {
        "notice": "Transfers ERC20 tokens from the executing `_CALLER` to the executing `_CONNECTOR`."
      },
      "transferFromCallerToReceiver(address,uint256,address)": {
        "notice": "Transfers ERC20 tokens from the executing `_CALLER` to an arbitrary address."
      }
    }
  },
  "storageLayout": {
    "storage": [
      {
        "astId": 29,
        "contract": "contracts/PrimitiveRouter.sol:PrimitiveRouter",
        "label": "_owner",
        "offset": 0,
        "slot": "0",
        "type": "t_address"
      },
      {
        "astId": 1282,
        "contract": "contracts/PrimitiveRouter.sol:PrimitiveRouter",
        "label": "_paused",
        "offset": 20,
        "slot": "0",
        "type": "t_bool"
      },
      {
        "astId": 1358,
        "contract": "contracts/PrimitiveRouter.sol:PrimitiveRouter",
        "label": "_status",
        "offset": 0,
        "slot": "1",
        "type": "t_uint256"
      },
      {
        "astId": 2497,
        "contract": "contracts/PrimitiveRouter.sol:PrimitiveRouter",
        "label": "_registry",
        "offset": 0,
        "slot": "2",
        "type": "t_contract(IRegistry)1618"
      },
      {
        "astId": 2499,
        "contract": "contracts/PrimitiveRouter.sol:PrimitiveRouter",
        "label": "_weth",
        "offset": 0,
        "slot": "3",
        "type": "t_contract(IWETH)6957"
      },
      {
        "astId": 2501,
        "contract": "contracts/PrimitiveRouter.sol:PrimitiveRouter",
        "label": "_route",
        "offset": 0,
        "slot": "4",
        "type": "t_contract(Route)2450"
      },
      {
        "astId": 2504,
        "contract": "contracts/PrimitiveRouter.sol:PrimitiveRouter",
        "label": "_CONNECTOR",
        "offset": 0,
        "slot": "5",
        "type": "t_address"
      },
      {
        "astId": 2507,
        "contract": "contracts/PrimitiveRouter.sol:PrimitiveRouter",
        "label": "_CALLER",
        "offset": 0,
        "slot": "6",
        "type": "t_address"
      },
      {
        "astId": 2509,
        "contract": "contracts/PrimitiveRouter.sol:PrimitiveRouter",
        "label": "_EXECUTING",
        "offset": 20,
        "slot": "6",
        "type": "t_bool"
      },
      {
        "astId": 2513,
        "contract": "contracts/PrimitiveRouter.sol:PrimitiveRouter",
        "label": "_registeredConnectors",
        "offset": 0,
        "slot": "7",
        "type": "t_mapping(t_address,t_bool)"
      },
      {
        "astId": 2517,
        "contract": "contracts/PrimitiveRouter.sol:PrimitiveRouter",
        "label": "_registeredOptions",
        "offset": 0,
        "slot": "8",
        "type": "t_mapping(t_address,t_bool)"
      }
    ],
    "types": {
      "t_address": {
        "encoding": "inplace",
        "label": "address",
        "numberOfBytes": "20"
      },
      "t_bool": {
        "encoding": "inplace",
        "label": "bool",
        "numberOfBytes": "1"
      },
      "t_contract(IRegistry)1618": {
        "encoding": "inplace",
        "label": "contract IRegistry",
        "numberOfBytes": "20"
      },
      "t_contract(IWETH)6957": {
        "encoding": "inplace",
        "label": "contract IWETH",
        "numberOfBytes": "20"
      },
      "t_contract(Route)2450": {
        "encoding": "inplace",
        "label": "contract Route",
        "numberOfBytes": "20"
      },
      "t_mapping(t_address,t_bool)": {
        "encoding": "mapping",
        "key": "t_address",
        "label": "mapping(address => bool)",
        "numberOfBytes": "32",
        "value": "t_bool"
      },
      "t_uint256": {
        "encoding": "inplace",
        "label": "uint256",
        "numberOfBytes": "32"
      }
    }
  }
}