{
  "address": "0x66fD5619a2a12dB3469e5A1bC5634f981e676c75",
  "abi": [
    {
      "inputs": [
        {
          "internalType": "address",
          "name": "router_",
          "type": "address"
        },
        {
          "internalType": "address",
          "name": "factory_",
          "type": "address"
        },
        {
          "internalType": "address",
          "name": "trader_",
          "type": "address"
        }
      ],
      "stateMutability": "nonpayable",
      "type": "constructor"
    },
    {
      "anonymous": false,
      "inputs": [
        {
          "indexed": true,
          "internalType": "address",
          "name": "from",
          "type": "address"
        },
        {
          "indexed": false,
          "internalType": "uint256",
          "name": "quantity",
          "type": "uint256"
        },
        {
          "indexed": false,
          "internalType": "uint256",
          "name": "payout",
          "type": "uint256"
        }
      ],
      "name": "FlashClosed",
      "type": "event"
    },
    {
      "anonymous": false,
      "inputs": [
        {
          "indexed": true,
          "internalType": "address",
          "name": "from",
          "type": "address"
        },
        {
          "indexed": false,
          "internalType": "uint256",
          "name": "quantity",
          "type": "uint256"
        },
        {
          "indexed": false,
          "internalType": "uint256",
          "name": "premium",
          "type": "uint256"
        }
      ],
      "name": "FlashOpened",
      "type": "event"
    },
    {
      "anonymous": false,
      "inputs": [
        {
          "indexed": true,
          "internalType": "address",
          "name": "from",
          "type": "address"
        }
      ],
      "name": "Initialized",
      "type": "event"
    },
    {
      "anonymous": false,
      "inputs": [
        {
          "indexed": true,
          "internalType": "address",
          "name": "from",
          "type": "address"
        },
        {
          "indexed": false,
          "internalType": "uint256",
          "name": "quantity",
          "type": "uint256"
        }
      ],
      "name": "WroteOption",
      "type": "event"
    },
    {
      "inputs": [
        {
          "internalType": "address",
          "name": "optionAddress",
          "type": "address"
        },
        {
          "internalType": "uint256",
          "name": "quantityOptions",
          "type": "uint256"
        },
        {
          "internalType": "uint256",
          "name": "amountBMax",
          "type": "uint256"
        },
        {
          "internalType": "uint256",
          "name": "amountBMin",
          "type": "uint256"
        },
        {
          "internalType": "address",
          "name": "to",
          "type": "address"
        },
        {
          "internalType": "uint256",
          "name": "deadline",
          "type": "uint256"
        }
      ],
      "name": "addShortLiquidityWithUnderlying",
      "outputs": [
        {
          "internalType": "uint256",
          "name": "",
          "type": "uint256"
        },
        {
          "internalType": "uint256",
          "name": "",
          "type": "uint256"
        },
        {
          "internalType": "uint256",
          "name": "",
          "type": "uint256"
        }
      ],
      "stateMutability": "nonpayable",
      "type": "function"
    },
    {
      "inputs": [
        {
          "internalType": "contract IOption",
          "name": "optionToken",
          "type": "address"
        },
        {
          "internalType": "uint256",
          "name": "amountRedeems",
          "type": "uint256"
        },
        {
          "internalType": "uint256",
          "name": "minPayout",
          "type": "uint256"
        }
      ],
      "name": "closeFlashLong",
      "outputs": [
        {
          "internalType": "bool",
          "name": "",
          "type": "bool"
        }
      ],
      "stateMutability": "nonpayable",
      "type": "function"
    },
    {
      "inputs": [
        {
          "internalType": "address",
          "name": "optionAddress",
          "type": "address"
        },
        {
          "internalType": "address",
          "name": "otherToken",
          "type": "address"
        }
      ],
      "name": "deployUniswapMarket",
      "outputs": [
        {
          "internalType": "address",
          "name": "",
          "type": "address"
        }
      ],
      "stateMutability": "nonpayable",
      "type": "function"
    },
    {
      "inputs": [],
      "name": "factory",
      "outputs": [
        {
          "internalType": "contract IUniswapV2Factory",
          "name": "",
          "type": "address"
        }
      ],
      "stateMutability": "view",
      "type": "function"
    },
    {
      "inputs": [
        {
          "internalType": "address",
          "name": "pairAddress",
          "type": "address"
        },
        {
          "internalType": "address",
          "name": "optionAddress",
          "type": "address"
        },
        {
          "internalType": "uint256",
          "name": "flashLoanQuantity",
          "type": "uint256"
        },
        {
          "internalType": "uint256",
          "name": "minPayout",
          "type": "uint256"
        },
        {
          "internalType": "address[]",
          "name": "path",
          "type": "address[]"
        },
        {
          "internalType": "address",
          "name": "to",
          "type": "address"
        }
      ],
      "name": "flashCloseLongOptionsThenSwap",
      "outputs": [
        {
          "internalType": "uint256",
          "name": "",
          "type": "uint256"
        },
        {
          "internalType": "uint256",
          "name": "",
          "type": "uint256"
        }
      ],
      "stateMutability": "nonpayable",
      "type": "function"
    },
    {
      "inputs": [
        {
          "internalType": "address",
          "name": "pairAddress",
          "type": "address"
        },
        {
          "internalType": "address",
          "name": "optionAddress",
          "type": "address"
        },
        {
          "internalType": "uint256",
          "name": "flashLoanQuantity",
          "type": "uint256"
        },
        {
          "internalType": "uint256",
          "name": "maxPremium",
          "type": "uint256"
        },
        {
          "internalType": "address[]",
          "name": "path",
          "type": "address[]"
        },
        {
          "internalType": "address",
          "name": "to",
          "type": "address"
        }
      ],
      "name": "flashMintShortOptionsThenSwap",
      "outputs": [
        {
          "internalType": "uint256",
          "name": "",
          "type": "uint256"
        },
        {
          "internalType": "uint256",
          "name": "",
          "type": "uint256"
        }
      ],
      "stateMutability": "nonpayable",
      "type": "function"
    },
    {
      "inputs": [
        {
          "internalType": "contract IOption",
          "name": "optionToken",
          "type": "address"
        },
        {
          "internalType": "uint256",
          "name": "quantityShort",
          "type": "uint256"
        }
      ],
      "name": "getClosePremium",
      "outputs": [
        {
          "internalType": "uint256",
          "name": "",
          "type": "uint256"
        },
        {
          "internalType": "uint256",
          "name": "",
          "type": "uint256"
        }
      ],
      "stateMutability": "view",
      "type": "function"
    },
    {
      "inputs": [],
      "name": "getName",
      "outputs": [
        {
          "internalType": "string",
          "name": "",
          "type": "string"
        }
      ],
      "stateMutability": "pure",
      "type": "function"
    },
    {
      "inputs": [
        {
          "internalType": "contract IOption",
          "name": "optionToken",
          "type": "address"
        },
        {
          "internalType": "uint256",
          "name": "quantityLong",
          "type": "uint256"
        }
      ],
      "name": "getOpenPremium",
      "outputs": [
        {
          "internalType": "uint256",
          "name": "",
          "type": "uint256"
        },
        {
          "internalType": "uint256",
          "name": "",
          "type": "uint256"
        }
      ],
      "stateMutability": "view",
      "type": "function"
    },
    {
      "inputs": [
        {
          "internalType": "address",
          "name": "token0",
          "type": "address"
        },
        {
          "internalType": "address",
          "name": "token1",
          "type": "address"
        }
      ],
      "name": "getUniswapMarketForTokens",
      "outputs": [
        {
          "internalType": "address",
          "name": "",
          "type": "address"
        }
      ],
      "stateMutability": "view",
      "type": "function"
    },
    {
      "inputs": [],
      "name": "getVersion",
      "outputs": [
        {
          "internalType": "uint8",
          "name": "",
          "type": "uint8"
        }
      ],
      "stateMutability": "pure",
      "type": "function"
    },
    {
      "inputs": [
        {
          "internalType": "contract IOption",
          "name": "optionToken",
          "type": "address"
        },
        {
          "internalType": "uint256",
          "name": "writeQuantity",
          "type": "uint256"
        },
        {
          "internalType": "uint256",
          "name": "minPayout",
          "type": "uint256"
        }
      ],
      "name": "mintOptionsThenFlashCloseLong",
      "outputs": [
        {
          "internalType": "bool",
          "name": "",
          "type": "bool"
        }
      ],
      "stateMutability": "nonpayable",
      "type": "function"
    },
    {
      "inputs": [
        {
          "internalType": "contract IOption",
          "name": "optionToken",
          "type": "address"
        },
        {
          "internalType": "uint256",
          "name": "amountIn",
          "type": "uint256"
        },
        {
          "internalType": "uint256",
          "name": "amountOutMin",
          "type": "uint256"
        },
        {
          "internalType": "address[]",
          "name": "path",
          "type": "address[]"
        },
        {
          "internalType": "address",
          "name": "to",
          "type": "address"
        },
        {
          "internalType": "uint256",
          "name": "deadline",
          "type": "uint256"
        }
      ],
      "name": "mintShortOptionsThenSwapToTokens",
      "outputs": [
        {
          "internalType": "bool",
          "name": "",
          "type": "bool"
        }
      ],
      "stateMutability": "nonpayable",
      "type": "function"
    },
    {
      "inputs": [
        {
          "internalType": "contract IOption",
          "name": "optionToken",
          "type": "address"
        },
        {
          "internalType": "uint256",
          "name": "amountOptions",
          "type": "uint256"
        },
        {
          "internalType": "uint256",
          "name": "maxPremium",
          "type": "uint256"
        }
      ],
      "name": "openFlashLong",
      "outputs": [
        {
          "internalType": "bool",
          "name": "",
          "type": "bool"
        }
      ],
      "stateMutability": "nonpayable",
      "type": "function"
    },
    {
      "inputs": [
        {
          "internalType": "address",
          "name": "optionAddress",
          "type": "address"
        },
        {
          "internalType": "uint256",
          "name": "liquidity",
          "type": "uint256"
        },
        {
          "internalType": "uint256",
          "name": "amountAMin",
          "type": "uint256"
        },
        {
          "internalType": "uint256",
          "name": "amountBMin",
          "type": "uint256"
        },
        {
          "internalType": "address",
          "name": "to",
          "type": "address"
        },
        {
          "internalType": "uint256",
          "name": "deadline",
          "type": "uint256"
        }
      ],
      "name": "removeShortLiquidityThenCloseOptions",
      "outputs": [
        {
          "internalType": "uint256",
          "name": "",
          "type": "uint256"
        },
        {
          "internalType": "uint256",
          "name": "",
          "type": "uint256"
        }
      ],
      "stateMutability": "nonpayable",
      "type": "function"
    },
    {
      "inputs": [],
      "name": "router",
      "outputs": [
        {
          "internalType": "contract IUniswapV2Router02",
          "name": "",
          "type": "address"
        }
      ],
      "stateMutability": "view",
      "type": "function"
    },
    {
      "inputs": [],
      "name": "trader",
      "outputs": [
        {
          "internalType": "contract ITrader",
          "name": "",
          "type": "address"
        }
      ],
      "stateMutability": "view",
      "type": "function"
    },
    {
      "inputs": [
        {
          "internalType": "address",
          "name": "sender",
          "type": "address"
        },
        {
          "internalType": "uint256",
          "name": "amount0",
          "type": "uint256"
        },
        {
          "internalType": "uint256",
          "name": "amount1",
          "type": "uint256"
        },
        {
          "internalType": "bytes",
          "name": "data",
          "type": "bytes"
        }
      ],
      "name": "uniswapV2Call",
      "outputs": [],
      "stateMutability": "nonpayable",
      "type": "function"
    }
  ],
  "transactionHash": "0x040887598a45484f37fe3c7c9f22e275dc426ccbc213b45a3e016d7d8605f246",
  "args": [
    "0x7a250d5630B4cF539739dF2C5dAcb4c659F2488D",
    "0x5C69bEe701ef814a2B6a3EDD4B1652CB9cc5aA6f",
    "0xc1de48E9577A7CF18594323A73CDcF1EE19962E8"
  ],
  "solcInputHash": "aa8f4276663ec785534c1406d2ffd949",
  "bytecode": "0x60806040523480156200001157600080fd5b506040516200456138038062004561833981810160405260608110156200003757600080fd5b508051602082015160409092015160016000556003549192916001600160a01b0316156200009e576040805162461bcd60e51b815260206004820152600f60248201526e11549497d253925512505312569151608a1b604482015290519081900360640190fd5b6002546001600160a01b031615620000ef576040805162461bcd60e51b815260206004820152600f60248201526e11549497d253925512505312569151608a1b604482015290519081900360640190fd5b6001546001600160a01b03161562000140576040805162461bcd60e51b815260206004820152600f60248201526e11549497d253925512505312569151608a1b604482015290519081900360640190fd5b600380546001600160a01b038086166001600160a01b03199283161790925560028054858416908316179055600180549284169290911691909117905560405133907f908408e307fc569b417f6cbec5d5a06f44a0a505ac0479b47d421a4b2fd6a1e690600090a25050506143a680620001bb6000396000f3fe608060405234801561001057600080fd5b50600436106101165760003560e01c8063904f91dc116100a2578063c45a015511610071578063c45a015514610636578063cd0455241461063e578063dd2c704e14610670578063f887ea401461069c578063fd52c6bb146106a457610116565b8063904f91dc1461046e5780639245d5831461049a57806395f0ae76146104cc578063b17d05701461056557610116565b80631758078b116100e95780631758078b1461026a57806317d7de7c1461028e5780632e16cab31461030b57806360060ccd1461036f57806369bd26cd1461044057610116565b80630398a6131461011b57806307f24906146101615780630d8e6e2c146101c057806310d1e85c146101de575b600080fd5b61014d6004803603606081101561013157600080fd5b506001600160a01b0381351690602081013590604001356106d2565b604080519115158252519081900360200190f35b6101a7600480360360c081101561017757600080fd5b506001600160a01b0381358116916020810135916040820135916060810135916080820135169060a00135610775565b6040805192835260208301919091528051918290030190f35b6101c8610a55565b6040805160ff9092168252519081900360200190f35b610268600480360360808110156101f457600080fd5b6001600160a01b038235169160208101359160408201359190810190608081016060820135600160201b81111561022a57600080fd5b82018360208201111561023c57600080fd5b803590602001918460018302840111600160201b8311171561025d57600080fd5b509092509050610a5a565b005b610272610cad565b604080516001600160a01b039092168252519081900360200190f35b610296610cbc565b6040805160208082528351818301528351919283929083019185019080838360005b838110156102d05781810151838201526020016102b8565b50505050905090810190601f1680156102fd5780820380516001836020036101000a031916815260200191505b509250505060405180910390f35b610351600480360360c081101561032157600080fd5b506001600160a01b0381358116916020810135916040820135916060810135916080820135169060a00135610cf3565b60408051938452602084019290925282820152519081900360600190f35b6101a7600480360360c081101561038557600080fd5b6001600160a01b03823581169260208101359091169160408201359160608101359181019060a081016080820135600160201b8111156103c457600080fd5b8201836020820111156103d657600080fd5b803590602001918460208302840111600160201b831117156103f757600080fd5b919080806020026020016040519081016040528093929190818152602001838360200280828437600092019190915250929550505090356001600160a01b03169150610d759050565b6102726004803603604081101561045657600080fd5b506001600160a01b0381358116916020013516610dea565b6101a76004803603604081101561048457600080fd5b506001600160a01b038135169060200135610e78565b61014d600480360360608110156104b057600080fd5b506001600160a01b038135169060208101359060400135610ea0565b61014d600480360360c08110156104e257600080fd5b6001600160a01b038235169160208101359160408201359190810190608081016060820135600160201b81111561051857600080fd5b82018360208201111561052a57600080fd5b803590602001918460208302840111600160201b8311171561054b57600080fd5b91935091506001600160a01b0381351690602001356113f5565b6101a7600480360360c081101561057b57600080fd5b6001600160a01b03823581169260208101359091169160408201359160608101359181019060a081016080820135600160201b8111156105ba57600080fd5b8201836020820111156105cc57600080fd5b803590602001918460208302840111600160201b831117156105ed57600080fd5b919080806020026020016040519081016040528093929190818152602001838360200280828437600092019190915250929550505090356001600160a01b031691506114a69050565b61027261151b565b61014d6004803603606081101561065457600080fd5b506001600160a01b03813516906020810135906040013561152a565b6101a76004803603604081101561068657600080fd5b506001600160a01b038135169060200135611937565b610272611953565b610272600480360360408110156106ba57600080fd5b506001600160a01b0381358116916020013516611962565b6000806106e0858533611a49565b91505060006106f0868386610ea0565b905080610736576040805162461bcd60e51b815260206004820152600f60248201526e4552525f464c4153485f434c4f534560881b604482015290519081900360640190fd5b60408051868152905133917f4150f3753a230033657cb8a559a7d2a6a6110a7326d898ac1f07de6ae5c6785b919081900360200190a295945050505050565b600080600260005414156107be576040805162461bcd60e51b815260206004820152601f6024820152600080516020614241833981519152604482015290519081900360640190fd5b60026000819055506000886001600160a01b0316632f310bad6040518163ffffffff1660e01b815260040160206040518083038186803b15801561080157600080fd5b505afa158015610815573d6000803e3d6000fd5b505050506040513d602081101561082b57600080fd5b505160408051632207afe960e11b815290519192506000916001600160a01b038c169163440f5fd2916004808301926020929190829003018186803b15801561087357600080fd5b505afa158015610887573d6000803e3d6000fd5b505050506040513d602081101561089d57600080fd5b5051604080516370a0823160e01b815230600482015290519192506000916001600160a01b038516916370a08231916024808301926020929190829003018186803b1580156108eb57600080fd5b505afa1580156108ff573d6000803e3d6000fd5b505050506040513d602081101561091557600080fd5b5051600354909150600090819061093a906001600160a01b031686868f8f8f8e611b9a565b600154919350915060009061095a906001600160a01b03168f858d611dda565b925050506109f084876001600160a01b03166370a08231306040518263ffffffff1660e01b815260040180826001600160a01b03166001600160a01b0316815260200191505060206040518083038186803b1580156109b857600080fd5b505afa1580156109cc573d6000803e3d6000fd5b505050506040513d60208110156109e257600080fd5b50519063ffffffff61202616565b93508315610a1257610a126001600160a01b0387168b8663ffffffff61206816565b610a2c6001600160a01b0386168b8463ffffffff61206816565b610a3c828263ffffffff6120bf16565b60016000559e939d50929b505050505050505050505050565b600390565b6000336001600160a01b0316630dfe16816040518163ffffffff1660e01b815260040160206040518083038186803b158015610a9557600080fd5b505afa158015610aa9573d6000803e3d6000fd5b505050506040513d6020811015610abf57600080fd5b50516040805163d21220a760e01b81529051919250600091339163d21220a7916004808301926020929190829003018186803b158015610afe57600080fd5b505afa158015610b12573d6000803e3d6000fd5b505050506040513d6020811015610b2857600080fd5b50516002546040805163e6a4390560e01b81526001600160a01b0386811660048301528085166024830152915193945091169163e6a4390591604480820192602092909190829003018186803b158015610b8157600080fd5b505afa158015610b95573d6000803e3d6000fd5b505050506040513d6020811015610bab57600080fd5b50516001600160a01b03163314610bbe57fe5b60006060306001600160a01b03168686604051808383808284376040519201945060009350909150508083038183865af19150503d8060008114610c1e576040519150601f19603f3d011682016040523d82523d6000602084013e610c23565b606091505b5091509150818015610c51575080511580610c515750808060200190516020811015610c4e57600080fd5b50515b610ca2576040805162461bcd60e51b815260206004820152601760248201527f4552525f554e495357415056325f43414c4c5f4641494c000000000000000000604482015290519081900360640190fd5b505050505050505050565b6001546001600160a01b031681565b60408051808201909152601d81527f5072696d69746976655631556e6973776170436f6e6e6563746f723033000000602082015290565b600080600060026000541415610d3e576040805162461bcd60e51b815260206004820152601f6024820152600080516020614241833981519152604482015290519081900360640190fd5b6002600055600354610d5e906001600160a01b03168a8a8a8a8a8a612119565b6001600055919b909a509098509650505050505050565b600354600090819081908190610d99906001600160a01b03168b8b8b8b8b8b6122b2565b6040805183815260208101839052815193955091935033927f3725145ca6a6d192a761e3b6dbcf42cdc13147dd45a65fd1b29737ac584b557e9281900390910190a290999098509650505050505050565b600254604080516364e329cb60e11b81526001600160a01b038581166004830152848116602483015291516000938493169163c9c6539691604480830192602092919082900301818787803b158015610e4257600080fd5b505af1158015610e56573d6000803e3d6000fd5b505050506040513d6020811015610e6c57600080fd5b50519150505b92915050565b6003546000908190610e94906001600160a01b0316858561272a565b915091505b9250929050565b600060026000541415610ee8576040805162461bcd60e51b815260206004820152601f6024820152600080516020614241833981519152604482015290519081900360640190fd5b60026000819055506000846001600160a01b0316632f310bad6040518163ffffffff1660e01b815260040160206040518083038186803b158015610f2b57600080fd5b505afa158015610f3f573d6000803e3d6000fd5b505050506040513d6020811015610f5557600080fd5b505160408051632207afe960e11b815290519192506000916001600160a01b0388169163440f5fd2916004808301926020929190829003018186803b158015610f9d57600080fd5b505afa158015610fb1573d6000803e3d6000fd5b505050506040513d6020811015610fc757600080fd5b50516002546040805163e6a4390560e01b81526001600160a01b03868116600483015280851660248301529151939450600093919092169163e6a43905916044808301926020929190829003018186803b15801561102457600080fd5b505afa158015611038573d6000803e3d6000fd5b505050506040513d602081101561104e57600080fd5b5051604080516002808252606080830184529394509091602083019080388339019050509050828160008151811061108257fe5b60200260200101906001600160a01b031690816001600160a01b03168152505083816001815181106110b057fe5b60200260200101906001600160a01b031690816001600160a01b0316815250506000829050600060405180608001604052806050815260200161428660509139805190602001209050606081858c8c8c883360405160240180876001600160a01b03166001600160a01b03168152602001866001600160a01b03166001600160a01b0316815260200185815260200184815260200180602001836001600160a01b03166001600160a01b03168152602001828103825284818151815260200191508051906020019060200280838360005b83811015611199578181015183820152602001611181565b50505050905001975050505050505050604051602081830303815290604052906001600160e01b0319166020820180516001600160e01b03838183161783525050505090506000876001600160a01b0316846001600160a01b0316630dfe16816040518163ffffffff1660e01b815260040160206040518083038186803b15801561122357600080fd5b505afa158015611237573d6000803e3d6000fd5b505050506040513d602081101561124d57600080fd5b50516001600160a01b031614611264576000611266565b8a5b90506000886001600160a01b0316856001600160a01b0316630dfe16816040518163ffffffff1660e01b815260040160206040518083038186803b1580156112ad57600080fd5b505afa1580156112c1573d6000803e3d6000fd5b505050506040513d60208110156112d757600080fd5b50516001600160a01b0316146112ed578b6112f0565b60005b9050846001600160a01b031663022c0d9f838330876040518563ffffffff1660e01b815260040180858152602001848152602001836001600160a01b03166001600160a01b0316815260200180602001828103825283818151815260200191508051906020019080838360005b8381101561137557818101518382015260200161135d565b50505050905090810190601f1680156113a25780820380516001836020036101000a031916815260200191505b5095505050505050600060405180830381600087803b1580156113c457600080fd5b505af11580156113d8573d6000803e3d6000fd5b505050506001995050505050505050505060016000559392505050565b60006002600054141561143d576040805162461bcd60e51b815260206004820152601f6024820152600080516020614241833981519152604482015290519081900360640190fd5b600260009081556003546040805160208089028281018201909352888252611494936001600160a01b0316928d928d928d928d918d9182918501908490808284376000920191909152508c92508b9150612a549050565b60016000559998505050505050505050565b6003546000908190819081906114ca906001600160a01b03168b8b8b8b8b8b612b37565b6040805183815260208101839052815193955091935033927ff17aa7749e04732ce7bde5ee88376144e6c5669bd4d8c80358119eada62a1d009281900390910190a290999098509650505050505050565b6002546001600160a01b031681565b600060026000541415611572576040805162461bcd60e51b815260206004820152601f6024820152600080516020614241833981519152604482015290519081900360640190fd5b60026000819055506000846001600160a01b0316632f310bad6040518163ffffffff1660e01b815260040160206040518083038186803b1580156115b557600080fd5b505afa1580156115c9573d6000803e3d6000fd5b505050506040513d60208110156115df57600080fd5b505160408051632207afe960e11b815290519192506000916001600160a01b0388169163440f5fd2916004808301926020929190829003018186803b15801561162757600080fd5b505afa15801561163b573d6000803e3d6000fd5b505050506040513d602081101561165157600080fd5b50516002546040805163e6a4390560e01b81526001600160a01b03868116600483015280851660248301529151939450600093919092169163e6a43905916044808301926020929190829003018186803b1580156116ae57600080fd5b505afa1580156116c2573d6000803e3d6000fd5b505050506040513d60208110156116d857600080fd5b5051604080516002808252606080830184529394509091602083019080388339019050509050838160008151811061170c57fe5b60200260200101906001600160a01b031690816001600160a01b031681525050828160018151811061173a57fe5b60200260200101906001600160a01b031690816001600160a01b031681525050600082905060006040518060800160405280605081526020016142f760509139805190602001209050606081858c8c8c883360405160240180876001600160a01b03166001600160a01b03168152602001866001600160a01b03166001600160a01b0316815260200185815260200184815260200180602001836001600160a01b03166001600160a01b03168152602001828103825284818151815260200191508051906020019060200280838360005b8381101561182357818101518382015260200161180b565b50505050905001975050505050505050604051602081830303815290604052906001600160e01b0319166020820180516001600160e01b03838183161783525050505090506000866001600160a01b0316846001600160a01b0316630dfe16816040518163ffffffff1660e01b815260040160206040518083038186803b1580156118ad57600080fd5b505afa1580156118c1573d6000803e3d6000fd5b505050506040513d60208110156118d757600080fd5b50516001600160a01b0316146118ee5760006118f0565b8a5b90506000876001600160a01b0316856001600160a01b0316630dfe16816040518163ffffffff1660e01b815260040160206040518083038186803b1580156112ad57600080fd5b6003546000908190610e94906001600160a01b03168585612f2b565b6003546001600160a01b031681565b6002546040805163e6a4390560e01b81526001600160a01b038581166004830152848116602483015291516000938493169163e6a43905916044808301926020929190829003018186803b1580156119b957600080fd5b505afa1580156119cd573d6000803e3d6000fd5b505050506040513d60208110156119e357600080fd5b505190506001600160a01b038116611a42576040805162461bcd60e51b815260206004820152601760248201527f4552525f504149525f444f45535f4e4f545f4558495354000000000000000000604482015290519081900360640190fd5b9392505050565b60008060008411611a8c576040805162461bcd60e51b81526020600482015260086024820152674552525f5a45524f60c01b604482015290519081900360640190fd5b611b0e338686886001600160a01b031663440f5fd26040518163ffffffff1660e01b815260040160206040518083038186803b158015611acb57600080fd5b505afa158015611adf573d6000803e3d6000fd5b505050506040513d6020811015611af557600080fd5b50516001600160a01b031692919063ffffffff61340916565b60408051633ea6b5f160e21b81526001600160a01b03858116600483015282516000938493928a169263fa9ad7c4926024808301939282900301818787803b158015611b5957600080fd5b505af1158015611b6d573d6000803e3d6000fd5b505050506040513d6040811015611b8357600080fd5b508051602090910151909890975095505050505050565b6000806000896001600160a01b031663c45a01556040518163ffffffff1660e01b815260040160206040518083038186803b158015611bd857600080fd5b505afa158015611bec573d6000803e3d6000fd5b505050506040513d6020811015611c0257600080fd5b50516040805163e6a4390560e01b81526001600160a01b038c811660048301528b811660248301529151919092169163e6a43905916044808301926020929190829003018186803b158015611c5657600080fd5b505afa158015611c6a573d6000803e3d6000fd5b505050506040513d6020811015611c8057600080fd5b50519050611c9f6001600160a01b03821633308a63ffffffff61340916565b6040805163095ea7b360e01b81526001600160a01b038c81166004830152600019602483015291519183169163095ea7b3916044808201926020929091908290030181600087803b158015611cf357600080fd5b505af1158015611d07573d6000803e3d6000fd5b505050506040513d6020811015611d1d57600080fd5b505060408051635d5155ef60e11b81526001600160a01b038b811660048301528a81166024830152604482018a905260648201899052608482018890523060a483015260c4820187905282516000938493928f169263baa2abde9260e4808301939282900301818787803b158015611d9457600080fd5b505af1158015611da8573d6000803e3d6000fd5b505050506040513d6040811015611dbe57600080fd5b508051602090910151909d909c509a5050505050505050505050565b6000806000856001600160a01b031663095ea7b3886000196040518363ffffffff1660e01b815260040180836001600160a01b03166001600160a01b0316815260200182815260200192505050602060405180830381600087803b158015611e4157600080fd5b505af1158015611e55573d6000803e3d6000fd5b505050506040513d6020811015611e6b57600080fd5b505060408051632f310bad60e01b815290516001600160a01b03881691632f310bad916004808301926020929190829003018186803b158015611ead57600080fd5b505afa158015611ec1573d6000803e3d6000fd5b505050506040513d6020811015611ed757600080fd5b50516040805163095ea7b360e01b81526001600160a01b038a8116600483015260001960248301529151919092169163095ea7b39160448083019260209291908290030181600087803b158015611f2d57600080fd5b505af1158015611f41573d6000803e3d6000fd5b505050506040513d6020811015611f5757600080fd5b5060009050611f668787613469565b9050611f836001600160a01b03881633308463ffffffff61340916565b6040805163b8a6bb3b60e01b81526001600160a01b0389811660048301526024820184905287811660448301529151918a169163b8a6bb3b916064808201926060929091908290030181600087803b158015611fde57600080fd5b505af1158015611ff2573d6000803e3d6000fd5b505050506040513d606081101561200857600080fd5b5080516020820151604090920151909a919950975095505050505050565b6000611a4283836040518060400160405280601e81526020017f536166654d6174683a207375627472616374696f6e206f766572666c6f770000815250613559565b604080516001600160a01b038416602482015260448082018490528251808303909101815260649091019091526020810180516001600160e01b031663a9059cbb60e01b1790526120ba9084906135f0565b505050565b600082820183811015611a42576040805162461bcd60e51b815260206004820152601b60248201527f536166654d6174683a206164646974696f6e206f766572666c6f770000000000604482015290519081900360640190fd5b600080600080600080600061212e8d8d6136a1565b91505060008d905060008f90506000826001600160a01b031663440f5fd26040518163ffffffff1660e01b815260040160206040518083038186803b15801561217657600080fd5b505afa15801561218a573d6000803e3d6000fd5b505050506040513d60208110156121a057600080fd5b81019080805190602001909291905050509050600084905060008f905060008f905060008f905060008f905061224087896001600160a01b0316632f310bad6040518163ffffffff1660e01b815260040160206040518083038186803b15801561220957600080fd5b505afa15801561221d573d6000803e3d6000fd5b505050506040513d602081101561223357600080fd5b50518888888888886136dc565b919d509b509950888c1461225057fe5b60008b8511612260576000612270565b612270858d63ffffffff61202616565b90508015612292576122926001600160a01b038816338363ffffffff61206816565b509a9d50989b509699505050505050505050509750975097945050505050565b6000803330146122f8576040805162461bcd60e51b815260206004820152600c60248201526b22a9292fa727aa2fa9a2a62360a11b604482015290519081900360640190fd5b6001600160a01b038316612349576040805162461bcd60e51b81526020600482015260136024820152724552525f544f5f414444524553535f5a45524f60681b604482015290519081900360640190fd5b6001600160a01b03831633141561239b576040805162461bcd60e51b815260206004820152601160248201527022a9292faa27afa6a9a3afa9a2a72222a960791b604482015290519081900360640190fd5b876001600160a01b031661243c8a6001600160a01b031663c45a01556040518163ffffffff1660e01b815260040160206040518083038186803b1580156123e157600080fd5b505afa1580156123f5573d6000803e3d6000fd5b505050506040513d602081101561240b57600080fd5b50518651879060009061241a57fe5b60200260200101518760018151811061242f57fe5b60200260200101516138c5565b6001600160a01b03161461248a576040805162461bcd60e51b815260206004820152601060248201526f22a9292fa4a72b20a624a22fa820a4a960811b604482015290519081900360640190fd5b6000876001600160a01b031663440f5fd26040518163ffffffff1660e01b815260040160206040518083038186803b1580156124c557600080fd5b505afa1580156124d9573d6000803e3d6000fd5b505050506040513d60208110156124ef57600080fd5b505160408051632f310bad60e01b815290519192506000916001600160a01b038b1691632f310bad916004808301926020929190829003018186803b15801561253757600080fd5b505afa15801561254b573d6000803e3d6000fd5b505050506040513d602081101561256157600080fd5b505186519091506001600160a01b038216908790600190811061258057fe5b60200260200101516001600160a01b0316146125e3576040805162461bcd60e51b815260206004820152601760248201527f4552525f454e445f504154485f4e4f545f52454445454d000000000000000000604482015290519081900360640190fd5b60006125f0868b8b613985565b90506000806126008e8d8d61272a565b9092509050811561261e5761261b838363ffffffff61202616565b92505b821561263e5761263e6001600160a01b0386168e8563ffffffff61206816565b80156126aa57818a111561268f576040805162461bcd60e51b815260206004820152601360248201527211549497d39151d05512559157d4105653d555606a1b604482015290519081900360640190fd5b6126aa6001600160a01b038616898f8463ffffffff61340916565b811561271757898210156126fd576040805162461bcd60e51b815260206004820152601560248201527422a9292fa82922a6a4aaa6afaaa72222a92fa6a4a760591b604482015290519081900360640190fd5b6127176001600160a01b038616898463ffffffff61206816565b50909c909b509950505050505050505050565b604080516002808252606080830184526000938493919290602083019080388339019050509050846001600160a01b031663440f5fd26040518163ffffffff1660e01b815260040160206040518083038186803b15801561278a57600080fd5b505afa15801561279e573d6000803e3d6000fd5b505050506040513d60208110156127b457600080fd5b5051815182906000906127c357fe5b60200260200101906001600160a01b031690816001600160a01b031681525050846001600160a01b0316632f310bad6040518163ffffffff1660e01b815260040160206040518083038186803b15801561281c57600080fd5b505afa158015612830573d6000803e3d6000fd5b505050506040513d602081101561284657600080fd5b505181518290600190811061285757fe5b60200260200101906001600160a01b031690816001600160a01b03168152505060006128838686613469565b90506000806060896001600160a01b0316631f00ca7489876040518363ffffffff1660e01b81526004018083815260200180602001828103825283818151815260200191508051906020019060200280838360005b838110156128f05781810151838201526020016128d8565b50505050905001935050505060006040518083038186803b15801561291457600080fd5b505afa158015612928573d6000803e3d6000fd5b505050506040513d6000823e601f3d908101601f19168201604052602081101561295157600080fd5b8101908080516040519392919084600160201b82111561297057600080fd5b90830190602082018581111561298557600080fd5b82518660208202830111600160201b821117156129a157600080fd5b82525081516020918201928201910280838360005b838110156129ce5781810151838201526020016129b6565b5050505090500160405250505090506000816000815181106129ec57fe5b60200260200101519050808511612a04576000612a14565b612a14858263ffffffff61202616565b92506000858211612a26576000612a36565b612a36828763ffffffff61202616565b90508015612a42578094505b50919a92995091975050505050505050565b6000806000612a6389896136a1565b915091506000896001600160a01b0316632f310bad6040518163ffffffff1660e01b815260040160206040518083038186803b158015612aa257600080fd5b505afa158015612ab6573d6000803e3d6000fd5b505050506040513d6020811015612acc57600080fd5b505190506000612ae18c83858c8c8c8c613ab4565b91505080612b28576040805162461bcd60e51b815260206004820152600f60248201526e11549497d4d5d05417d19052531151608a1b604482015290519081900360640190fd5b9b9a5050505050505050505050565b600080333014612b7d576040805162461bcd60e51b815260206004820152600c60248201526b22a9292fa727aa2fa9a2a62360a11b604482015290519081900360640190fd5b6001600160a01b038316612bce576040805162461bcd60e51b81526020600482015260136024820152724552525f544f5f414444524553535f5a45524f60681b604482015290519081900360640190fd5b6001600160a01b038316331415612c20576040805162461bcd60e51b815260206004820152601160248201527022a9292faa27afa6a9a3afa9a2a72222a960791b604482015290519081900360640190fd5b876001600160a01b0316612c668a6001600160a01b031663c45a01556040518163ffffffff1660e01b815260040160206040518083038186803b1580156123e157600080fd5b6001600160a01b031614612cb4576040805162461bcd60e51b815260206004820152601060248201526f22a9292fa4a72b20a624a22fa820a4a960811b604482015290519081900360640190fd5b6000876001600160a01b031663440f5fd26040518163ffffffff1660e01b815260040160206040518083038186803b158015612cef57600080fd5b505afa158015612d03573d6000803e3d6000fd5b505050506040513d6020811015612d1957600080fd5b505160408051632f310bad60e01b815290519192506000916001600160a01b038b1691632f310bad916004808301926020929190829003018186803b158015612d6157600080fd5b505afa158015612d75573d6000803e3d6000fd5b505050506040513d6020811015612d8b57600080fd5b505186519091506001600160a01b0383169087906001908110612daa57fe5b60200260200101516001600160a01b031614612e0d576040805162461bcd60e51b815260206004820152601b60248201527f4552525f454e445f504154485f4e4f545f554e4445524c59494e470000000000604482015290519081900360640190fd5b600080612e1a8b8b613d30565b91509150600080612e2c8f8e8e612f2b565b90925090508015612e4a57612e47838263ffffffff61202616565b92505b8215612e6a57612e6a6001600160a01b0386168f8563ffffffff61206816565b8115612edc57818b1015612ebc576040805162461bcd60e51b815260206004820152601460248201527308aa4a4bea0a48a9a92aa9abe9eac8aa4be9a82b60631b604482015290519081900360640190fd5b612edc898f84896001600160a01b0316613409909392919063ffffffff16565b8015612efc57612efc6001600160a01b0386168a8363ffffffff61206816565b612f166001600160a01b038e168a8663ffffffff61206816565b50919d919c50909a5050505050505050505050565b604080516002808252606080830184526000938493919290602083019080388339019050509050846001600160a01b0316632f310bad6040518163ffffffff1660e01b815260040160206040518083038186803b158015612f8b57600080fd5b505afa158015612f9f573d6000803e3d6000fd5b505050506040513d6020811015612fb557600080fd5b505181518290600090612fc457fe5b60200260200101906001600160a01b031690816001600160a01b031681525050846001600160a01b031663440f5fd26040518163ffffffff1660e01b815260040160206040518083038186803b15801561301d57600080fd5b505afa158015613031573d6000803e3d6000fd5b505050506040513d602081101561304757600080fd5b505181518290600190811061305857fe5b60200260200101906001600160a01b031690816001600160a01b03168152505060006130848686613e39565b90506000806060896001600160a01b0316631f00ca7489876040518363ffffffff1660e01b81526004018083815260200180602001828103825283818151815260200191508051906020019060200280838360005b838110156130f15781810151838201526020016130d9565b50505050905001935050505060006040518083038186803b15801561311557600080fd5b505afa158015613129573d6000803e3d6000fd5b505050506040513d6000823e601f3d908101601f19168201604052602081101561315257600080fd5b8101908080516040519392919084600160201b82111561317157600080fd5b90830190602082018581111561318657600080fd5b82518660208202830111600160201b821117156131a257600080fd5b82525081516020918201928201910280838360005b838110156131cf5781810151838201526020016131b7565b5050505090500160405250505090506000816000815181106131ed57fe5b602002602001015190506000858211613207576000613217565b613217828763ffffffff61202616565b9050818611613227576000613237565b613237868363ffffffff61202616565b935080156133f75760608c6001600160a01b031663d06ca61f838a6040518363ffffffff1660e01b81526004018083815260200180602001828103825283818151815260200191508051906020019060200280838360005b838110156132a757818101518382015260200161328f565b50505050905001935050505060006040518083038186803b1580156132cb57600080fd5b505afa1580156132df573d6000803e3d6000fd5b505050506040513d6000823e601f3d908101601f19168201604052602081101561330857600080fd5b8101908080516040519392919084600160201b82111561332757600080fd5b90830190602082018581111561333c57600080fd5b82518660208202830111600160201b8211171561335857600080fd5b82525081516020918201928201910280838360005b8381101561338557818101518382015260200161336d565b5050505090500160405250505090506133f3620186a06133e76133c761012d856001815181106133b157fe5b6020026020010151613ee790919063ffffffff16565b6133db620186a0866001815181106133b157fe5b9063ffffffff6120bf16565b9063ffffffff613f4016565b9550505b50929a91995090975050505050505050565b604080516001600160a01b0380861660248301528416604482015260648082018490528251808303909101815260849091019091526020810180516001600160e01b03166323b872dd60e01b1790526134639085906135f0565b50505050565b600080613551846001600160a01b031662fe19fa6040518163ffffffff1660e01b815260040160206040518083038186803b1580156134a757600080fd5b505afa1580156134bb573d6000803e3d6000fd5b505050506040513d60208110156134d157600080fd5b5051604080516316b2542760e31b815290516133e7916001600160a01b0389169163b592a13891600480820192602092909190829003018186803b15801561351857600080fd5b505afa15801561352c573d6000803e3d6000fd5b505050506040513d602081101561354257600080fd5b5051869063ffffffff613ee716565b949350505050565b600081848411156135e85760405162461bcd60e51b81526004018080602001828103825283818151815260200191508051906020019080838360005b838110156135ad578181015183820152602001613595565b50505050905090810190601f1680156135da5780820380516001836020036101000a031916815260200191505b509250505060405180910390fd5b505050900390565b6060613645826040518060400160405280602081526020017f5361666545524332303a206c6f772d6c6576656c2063616c6c206661696c6564815250856001600160a01b0316613f829092919063ffffffff16565b8051909150156120ba5780806020019051602081101561366457600080fd5b50516120ba5760405162461bcd60e51b815260040180806020018281038252602a815260200180614347602a913960400191505060405180910390fd5b6000806000806136b2868630611a49565b90925090506136d16001600160a01b038716338763ffffffff61206816565b909590945092505050565b600080806136fb6001600160a01b038a1633308a63ffffffff61340916565b6040805163095ea7b360e01b81526001600160a01b038d8116600483015260001960248301529151918c169163095ea7b3916044808201926020929091908290030181600087803b15801561374f57600080fd5b505af1158015613763573d6000803e3d6000fd5b505050506040513d602081101561377957600080fd5b50506040805163095ea7b360e01b81526001600160a01b038d8116600483015260001960248301529151918b169163095ea7b3916044808201926020929091908290030181600087803b1580156137cf57600080fd5b505af11580156137e3573d6000803e3d6000fd5b505050506040513d60208110156137f957600080fd5b50506040805162e8e33760e81b81526001600160a01b038c811660048301528b81166024830152604482018b9052606482018a9052608482018b905260a4820189905287811660c483015260e482018790529151918d169163e8e3370091610104808201926060929091908290030181600087803b15801561387a57600080fd5b505af115801561388e573d6000803e3d6000fd5b505050506040513d60608110156138a457600080fd5b5080516020820151604090920151909d919c509a5098505050505050505050565b60008060006138d48585613f91565b604080516bffffffffffffffffffffffff19606094851b811660208084019190915293851b81166034830152825160288184030181526048830184528051908501206001600160f81b031960688401529a90941b9093166069840152607d8301989098527f96e8ac4277198ff8b6f785478aa9a39f403cb768dd02cbee326c3e7da348845f609d808401919091528851808403909101815260bd909201909752805196019590952095945050505050565b6000613a078383856001600160a01b0316632f310bad6040518163ffffffff1660e01b815260040160206040518083038186803b1580156139c557600080fd5b505afa1580156139d9573d6000803e3d6000fd5b505050506040513d60208110156139ef57600080fd5b50516001600160a01b0316919063ffffffff61206816565b6000613a138484613469565b9050613a306001600160a01b03851686868463ffffffff61340916565b60408051638349980560e01b815230600482015290516000916001600160a01b0387169163834998059160248082019260609290919082900301818787803b158015613a7b57600080fd5b505af1158015613a8f573d6000803e3d6000fd5b505050506040513d6060811015613aa557600080fd5b50604001519695505050505050565b60606000876001600160a01b031685600081518110613acf57fe5b60200260200101516001600160a01b031614613b2a576040805162461bcd60e51b815260206004820152601560248201527411549497d410551217d3d4151253d397d4d5105495605a1b604482015290519081900360640190fd5b6040805163095ea7b360e01b81526001600160a01b038b8116600483015260001960248301529151918a169163095ea7b3916044808201926020929091908290030181600087803b158015613b7e57600080fd5b505af1158015613b92573d6000803e3d6000fd5b505050506040513d6020811015613ba857600080fd5b50506040516338ed173960e01b815260048101888152602482018890526001600160a01b0386811660648401526084830186905260a060448401908152885160a48501528851918d16936338ed1739938c938c938c938c938c9390929160c401906020878101910280838360005b83811015613c2e578181015183820152602001613c16565b505050509050019650505050505050600060405180830381600087803b158015613c5757600080fd5b505af1158015613c6b573d6000803e3d6000fd5b505050506040513d6000823e601f3d908101601f191682016040526020811015613c9457600080fd5b8101908080516040519392919084600160201b821115613cb357600080fd5b908301906020820185811115613cc857600080fd5b82518660208202830111600160201b82111715613ce457600080fd5b82525081516020918201928201910280838360005b83811015613d11578181015183820152602001613cf9565b5050505090500160405250505091506001905097509795505050505050565b6000806000846001600160a01b031663440f5fd26040518163ffffffff1660e01b815260040160206040518083038186803b158015613d6e57600080fd5b505afa158015613d82573d6000803e3d6000fd5b505050506040513d6020811015613d9857600080fd5b50519050613db66001600160a01b038216868663ffffffff61206816565b60408051633ea6b5f160e21b815230600482015281516001600160a01b0388169263fa9ad7c492602480820193918290030181600087803b158015613dfa57600080fd5b505af1158015613e0e573d6000803e3d6000fd5b505050506040513d6040811015613e2457600080fd5b50805160209091015190969095509350505050565b600080613551846001600160a01b031663b592a1386040518163ffffffff1660e01b815260040160206040518083038186803b158015613e7857600080fd5b505afa158015613e8c573d6000803e3d6000fd5b505050506040513d6020811015613ea257600080fd5b505160408051627f0cfd60e11b815290516133e7916001600160a01b0389169162fe19fa91600480820192602092909190829003018186803b15801561351857600080fd5b600082613ef657506000610e72565b82820282848281613f0357fe5b0414611a425760405162461bcd60e51b81526004018080602001828103825260218152602001806142d66021913960400191505060405180910390fd5b6000611a4283836040518060400160405280601a81526020017f536166654d6174683a206469766973696f6e206279207a65726f000000000000815250614068565b606061355184846000856140cd565b600080826001600160a01b0316846001600160a01b03161415613fe55760405162461bcd60e51b81526004018080602001828103825260258152602001806142616025913960400191505060405180910390fd5b826001600160a01b0316846001600160a01b031610614005578284614008565b83835b90925090506001600160a01b038216610e99576040805162461bcd60e51b815260206004820152601e60248201527f556e697377617056324c6962726172793a205a45524f5f414444524553530000604482015290519081900360640190fd5b600081836140b75760405162461bcd60e51b81526020600482018181528351602484015283519092839260449091019190850190808383600083156135ad578181015183820152602001613595565b5060008385816140c357fe5b0495945050505050565b60606140d88561423a565b614129576040805162461bcd60e51b815260206004820152601d60248201527f416464726573733a2063616c6c20746f206e6f6e2d636f6e7472616374000000604482015290519081900360640190fd5b60006060866001600160a01b031685876040518082805190602001908083835b602083106141685780518252601f199092019160209182019101614149565b6001836020036101000a03801982511681845116808217855250505050505090500191505060006040518083038185875af1925050503d80600081146141ca576040519150601f19603f3d011682016040523d82523d6000602084013e6141cf565b606091505b509150915081156141e35791506135519050565b8051156141f35780518082602001fd5b60405162461bcd60e51b81526020600482018181528651602484015286518793919283926044019190850190808383600083156135ad578181015183820152602001613595565b3b15159056fe5265656e7472616e637947756172643a207265656e7472616e742063616c6c00556e697377617056324c6962726172793a204944454e544943414c5f414444524553534553666c617368436c6f73654c6f6e674f7074696f6e735468656e5377617028616464726573732c616464726573732c75696e743235362c75696e743235362c616464726573735b5d2c6164647265737329536166654d6174683a206d756c7469706c69636174696f6e206f766572666c6f77666c6173684d696e7453686f72744f7074696f6e735468656e5377617028616464726573732c616464726573732c75696e743235362c75696e743235362c616464726573735b5d2c61646472657373295361666545524332303a204552433230206f7065726174696f6e20646964206e6f742073756363656564a2646970667358221220990cac19d97b3e1bc07a78554d03498c600fda74fa65b1243ad83e68ab33c0db64736f6c63430006020033",
  "devdoc": {
    "methods": {
      "addShortLiquidityWithUnderlying(address,uint256,uint256,uint256,address,uint256)": {
        "details": "Adds redeemToken liquidity to a redeem<>token pair by minting shortOptionTokens with underlyingTokens.",
        "params": {
          "amountBMax": "The minimum quantity of shortOptionTokens expected to provide liquidity with.",
          "amountBMin": "The minimum quantity of otherTokens expected to provide liquidity with.",
          "deadline": "The timestamp to expire a pending transaction. \r",
          "optionAddress": "The address of the optionToken to get the redeemToken to mint then provide liquidity for.",
          "quantityOptions": "The quantity of underlyingTokens to use to mint option + redeem tokens.",
          "to": "The address that receives UNI-V2 shares."
        }
      },
      "closeFlashLong(address,uint256,uint256)": {
        "details": "Closes a longOptionToken position by flash swapping in redeemTokens,         closing the option, and paying back in underlyingTokens.",
        "params": {
          "amountRedeems": "The quantity of redeemTokens to borrow to close the options.",
          "minPayout": "The minimum payout of underlyingTokens sent out to the user. \r",
          "optionToken": "The address of the longOptionTokens to close."
        }
      },
      "deployUniswapMarket(address,address)": {
        "details": "Creates a UniswapV2Pair by calling `createPair` on the UniswapV2Factory."
      },
      "flashCloseLongOptionsThenSwap(address,address,uint256,uint256,address[],address)": {
        "details": "Sends shortOptionTokens to msg.sender, and pays back the UniswapV2Pair in underlyingTokens.",
        "params": {
          "flashLoanQuantity": "The quantity of shortOptionTokens borrowed to use to close longOptionTokens.",
          "minPayout": "The minimum payout of underlyingTokens sent to the `to` address.",
          "optionAddress": "The address of the longOptionTokes to close.",
          "pairAddress": "The address of the redeemToken<>underlyingToken UniswapV2Pair contract.",
          "path": "underlyingTokens -> shortOptionTokens, because we are paying the input of underlyingTokens.",
          "to": "The address which is sent the underlyingToken payout, or liable to pay for a negative payout."
        }
      },
      "flashMintShortOptionsThenSwap(address,address,uint256,uint256,address[],address)": {
        "details": "Receives underlyingTokens from a UniswapV2Pair.swap() call from a pair with         reserve0 = shortOptionTokens and reserve1 = underlyingTokens.         Uses underlyingTokens to mint long (option) + short (redeem) tokens.         Sends longOptionTokens to msg.sender, and pays back the UniswapV2Pair the shortOptionTokens,         AND any remainder quantity of underlyingTokens (paid by msg.sender).",
        "params": {
          "flashLoanQuantity": "The quantity of options to mint using borrowed underlyingTokens.",
          "maxPremium": "The maximum quantity of underlyingTokens to pay for the optionTokens.",
          "optionAddress": "The address of the Option contract.",
          "path": "The token addresses to trade through using their Uniswap V2 pools. Assumes path[0] = shortOptionToken.",
          "to": "The address to send the shortOptionToken proceeds and longOptionTokens to."
        },
        "returns": {
          "_0": "success bool Whether the transaction was successful or not. \r"
        }
      },
      "getClosePremium(address,uint256)": {
        "details": "Gets the total premium payout to sell long option tokens proportional to `quantity` of `shortOptionToken`s.",
        "params": {
          "optionToken": "The option to get the close premium of.",
          "quantityShort": "The quantity of short option tokens that will be closed."
        },
        "returns": {
          "_0": "premiumPayout, premumCost"
        }
      },
      "getName()": {
        "details": "Gets the name of the contract."
      },
      "getOpenPremium(address,uint256)": {
        "details": "Gets the total premium cost to buy `quantity` of `optionToken`s.",
        "params": {
          "optionToken": "The option to get the close premium of.",
          "quantityLong": "The quantity of long option tokens that will be closed."
        },
        "returns": {
          "_0": "premiumCost, premiumPayout"
        }
      },
      "getUniswapMarketForTokens(address,address)": {
        "details": "Gets a UniswapV2Pair address for two tokens by calling the UniswapV2Factory."
      },
      "getVersion()": {
        "details": "Gets the version of the contract."
      },
      "mintOptionsThenFlashCloseLong(address,uint256,uint256)": {
        "details": "Write options by minting option tokens and selling the long option tokens for premium.",
        "params": {
          "minPayout": "The minimum amount of underlyingTokens to receive from selling long option tokens.",
          "optionToken": "The option contract to underwrite.",
          "writeQuantity": "The quantity of option tokens to write and equally, the quantity of underlyings to deposit."
        }
      },
      "mintShortOptionsThenSwapToTokens(address,uint256,uint256,address[],address,uint256)": {
        "details": "Mints long + short option tokens, then swaps the shortOptionTokens (redeem) for tokens.",
        "params": {
          "amountIn": "The quantity of options to mint.",
          "amountOutMin": "The minimum quantity of tokens to receive in exchange for the shortOptionTokens.",
          "deadline": "The timestamp for a trade to fail at if not successful.",
          "optionToken": "The address of the Option contract.",
          "path": "The token addresses to trade through using their Uniswap V2 pools. Assumes path[0] = shortOptionToken.",
          "to": "The address to send the shortOptionToken proceeds and longOptionTokens to."
        },
        "returns": {
          "_0": "bool Whether the transaction was successful or not. \r"
        }
      },
      "openFlashLong(address,uint256,uint256)": {
        "details": "Opens a longOptionToken position by minting long + short tokens, then selling the short tokens.",
        "params": {
          "amountOptions": "The quantity of longOptionTokens to purchase.",
          "maxPremium": "The maximum quantity of underlyingTokens to pay for the optionTokens. \r",
          "optionToken": "The option address."
        }
      },
      "removeShortLiquidityThenCloseOptions(address,uint256,uint256,uint256,address,uint256)": {
        "details": "Combines Uniswap V2 Router \"removeLiquidity\" function with Primitive \"closeOptions\" function.",
        "params": {
          "amountAMin": "The minimum quantity of shortOptionTokens to receive from removing liquidity.",
          "amountBMin": "The minimum quantity of underlyingTokens to receive from removing liquidity.",
          "deadline": "The timestamp to expire a pending transaction. \r",
          "liquidity": "The quantity of liquidity tokens to pull from msg.sender and burn.",
          "optionAddress": "The address of the option that will be closed from burned UNI-V2 liquidity shares.",
          "to": "The address that receives underlyingTokens from burned UNI-V2, and underlyingTokens from closed options."
        }
      },
      "uniswapV2Call(address,uint256,uint256,bytes)": {
        "details": "The callback function triggered in a UniswapV2Pair.swap() call when the `data` parameter has data.",
        "params": {
          "amount0": "The quantity of token0 received to the `to` address in the swap() call.",
          "amount1": "The quantity of token1 received to the `to` address in the swap() call.",
          "data": "The payload passed in the `data` parameter of the swap() call. \r",
          "sender": "The original msg.sender of the UniswapV2Pair.swap() call."
        }
      }
    }
  },
  "userdoc": {
    "methods": {
      "addShortLiquidityWithUnderlying(address,uint256,uint256,uint256,address,uint256)": {
        "notice": "Pulls underlying tokens from msg.sender and pushes UNI-V2 liquidity tokens to the \"to\" address.         underlyingToken -> redeemToken -> UNI-V2."
      },
      "closeFlashLong(address,uint256,uint256)": {
        "notice": "IMPORTANT: If minPayout is 0, this function will cost the caller to close the option, for no gain."
      },
      "flashCloseLongOptionsThenSwap(address,address,uint256,uint256,address[],address)": {
        "notice": "IMPORTANT: If minPayout is 0, the `to` address is liable for negative payouts *if* that occurs."
      },
      "flashMintShortOptionsThenSwap(address,address,uint256,uint256,address[],address)": {
        "notice": "If the first address in the path is not the shortOptionToken address, the tx will fail."
      },
      "getClosePremium(address,uint256)": {
        "notice": "Also gets the cost, a negative payout, which will be 0 unless the reserve ratio is incorrectly set."
      },
      "getOpenPremium(address,uint256)": {
        "notice": "Also returns the negative premium, which will be 0 in most cases."
      },
      "mintOptionsThenFlashCloseLong(address,uint256,uint256)": {
        "notice": "IMPORTANT: if `minPayout` is 0, this function can cost the caller `underlyingToken`s."
      },
      "mintShortOptionsThenSwapToTokens(address,uint256,uint256,address[],address,uint256)": {
        "notice": "If the first address in the path is not the shortOptionToken address, the tx will fail.         underlyingToken -> shortOptionToken -> quoteToken.         IMPORTANT: redeemTokens = shortOptionTokens"
      },
      "openFlashLong(address,uint256,uint256)": {
        "notice": "IMPORTANT: amountOutMin parameter is the price to swap shortOptionTokens to underlyingTokens.         IMPORTANT: If the ratio between shortOptionTokens and underlyingTokens is 1:1, then only the swap fee (0.30%) has to be paid."
      },
      "removeShortLiquidityThenCloseOptions(address,uint256,uint256,uint256,address,uint256)": {
        "notice": "Pulls UNI-V2 liquidity shares with shortOption<>underlying token, and optionTokens from msg.sender.         Then closes the longOptionTokens and withdraws underlyingTokens to the \"to\" address.         Sends underlyingTokens from the burned UNI-V2 liquidity shares to the \"to\" address.         UNI-V2 -> optionToken -> underlyingToken."
      }
    }
  },
  "storageLayout": {
    "storage": [
      {
        "astId": 1174,
        "contract": "contracts/UniswapConnector03.sol:UniswapConnector03",
        "label": "_status",
        "offset": 0,
        "slot": "0",
        "type": "t_uint256"
      },
      {
        "astId": 2619,
        "contract": "contracts/UniswapConnector03.sol:UniswapConnector03",
        "label": "trader",
        "offset": 0,
        "slot": "1",
        "type": "t_contract(ITrader)1405"
      },
      {
        "astId": 2622,
        "contract": "contracts/UniswapConnector03.sol:UniswapConnector03",
        "label": "factory",
        "offset": 0,
        "slot": "2",
        "type": "t_contract(IUniswapV2Factory)1942"
      },
      {
        "astId": 2625,
        "contract": "contracts/UniswapConnector03.sol:UniswapConnector03",
        "label": "router",
        "offset": 0,
        "slot": "3",
        "type": "t_contract(IUniswapV2Router02)2580"
      }
    ],
    "types": {
      "t_contract(ITrader)1405": {
        "encoding": "inplace",
        "label": "contract ITrader",
        "numberOfBytes": "20"
      },
      "t_contract(IUniswapV2Factory)1942": {
        "encoding": "inplace",
        "label": "contract IUniswapV2Factory",
        "numberOfBytes": "20"
      },
      "t_contract(IUniswapV2Router02)2580": {
        "encoding": "inplace",
        "label": "contract IUniswapV2Router02",
        "numberOfBytes": "20"
      },
      "t_uint256": {
        "encoding": "inplace",
        "label": "uint256",
        "numberOfBytes": "32"
      }
    }
  }
}