{
  "address": "0xBdaD00110d061D936289474dA2Ca8EB6A0a6532d",
  "abi": [
    {
      "inputs": [
        {
          "internalType": "address",
          "name": "weth_",
          "type": "address"
        },
        {
          "internalType": "address",
          "name": "primitiveRouter_",
          "type": "address"
        },
        {
          "internalType": "address",
          "name": "factory_",
          "type": "address"
        },
        {
          "internalType": "address",
          "name": "router_",
          "type": "address"
        }
      ],
      "stateMutability": "nonpayable",
      "type": "constructor"
    },
    {
      "anonymous": false,
      "inputs": [
        {
          "indexed": true,
          "internalType": "address",
          "name": "from",
          "type": "address"
        },
        {
          "indexed": true,
          "internalType": "address",
          "name": "option",
          "type": "address"
        },
        {
          "indexed": false,
          "internalType": "uint256",
          "name": "quantity",
          "type": "uint256"
        },
        {
          "indexed": false,
          "internalType": "uint256",
          "name": "premium",
          "type": "uint256"
        }
      ],
      "name": "Buy",
      "type": "event"
    },
    {
      "anonymous": false,
      "inputs": [
        {
          "indexed": true,
          "internalType": "address",
          "name": "from",
          "type": "address"
        }
      ],
      "name": "Initialized",
      "type": "event"
    },
    {
      "anonymous": false,
      "inputs": [
        {
          "indexed": true,
          "internalType": "address",
          "name": "from",
          "type": "address"
        },
        {
          "indexed": true,
          "internalType": "address",
          "name": "option",
          "type": "address"
        },
        {
          "indexed": false,
          "internalType": "uint256",
          "name": "quantity",
          "type": "uint256"
        },
        {
          "indexed": false,
          "internalType": "uint256",
          "name": "payout",
          "type": "uint256"
        }
      ],
      "name": "Sell",
      "type": "event"
    },
    {
      "inputs": [
        {
          "internalType": "address",
          "name": "token",
          "type": "address"
        },
        {
          "internalType": "address",
          "name": "spender",
          "type": "address"
        }
      ],
      "name": "checkApproval",
      "outputs": [
        {
          "internalType": "bool",
          "name": "",
          "type": "bool"
        }
      ],
      "stateMutability": "nonpayable",
      "type": "function"
    },
    {
      "inputs": [
        {
          "internalType": "contract IOption",
          "name": "optionToken",
          "type": "address"
        },
        {
          "internalType": "uint256",
          "name": "amountRedeems",
          "type": "uint256"
        },
        {
          "internalType": "uint256",
          "name": "minPayout",
          "type": "uint256"
        }
      ],
      "name": "closeFlashLong",
      "outputs": [
        {
          "internalType": "bool",
          "name": "",
          "type": "bool"
        }
      ],
      "stateMutability": "nonpayable",
      "type": "function"
    },
    {
      "inputs": [
        {
          "internalType": "contract IOption",
          "name": "optionToken",
          "type": "address"
        },
        {
          "internalType": "uint256",
          "name": "amountRedeems",
          "type": "uint256"
        },
        {
          "internalType": "uint256",
          "name": "minPayout",
          "type": "uint256"
        }
      ],
      "name": "closeFlashLongForETH",
      "outputs": [
        {
          "internalType": "bool",
          "name": "",
          "type": "bool"
        }
      ],
      "stateMutability": "nonpayable",
      "type": "function"
    },
    {
      "inputs": [
        {
          "internalType": "address",
          "name": "optionAddress",
          "type": "address"
        },
        {
          "internalType": "uint256",
          "name": "flashLoanQuantity",
          "type": "uint256"
        },
        {
          "internalType": "uint256",
          "name": "minPayout",
          "type": "uint256"
        }
      ],
      "name": "flashCloseLongOptionsThenSwap",
      "outputs": [
        {
          "internalType": "uint256",
          "name": "",
          "type": "uint256"
        },
        {
          "internalType": "uint256",
          "name": "",
          "type": "uint256"
        }
      ],
      "stateMutability": "nonpayable",
      "type": "function"
    },
    {
      "inputs": [
        {
          "internalType": "address",
          "name": "optionAddress",
          "type": "address"
        },
        {
          "internalType": "uint256",
          "name": "flashLoanQuantity",
          "type": "uint256"
        },
        {
          "internalType": "uint256",
          "name": "minPayout",
          "type": "uint256"
        }
      ],
      "name": "flashCloseLongOptionsThenSwapForETH",
      "outputs": [
        {
          "internalType": "uint256",
          "name": "",
          "type": "uint256"
        },
        {
          "internalType": "uint256",
          "name": "",
          "type": "uint256"
        }
      ],
      "stateMutability": "nonpayable",
      "type": "function"
    },
    {
      "inputs": [
        {
          "internalType": "address",
          "name": "optionAddress",
          "type": "address"
        },
        {
          "internalType": "uint256",
          "name": "quantity",
          "type": "uint256"
        },
        {
          "internalType": "uint256",
          "name": "maxPremium",
          "type": "uint256"
        }
      ],
      "name": "flashMintShortOptionsThenSwap",
      "outputs": [
        {
          "internalType": "uint256",
          "name": "",
          "type": "uint256"
        },
        {
          "internalType": "uint256",
          "name": "",
          "type": "uint256"
        }
      ],
      "stateMutability": "nonpayable",
      "type": "function"
    },
    {
      "inputs": [
        {
          "internalType": "address",
          "name": "optionAddress",
          "type": "address"
        },
        {
          "internalType": "uint256",
          "name": "quantity",
          "type": "uint256"
        },
        {
          "internalType": "uint256",
          "name": "maxPremium",
          "type": "uint256"
        }
      ],
      "name": "flashMintShortOptionsThenSwapWithETH",
      "outputs": [
        {
          "internalType": "uint256",
          "name": "",
          "type": "uint256"
        },
        {
          "internalType": "uint256",
          "name": "",
          "type": "uint256"
        }
      ],
      "stateMutability": "nonpayable",
      "type": "function"
    },
    {
      "inputs": [],
      "name": "getCaller",
      "outputs": [
        {
          "internalType": "address",
          "name": "",
          "type": "address"
        }
      ],
      "stateMutability": "view",
      "type": "function"
    },
    {
      "inputs": [
        {
          "internalType": "contract IOption",
          "name": "optionToken",
          "type": "address"
        },
        {
          "internalType": "uint256",
          "name": "quantity",
          "type": "uint256"
        }
      ],
      "name": "getClosePremium",
      "outputs": [
        {
          "internalType": "uint256",
          "name": "",
          "type": "uint256"
        },
        {
          "internalType": "uint256",
          "name": "",
          "type": "uint256"
        }
      ],
      "stateMutability": "view",
      "type": "function"
    },
    {
      "inputs": [],
      "name": "getFactory",
      "outputs": [
        {
          "internalType": "contract IUniswapV2Factory",
          "name": "",
          "type": "address"
        }
      ],
      "stateMutability": "view",
      "type": "function"
    },
    {
      "inputs": [
        {
          "internalType": "contract IOption",
          "name": "optionToken",
          "type": "address"
        },
        {
          "internalType": "uint256",
          "name": "quantity",
          "type": "uint256"
        }
      ],
      "name": "getOpenPremium",
      "outputs": [
        {
          "internalType": "uint256",
          "name": "",
          "type": "uint256"
        },
        {
          "internalType": "uint256",
          "name": "",
          "type": "uint256"
        }
      ],
      "stateMutability": "view",
      "type": "function"
    },
    {
      "inputs": [
        {
          "internalType": "contract IOption",
          "name": "option",
          "type": "address"
        }
      ],
      "name": "getOptionPair",
      "outputs": [
        {
          "internalType": "contract IUniswapV2Pair",
          "name": "",
          "type": "address"
        },
        {
          "internalType": "address",
          "name": "",
          "type": "address"
        },
        {
          "internalType": "address",
          "name": "",
          "type": "address"
        }
      ],
      "stateMutability": "view",
      "type": "function"
    },
    {
      "inputs": [],
      "name": "getPrimitiveRouter",
      "outputs": [
        {
          "internalType": "contract IPrimitiveRouter",
          "name": "",
          "type": "address"
        }
      ],
      "stateMutability": "view",
      "type": "function"
    },
    {
      "inputs": [],
      "name": "getRouter",
      "outputs": [
        {
          "internalType": "contract IUniswapV2Router02",
          "name": "",
          "type": "address"
        }
      ],
      "stateMutability": "view",
      "type": "function"
    },
    {
      "inputs": [],
      "name": "getWeth",
      "outputs": [
        {
          "internalType": "contract IWETH",
          "name": "",
          "type": "address"
        }
      ],
      "stateMutability": "view",
      "type": "function"
    },
    {
      "inputs": [
        {
          "internalType": "address",
          "name": "token",
          "type": "address"
        },
        {
          "internalType": "address",
          "name": "spender",
          "type": "address"
        }
      ],
      "name": "isApproved",
      "outputs": [
        {
          "internalType": "bool",
          "name": "",
          "type": "bool"
        }
      ],
      "stateMutability": "view",
      "type": "function"
    },
    {
      "inputs": [
        {
          "internalType": "contract IOption",
          "name": "optionToken",
          "type": "address"
        },
        {
          "internalType": "uint256",
          "name": "amountOptions",
          "type": "uint256"
        },
        {
          "internalType": "uint256",
          "name": "maxPremium",
          "type": "uint256"
        }
      ],
      "name": "openFlashLong",
      "outputs": [
        {
          "internalType": "bool",
          "name": "",
          "type": "bool"
        }
      ],
      "stateMutability": "nonpayable",
      "type": "function"
    },
    {
      "inputs": [
        {
          "internalType": "contract IOption",
          "name": "optionToken",
          "type": "address"
        },
        {
          "internalType": "uint256",
          "name": "amountOptions",
          "type": "uint256"
        },
        {
          "internalType": "uint256",
          "name": "maxPremium",
          "type": "uint256"
        },
        {
          "internalType": "uint256",
          "name": "deadline",
          "type": "uint256"
        },
        {
          "internalType": "uint8",
          "name": "v",
          "type": "uint8"
        },
        {
          "internalType": "bytes32",
          "name": "r",
          "type": "bytes32"
        },
        {
          "internalType": "bytes32",
          "name": "s",
          "type": "bytes32"
        }
      ],
      "name": "openFlashLongWithDAIPermit",
      "outputs": [
        {
          "internalType": "bool",
          "name": "",
          "type": "bool"
        }
      ],
      "stateMutability": "nonpayable",
      "type": "function"
    },
    {
      "inputs": [
        {
          "internalType": "contract IOption",
          "name": "optionToken",
          "type": "address"
        },
        {
          "internalType": "uint256",
          "name": "amountOptions",
          "type": "uint256"
        }
      ],
      "name": "openFlashLongWithETH",
      "outputs": [
        {
          "internalType": "bool",
          "name": "",
          "type": "bool"
        }
      ],
      "stateMutability": "payable",
      "type": "function"
    },
    {
      "inputs": [
        {
          "internalType": "contract IOption",
          "name": "optionToken",
          "type": "address"
        },
        {
          "internalType": "uint256",
          "name": "amountOptions",
          "type": "uint256"
        },
        {
          "internalType": "uint256",
          "name": "maxPremium",
          "type": "uint256"
        },
        {
          "internalType": "uint256",
          "name": "deadline",
          "type": "uint256"
        },
        {
          "internalType": "uint8",
          "name": "v",
          "type": "uint8"
        },
        {
          "internalType": "bytes32",
          "name": "r",
          "type": "bytes32"
        },
        {
          "internalType": "bytes32",
          "name": "s",
          "type": "bytes32"
        }
      ],
      "name": "openFlashLongWithPermit",
      "outputs": [
        {
          "internalType": "bool",
          "name": "",
          "type": "bool"
        }
      ],
      "stateMutability": "nonpayable",
      "type": "function"
    },
    {
      "inputs": [
        {
          "internalType": "address",
          "name": "sender",
          "type": "address"
        },
        {
          "internalType": "uint256",
          "name": "amount0",
          "type": "uint256"
        },
        {
          "internalType": "uint256",
          "name": "amount1",
          "type": "uint256"
        },
        {
          "internalType": "bytes",
          "name": "data",
          "type": "bytes"
        }
      ],
      "name": "uniswapV2Call",
      "outputs": [],
      "stateMutability": "nonpayable",
      "type": "function"
    },
    {
      "stateMutability": "payable",
      "type": "receive"
    }
  ],
  "transactionHash": "0x0611829fdd2a3c739c64e7e7135770e1175bc06136e6aa93838c5fe038c45a4a",
  "args": [
    "0xc45c339313533a6c9B05184CD8B5486BC53F75Fb",
    "0xF830a17f27bbb95c229936C269673B8Ed139ee3c",
    "0xC0AEe478e3658e2610c5F7A4A2E1777cE9e4f2Ac",
    "0xd9e1cE17f2641f24aE83637ab66a2cca9C378B9F"
  ],
  "solcInputHash": "4eafe5de9a207718883f78196de74c47",
  "bytecode": "0x60806040523480156200001157600080fd5b50604051620044de380380620044de833981810160405260808110156200003757600080fd5b50805160208201516040830151606090930151600080546001600160a01b038086166001600160a01b03199283161790925560018054928516929091169190911790559192909183836200009582826001600160e01b036200011f16565b5050600160035550600480546001600160a01b038085166001600160a01b0319928316179092556005805492841692909116919091179055620000e06001600160e01b03620001b016565b6001600160a01b03167f908408e307fc569b417f6cbec5d5a06f44a0a505ac0479b47d421a4b2fd6a1e660405160405180910390a2505050506200057d565b6001600160a01b03808316600090815260026020908152604080832093851683529290529081205460ff16620001a7576200017682600019856001600160a01b0316620001b460201b62002a38179092919060201c565b6001600160a01b038084166000908152600260209081526040808320938616835292905220805460ff191660011790555b50600192915050565b3390565b8015806200023e575060408051636eb1769f60e11b81523060048201526001600160a01b03848116602483015291519185169163dd62ed3e91604480820192602092909190829003018186803b1580156200020e57600080fd5b505afa15801562000223573d6000803e3d6000fd5b505050506040513d60208110156200023a57600080fd5b5051155b6200027b5760405162461bcd60e51b8152600401808060200182810382526036815260200180620044a86036913960400191505060405180910390fd5b604080516001600160a01b038416602482015260448082018490528251808303909101815260649091019091526020810180516001600160e01b0390811663095ea7b360e01b17909152620002d3918591620002d816565b505050565b606062000334826040518060400160405280602081526020017f5361666545524332303a206c6f772d6c6576656c2063616c6c206661696c6564815250856001600160a01b03166200039460201b62003b2e179092919060201c565b805190915015620002d3578080602001905160208110156200035557600080fd5b5051620002d35760405162461bcd60e51b815260040180806020018281038252602a8152602001806200447e602a913960400191505060405180910390fd5b6060620003ae84846000856001600160e01b03620003b616565b949350505050565b6060620003cc856001600160e01b036200057716565b6200041e576040805162461bcd60e51b815260206004820152601d60248201527f416464726573733a2063616c6c20746f206e6f6e2d636f6e7472616374000000604482015290519081900360640190fd5b60006060866001600160a01b031685876040518082805190602001908083835b602083106200045f5780518252601f1990920191602091820191016200043e565b6001836020036101000a03801982511681845116808217855250505050505090500191505060006040518083038185875af1925050503d8060008114620004c3576040519150601f19603f3d011682016040523d82523d6000602084013e620004c8565b606091505b50915091508115620004de579150620003ae9050565b805115620004ef5780518082602001fd5b8360405162461bcd60e51b81526004018080602001828103825283818151815260200191508051906020019080838360005b838110156200053b57818101518382015260200162000521565b50505050905090810190601f168015620005695780820380516001836020036101000a031916815260200191505b509250505060405180910390fd5b3b151590565b613ef1806200058d6000396000f3fe60806040526004361061012e5760003560e01c8063904f91dc116100ab578063b09a828a1161006f578063b09a828a1461054f578063b0f479a11461057b578063cd04552414610590578063d2f9ff9d146105cf578063dd2c704e1461060e578063fc7aab0a1461064757610159565b8063904f91dc146104485780639245d58314610481578063a389783e146104c0578063a74528a5146104fb578063ab470f051461053a57610159565b806344534d57116100f257806344534d57146102ec5780635cda4b41146103445780635cda7b871461037f57806367ca0bc3146103d957806388cc58e41461043357610159565b8063107c279f1461015e57806310d1e85c1461018f57806320af09621461022657806322ef3f851461027957806327fb8380146102d757610159565b36610159576000546001600160a01b0316610147610686565b6001600160a01b03161461015757fe5b005b600080fd5b34801561016a57600080fd5b5061017361068b565b604080516001600160a01b039092168252519081900360200190f35b34801561019b57600080fd5b50610157600480360360808110156101b257600080fd5b6001600160a01b038235169160208101359160408201359190810190608081016060820135600160201b8111156101e857600080fd5b8201836020820111156101fa57600080fd5b803590602001918460018302840111600160201b8311171561021b57600080fd5b50909250905061069a565b34801561023257600080fd5b506102656004803603606081101561024957600080fd5b506001600160a01b038135169060208101359060400135610988565b604080519115158252519081900360200190f35b34801561028557600080fd5b506102ac6004803603602081101561029c57600080fd5b50356001600160a01b0316610b35565b604080516001600160a01b039485168152928416602084015292168183015290519081900360600190f35b3480156102e357600080fd5b50610173610caa565b3480156102f857600080fd5b5061032b6004803603606081101561030f57600080fd5b506001600160a01b038135169060208101359060400135610cb9565b6040805192835260208301919091528051918290030190f35b34801561035057600080fd5b506102656004803603604081101561036757600080fd5b506001600160a01b0381358116916020013516610f91565b34801561038b57600080fd5b50610265600480360360e08110156103a257600080fd5b506001600160a01b038135169060208101359060408101359060608101359060ff6080820135169060a08101359060c00135611017565b3480156103e557600080fd5b50610265600480360360e08110156103fc57600080fd5b506001600160a01b038135169060208101359060408101359060608101359060ff6080820135169060a08101359060c00135611313565b34801561043f57600080fd5b506101736114ba565b34801561045457600080fd5b5061032b6004803603604081101561046b57600080fd5b506001600160a01b0381351690602001356114c9565b34801561048d57600080fd5b50610265600480360360608110156104a457600080fd5b506001600160a01b0381351690602081013590604001356114f0565b3480156104cc57600080fd5b50610265600480360360408110156104e357600080fd5b506001600160a01b0381358116916020013516611689565b34801561050757600080fd5b5061032b6004803603606081101561051e57600080fd5b506001600160a01b0381351690602081013590604001356116b7565b34801561054657600080fd5b506101736119cf565b6102656004803603604081101561056557600080fd5b506001600160a01b038135169060200135611a45565b34801561058757600080fd5b50610173611c3f565b34801561059c57600080fd5b50610265600480360360608110156105b357600080fd5b506001600160a01b038135169060208101359060400135611c4e565b3480156105db57600080fd5b5061032b600480360360608110156105f257600080fd5b506001600160a01b038135169060208101359060400135611de7565b34801561061a57600080fd5b5061032b6004803603604081101561063157600080fd5b506001600160a01b038135169060200135612123565b34801561065357600080fd5b5061032b6004803603606081101561066a57600080fd5b506001600160a01b03813516906020810135906040013561213f565b335b90565b6000546001600160a01b031690565b6004546001600160a01b031663e6a439056106b3610686565b6001600160a01b0316630dfe16816040518163ffffffff1660e01b815260040160206040518083038186803b1580156106eb57600080fd5b505afa1580156106ff573d6000803e3d6000fd5b505050506040513d602081101561071557600080fd5b505161071f610686565b6001600160a01b031663d21220a76040518163ffffffff1660e01b815260040160206040518083038186803b15801561075757600080fd5b505afa15801561076b573d6000803e3d6000fd5b505050506040513d602081101561078157600080fd5b5051604080516001600160e01b031960e086901b1681526001600160a01b039384166004820152929091166024830152516044808301926020929190829003018186803b1580156107d157600080fd5b505afa1580156107e5573d6000803e3d6000fd5b505050506040513d60208110156107fb57600080fd5b50516001600160a01b031661080e610686565b6001600160a01b03161461081e57fe5b6001600160a01b038516301461087b576040805162461bcd60e51b815260206004820152601a60248201527f5072696d697469766553776170733a204e4f545f53454e444552000000000000604482015290519081900360640190fd5b60006060306001600160a01b03168484604051808383808284376040519201945060009350909150508083038183865af19150503d80600081146108db576040519150601f19603f3d011682016040523d82523d6000602084013e6108e0565b606091505b50915091506000808280602001905160408110156108fd57600080fd5b508051602090910151909250905083801561092c5750825115806109215750600082115b8061092c5750600081115b61097d576040805162461bcd60e51b815260206004820152601860248201527f5072696d697469766553776170733a2043414c4c4241434b0000000000000000604482015290519081900360640190fd5b505050505050505050565b6000600260035414156109d0576040805162461bcd60e51b815260206004820152601f6024820152600080516020613d16833981519152604482015290519081900360640190fd5b6002600355600154604080516394669bf560e01b81526001600160a01b0380881660048301529151879392909216916394669bf591602480820192602092909190829003018186803b158015610a2557600080fd5b505afa158015610a39573d6000803e3d6000fd5b505050506040513d6020811015610a4f57600080fd5b5051610a90576040805162461bcd60e51b815260206004820152601b6024820152600080516020613d8d833981519152604482015290519081900360640190fd5b600080610a9c87610b35565b9250509150610b218282886040518060600160405280603c8152602001613dad603c91398051602091820120604080516001600160a01b038f166024820152604481018e905260648082018e905282518083039091018152608490910190915291820180516001600160e01b03166001600160e01b031990921691909117905261231c565b506001935050505060016003559392505050565b600080600080846001600160a01b0316632f310bad6040518163ffffffff1660e01b815260040160206040518083038186803b158015610b7457600080fd5b505afa158015610b88573d6000803e3d6000fd5b505050506040513d6020811015610b9e57600080fd5b505160408051632207afe960e11b815290519192506000916001600160a01b0388169163440f5fd2916004808301926020929190829003018186803b158015610be657600080fd5b505afa158015610bfa573d6000803e3d6000fd5b505050506040513d6020811015610c1057600080fd5b5051600480546040805163e6a4390560e01b81526001600160a01b038781169482019490945283851660248201529051939450600093929091169163e6a4390591604480820192602092909190829003018186803b158015610c7157600080fd5b505afa158015610c85573d6000803e3d6000fd5b505050506040513d6020811015610c9b57600080fd5b50519791965091945092505050565b6001546001600160a01b031690565b60008030610cc5610686565b6001600160a01b031614610d1b576040805162461bcd60e51b8152602060048201526018602482015277283934b6b4ba34bb32a9bbb0b8399d102727aa2fa9a2a62360411b604482015290519081900360640190fd5b600154604080516394669bf560e01b81526001600160a01b0380891660048301529151889392909216916394669bf591602480820192602092909190829003018186803b158015610d6b57600080fd5b505afa158015610d7f573d6000803e3d6000fd5b505050506040513d6020811015610d9557600080fd5b5051610dd6576040805162461bcd60e51b815260206004820152601b6024820152600080516020613d8d833981519152604482015290519081900360640190fd5b8560008080610de484610b35565b9250925092506000610df58561252a565b60055490915060009081908190610e16906001600160a01b0316898f6127f2565b919450925090508215610e3657610e33848463ffffffff61283e16565b91505b8115610e5657610e566001600160a01b038716888463ffffffff61288716565b8015610ebe57828c1115610eb1576040805162461bcd60e51b815260206004820152601f60248201527f5072696d697469766553776170733a204e454741544956455f5041594f555400604482015290519081900360640190fd5b610ebc8682896128de565b505b8215610f24578b831015610f19576040805162461bcd60e51b815260206004820152601b60248201527f5072696d697469766553776170733a204d494e5f5052454d49554d0000000000604482015290519081900360640190fd5b610f2286612984565b505b8d6001600160a01b0316610f366119cf565b6001600160a01b03167fa082022e93cfcd9f1da5f9236718053910f7e840da080c789c7845698dc032ff8f86604051808381526020018281526020019250505060405180910390a350909c909b509950505050505050505050565b6001600160a01b03808316600090815260026020908152604080832093851683529290529081205460ff1661100d57610fdc6001600160a01b0384168360001963ffffffff612a3816565b6001600160a01b038084166000908152600260209081526040808320938616835292905220805460ff191660011790555b5060015b92915050565b60006002600354141561105f576040805162461bcd60e51b815260206004820152601f6024820152600080516020613d16833981519152604482015290519081900360640190fd5b6002600355600154604080516394669bf560e01b81526001600160a01b03808c16600483015291518b9392909216916394669bf591602480820192602092909190829003018186803b1580156110b457600080fd5b505afa1580156110c8573d6000803e3d6000fd5b505050506040513d60208110156110de57600080fd5b505161111f576040805162461bcd60e51b815260206004820152601b6024820152600080516020613d8d833981519152604482015290519081900360640190fd5b60008061112b8b610b35565b5091509150806001600160a01b0316638fcbaf0c6111476119cf565b6001546001600160a01b03908116908516637ecebe006111656119cf565b6040518263ffffffff1660e01b815260040180826001600160a01b03166001600160a01b0316815260200191505060206040518083038186803b1580156111ab57600080fd5b505afa1580156111bf573d6000803e3d6000fd5b505050506040513d60208110156111d557600080fd5b5051604080516001600160e01b031960e087901b1681526001600160a01b0394851660048201529290931660248301526044820152606481018c90526001608482015260ff8b1660a482015260c481018a905260e48101899052905161010480830192600092919082900301818387803b15801561125257600080fd5b505af1158015611266573d6000803e3d6000fd5b505050506112fb82828c604051806060016040528060368152602001613e8660369139805190602001208f8f8f60405160240180846001600160a01b03166001600160a01b031681526020018381526020018281526020019350505050604051602081830303815290604052906001600160e01b0319166020820180516001600160e01b03838183161783525050505061231c565b50600193505050506001600355979650505050505050565b60006002600354141561135b576040805162461bcd60e51b815260206004820152601f6024820152600080516020613d16833981519152604482015290519081900360640190fd5b6002600355600154604080516394669bf560e01b81526001600160a01b03808c16600483015291518b9392909216916394669bf591602480820192602092909190829003018186803b1580156113b057600080fd5b505afa1580156113c4573d6000803e3d6000fd5b505050506040513d60208110156113da57600080fd5b505161141b576040805162461bcd60e51b815260206004820152601b6024820152600080516020613d8d833981519152604482015290519081900360640190fd5b6000806114278b610b35565b5091509150806001600160a01b031663d505accf6114436119cf565b600154604080516001600160e01b031960e086901b1681526001600160a01b039384166004820152929091166024830152604482018d9052606482018c905260ff8b16608483015260a482018a905260c482018990525160e480830192600092919082900301818387803b15801561125257600080fd5b6004546001600160a01b031690565b60055460009081906114e5906001600160a01b03168585612b4b565b915091509250929050565b600060026003541415611538576040805162461bcd60e51b815260206004820152601f6024820152600080516020613d16833981519152604482015290519081900360640190fd5b6002600355600154604080516394669bf560e01b81526001600160a01b0380881660048301529151879392909216916394669bf591602480820192602092909190829003018186803b15801561158d57600080fd5b505afa1580156115a1573d6000803e3d6000fd5b505050506040513d60208110156115b757600080fd5b50516115f8576040805162461bcd60e51b815260206004820152601b6024820152600080516020613d8d833981519152604482015290519081900360640190fd5b60008061160487610b35565b9250509150610b21828288604051806060016040528060368152602001613d36603691398051602091820120604080516001600160a01b038f166024820152604481018e905260648082018e905282518083039091018152608490910190915291820180516001600160e01b03166001600160e01b031990921691909117905261231c565b6001600160a01b03918216600090815260026020908152604080832093909416825291909152205460ff1690565b600080306116c3610686565b6001600160a01b031614611719576040805162461bcd60e51b8152602060048201526018602482015277283934b6b4ba34bb32a9bbb0b8399d102727aa2fa9a2a62360411b604482015290519081900360640190fd5b600154604080516394669bf560e01b81526001600160a01b0380891660048301529151889392909216916394669bf591602480820192602092909190829003018186803b15801561176957600080fd5b505afa15801561177d573d6000803e3d6000fd5b505050506040513d602081101561179357600080fd5b50516117d4576040805162461bcd60e51b815260206004820152601b6024820152600080516020613d8d833981519152604482015290519081900360640190fd5b85600080806117e284610b35565b60005492955090935091506001600160a01b03808416911614611847576040805162461bcd60e51b81526020600482015260186024820152770a0e4d2dad2e8d2eccaa6eec2e0e674409c9ea8beae8aa8960431b604482015290519081900360640190fd5b6118508461252a565b506005546000908190819061186f906001600160a01b0316888e6127f2565b919450925090508115611896576118966001600160a01b038616878463ffffffff61288716565b80156118fe57828b11156118f1576040805162461bcd60e51b815260206004820152601f60248201527f5072696d697469766553776170733a204e454741544956455f5041594f555400604482015290519081900360640190fd5b6118fc8582886128de565b505b8215611963578a831015611959576040805162461bcd60e51b815260206004820152601b60248201527f5072696d697469766553776170733a204d494e5f5052454d49554d0000000000604482015290519081900360640190fd5b611961612e75565b505b8c6001600160a01b03166119756119cf565b6001600160a01b03167fa082022e93cfcd9f1da5f9236718053910f7e840da080c789c7845698dc032ff8e86604051808381526020018281526020019250505060405180910390a350909b909a5098505050505050505050565b6001546040805163ab470f0560e01b815290516000926001600160a01b03169163ab470f05916004808301926020929190829003018186803b158015611a1457600080fd5b505afa158015611a28573d6000803e3d6000fd5b505050506040513d6020811015611a3e57600080fd5b5051905090565b600060026003541415611a8d576040805162461bcd60e51b815260206004820152601f6024820152600080516020613d16833981519152604482015290519081900360640190fd5b6002600355600154604080516394669bf560e01b81526001600160a01b0380871660048301529151869392909216916394669bf591602480820192602092909190829003018186803b158015611ae257600080fd5b505afa158015611af6573d6000803e3d6000fd5b505050506040513d6020811015611b0c57600080fd5b5051611b4d576040805162461bcd60e51b815260206004820152601b6024820152600080516020613d8d833981519152604482015290519081900360640190fd5b60003411611b99576040805162461bcd60e51b81526020600482015260146024820152735072696d697469766553776170733a205a45524f60601b604482015290519081900360640190fd5b600080611ba586610b35565b5091509150611c2c8282876040518060600160405280603d8152602001613de9603d91398051602091820120604080516001600160a01b038e166024820152604481018d90523460648083019190915282518083039091018152608490910190915291820180516001600160e01b03166001600160e01b031990921691909117905261231c565b5060019350505050600160035592915050565b6005546001600160a01b031690565b600060026003541415611c96576040805162461bcd60e51b815260206004820152601f6024820152600080516020613d16833981519152604482015290519081900360640190fd5b6002600355600154604080516394669bf560e01b81526001600160a01b0380881660048301529151879392909216916394669bf591602480820192602092909190829003018186803b158015611ceb57600080fd5b505afa158015611cff573d6000803e3d6000fd5b505050506040513d6020811015611d1557600080fd5b5051611d56576040805162461bcd60e51b815260206004820152601b6024820152600080516020613d8d833981519152604482015290519081900360640190fd5b600080611d6287610b35565b5091509150610b21828288604051806060016040528060368152602001613e86603691398051602091820120604080516001600160a01b038f166024820152604481018e905260648082018e905282518083039091018152608490910190915291820180516001600160e01b03166001600160e01b031990921691909117905261231c565b60008030611df3610686565b6001600160a01b031614611e49576040805162461bcd60e51b8152602060048201526018602482015277283934b6b4ba34bb32a9bbb0b8399d102727aa2fa9a2a62360411b604482015290519081900360640190fd5b600154604080516394669bf560e01b81526001600160a01b0380891660048301529151889392909216916394669bf591602480820192602092909190829003018186803b158015611e9957600080fd5b505afa158015611ead573d6000803e3d6000fd5b505050506040513d6020811015611ec357600080fd5b5051611f04576040805162461bcd60e51b815260206004820152601b6024820152600080516020613d8d833981519152604482015290519081900360640190fd5b8560008080611f1284610b35565b60005492955090935091506001600160a01b03808416911614611f77576040805162461bcd60e51b81526020600482015260186024820152770a0e4d2dad2e8d2eccaa6eec2e0e674409c9ea8beae8aa8960431b604482015290519081900360640190fd5b611f8084613015565b50506005546000908190611f9e906001600160a01b0316878d61310e565b9092509050811561208557818a1015611ffe576040805162461bcd60e51b815260206004820152601b60248201527f5072696d697469766553776170733a204d41585f5052454d49554d0000000000604482015290519081900360640190fd5b6000805460408051630d0e30db60e41b815290516001600160a01b039092169263d0e30db0928692600480820193929182900301818588803b15801561204357600080fd5b505af1158015612057573d6000803e3d6000fd5b505060005461207b93506001600160a01b031691508790508463ffffffff61288716565b612083612e75565b505b80156120a5576120a56001600160a01b038416868363ffffffff61288716565b6120ae83612984565b506120b88c612984565b508b6001600160a01b03166120cb6119cf565b6001600160a01b03167f89f5adc174562e07c9c9b1cae7109bbecb21cf9d1b2847e550042b8653c54a0e8d85604051808381526020018281526020019250505060405180910390a350989a9899505050505050505050565b60055460009081906114e5906001600160a01b03168585613158565b6000803061214b610686565b6001600160a01b0316146121a1576040805162461bcd60e51b8152602060048201526018602482015277283934b6b4ba34bb32a9bbb0b8399d102727aa2fa9a2a62360411b604482015290519081900360640190fd5b600154604080516394669bf560e01b81526001600160a01b0380891660048301529151889392909216916394669bf591602480820192602092909190829003018186803b1580156121f157600080fd5b505afa158015612205573d6000803e3d6000fd5b505050506040513d602081101561221b57600080fd5b505161225c576040805162461bcd60e51b815260206004820152601b6024820152600080516020613d8d833981519152604482015290519081900360640190fd5b856000808061226a84610b35565b92509250925061227984613015565b50506005546000908190612297906001600160a01b0316878d61310e565b9092509050811561208557818a10156122f7576040805162461bcd60e51b815260206004820152601b60248201527f5072696d697469766553776170733a204d41585f5052454d49554d0000000000604482015290519081900360640190fd5b6123018483613636565b506120856001600160a01b038516868463ffffffff61288716565b600080846001600160a01b0316866001600160a01b0316630dfe16816040518163ffffffff1660e01b815260040160206040518083038186803b15801561236257600080fd5b505afa158015612376573d6000803e3d6000fd5b505050506040513d602081101561238c57600080fd5b50516001600160a01b0316146123a35760006123a5565b835b90506000856001600160a01b0316876001600160a01b0316630dfe16816040518163ffffffff1660e01b815260040160206040518083038186803b1580156123ec57600080fd5b505afa158015612400573d6000803e3d6000fd5b505050506040513d602081101561241657600080fd5b50516001600160a01b03161461242c578461242f565b60005b9050866001600160a01b031663022c0d9f838330886040518563ffffffff1660e01b815260040180858152602001848152602001836001600160a01b03166001600160a01b0316815260200180602001828103825283818151815260200191508051906020019080838360005b838110156124b457818101518382015260200161249c565b50505050905090810190601f1680156124e15780820380516001836020036101000a031916815260200191505b5095505050505050600060405180830381600087803b15801561250357600080fd5b505af1158015612517573d6000803e3d6000fd5b505050506001925050505b949350505050565b600080826001600160a01b0316632f310bad6040518163ffffffff1660e01b815260040160206040518083038186803b15801561256657600080fd5b505afa15801561257a573d6000803e3d6000fd5b505050506040513d602081101561259057600080fd5b5051604080516370a0823160e01b815230600482015290519192506000916001600160a01b038416916370a08231916024808301926020929190829003018186803b1580156125de57600080fd5b505afa1580156125f2573d6000803e3d6000fd5b505050506040513d602081101561260857600080fd5b5051905060006001600160a01b0385166370a082316126256119cf565b6040518263ffffffff1660e01b815260040180826001600160a01b03166001600160a01b0316815260200191505060206040518083038186803b15801561266b57600080fd5b505afa15801561267f573d6000803e3d6000fd5b505050506040513d602081101561269557600080fd5b5051905060006126a586836136ca565b9050828111156126b25750815b42866001600160a01b03166325cb5bc06040518163ffffffff1660e01b815260040160206040518083038186803b1580156126ec57600080fd5b505afa158015612700573d6000803e3d6000fd5b505050506040513d602081101561271657600080fd5b505110612751576127376001600160a01b038516878363ffffffff61288716565b61274b8661274588846137b0565b886128de565b5061276b565b61276b6001600160a01b038516878563ffffffff61288716565b60408051638349980560e01b815230600482015290516000916001600160a01b0389169163834998059160248082019260609290919082900301818787803b1580156127b657600080fd5b505af11580156127ca573d6000803e3d6000fd5b505050506040513d60608110156127e057600080fd5b5060400151955050505050505b919050565b6000806000806000612805888888612b4b565b91509150600061281588886137b0565b905082156128305761282d818463ffffffff61283e16565b90505b919891975095509350505050565b600061288083836040518060400160405280601e81526020017f536166654d6174683a207375627472616374696f6e206f766572666c6f77000081525061385e565b9392505050565b604080516001600160a01b038416602482015260448082018490528251808303909101815260649091019091526020810180516001600160e01b031663a9059cbb60e01b1790526128d99084906138f5565b505050565b6000821561297a576001546040805163a2e49f1760e01b81526001600160a01b0387811660048301526024820187905285811660448301529151919092169163a2e49f179160648083019260209291908290030181600087803b15801561294457600080fd5b505af1158015612958573d6000803e3d6000fd5b505050506040513d602081101561296e57600080fd5b50600191506128809050565b5060009392505050565b604080516370a0823160e01b8152306004820152905160009182916001600160a01b038516916370a08231916024808301926020929190829003018186803b1580156129cf57600080fd5b505afa1580156129e3573d6000803e3d6000fd5b505050506040513d60208110156129f957600080fd5b505190508015612a2f57612a25612a0e6119cf565b6001600160a01b038516908363ffffffff61288716565b60019150506127ed565b50600092915050565b801580612abe575060408051636eb1769f60e11b81523060048201526001600160a01b03848116602483015291519185169163dd62ed3e91604480820192602092909190829003018186803b158015612a9057600080fd5b505afa158015612aa4573d6000803e3d6000fd5b505050506040513d6020811015612aba57600080fd5b5051155b612af95760405162461bcd60e51b8152600401808060200182810382526036815260200180613e506036913960400191505060405180910390fd5b604080516001600160a01b038416602482015260448082018490528251808303909101815260649091019091526020810180516001600160e01b031663095ea7b360e01b1790526128d99084906138f5565b604080516002808252606080830184526000938493919290602083019080388339019050509050846001600160a01b031663440f5fd26040518163ffffffff1660e01b815260040160206040518083038186803b158015612bab57600080fd5b505afa158015612bbf573d6000803e3d6000fd5b505050506040513d6020811015612bd557600080fd5b505181518290600090612be457fe5b60200260200101906001600160a01b031690816001600160a01b031681525050846001600160a01b0316632f310bad6040518163ffffffff1660e01b815260040160206040518083038186803b158015612c3d57600080fd5b505afa158015612c51573d6000803e3d6000fd5b505050506040513d6020811015612c6757600080fd5b5051815182906001908110612c7857fe5b60200260200101906001600160a01b031690816001600160a01b0316815250506000612ca486866137b0565b90506000806060896001600160a01b0316631f00ca7489876040518363ffffffff1660e01b81526004018083815260200180602001828103825283818151815260200191508051906020019060200280838360005b83811015612d11578181015183820152602001612cf9565b50505050905001935050505060006040518083038186803b158015612d3557600080fd5b505afa158015612d49573d6000803e3d6000fd5b505050506040513d6000823e601f3d908101601f191682016040526020811015612d7257600080fd5b8101908080516040519392919084600160201b821115612d9157600080fd5b908301906020820185811115612da657600080fd5b82518660208202830111600160201b82111715612dc257600080fd5b82525081516020918201928201910280838360005b83811015612def578181015183820152602001612dd7565b505050509050016040525050509050600081600081518110612e0d57fe5b60200260200101519050808511612e25576000612e35565b612e35858263ffffffff61283e16565b92506000858211612e47576000612e57565b612e57828763ffffffff61283e16565b90508015612e63578094505b50919a92995091975050505050505050565b60008054604080516370a0823160e01b8152306004820152905183926001600160a01b0316916370a08231916024808301926020929190829003018186803b158015612ec057600080fd5b505afa158015612ed4573d6000803e3d6000fd5b505050506040513d6020811015612eea57600080fd5b50519050801561300d576000805460408051632e1a7d4d60e01b81526004810185905290516001600160a01b0390921692632e1a7d4d9260248084019382900301818387803b158015612f3c57600080fd5b505af1158015612f50573d6000803e3d6000fd5b505050506000612f5e6119cf565b6040516001600160a01b0391909116908390600081818185875af1925050503d8060008114612fa9576040519150601f19603f3d011682016040523d82523d6000602084013e612fae565b606091505b5050905080613004576040805162461bcd60e51b815260206004820152601c60248201527f436f6e6e6563746f723a204552525f53454e44494e475f455448455200000000604482015290519081900360640190fd5b91506106889050565b600191505090565b6000806000836001600160a01b031663440f5fd26040518163ffffffff1660e01b815260040160206040518083038186803b15801561305357600080fd5b505afa158015613067573d6000803e3d6000fd5b505050506040513d602081101561307d57600080fd5b5051905061308b81856139a6565b5060408051633ea6b5f160e21b815230600482015281516001600160a01b0387169263fa9ad7c492602480820193918290030181600087803b1580156130d057600080fd5b505af11580156130e4573d6000803e3d6000fd5b505050506040513d60408110156130fa57600080fd5b508051602090910151909350915050915091565b60008060008061311f878787613158565b91509150600061312f87876136ca565b9050811561314a57613147818363ffffffff61283e16565b90505b919791965090945050505050565b604080516002808252606080830184526000938493919290602083019080388339019050509050846001600160a01b0316632f310bad6040518163ffffffff1660e01b815260040160206040518083038186803b1580156131b857600080fd5b505afa1580156131cc573d6000803e3d6000fd5b505050506040513d60208110156131e257600080fd5b5051815182906000906131f157fe5b60200260200101906001600160a01b031690816001600160a01b031681525050846001600160a01b031663440f5fd26040518163ffffffff1660e01b815260040160206040518083038186803b15801561324a57600080fd5b505afa15801561325e573d6000803e3d6000fd5b505050506040513d602081101561327457600080fd5b505181518290600190811061328557fe5b60200260200101906001600160a01b031690816001600160a01b03168152505060006132b186866136ca565b90506000806060896001600160a01b0316631f00ca7489876040518363ffffffff1660e01b81526004018083815260200180602001828103825283818151815260200191508051906020019060200280838360005b8381101561331e578181015183820152602001613306565b50505050905001935050505060006040518083038186803b15801561334257600080fd5b505afa158015613356573d6000803e3d6000fd5b505050506040513d6000823e601f3d908101601f19168201604052602081101561337f57600080fd5b8101908080516040519392919084600160201b82111561339e57600080fd5b9083019060208201858111156133b357600080fd5b82518660208202830111600160201b821117156133cf57600080fd5b82525081516020918201928201910280838360005b838110156133fc5781810151838201526020016133e4565b50505050905001604052505050905060008160008151811061341a57fe5b602002602001015190506000858211613434576000613444565b613444828763ffffffff61283e16565b9050818611613454576000613464565b613464868363ffffffff61283e16565b935080156136245760608c6001600160a01b031663d06ca61f838a6040518363ffffffff1660e01b81526004018083815260200180602001828103825283818151815260200191508051906020019060200280838360005b838110156134d45781810151838201526020016134bc565b50505050905001935050505060006040518083038186803b1580156134f857600080fd5b505afa15801561350c573d6000803e3d6000fd5b505050506040513d6000823e601f3d908101601f19168201604052602081101561353557600080fd5b8101908080516040519392919084600160201b82111561355457600080fd5b90830190602082018581111561356957600080fd5b82518660208202830111600160201b8211171561358557600080fd5b82525081516020918201928201910280838360005b838110156135b257818101518382015260200161359a565b505050509050016040525050509050613620620186a06136146135f461012d856001815181106135de57fe5b6020026020010151613a3990919063ffffffff16565b613608620186a0866001815181106135de57fe5b9063ffffffff613a9216565b9063ffffffff613aec16565b9550505b50929a91995090975050505050505050565b60008115612a2f576001546040805163a3e3808f60e01b81526001600160a01b038681166004830152602482018690529151919092169163a3e3808f9160448083019260209291908290030181600087803b15801561369457600080fd5b505af11580156136a8573d6000803e3d6000fd5b505050506040513d60208110156136be57600080fd5b50600191506110119050565b6000612880836001600160a01b031663b592a1386040518163ffffffff1660e01b815260040160206040518083038186803b15801561370857600080fd5b505afa15801561371c573d6000803e3d6000fd5b505050506040513d602081101561373257600080fd5b505160408051627f0cfd60e11b81529051613614916001600160a01b0388169162fe19fa91600480820192602092909190829003018186803b15801561377757600080fd5b505afa15801561378b573d6000803e3d6000fd5b505050506040513d60208110156137a157600080fd5b5051859063ffffffff613a3916565b6000612880836001600160a01b031662fe19fa6040518163ffffffff1660e01b815260040160206040518083038186803b1580156137ed57600080fd5b505afa158015613801573d6000803e3d6000fd5b505050506040513d602081101561381757600080fd5b5051604080516316b2542760e31b81529051613614916001600160a01b0388169163b592a13891600480820192602092909190829003018186803b15801561377757600080fd5b600081848411156138ed5760405162461bcd60e51b81526004018080602001828103825283818151815260200191508051906020019080838360005b838110156138b257818101518382015260200161389a565b50505050905090810190601f1680156138df5780820380516001836020036101000a031916815260200191505b509250505060405180910390fd5b505050900390565b606061394a826040518060400160405280602081526020017f5361666545524332303a206c6f772d6c6576656c2063616c6c206661696c6564815250856001600160a01b0316613b2e9092919063ffffffff16565b8051909150156128d95780806020019051602081101561396957600080fd5b50516128d95760405162461bcd60e51b815260040180806020018281038252602a815260200180613e26602a913960400191505060405180910390fd5b604080516370a0823160e01b8152306004820152905160009182916001600160a01b038616916370a08231916024808301926020929190829003018186803b1580156139f157600080fd5b505afa158015613a05573d6000803e3d6000fd5b505050506040513d6020811015613a1b57600080fd5b505190506128806001600160a01b038516848363ffffffff61288716565b600082613a4857506000611011565b82820282848281613a5557fe5b04146128805760405162461bcd60e51b8152600401808060200182810382526021815260200180613d6c6021913960400191505060405180910390fd5b600082820183811015612880576040805162461bcd60e51b815260206004820152601b60248201527f536166654d6174683a206164646974696f6e206f766572666c6f770000000000604482015290519081900360640190fd5b600061288083836040518060400160405280601a81526020017f536166654d6174683a206469766973696f6e206279207a65726f000000000000815250613b3d565b60606125228484600085613ba2565b60008183613b8c5760405162461bcd60e51b81526020600482018181528351602484015283519092839260449091019190850190808383600083156138b257818101518382015260200161389a565b506000838581613b9857fe5b0495945050505050565b6060613bad85613d0f565b613bfe576040805162461bcd60e51b815260206004820152601d60248201527f416464726573733a2063616c6c20746f206e6f6e2d636f6e7472616374000000604482015290519081900360640190fd5b60006060866001600160a01b031685876040518082805190602001908083835b60208310613c3d5780518252601f199092019160209182019101613c1e565b6001836020036101000a03801982511681845116808217855250505050505090500191505060006040518083038185875af1925050503d8060008114613c9f576040519150601f19603f3d011682016040523d82523d6000602084013e613ca4565b606091505b50915091508115613cb85791506125229050565b805115613cc85780518082602001fd5b60405162461bcd60e51b81526020600482018181528651602484015286518793919283926044019190850190808383600083156138b257818101518382015260200161389a565b3b15159056fe5265656e7472616e637947756172643a207265656e7472616e742063616c6c00666c617368436c6f73654c6f6e674f7074696f6e735468656e5377617028616464726573732c75696e743235362c75696e7432353629536166654d6174683a206d756c7469706c69636174696f6e206f766572666c6f775072696d697469766553776170733a204556494c5f4f5054494f4e0000000000666c617368436c6f73654c6f6e674f7074696f6e735468656e53776170466f7245544828616464726573732c75696e743235362c75696e7432353629666c6173684d696e7453686f72744f7074696f6e735468656e537761705769746845544828616464726573732c75696e743235362c75696e74323536295361666545524332303a204552433230206f7065726174696f6e20646964206e6f7420737563636565645361666545524332303a20617070726f76652066726f6d206e6f6e2d7a65726f20746f206e6f6e2d7a65726f20616c6c6f77616e6365666c6173684d696e7453686f72744f7074696f6e735468656e5377617028616464726573732c75696e743235362c75696e7432353629a26469706673582212205609e9809369b4df24358a575acead0483f07d422f358e653542660cb0547d4564736f6c634300060200335361666545524332303a204552433230206f7065726174696f6e20646964206e6f7420737563636565645361666545524332303a20617070726f76652066726f6d206e6f6e2d7a65726f20746f206e6f6e2d7a65726f20616c6c6f77616e6365",
  "devdoc": {
    "methods": {
      "checkApproval(address,address)": {
        "details": "This contract does not hold funds, infinite approvals cannot be exploited for profit.",
        "params": {
          "spender": "The address to allow to spend `token`.",
          "token": "The token to approve spending for."
        }
      },
      "closeFlashLong(address,uint256,uint256)": {
        "details": "Closes a longOptionToken position by flash swapping in redeemTokens,         closing the option, and paying back in underlyingTokens.",
        "params": {
          "amountRedeems": "The quantity of redeemTokens to borrow to close the options.",
          "minPayout": "The minimum payout of underlyingTokens sent out to the user.",
          "optionToken": "The address of the longOptionTokens to close."
        }
      },
      "closeFlashLongForETH(address,uint256,uint256)": {
        "details": "Closes a longOptionToken position by flash swapping in redeemTokens,         closing the option, and paying back in underlyingTokens.",
        "params": {
          "amountRedeems": "The quantity of redeemTokens to borrow to close the options.",
          "minPayout": "The minimum payout of underlyingTokens sent out to the user.",
          "optionToken": "The address of the longOptionTokens to close."
        }
      },
      "flashCloseLongOptionsThenSwap(address,uint256,uint256)": {
        "details": "Sends shortOptionTokens to _msgSender(), and pays back the UniswapV2Pair in underlyingTokens.",
        "params": {
          "flashLoanQuantity": "The quantity of shortOptionTokens borrowed to use to close longOptionTokens.",
          "minPayout": "The minimum payout of underlyingTokens sent to the `to` address.",
          "optionAddress": "The address of the longOptionTokes to close."
        }
      },
      "flashCloseLongOptionsThenSwapForETH(address,uint256,uint256)": {
        "details": "Sends shortOptionTokens to _msgSender(), and pays back the UniswapV2Pair in underlyingTokens.",
        "params": {
          "flashLoanQuantity": "The quantity of shortOptionTokens borrowed to use to close longOptionTokens.",
          "minPayout": "The minimum payout of underlyingTokens sent to the `to` address.",
          "optionAddress": "The address of the longOptionTokes to close."
        }
      },
      "flashMintShortOptionsThenSwap(address,uint256,uint256)": {
        "details": "Pays underlying token `premium` for `quantity` of `optionAddress` tokens.",
        "params": {
          "maxPremium": "The maximum quantity of underlyingTokens to pay for the optionTokens.",
          "optionAddress": "The address of the Option contract.",
          "quantity": "The quantity of options to mint using borrowed underlyingTokens."
        },
        "returns": {
          "_0": "Returns (amount, premium) of options purchased for total premium price."
        }
      },
      "flashMintShortOptionsThenSwapWithETH(address,uint256,uint256)": {
        "details": "Pays `premium` in ether for `quantity` of `optionAddress` tokens.",
        "params": {
          "maxPremium": "The maximum quantity of underlyingTokens to pay for the optionTokens.",
          "optionAddress": "The address of the Option contract.",
          "quantity": "The quantity of options to mint using borrowed underlyingTokens."
        },
        "returns": {
          "_0": "Returns (amount, premium) of options purchased for total premium price."
        }
      },
      "getClosePremium(address,uint256)": {
        "details": "Calculates the effective premium, denominated in underlyingTokens, to sell `optionToken`s.",
        "params": {
          "optionToken": "The optionToken to get the premium cost of purchasing.",
          "quantity": "The quantity of short option tokens that will be closed."
        },
        "returns": {
          "_0": "(uint, uint) Returns the `premium` to sell `quantity` of `optionToken` and the `negativePremium`."
        }
      },
      "getOpenPremium(address,uint256)": {
        "details": "Calculates the effective premium, denominated in underlyingTokens, to buy `quantity` of `optionToken`s.",
        "params": {
          "optionToken": "The optionToken to get the premium cost of purchasing.",
          "quantity": "The quantity of long option tokens that will be purchased."
        },
        "returns": {
          "_0": "(uint, uint) Returns the `premium` to buy `quantity` of `optionToken` and the `negativePremium`."
        }
      },
      "getOptionPair(address)": {
        "params": {
          "option": "The option token to get the corresponding UniswapV2Pair market."
        },
        "returns": {
          "_0": "The pair address, as well as the tokens of the pair."
        }
      },
      "openFlashLong(address,uint256,uint256)": {
        "details": "Opens a longOptionToken position by minting long + short tokens, then selling the short tokens.",
        "params": {
          "amountOptions": "The quantity of longOptionTokens to purchase.",
          "maxPremium": "The maximum quantity of underlyingTokens to pay for the optionTokens.",
          "optionToken": "The option address."
        },
        "returns": {
          "_0": "Whether or not the call succeeded."
        }
      },
      "openFlashLongWithETH(address,uint256)": {
        "details": "Opens a longOptionToken position by minting long + short tokens, then selling the short tokens.",
        "params": {
          "amountOptions": "The quantity of longOptionTokens to purchase.",
          "optionToken": "The option address."
        }
      },
      "uniswapV2Call(address,uint256,uint256,bytes)": {
        "details": "The callback function triggered in a UniswapV2Pair.swap() call when the `data` parameter has data.",
        "params": {
          "amount0": "The quantity of token0 received to the `to` address in the swap() call.",
          "amount1": "The quantity of token1 received to the `to` address in the swap() call.",
          "data": "The payload passed in the `data` parameter of the swap() call.",
          "sender": "The original _msgSender() of the UniswapV2Pair.swap() call."
        }
      }
    }
  },
  "userdoc": {
    "methods": {
      "checkApproval(address,address)": {
        "notice": "Approves the `spender` to pull `token` from this contract."
      },
      "closeFlashLong(address,uint256,uint256)": {
        "notice": "IMPORTANT: If minPayout is 0, this function will cost the caller to close the option, for no gain."
      },
      "closeFlashLongForETH(address,uint256,uint256)": {
        "notice": "IMPORTANT: If minPayout is 0, this function will cost the caller to close the option, for no gain."
      },
      "flashCloseLongOptionsThenSwap(address,uint256,uint256)": {
        "notice": "IMPORTANT: If minPayout is 0, the `to` address is liable for negative payouts *if* that occurs."
      },
      "flashCloseLongOptionsThenSwapForETH(address,uint256,uint256)": {
        "notice": "IMPORTANT: If minPayout is 0, the `getCaller()` address is liable for negative payouts *if* that occurs."
      },
      "flashMintShortOptionsThenSwap(address,uint256,uint256)": {
        "notice": "Callback function executed in a UniswapV2Pair.swap() call for `openFlashLong`."
      },
      "flashMintShortOptionsThenSwapWithETH(address,uint256,uint256)": {
        "notice": "Callback function executed in a UniswapV2Pair.swap() call for `openFlashLongWithETH`."
      },
      "getCaller()": {
        "notice": "Returns the state variable `_CALLER` in the Primitive Router."
      },
      "getFactory()": {
        "notice": "Gets the UniswapV2Factory contract address."
      },
      "getOpenPremium(address,uint256)": {
        "notice": "UniswapV2 adds a 0.3009027% fee which is applied to the premium as 0.301%.         IMPORTANT: If the pair's reserve ratio is incorrect, there could be a 'negative' premium.         Buying negative premium options will pay out redeemTokens.         An 'incorrect' ratio occurs when the (reserves of redeemTokens / strike ratio) >= reserves of underlyingTokens.         Implicitly uses the `optionToken`'s underlying and redeem tokens for the pair."
      },
      "getOptionPair(address)": {
        "notice": "Fetchs the Uniswap Pair for an option's redeemToken and underlyingToken params."
      },
      "getPrimitiveRouter()": {
        "notice": "Returns the Primitive Router contract address."
      },
      "getRouter()": {
        "notice": "Gets the UniswapV2Router02 contract address."
      },
      "getWeth()": {
        "notice": "Returns the Weth contract address."
      },
      "isApproved(address,address)": {
        "notice": "Returns whether or not `spender` is approved to spend `token`, from this contract."
      },
      "openFlashLong(address,uint256,uint256)": {
        "notice": "IMPORTANT: amountOutMin parameter is the price to swap shortOptionTokens to underlyingTokens.         IMPORTANT: If the ratio between shortOptionTokens and underlyingTokens is 1:1, then only the swap fee (0.30%) has to be paid."
      },
      "openFlashLongWithDAIPermit(address,uint256,uint256,uint256,uint8,bytes32,bytes32)": {
        "notice": "Executes the same as `openFlashLongWithPermit`, but for DAI."
      },
      "openFlashLongWithETH(address,uint256)": {
        "notice": "Uses Ether to pay to purchase the option tokens.         IMPORTANT: amountOutMin parameter is the price to swap shortOptionTokens to underlyingTokens.         IMPORTANT: If the ratio between shortOptionTokens and underlyingTokens is 1:1, then only the swap fee (0.30%) has to be paid."
      },
      "openFlashLongWithPermit(address,uint256,uint256,uint256,uint8,bytes32,bytes32)": {
        "notice": "Executes the same as `openFlashLong`, but calls `permit` to pull underlying tokens."
      }
    }
  },
  "storageLayout": {
    "storage": [
      {
        "astId": 3000,
        "contract": "contracts/connectors/PrimitiveSwaps.sol:PrimitiveSwaps",
        "label": "_weth",
        "offset": 0,
        "slot": "0",
        "type": "t_contract(IWETH)6960"
      },
      {
        "astId": 3002,
        "contract": "contracts/connectors/PrimitiveSwaps.sol:PrimitiveSwaps",
        "label": "_primitiveRouter",
        "offset": 0,
        "slot": "1",
        "type": "t_contract(IPrimitiveRouter)6793"
      },
      {
        "astId": 3008,
        "contract": "contracts/connectors/PrimitiveSwaps.sol:PrimitiveSwaps",
        "label": "_approved",
        "offset": 0,
        "slot": "2",
        "type": "t_mapping(t_address,t_mapping(t_address,t_bool))"
      },
      {
        "astId": 1358,
        "contract": "contracts/connectors/PrimitiveSwaps.sol:PrimitiveSwaps",
        "label": "_status",
        "offset": 0,
        "slot": "3",
        "type": "t_uint256"
      },
      {
        "astId": 5267,
        "contract": "contracts/connectors/PrimitiveSwaps.sol:PrimitiveSwaps",
        "label": "_factory",
        "offset": 0,
        "slot": "4",
        "type": "t_contract(IUniswapV2Factory)1767"
      },
      {
        "astId": 5269,
        "contract": "contracts/connectors/PrimitiveSwaps.sol:PrimitiveSwaps",
        "label": "_router",
        "offset": 0,
        "slot": "5",
        "type": "t_contract(IUniswapV2Router02)2405"
      }
    ],
    "types": {
      "t_address": {
        "encoding": "inplace",
        "label": "address",
        "numberOfBytes": "20"
      },
      "t_bool": {
        "encoding": "inplace",
        "label": "bool",
        "numberOfBytes": "1"
      },
      "t_contract(IPrimitiveRouter)6793": {
        "encoding": "inplace",
        "label": "contract IPrimitiveRouter",
        "numberOfBytes": "20"
      },
      "t_contract(IUniswapV2Factory)1767": {
        "encoding": "inplace",
        "label": "contract IUniswapV2Factory",
        "numberOfBytes": "20"
      },
      "t_contract(IUniswapV2Router02)2405": {
        "encoding": "inplace",
        "label": "contract IUniswapV2Router02",
        "numberOfBytes": "20"
      },
      "t_contract(IWETH)6960": {
        "encoding": "inplace",
        "label": "contract IWETH",
        "numberOfBytes": "20"
      },
      "t_mapping(t_address,t_bool)": {
        "encoding": "mapping",
        "key": "t_address",
        "label": "mapping(address => bool)",
        "numberOfBytes": "32",
        "value": "t_bool"
      },
      "t_mapping(t_address,t_mapping(t_address,t_bool))": {
        "encoding": "mapping",
        "key": "t_address",
        "label": "mapping(address => mapping(address => bool))",
        "numberOfBytes": "32",
        "value": "t_mapping(t_address,t_bool)"
      },
      "t_uint256": {
        "encoding": "inplace",
        "label": "uint256",
        "numberOfBytes": "32"
      }
    }
  }
}