{
  "address": "0xBc42ff40230CF715245831236925Da2c6894e3aA",
  "abi": [
    {
      "inputs": [
        {
          "internalType": "address",
          "name": "weth_",
          "type": "address"
        },
        {
          "internalType": "address",
          "name": "primitiveRouter_",
          "type": "address"
        },
        {
          "internalType": "address",
          "name": "factory_",
          "type": "address"
        },
        {
          "internalType": "address",
          "name": "router_",
          "type": "address"
        }
      ],
      "stateMutability": "nonpayable",
      "type": "constructor"
    },
    {
      "anonymous": false,
      "inputs": [
        {
          "indexed": true,
          "internalType": "address",
          "name": "from",
          "type": "address"
        },
        {
          "indexed": true,
          "internalType": "address",
          "name": "option",
          "type": "address"
        },
        {
          "indexed": false,
          "internalType": "uint256",
          "name": "liquidity",
          "type": "uint256"
        }
      ],
      "name": "AddLiquidity",
      "type": "event"
    },
    {
      "anonymous": false,
      "inputs": [
        {
          "indexed": true,
          "internalType": "address",
          "name": "from",
          "type": "address"
        }
      ],
      "name": "Initialized",
      "type": "event"
    },
    {
      "anonymous": false,
      "inputs": [
        {
          "indexed": true,
          "internalType": "address",
          "name": "from",
          "type": "address"
        },
        {
          "indexed": true,
          "internalType": "address",
          "name": "option",
          "type": "address"
        },
        {
          "indexed": false,
          "internalType": "uint256",
          "name": "totalUnderlying",
          "type": "uint256"
        }
      ],
      "name": "RemoveLiquidity",
      "type": "event"
    },
    {
      "inputs": [
        {
          "internalType": "address",
          "name": "optionAddress",
          "type": "address"
        },
        {
          "internalType": "uint256",
          "name": "quantityOptions",
          "type": "uint256"
        },
        {
          "internalType": "uint256",
          "name": "amountBMax",
          "type": "uint256"
        },
        {
          "internalType": "uint256",
          "name": "amountBMin",
          "type": "uint256"
        },
        {
          "internalType": "address",
          "name": "to",
          "type": "address"
        },
        {
          "internalType": "uint256",
          "name": "deadline",
          "type": "uint256"
        }
      ],
      "name": "addShortLiquidityWithETH",
      "outputs": [
        {
          "internalType": "uint256",
          "name": "",
          "type": "uint256"
        },
        {
          "internalType": "uint256",
          "name": "",
          "type": "uint256"
        },
        {
          "internalType": "uint256",
          "name": "",
          "type": "uint256"
        }
      ],
      "stateMutability": "payable",
      "type": "function"
    },
    {
      "inputs": [
        {
          "internalType": "address",
          "name": "optionAddress",
          "type": "address"
        },
        {
          "internalType": "uint256",
          "name": "quantityOptions",
          "type": "uint256"
        },
        {
          "internalType": "uint256",
          "name": "amountBMax",
          "type": "uint256"
        },
        {
          "internalType": "uint256",
          "name": "amountBMin",
          "type": "uint256"
        },
        {
          "internalType": "address",
          "name": "to",
          "type": "address"
        },
        {
          "internalType": "uint256",
          "name": "deadline",
          "type": "uint256"
        }
      ],
      "name": "addShortLiquidityWithUnderlying",
      "outputs": [
        {
          "internalType": "uint256",
          "name": "",
          "type": "uint256"
        },
        {
          "internalType": "uint256",
          "name": "",
          "type": "uint256"
        },
        {
          "internalType": "uint256",
          "name": "",
          "type": "uint256"
        }
      ],
      "stateMutability": "nonpayable",
      "type": "function"
    },
    {
      "inputs": [
        {
          "internalType": "address",
          "name": "optionAddress",
          "type": "address"
        },
        {
          "internalType": "uint256",
          "name": "quantityOptions",
          "type": "uint256"
        },
        {
          "internalType": "uint256",
          "name": "amountBMax",
          "type": "uint256"
        },
        {
          "internalType": "uint256",
          "name": "amountBMin",
          "type": "uint256"
        },
        {
          "internalType": "address",
          "name": "to",
          "type": "address"
        },
        {
          "internalType": "uint256",
          "name": "deadline",
          "type": "uint256"
        },
        {
          "internalType": "uint8",
          "name": "v",
          "type": "uint8"
        },
        {
          "internalType": "bytes32",
          "name": "r",
          "type": "bytes32"
        },
        {
          "internalType": "bytes32",
          "name": "s",
          "type": "bytes32"
        }
      ],
      "name": "addShortLiquidityWithUnderlyingWithDaiPermit",
      "outputs": [
        {
          "internalType": "uint256",
          "name": "",
          "type": "uint256"
        },
        {
          "internalType": "uint256",
          "name": "",
          "type": "uint256"
        },
        {
          "internalType": "uint256",
          "name": "",
          "type": "uint256"
        }
      ],
      "stateMutability": "nonpayable",
      "type": "function"
    },
    {
      "inputs": [
        {
          "internalType": "address",
          "name": "optionAddress",
          "type": "address"
        },
        {
          "internalType": "uint256",
          "name": "quantityOptions",
          "type": "uint256"
        },
        {
          "internalType": "uint256",
          "name": "amountBMax",
          "type": "uint256"
        },
        {
          "internalType": "uint256",
          "name": "amountBMin",
          "type": "uint256"
        },
        {
          "internalType": "address",
          "name": "to",
          "type": "address"
        },
        {
          "internalType": "uint256",
          "name": "deadline",
          "type": "uint256"
        },
        {
          "internalType": "uint8",
          "name": "v",
          "type": "uint8"
        },
        {
          "internalType": "bytes32",
          "name": "r",
          "type": "bytes32"
        },
        {
          "internalType": "bytes32",
          "name": "s",
          "type": "bytes32"
        }
      ],
      "name": "addShortLiquidityWithUnderlyingWithPermit",
      "outputs": [
        {
          "internalType": "uint256",
          "name": "",
          "type": "uint256"
        },
        {
          "internalType": "uint256",
          "name": "",
          "type": "uint256"
        },
        {
          "internalType": "uint256",
          "name": "",
          "type": "uint256"
        }
      ],
      "stateMutability": "nonpayable",
      "type": "function"
    },
    {
      "inputs": [
        {
          "internalType": "address",
          "name": "token",
          "type": "address"
        },
        {
          "internalType": "address",
          "name": "spender",
          "type": "address"
        }
      ],
      "name": "checkApproval",
      "outputs": [
        {
          "internalType": "bool",
          "name": "",
          "type": "bool"
        }
      ],
      "stateMutability": "nonpayable",
      "type": "function"
    },
    {
      "inputs": [],
      "name": "getCaller",
      "outputs": [
        {
          "internalType": "address",
          "name": "",
          "type": "address"
        }
      ],
      "stateMutability": "view",
      "type": "function"
    },
    {
      "inputs": [],
      "name": "getFactory",
      "outputs": [
        {
          "internalType": "contract IUniswapV2Factory",
          "name": "",
          "type": "address"
        }
      ],
      "stateMutability": "view",
      "type": "function"
    },
    {
      "inputs": [
        {
          "internalType": "contract IOption",
          "name": "option",
          "type": "address"
        }
      ],
      "name": "getOptionPair",
      "outputs": [
        {
          "internalType": "contract IUniswapV2Pair",
          "name": "",
          "type": "address"
        },
        {
          "internalType": "address",
          "name": "",
          "type": "address"
        },
        {
          "internalType": "address",
          "name": "",
          "type": "address"
        }
      ],
      "stateMutability": "view",
      "type": "function"
    },
    {
      "inputs": [],
      "name": "getPrimitiveRouter",
      "outputs": [
        {
          "internalType": "contract IPrimitiveRouter",
          "name": "",
          "type": "address"
        }
      ],
      "stateMutability": "view",
      "type": "function"
    },
    {
      "inputs": [],
      "name": "getRouter",
      "outputs": [
        {
          "internalType": "contract IUniswapV2Router02",
          "name": "",
          "type": "address"
        }
      ],
      "stateMutability": "view",
      "type": "function"
    },
    {
      "inputs": [],
      "name": "getWeth",
      "outputs": [
        {
          "internalType": "contract IWETH",
          "name": "",
          "type": "address"
        }
      ],
      "stateMutability": "view",
      "type": "function"
    },
    {
      "inputs": [
        {
          "internalType": "address",
          "name": "token",
          "type": "address"
        },
        {
          "internalType": "address",
          "name": "spender",
          "type": "address"
        }
      ],
      "name": "isApproved",
      "outputs": [
        {
          "internalType": "bool",
          "name": "",
          "type": "bool"
        }
      ],
      "stateMutability": "view",
      "type": "function"
    },
    {
      "inputs": [
        {
          "internalType": "address",
          "name": "optionAddress",
          "type": "address"
        },
        {
          "internalType": "uint256",
          "name": "liquidity",
          "type": "uint256"
        },
        {
          "internalType": "uint256",
          "name": "amountAMin",
          "type": "uint256"
        },
        {
          "internalType": "uint256",
          "name": "amountBMin",
          "type": "uint256"
        },
        {
          "internalType": "address",
          "name": "to",
          "type": "address"
        },
        {
          "internalType": "uint256",
          "name": "deadline",
          "type": "uint256"
        }
      ],
      "name": "removeShortLiquidityThenCloseOptions",
      "outputs": [
        {
          "internalType": "uint256",
          "name": "",
          "type": "uint256"
        }
      ],
      "stateMutability": "nonpayable",
      "type": "function"
    },
    {
      "inputs": [
        {
          "internalType": "address",
          "name": "optionAddress",
          "type": "address"
        },
        {
          "internalType": "uint256",
          "name": "liquidity",
          "type": "uint256"
        },
        {
          "internalType": "uint256",
          "name": "amountAMin",
          "type": "uint256"
        },
        {
          "internalType": "uint256",
          "name": "amountBMin",
          "type": "uint256"
        },
        {
          "internalType": "address",
          "name": "to",
          "type": "address"
        },
        {
          "internalType": "uint256",
          "name": "deadline",
          "type": "uint256"
        },
        {
          "internalType": "uint8",
          "name": "v",
          "type": "uint8"
        },
        {
          "internalType": "bytes32",
          "name": "r",
          "type": "bytes32"
        },
        {
          "internalType": "bytes32",
          "name": "s",
          "type": "bytes32"
        }
      ],
      "name": "removeShortLiquidityThenCloseOptionsWithPermit",
      "outputs": [
        {
          "internalType": "uint256",
          "name": "",
          "type": "uint256"
        }
      ],
      "stateMutability": "nonpayable",
      "type": "function"
    },
    {
      "stateMutability": "payable",
      "type": "receive"
    }
  ],
  "transactionHash": "0xdde3d109c6722fe7e451b2c6cd8ae7a2d8e22146628b0a784375bd0f1e5439bc",
  "args": [
    "0xc45c339313533a6c9B05184CD8B5486BC53F75Fb",
    "0x3F8316D3ed3d934277e4b0BA3A7ec5328Ad3ef9F",
    "0xC0AEe478e3658e2610c5F7A4A2E1777cE9e4f2Ac",
    "0xd9e1cE17f2641f24aE83637ab66a2cca9C378B9F"
  ],
  "solcInputHash": "18a9efaa166d10d3cc32ddcdf1a02460",
  "bytecode": "0x60806040523480156200001157600080fd5b5060405162002d9138038062002d91833981810160405260808110156200003757600080fd5b50805160208201516040830151606090930151600080546001600160a01b038086166001600160a01b03199283161790925560018054928516929091169190911790559192909183836200009582826001600160e01b036200011f16565b5050600160035550600480546001600160a01b038085166001600160a01b0319928316179092556005805492841692909116919091179055620000e06001600160e01b03620001b016565b6001600160a01b03167f908408e307fc569b417f6cbec5d5a06f44a0a505ac0479b47d421a4b2fd6a1e660405160405180910390a2505050506200057d565b6001600160a01b03808316600090815260026020908152604080832093851683529290529081205460ff16620001a7576200017682600019856001600160a01b0316620001b460201b62001f4a179092919060201c565b6001600160a01b038084166000908152600260209081526040808320938616835292905220805460ff191660011790555b50600192915050565b3390565b8015806200023e575060408051636eb1769f60e11b81523060048201526001600160a01b03848116602483015291519185169163dd62ed3e91604480820192602092909190829003018186803b1580156200020e57600080fd5b505afa15801562000223573d6000803e3d6000fd5b505050506040513d60208110156200023a57600080fd5b5051155b6200027b5760405162461bcd60e51b815260040180806020018281038252603681526020018062002d5b6036913960400191505060405180910390fd5b604080516001600160a01b038416602482015260448082018490528251808303909101815260649091019091526020810180516001600160e01b0390811663095ea7b360e01b17909152620002d3918591620002d816565b505050565b606062000334826040518060400160405280602081526020017f5361666545524332303a206c6f772d6c6576656c2063616c6c206661696c6564815250856001600160a01b03166200039460201b6200244a179092919060201c565b805190915015620002d3578080602001905160208110156200035557600080fd5b5051620002d35760405162461bcd60e51b815260040180806020018281038252602a81526020018062002d31602a913960400191505060405180910390fd5b6060620003ae84846000856001600160e01b03620003b616565b949350505050565b6060620003cc856001600160e01b036200057716565b6200041e576040805162461bcd60e51b815260206004820152601d60248201527f416464726573733a2063616c6c20746f206e6f6e2d636f6e7472616374000000604482015290519081900360640190fd5b60006060866001600160a01b031685876040518082805190602001908083835b602083106200045f5780518252601f1990920191602091820191016200043e565b6001836020036101000a03801982511681845116808217855250505050505090500191505060006040518083038185875af1925050503d8060008114620004c3576040519150601f19603f3d011682016040523d82523d6000602084013e620004c8565b606091505b50915091508115620004de579150620003ae9050565b805115620004ef5780518082602001fd5b8360405162461bcd60e51b81526004018080602001828103825283818151815260200191508051906020019080838360005b838110156200053b57818101518382015260200162000521565b50505050905090810190601f168015620005695780820380516001836020036101000a031916815260200191505b509250505060405180910390fd5b3b151590565b6127a4806200058d6000396000f3fe6080604052600436106100e15760003560e01c80635cda4b411161007f578063ab470f0511610059578063ab470f05146103fe578063b0f479a114610413578063d0d853b914610428578063e69cb2461461046e5761010c565b80635cda4b411461035f57806388cc58e4146103ae578063a389783e146103c35761010c565b806322ef3f85116100bb57806322ef3f851461022f57806327fb83801461028d5780632e16cab3146102a2578063573123a9146102f55761010c565b806307f2490614610111578063107c279f1461017657806311fbac05146101a75761010c565b3661010c576000546001600160a01b03166100fa6104d8565b6001600160a01b03161461010a57fe5b005b600080fd5b34801561011d57600080fd5b50610164600480360360c081101561013457600080fd5b506001600160a01b0381358116916020810135916040820135916060810135916080820135169060a001356104dd565b60408051918252519081900360200190f35b34801561018257600080fd5b5061018b610722565b604080516001600160a01b039092168252519081900360200190f35b3480156101b357600080fd5b5061021160048036036101208110156101cb57600080fd5b506001600160a01b0381358116916020810135916040820135916060810135916080820135169060a08101359060ff60c0820135169060e0810135906101000135610731565b60408051938452602084019290925282820152519081900360600190f35b34801561023b57600080fd5b506102626004803603602081101561025257600080fd5b50356001600160a01b03166109ba565b604080516001600160a01b039485168152928416602084015292168183015290519081900360600190f35b34801561029957600080fd5b5061018b610b2f565b3480156102ae57600080fd5b50610211600480360360c08110156102c557600080fd5b506001600160a01b0381358116916020810135916040820135916060810135916080820135169060a00135610b3e565b34801561030157600080fd5b50610164600480360361012081101561031957600080fd5b506001600160a01b0381358116916020810135916040820135916060810135916080820135169060a08101359060ff60c0820135169060e0810135906101000135610f2c565b34801561036b57600080fd5b5061039a6004803603604081101561038257600080fd5b506001600160a01b03813581169160200135166110cc565b604080519115158252519081900360200190f35b3480156103ba57600080fd5b5061018b611152565b3480156103cf57600080fd5b5061039a600480360360408110156103e657600080fd5b506001600160a01b0381358116916020013516611161565b34801561040a57600080fd5b5061018b61118f565b34801561041f57600080fd5b5061018b611205565b610211600480360360c081101561043e57600080fd5b506001600160a01b0381358116916020810135916040820135916060810135916080820135169060a00135611214565b34801561047a57600080fd5b50610211600480360361012081101561049257600080fd5b506001600160a01b0381358116916020810135916040820135916060810135916080820135169060a08101359060ff60c0820135169060e081013590610100013561162c565b335b90565b600060026003541415610537576040805162461bcd60e51b815260206004820152601f60248201527f5265656e7472616e637947756172643a207265656e7472616e742063616c6c00604482015290519081900360640190fd5b6002600355600154604080516394669bf560e01b81526001600160a01b03808b16600483015291518a9392909216916394669bf591602480820192602092909190829003018186803b15801561058c57600080fd5b505afa1580156105a0573d6000803e3d6000fd5b505050506040513d60208110156105b657600080fd5b50516105f7576040805162461bcd60e51b815260206004820152601b60248201526000805160206126ef833981519152604482015290519081900360640190fd5b8760008080610605846109ba565b925092509250610613612676565b8b8152602081018b9052604081018a905260608101889052610635848d611836565b5060055461064d9085906001600160a01b03166110cc565b50600061065b8385846118d3565b91505060006106698761199a565b905061067484611b18565b506000546001600160a01b038681169116141561069957610693611bc3565b506106a4565b6106a285611b18565b505b60006106b6828463ffffffff611d6316565b9050876001600160a01b03166106ca61118f565b6001600160a01b03167fd8ae9b9ba89e637bcb66a69ac91e8f688018e81d6f92c57e02226425c8efbdf6836040518082815260200191505060405180910390a360016003559f9e505050505050505050505050505050565b6000546001600160a01b031690565b600154604080516394669bf560e01b81526001600160a01b03808d1660048301529151600093849384938f9391909216916394669bf5916024808301926020929190829003018186803b15801561078757600080fd5b505afa15801561079b573d6000803e3d6000fd5b505050506040513d60208110156107b157600080fd5b50516107f2576040805162461bcd60e51b815260206004820152601b60248201526000805160206126ef833981519152604482015290519081900360640190fd5b60008d6001600160a01b031663440f5fd26040518163ffffffff1660e01b815260040160206040518083038186803b15801561082d57600080fd5b505afa158015610841573d6000803e3d6000fd5b505050506040513d602081101561085757600080fd5b505190506001600160a01b038116638fcbaf0c61087261118f565b6001546001600160a01b03908116908516637ecebe0061089061118f565b6040518263ffffffff1660e01b815260040180826001600160a01b03166001600160a01b0316815260200191505060206040518083038186803b1580156108d657600080fd5b505afa1580156108ea573d6000803e3d6000fd5b505050506040513d602081101561090057600080fd5b5051604080516001600160e01b031960e087901b1681526001600160a01b0394851660048201529290931660248301526044820152606481018d90526001608482015260ff8c1660a482015260c481018b905260e481018a9052905161010480830192600092919082900301818387803b15801561097d57600080fd5b505af1158015610991573d6000803e3d6000fd5b505050506109a38e8e8e8e8e8e610b3e565b945094509450505099509950999650505050505050565b600080600080846001600160a01b0316632f310bad6040518163ffffffff1660e01b815260040160206040518083038186803b1580156109f957600080fd5b505afa158015610a0d573d6000803e3d6000fd5b505050506040513d6020811015610a2357600080fd5b505160408051632207afe960e11b815290519192506000916001600160a01b0388169163440f5fd2916004808301926020929190829003018186803b158015610a6b57600080fd5b505afa158015610a7f573d6000803e3d6000fd5b505050506040513d6020811015610a9557600080fd5b5051600480546040805163e6a4390560e01b81526001600160a01b038781169482019490945283851660248201529051939450600093929091169163e6a4390591604480820192602092909190829003018186803b158015610af657600080fd5b505afa158015610b0a573d6000803e3d6000fd5b505050506040513d6020811015610b2057600080fd5b50519791965091945092505050565b6001546001600160a01b031690565b600080600060026003541415610b9b576040805162461bcd60e51b815260206004820152601f60248201527f5265656e7472616e637947756172643a207265656e7472616e742063616c6c00604482015290519081900360640190fd5b6002600355600154604080516394669bf560e01b81526001600160a01b03808d16600483015291518c9392909216916394669bf591602480820192602092909190829003018186803b158015610bf057600080fd5b505afa158015610c04573d6000803e3d6000fd5b505050506040513d6020811015610c1a57600080fd5b5051610c5b576040805162461bcd60e51b815260206004820152601b60248201526000805160206126ef833981519152604482015290519081900360640190fd5b6000806000808d6001600160a01b031663440f5fd26040518163ffffffff1660e01b815260040160206040518083038186803b158015610c9a57600080fd5b505afa158015610cae573d6000803e3d6000fd5b505050506040513d6020811015610cc457600080fd5b505190506000610cda8e8e63ffffffff611d6316565b9050610ce68282611836565b50610d0390506001600160a01b0382168f8f63ffffffff611dc416565b60008e6001600160a01b031663fa9ad7c4306040518263ffffffff1660e01b815260040180826001600160a01b03166001600160a01b031681526020019150506040805180830381600087803b158015610d5c57600080fd5b505af1158015610d70573d6000803e3d6000fd5b505050506040513d6040811015610d8657600080fd5b81019080805190602001909291908051906020019092919050505091505060008f90506000816001600160a01b0316632f310bad6040518163ffffffff1660e01b815260040160206040518083038186803b158015610de457600080fd5b505afa158015610df8573d6000803e3d6000fd5b505050506040513d6020811015610e0e57600080fd5b50519050610e1a61269e565b838160000181815250508f816020018181525050838160400181815250508e8160600181815250508c816080018181525050610e6b82600560009054906101000a90046001600160a01b03166110cc565b50600554610e839086906001600160a01b03166110cc565b50610e8f828683611e1b565b91995097509550838814610e9f57fe5b610ea885611b18565b50610eb282611b18565b50610ebc83611b18565b505050508e6001600160a01b0316610ed261118f565b6001600160a01b03167f668256213e6a9a0247adc238fcbf44cc6b98921642fca93479c5dc3873660837856040518082815260200191505060405180910390a350506001600355919c909b50909950975050505050505050565b600154604080516394669bf560e01b81526001600160a01b03808d16600483015291516000938d9316916394669bf5916024808301926020929190829003018186803b158015610f7b57600080fd5b505afa158015610f8f573d6000803e3d6000fd5b505050506040513d6020811015610fa557600080fd5b5051610fe6576040805162461bcd60e51b815260206004820152601b60248201526000805160206126ef833981519152604482015290519081900360640190fd5b8a8a878b8b8b8a8a8a6000610ffa8a6109ba565b50509050806001600160a01b031663d505accf61101561118f565b600154604080516001600160e01b031960e086901b1681526001600160a01b039384166004820152929091166024830152604482018d9052606482018c905260ff8816608483015260a4820187905260c482018690525160e480830192600092919082900301818387803b15801561108c57600080fd5b505af11580156110a0573d6000803e3d6000fd5b50505050505050506110b68686858585896104dd565b9750505050505050509998505050505050505050565b6001600160a01b03808316600090815260026020908152604080832093851683529290529081205460ff16611148576111176001600160a01b0384168360001963ffffffff611f4a16565b6001600160a01b038084166000908152600260209081526040808320938616835292905220805460ff191660011790555b5060015b92915050565b6004546001600160a01b031690565b6001600160a01b03918216600090815260026020908152604080832093909416825291909152205460ff1690565b6001546040805163ab470f0560e01b815290516000926001600160a01b03169163ab470f05916004808301926020929190829003018186803b1580156111d457600080fd5b505afa1580156111e8573d6000803e3d6000fd5b505050506040513d60208110156111fe57600080fd5b5051905090565b6005546001600160a01b031690565b600080600060026003541415611271576040805162461bcd60e51b815260206004820152601f60248201527f5265656e7472616e637947756172643a207265656e7472616e742063616c6c00604482015290519081900360640190fd5b6002600355600154604080516394669bf560e01b81526001600160a01b03808d16600483015291518c9392909216916394669bf591602480820192602092909190829003018186803b1580156112c657600080fd5b505afa1580156112da573d6000803e3d6000fd5b505050506040513d60208110156112f057600080fd5b5051611331576040805162461bcd60e51b815260206004820152601b60248201526000805160206126ef833981519152604482015290519081900360640190fd5b346113428a8a63ffffffff611d6316565b1015611395576040805162461bcd60e51b815260206004820181905260248201527f5072696d69746976654c69717569646974793a20494e53554646494349454e54604482015290519081900360640190fd5b6000806000808d6001600160a01b031663440f5fd26040518163ffffffff1660e01b815260040160206040518083038186803b1580156113d457600080fd5b505afa1580156113e8573d6000803e3d6000fd5b505050506040513d60208110156113fe57600080fd5b50516000549091506001600160a01b03808316911614611465576040805162461bcd60e51b815260206004820152601c60248201527f5072696d69746976654c69717569646974793a204e4f545f5745544800000000604482015290519081900360640190fd5b61146d61205d565b506114886001600160a01b0382168f8f63ffffffff611dc416565b60008e6001600160a01b031663fa9ad7c4306040518263ffffffff1660e01b815260040180826001600160a01b03166001600160a01b031681526020019150506040805180830381600087803b1580156114e157600080fd5b505af11580156114f5573d6000803e3d6000fd5b505050506040513d604081101561150b57600080fd5b81019080805190602001909291908051906020019092919050505091505060008f90506000816001600160a01b0316632f310bad6040518163ffffffff1660e01b815260040160206040518083038186803b15801561156957600080fd5b505afa15801561157d573d6000803e3d6000fd5b505050506040513d602081101561159357600080fd5b5051905061159f61269e565b838160000181815250508f816020018181525050838160400181815250508e8160600181815250508c8160800181815250506115f082600560009054906101000a90046001600160a01b03166110cc565b506005546116089086906001600160a01b03166110cc565b50611614828683611e1b565b9199509750955083881461162457fe5b610ea8611bc3565b600154604080516394669bf560e01b81526001600160a01b03808d1660048301529151600093849384938f9391909216916394669bf5916024808301926020929190829003018186803b15801561168257600080fd5b505afa158015611696573d6000803e3d6000fd5b505050506040513d60208110156116ac57600080fd5b50516116ed576040805162461bcd60e51b815260206004820152601b60248201526000805160206126ef833981519152604482015290519081900360640190fd5b60008d6001600160a01b031663440f5fd26040518163ffffffff1660e01b815260040160206040518083038186803b15801561172857600080fd5b505afa15801561173c573d6000803e3d6000fd5b505050506040513d602081101561175257600080fd5b5051905060006117688e8e63ffffffff611d6316565b9050816001600160a01b031663d505accf61178161118f565b600154604080516001600160e01b031960e086901b1681526001600160a01b03938416600482015292909116602483015260448201859052606482018e905260ff8d16608483015260a482018c905260c482018b90525160e480830192600092919082900301818387803b1580156117f857600080fd5b505af115801561180c573d6000803e3d6000fd5b5050505050506118208d8d8d8d8d8d610b3e565b9350935093505099509950999650505050505050565b600081156118ca576001546040805163a3e3808f60e01b81526001600160a01b038681166004830152602482018690529151919092169163a3e3808f9160448083019260209291908290030181600087803b15801561189457600080fd5b505af11580156118a8573d6000803e3d6000fd5b505050506040513d60208110156118be57600080fd5b506001915061114c9050565b50600092915050565b6005548151602083015160408085015160608601518251635d5155ef60e11b81526001600160a01b038a8116600483015289811660248301526044820196909652606481019490945260848401919091523060a484015260c483015280516000948594169263baa2abde9260e480830193919282900301818787803b15801561195b57600080fd5b505af115801561196f573d6000803e3d6000fd5b505050506040513d604081101561198557600080fd5b50805160209091015190969095509350505050565b600080826001600160a01b0316632f310bad6040518163ffffffff1660e01b815260040160206040518083038186803b1580156119d657600080fd5b505afa1580156119ea573d6000803e3d6000fd5b505050506040513d6020811015611a0057600080fd5b505190506000611a1082856120d2565b905042846001600160a01b03166325cb5bc06040518163ffffffff1660e01b815260040160206040518083038186803b158015611a4c57600080fd5b505afa158015611a60573d6000803e3d6000fd5b505050506040513d6020811015611a7657600080fd5b505110611a9357611a9184611a8b8684612165565b86612258565b505b60408051638349980560e01b815230600482015290516000916001600160a01b0387169163834998059160248082019260609290919082900301818787803b158015611ade57600080fd5b505af1158015611af2573d6000803e3d6000fd5b505050506040513d6060811015611b0857600080fd5b506040015193505050505b919050565b604080516370a0823160e01b8152306004820152905160009182916001600160a01b038516916370a08231916024808301926020929190829003018186803b158015611b6357600080fd5b505afa158015611b77573d6000803e3d6000fd5b505050506040513d6020811015611b8d57600080fd5b5051905080156118ca57611bb9611ba261118f565b6001600160a01b038516908363ffffffff611dc416565b6001915050611b13565b60008054604080516370a0823160e01b8152306004820152905183926001600160a01b0316916370a08231916024808301926020929190829003018186803b158015611c0e57600080fd5b505afa158015611c22573d6000803e3d6000fd5b505050506040513d6020811015611c3857600080fd5b505190508015611d5b576000805460408051632e1a7d4d60e01b81526004810185905290516001600160a01b0390921692632e1a7d4d9260248084019382900301818387803b158015611c8a57600080fd5b505af1158015611c9e573d6000803e3d6000fd5b505050506000611cac61118f565b6040516001600160a01b0391909116908390600081818185875af1925050503d8060008114611cf7576040519150601f19603f3d011682016040523d82523d6000602084013e611cfc565b606091505b5050905080611d52576040805162461bcd60e51b815260206004820152601c60248201527f436f6e6e6563746f723a204552525f53454e44494e475f455448455200000000604482015290519081900360640190fd5b91506104da9050565b600191505090565b600082820183811015611dbd576040805162461bcd60e51b815260206004820152601b60248201527f536166654d6174683a206164646974696f6e206f766572666c6f770000000000604482015290519081900360640190fd5b9392505050565b604080516001600160a01b038416602482015260448082018490528251808303909101815260649091019091526020810180516001600160e01b031663a9059cbb60e01b179052611e169084906122fe565b505050565b6000806000600560009054906101000a90046001600160a01b03166001600160a01b031663e8e3370087878760000151886020015189604001518a60600151611e6261118f565b8c608001516040518963ffffffff1660e01b815260040180896001600160a01b03166001600160a01b03168152602001886001600160a01b03166001600160a01b03168152602001878152602001868152602001858152602001848152602001836001600160a01b03166001600160a01b0316815260200182815260200198505050505050505050606060405180830381600087803b158015611f0457600080fd5b505af1158015611f18573d6000803e3d6000fd5b505050506040513d6060811015611f2e57600080fd5b5080516020820151604090920151909891975095509350505050565b801580611fd0575060408051636eb1769f60e11b81523060048201526001600160a01b03848116602483015291519185169163dd62ed3e91604480820192602092909190829003018186803b158015611fa257600080fd5b505afa158015611fb6573d6000803e3d6000fd5b505050506040513d6020811015611fcc57600080fd5b5051155b61200b5760405162461bcd60e51b81526004018080602001828103825260368152602001806127396036913960400191505060405180910390fd5b604080516001600160a01b038416602482015260448082018490528251808303909101815260649091019091526020810180516001600160e01b031663095ea7b360e01b179052611e169084906122fe565b600034156120cc576000805460408051630d0e30db60e41b815290516001600160a01b039092169263d0e30db0923492600480820193929182900301818588803b1580156120aa57600080fd5b505af11580156120be573d6000803e3d6000fd5b5050505050600190506104da565b50600090565b604080516370a0823160e01b8152306004820152905160009182916001600160a01b038616916370a08231916024808301926020929190829003018186803b15801561211d57600080fd5b505afa158015612131573d6000803e3d6000fd5b505050506040513d602081101561214757600080fd5b50519050611dbd6001600160a01b038516848363ffffffff611dc416565b6000611dbd836001600160a01b031662fe19fa6040518163ffffffff1660e01b815260040160206040518083038186803b1580156121a257600080fd5b505afa1580156121b6573d6000803e3d6000fd5b505050506040513d60208110156121cc57600080fd5b5051604080516316b2542760e31b8152905161224c916001600160a01b0388169163b592a13891600480820192602092909190829003018186803b15801561221357600080fd5b505afa158015612227573d6000803e3d6000fd5b505050506040513d602081101561223d57600080fd5b5051859063ffffffff6123af16565b9063ffffffff61240816565b600082156122f4576001546040805163a2e49f1760e01b81526001600160a01b0387811660048301526024820187905285811660448301529151919092169163a2e49f179160648083019260209291908290030181600087803b1580156122be57600080fd5b505af11580156122d2573d6000803e3d6000fd5b505050506040513d60208110156122e857600080fd5b5060019150611dbd9050565b5060009392505050565b6060612353826040518060400160405280602081526020017f5361666545524332303a206c6f772d6c6576656c2063616c6c206661696c6564815250856001600160a01b031661244a9092919063ffffffff16565b805190915015611e165780806020019051602081101561237257600080fd5b5051611e165760405162461bcd60e51b815260040180806020018281038252602a81526020018061270f602a913960400191505060405180910390fd5b6000826123be5750600061114c565b828202828482816123cb57fe5b0414611dbd5760405162461bcd60e51b81526004018080602001828103825260218152602001806126ce6021913960400191505060405180910390fd5b6000611dbd83836040518060400160405280601a81526020017f536166654d6174683a206469766973696f6e206279207a65726f000000000000815250612461565b60606124598484600085612503565b949350505050565b600081836124ed5760405162461bcd60e51b81526004018080602001828103825283818151815260200191508051906020019080838360005b838110156124b257818101518382015260200161249a565b50505050905090810190601f1680156124df5780820380516001836020036101000a031916815260200191505b509250505060405180910390fd5b5060008385816124f957fe5b0495945050505050565b606061250e85612670565b61255f576040805162461bcd60e51b815260206004820152601d60248201527f416464726573733a2063616c6c20746f206e6f6e2d636f6e7472616374000000604482015290519081900360640190fd5b60006060866001600160a01b031685876040518082805190602001908083835b6020831061259e5780518252601f19909201916020918201910161257f565b6001836020036101000a03801982511681845116808217855250505050505090500191505060006040518083038185875af1925050503d8060008114612600576040519150601f19603f3d011682016040523d82523d6000602084013e612605565b606091505b509150915081156126195791506124599050565b8051156126295780518082602001fd5b60405162461bcd60e51b81526020600482018181528651602484015286518793919283926044019190850190808383600083156124b257818101518382015260200161249a565b3b151590565b6040518060800160405280600081526020016000815260200160008152602001600081525090565b6040518060a001604052806000815260200160008152602001600081526020016000815260200160008152509056fe536166654d6174683a206d756c7469706c69636174696f6e206f766572666c6f775072696d697469766553776170733a204556494c5f4f5054494f4e00000000005361666545524332303a204552433230206f7065726174696f6e20646964206e6f7420737563636565645361666545524332303a20617070726f76652066726f6d206e6f6e2d7a65726f20746f206e6f6e2d7a65726f20616c6c6f77616e6365a2646970667358221220fc7c3b26801b5a08741372c028e240fd136d909ced4dbe571c26a1b47f11a55764736f6c634300060200335361666545524332303a204552433230206f7065726174696f6e20646964206e6f7420737563636565645361666545524332303a20617070726f76652066726f6d206e6f6e2d7a65726f20746f206e6f6e2d7a65726f20616c6c6f77616e6365",
  "devdoc": {
    "methods": {
      "addShortLiquidityWithETH(address,uint256,uint256,uint256,address,uint256)": {
        "details": "Adds redeemToken liquidity to a redeem<>underlyingToken pair by minting shortOptionTokens with underlyingTokens.",
        "params": {
          "amountBMax": "The quantity of underlyingTokens to add with shortOptionTokens to the Uniswap V2 Pair.",
          "amountBMin": "The minimum quantity of underlyingTokens expected to provide liquidity with.",
          "deadline": "The timestamp to expire a pending transaction.",
          "optionAddress": "The address of the optionToken to get the redeemToken to mint then provide liquidity for.",
          "quantityOptions": "The quantity of underlyingTokens to use to mint option + redeem tokens.",
          "to": "The address that receives UNI-V2 shares."
        }
      },
      "addShortLiquidityWithUnderlying(address,uint256,uint256,uint256,address,uint256)": {
        "details": "Adds redeemToken liquidity to a redeem<>underlyingToken pair by minting redeemTokens with underlyingTokens.",
        "params": {
          "amountBMax": "The quantity of underlyingTokens to add with redeemTokens to the Uniswap V2 Pair.",
          "amountBMin": "The minimum quantity of underlyingTokens expected to provide liquidity with.",
          "deadline": "The timestamp to expire a pending transaction.",
          "optionAddress": "The address of the optionToken to get the redeemToken to mint then provide liquidity for.",
          "quantityOptions": "The quantity of underlyingTokens to use to mint option + redeem tokens.",
          "to": "The address that receives UNI-V2 shares."
        }
      },
      "addShortLiquidityWithUnderlyingWithPermit(address,uint256,uint256,uint256,address,uint256,uint8,bytes32,bytes32)": {
        "details": "Adds redeemToken liquidity to a redeem<>underlyingToken pair by minting shortOptionTokens with underlyingTokens.",
        "params": {
          "amountBMax": "The quantity of underlyingTokens to add with shortOptionTokens to the Uniswap V2 Pair.",
          "amountBMin": "The minimum quantity of underlyingTokens expected to provide liquidity with.",
          "deadline": "The timestamp to expire a pending transaction.",
          "optionAddress": "The address of the optionToken to get the redeemToken to mint then provide liquidity for.",
          "quantityOptions": "The quantity of underlyingTokens to use to mint option + redeem tokens.",
          "to": "The address that receives UNI-V2 shares."
        }
      },
      "checkApproval(address,address)": {
        "details": "This contract does not hold funds, infinite approvals cannot be exploited for profit.",
        "params": {
          "spender": "The address to allow to spend `token`.",
          "token": "The token to approve spending for."
        }
      },
      "getOptionPair(address)": {
        "params": {
          "option": "The option token to get the corresponding UniswapV2Pair market."
        },
        "returns": {
          "_0": "The pair address, as well as the tokens of the pair."
        }
      },
      "removeShortLiquidityThenCloseOptions(address,uint256,uint256,uint256,address,uint256)": {
        "details": "Combines Uniswap V2 Router \"removeLiquidity\" function with Primitive \"closeOptions\" function.",
        "params": {
          "amountAMin": "The minimum quantity of shortOptionTokens to receive from removing liquidity.",
          "amountBMin": "The minimum quantity of underlyingTokens to receive from removing liquidity.",
          "deadline": "The timestamp to expire a pending transaction.",
          "liquidity": "The quantity of liquidity tokens to pull from _msgSender() and burn.",
          "optionAddress": "The address of the option that will be closed from burned UNI-V2 liquidity shares.",
          "to": "The address that receives underlyingTokens from burned UNI-V2, and underlyingTokens from closed options."
        }
      },
      "removeShortLiquidityThenCloseOptionsWithPermit(address,uint256,uint256,uint256,address,uint256,uint8,bytes32,bytes32)": {
        "details": "Uses permit to pull LP tokens.",
        "params": {
          "amountAMin": "The minimum quantity of shortOptionTokens to receive from removing liquidity.",
          "amountBMin": "The minimum quantity of underlyingTokens to receive from removing liquidity.",
          "deadline": "The timestamp to expire a pending transaction and `permit` call.",
          "liquidity": "The quantity of liquidity tokens to pull from _msgSender() and burn.",
          "optionAddress": "The address of the option that will be closed from burned UNI-V2 liquidity shares.",
          "to": "The address that receives underlyingTokens from burned UNI-V2, and underlyingTokens from closed options."
        }
      }
    }
  },
  "userdoc": {
    "methods": {
      "addShortLiquidityWithETH(address,uint256,uint256,uint256,address,uint256)": {
        "notice": "Pulls underlying tokens from _msgSender() and pushes UNI-V2 liquidity tokens to the \"getCaller()\" address.         underlyingToken -> redeemToken -> UNI-V2."
      },
      "addShortLiquidityWithUnderlying(address,uint256,uint256,uint256,address,uint256)": {
        "notice": "Pulls underlying tokens from _msgSender() and pushes UNI-V2 liquidity tokens to the \"getCaller()\" address.         underlyingToken -> redeemToken -> UNI-V2."
      },
      "addShortLiquidityWithUnderlyingWithDaiPermit(address,uint256,uint256,uint256,address,uint256,uint8,bytes32,bytes32)": {
        "notice": "Specialized function for `permit` calling on Put options (DAI)."
      },
      "addShortLiquidityWithUnderlyingWithPermit(address,uint256,uint256,uint256,address,uint256,uint8,bytes32,bytes32)": {
        "notice": "Pulls underlying tokens from _msgSender() and pushes UNI-V2 liquidity tokens to the \"getCaller()\" address.         underlyingToken -> redeemToken -> UNI-V2. Uses permit so user does not need to `approve()` our contracts."
      },
      "checkApproval(address,address)": {
        "notice": "Approves the `spender` to pull `token` from this contract."
      },
      "getCaller()": {
        "notice": "Returns the state variable `_CALLER` in the Primitive Router."
      },
      "getFactory()": {
        "notice": "Gets the UniswapV2Factory contract address."
      },
      "getOptionPair(address)": {
        "notice": "Fetchs the Uniswap Pair for an option's redeemToken and underlyingToken params."
      },
      "getPrimitiveRouter()": {
        "notice": "Returns the Primitive Router contract address."
      },
      "getRouter()": {
        "notice": "Gets the UniswapV2Router02 contract address."
      },
      "getWeth()": {
        "notice": "Returns the Weth contract address."
      },
      "isApproved(address,address)": {
        "notice": "Returns whether or not `spender` is approved to spend `token`, from this contract."
      },
      "removeShortLiquidityThenCloseOptions(address,uint256,uint256,uint256,address,uint256)": {
        "notice": "Pulls UNI-V2 liquidity shares with shortOption<>underlying token, and optionTokens from _msgSender().         Then closes the longOptionTokens and withdraws underlyingTokens to the \"getCaller()\" address.         Sends underlyingTokens from the burned UNI-V2 liquidity shares to the \"getCaller()\" address.         UNI-V2 -> optionToken -> underlyingToken."
      },
      "removeShortLiquidityThenCloseOptionsWithPermit(address,uint256,uint256,uint256,address,uint256,uint8,bytes32,bytes32)": {
        "notice": "Pulls LP tokens, burns them, removes liquidity, pull option token, burns then, pushes all underlying tokens."
      }
    }
  },
  "storageLayout": {
    "storage": [
      {
        "astId": 3000,
        "contract": "contracts/connectors/PrimitiveLiquidity.sol:PrimitiveLiquidity",
        "label": "_weth",
        "offset": 0,
        "slot": "0",
        "type": "t_contract(IWETH)6843"
      },
      {
        "astId": 3002,
        "contract": "contracts/connectors/PrimitiveLiquidity.sol:PrimitiveLiquidity",
        "label": "_primitiveRouter",
        "offset": 0,
        "slot": "1",
        "type": "t_contract(IPrimitiveRouter)6695"
      },
      {
        "astId": 3008,
        "contract": "contracts/connectors/PrimitiveLiquidity.sol:PrimitiveLiquidity",
        "label": "_approved",
        "offset": 0,
        "slot": "2",
        "type": "t_mapping(t_address,t_mapping(t_address,t_bool))"
      },
      {
        "astId": 1358,
        "contract": "contracts/connectors/PrimitiveLiquidity.sol:PrimitiveLiquidity",
        "label": "_status",
        "offset": 0,
        "slot": "3",
        "type": "t_uint256"
      },
      {
        "astId": 4179,
        "contract": "contracts/connectors/PrimitiveLiquidity.sol:PrimitiveLiquidity",
        "label": "_factory",
        "offset": 0,
        "slot": "4",
        "type": "t_contract(IUniswapV2Factory)1767"
      },
      {
        "astId": 4181,
        "contract": "contracts/connectors/PrimitiveLiquidity.sol:PrimitiveLiquidity",
        "label": "_router",
        "offset": 0,
        "slot": "5",
        "type": "t_contract(IUniswapV2Router02)2405"
      }
    ],
    "types": {
      "t_address": {
        "encoding": "inplace",
        "label": "address",
        "numberOfBytes": "20"
      },
      "t_bool": {
        "encoding": "inplace",
        "label": "bool",
        "numberOfBytes": "1"
      },
      "t_contract(IPrimitiveRouter)6695": {
        "encoding": "inplace",
        "label": "contract IPrimitiveRouter",
        "numberOfBytes": "20"
      },
      "t_contract(IUniswapV2Factory)1767": {
        "encoding": "inplace",
        "label": "contract IUniswapV2Factory",
        "numberOfBytes": "20"
      },
      "t_contract(IUniswapV2Router02)2405": {
        "encoding": "inplace",
        "label": "contract IUniswapV2Router02",
        "numberOfBytes": "20"
      },
      "t_contract(IWETH)6843": {
        "encoding": "inplace",
        "label": "contract IWETH",
        "numberOfBytes": "20"
      },
      "t_mapping(t_address,t_bool)": {
        "encoding": "mapping",
        "key": "t_address",
        "label": "mapping(address => bool)",
        "numberOfBytes": "32",
        "value": "t_bool"
      },
      "t_mapping(t_address,t_mapping(t_address,t_bool))": {
        "encoding": "mapping",
        "key": "t_address",
        "label": "mapping(address => mapping(address => bool))",
        "numberOfBytes": "32",
        "value": "t_mapping(t_address,t_bool)"
      },
      "t_uint256": {
        "encoding": "inplace",
        "label": "uint256",
        "numberOfBytes": "32"
      }
    }
  }
}