{
  "address": "0x90A13e6e87e11ea5A88b2F3516c54Ddbf18Baa67",
  "abi": [
    {
      "inputs": [
        {
          "internalType": "address",
          "name": "weth_",
          "type": "address"
        },
        {
          "internalType": "address",
          "name": "registry_",
          "type": "address"
        }
      ],
      "stateMutability": "nonpayable",
      "type": "constructor"
    },
    {
      "anonymous": false,
      "inputs": [
        {
          "indexed": true,
          "internalType": "address",
          "name": "from",
          "type": "address"
        },
        {
          "indexed": true,
          "internalType": "address",
          "name": "to",
          "type": "address"
        },
        {
          "indexed": false,
          "internalType": "bytes",
          "name": "params",
          "type": "bytes"
        }
      ],
      "name": "Executed",
      "type": "event"
    },
    {
      "anonymous": false,
      "inputs": [
        {
          "indexed": true,
          "internalType": "address",
          "name": "from",
          "type": "address"
        }
      ],
      "name": "Initialized",
      "type": "event"
    },
    {
      "anonymous": false,
      "inputs": [
        {
          "indexed": true,
          "internalType": "address",
          "name": "previousOwner",
          "type": "address"
        },
        {
          "indexed": true,
          "internalType": "address",
          "name": "newOwner",
          "type": "address"
        }
      ],
      "name": "OwnershipTransferred",
      "type": "event"
    },
    {
      "anonymous": false,
      "inputs": [
        {
          "indexed": false,
          "internalType": "address",
          "name": "account",
          "type": "address"
        }
      ],
      "name": "Paused",
      "type": "event"
    },
    {
      "anonymous": false,
      "inputs": [
        {
          "indexed": true,
          "internalType": "address[]",
          "name": "connectors",
          "type": "address[]"
        },
        {
          "indexed": false,
          "internalType": "bool[]",
          "name": "registered",
          "type": "bool[]"
        }
      ],
      "name": "RegisteredConnectors",
      "type": "event"
    },
    {
      "anonymous": false,
      "inputs": [
        {
          "indexed": true,
          "internalType": "address[]",
          "name": "options",
          "type": "address[]"
        }
      ],
      "name": "RegisteredOptions",
      "type": "event"
    },
    {
      "anonymous": false,
      "inputs": [
        {
          "indexed": false,
          "internalType": "address",
          "name": "account",
          "type": "address"
        }
      ],
      "name": "Unpaused",
      "type": "event"
    },
    {
      "inputs": [],
      "name": "apiVersion",
      "outputs": [
        {
          "internalType": "string",
          "name": "",
          "type": "string"
        }
      ],
      "stateMutability": "pure",
      "type": "function"
    },
    {
      "inputs": [
        {
          "internalType": "bytes32",
          "name": "c__0x6da79448",
          "type": "bytes32"
        }
      ],
      "name": "c_0x6da79448",
      "outputs": [],
      "stateMutability": "pure",
      "type": "function"
    },
    {
      "inputs": [
        {
          "internalType": "address",
          "name": "connector",
          "type": "address"
        },
        {
          "internalType": "bytes",
          "name": "params",
          "type": "bytes"
        }
      ],
      "name": "executeCall",
      "outputs": [],
      "stateMutability": "payable",
      "type": "function"
    },
    {
      "inputs": [],
      "name": "getCaller",
      "outputs": [
        {
          "internalType": "address",
          "name": "",
          "type": "address"
        }
      ],
      "stateMutability": "view",
      "type": "function"
    },
    {
      "inputs": [
        {
          "internalType": "address",
          "name": "connector",
          "type": "address"
        }
      ],
      "name": "getRegisteredConnector",
      "outputs": [
        {
          "internalType": "bool",
          "name": "",
          "type": "bool"
        }
      ],
      "stateMutability": "view",
      "type": "function"
    },
    {
      "inputs": [
        {
          "internalType": "address",
          "name": "option",
          "type": "address"
        }
      ],
      "name": "getRegisteredOption",
      "outputs": [
        {
          "internalType": "bool",
          "name": "",
          "type": "bool"
        }
      ],
      "stateMutability": "view",
      "type": "function"
    },
    {
      "inputs": [],
      "name": "getRegistry",
      "outputs": [
        {
          "internalType": "contract IRegistry",
          "name": "",
          "type": "address"
        }
      ],
      "stateMutability": "view",
      "type": "function"
    },
    {
      "inputs": [],
      "name": "getRoute",
      "outputs": [
        {
          "internalType": "address",
          "name": "",
          "type": "address"
        }
      ],
      "stateMutability": "view",
      "type": "function"
    },
    {
      "inputs": [],
      "name": "getWeth",
      "outputs": [
        {
          "internalType": "contract IWETH",
          "name": "",
          "type": "address"
        }
      ],
      "stateMutability": "view",
      "type": "function"
    },
    {
      "inputs": [],
      "name": "halt",
      "outputs": [],
      "stateMutability": "nonpayable",
      "type": "function"
    },
    {
      "inputs": [],
      "name": "owner",
      "outputs": [
        {
          "internalType": "address",
          "name": "",
          "type": "address"
        }
      ],
      "stateMutability": "view",
      "type": "function"
    },
    {
      "inputs": [],
      "name": "paused",
      "outputs": [
        {
          "internalType": "bool",
          "name": "",
          "type": "bool"
        }
      ],
      "stateMutability": "view",
      "type": "function"
    },
    {
      "inputs": [],
      "name": "renounceOwnership",
      "outputs": [],
      "stateMutability": "nonpayable",
      "type": "function"
    },
    {
      "inputs": [
        {
          "internalType": "address[]",
          "name": "connectors",
          "type": "address[]"
        },
        {
          "internalType": "bool[]",
          "name": "isValid",
          "type": "bool[]"
        }
      ],
      "name": "setRegisteredConnectors",
      "outputs": [
        {
          "internalType": "bool",
          "name": "",
          "type": "bool"
        }
      ],
      "stateMutability": "nonpayable",
      "type": "function"
    },
    {
      "inputs": [
        {
          "internalType": "address[]",
          "name": "optionAddresses",
          "type": "address[]"
        }
      ],
      "name": "setRegisteredOptions",
      "outputs": [
        {
          "internalType": "bool",
          "name": "",
          "type": "bool"
        }
      ],
      "stateMutability": "nonpayable",
      "type": "function"
    },
    {
      "inputs": [
        {
          "internalType": "address",
          "name": "token",
          "type": "address"
        },
        {
          "internalType": "uint256",
          "name": "amount",
          "type": "uint256"
        }
      ],
      "name": "transferFromCaller",
      "outputs": [
        {
          "internalType": "bool",
          "name": "",
          "type": "bool"
        }
      ],
      "stateMutability": "nonpayable",
      "type": "function"
    },
    {
      "inputs": [
        {
          "internalType": "address",
          "name": "token",
          "type": "address"
        },
        {
          "internalType": "uint256",
          "name": "amount",
          "type": "uint256"
        },
        {
          "internalType": "address",
          "name": "receiver",
          "type": "address"
        }
      ],
      "name": "transferFromCallerToReceiver",
      "outputs": [
        {
          "internalType": "bool",
          "name": "",
          "type": "bool"
        }
      ],
      "stateMutability": "nonpayable",
      "type": "function"
    },
    {
      "inputs": [
        {
          "internalType": "address",
          "name": "newOwner",
          "type": "address"
        }
      ],
      "name": "transferOwnership",
      "outputs": [],
      "stateMutability": "nonpayable",
      "type": "function"
    },
    {
      "stateMutability": "payable",
      "type": "receive"
    }
  ],
  "transactionHash": "0x6163e652cdcdab5e85a801d9a72ea4bbaa7e7c8be57c586f143b8b5f5974813f",
  "args": [
    "0xc45c339313533a6c9B05184CD8B5486BC53F75Fb",
    "0xaF3456bc7266912C8E9C4e60616d45e18f4C8B3c"
  ],
  "solcInputHash": "0fe1624b13d65845e9489dfe6caa41c6",
  "bytecode": "0x60806040526000600560006101000a81548173ffffffffffffffffffffffffffffffffffffffff021916908373ffffffffffffffffffffffffffffffffffffffff1602179055506000600660006101000a81548173ffffffffffffffffffffffffffffffffffffffff021916908373ffffffffffffffffffffffffffffffffffffffff1602179055503480156200009557600080fd5b50604051620049c8380380620049c883398181016040526040811015620000bb57600080fd5b8101908080519060200190929190805190602001909291905050506000620000e86200065860201b60201c565b9050806000806101000a81548173ffffffffffffffffffffffffffffffffffffffff021916908373ffffffffffffffffffffffffffffffffffffffff1602179055508073ffffffffffffffffffffffffffffffffffffffff16600073ffffffffffffffffffffffffffffffffffffffff167f8be0079c531659141344cd1fd0a4f28419497f9722a3daafe3b4186f6b6457e060405160405180910390a35060008060146101000a81548160ff02191690831515021790555060018081905550620001db7f068b8ac395dad89d14af98dc8444b0def8dabcc70ba5717c4c545994ab35d3a060001b6200066060201b60201c565b6200020f7fb6851d82a2c8230e684319f079e63b95a4a31d5acc25716bb1988bd33273d52e60001b6200066060201b60201c565b620002437f85aa682ef7def270a9ad14d3d04cc8b9e61bd800ca78219a11e87deb9b9f205a60001b6200066060201b60201c565b620002777fceafa11f00b428a9ed586248b5806bcb05513ed515047d2b59fac0b602f1bb1a60001b6200066060201b60201c565b600073ffffffffffffffffffffffffffffffffffffffff16600360009054906101000a900473ffffffffffffffffffffffffffffffffffffffff1673ffffffffffffffffffffffffffffffffffffffff16146200033c576040517f08c379a00000000000000000000000000000000000000000000000000000000081526004018080602001828103825260138152602001807f526f757465723a20494e495449414c495a45440000000000000000000000000081525060200191505060405180910390fd5b620003707f0718c48c9920a146bc53e05d29318febffc116d27865888cf675da57a62c15d260001b6200066060201b60201c565b620003a47f6df14a3a32d49390d17dcc487bdff79fac80d04094bd3b2fbcca57da61b2242860001b6200066060201b60201c565b620003d87f026f7a9bfd29bd910688f4b1691a0d9f12a1040c1ddb4eca6cf0fe195e0dd2d460001b6200066060201b60201c565b604051620003e69062000663565b604051809103906000f08015801562000403573d6000803e3d6000fd5b50600460006101000a81548173ffffffffffffffffffffffffffffffffffffffff021916908373ffffffffffffffffffffffffffffffffffffffff160217905550620004787f7b429ef6670f1816ad27c7cfc72a8159677e7d4a52a1c71398d9e877bb79eb0f60001b6200066060201b60201c565b620004ac7fb9829d6ac636a8d819145e6f52d14634da08f26cb76c0fba07eabd139643364860001b6200066060201b60201c565b81600360006101000a81548173ffffffffffffffffffffffffffffffffffffffff021916908373ffffffffffffffffffffffffffffffffffffffff160217905550620005217f55a6deb586b25eece4489f40f63c20bc9ac6be47648343ec5f9042478279f82c60001b6200066060201b60201c565b620005557f0ebed05ee643ef2f3264c953635e37c67d9d6dbec4936865f34197b7409ae94660001b6200066060201b60201c565b80600260006101000a81548173ffffffffffffffffffffffffffffffffffffffff021916908373ffffffffffffffffffffffffffffffffffffffff160217905550620005ca7f305ed0ec614a069510f6a3f0420bcd22d1cfa5ffa7b1de22cdb2569c27e91b2460001b6200066060201b60201c565b620005fe7fc6bcae7fc2fd42f662465d49d74ed7f3310066850439afb14b4414d13f668e6460001b6200066060201b60201c565b6200060e6200065860201b60201c565b73ffffffffffffffffffffffffffffffffffffffff167f908408e307fc569b417f6cbec5d5a06f44a0a505ac0479b47d421a4b2fd6a1e660405160405180910390a2505062000671565b600033905090565b50565b610383806200464583390190565b613fc480620006816000396000f3fe60806040526004361061010d5760003560e01c80638da5cb5b11610095578063a3e3808f11610064578063a3e3808f146107c7578063ab470f051461083a578063bca8c7b514610891578063c5eaa1291461092a578063f2fde38b1461098157610221565b80638da5cb5b1461060b578063921875de1461066257806394669bf5146106cb578063a2e49f171461073457610221565b80635ab1bd53116100dc5780635ab1bd53146104b95780635c975abb146105105780635ed7ca5b1461053f5780636a595ca414610556578063715018a6146105f457610221565b80630402454714610226578063107c279f1461026157806325829410146102b8578063474855281461034857610221565b3661022157600060149054906101000a900460ff1615610195576040517f08c379a00000000000000000000000000000000000000000000000000000000081526004018080602001828103825260108152602001807f5061757361626c653a207061757365640000000000000000000000000000000081525060200191505060405180910390fd5b6101c17f5f64673d8670fde0a3a5dff5961e19c5cb5828eef1d4dba0ed98097847d8e2c060001b6109d2565b600360009054906101000a900473ffffffffffffffffffffffffffffffffffffffff1673ffffffffffffffffffffffffffffffffffffffff166102026109d5565b73ffffffffffffffffffffffffffffffffffffffff161461021f57fe5b005b600080fd5b34801561023257600080fd5b5061025f6004803603602081101561024957600080fd5b81019080803590602001909291905050506109d2565b005b34801561026d57600080fd5b506102766109dd565b604051808273ffffffffffffffffffffffffffffffffffffffff1673ffffffffffffffffffffffffffffffffffffffff16815260200191505060405180910390f35b3480156102c457600080fd5b506102cd610a8b565b6040518080602001828103825283818151815260200191508051906020019080838360005b8381101561030d5780820151818401526020810190506102f2565b50505050905090810190601f16801561033a5780820380516001836020036101000a031916815260200191505b509250505060405180910390f35b34801561035457600080fd5b5061049f6004803603604081101561036b57600080fd5b810190808035906020019064010000000081111561038857600080fd5b82018360208201111561039a57600080fd5b803590602001918460208302840111640100000000831117156103bc57600080fd5b919080806020026020016040519081016040528093929190818152602001838360200280828437600081840152601f19601f8201169050808301925050505050505091929192908035906020019064010000000081111561041c57600080fd5b82018360208201111561042e57600080fd5b8035906020019184602083028401116401000000008311171561045057600080fd5b919080806020026020016040519081016040528093929190818152602001838360200280828437600081840152601f19601f820116905080830192505050505050509192919290505050610b4c565b604051808215151515815260200191505060405180910390f35b3480156104c557600080fd5b506104ce611142565b604051808273ffffffffffffffffffffffffffffffffffffffff1673ffffffffffffffffffffffffffffffffffffffff16815260200191505060405180910390f35b34801561051c57600080fd5b506105256111f0565b604051808215151515815260200191505060405180910390f35b34801561054b57600080fd5b50610554611206565b005b34801561056257600080fd5b506105da6004803603602081101561057957600080fd5b810190808035906020019064010000000081111561059657600080fd5b8201836020820111156105a857600080fd5b803590602001918460208302840111640100000000831117156105ca57600080fd5b9091929391929390505050611480565b604051808215151515815260200191505060405180910390f35b34801561060057600080fd5b506106096118ec565b005b34801561061757600080fd5b50610620611a74565b604051808273ffffffffffffffffffffffffffffffffffffffff1673ffffffffffffffffffffffffffffffffffffffff16815260200191505060405180910390f35b34801561066e57600080fd5b506106b16004803603602081101561068557600080fd5b81019080803573ffffffffffffffffffffffffffffffffffffffff169060200190929190505050611a9d565b604051808215151515815260200191505060405180910390f35b3480156106d757600080fd5b5061071a600480360360208110156106ee57600080fd5b81019080803573ffffffffffffffffffffffffffffffffffffffff169060200190929190505050611b77565b604051808215151515815260200191505060405180910390f35b34801561074057600080fd5b506107ad6004803603606081101561075757600080fd5b81019080803573ffffffffffffffffffffffffffffffffffffffff16906020019092919080359060200190929190803573ffffffffffffffffffffffffffffffffffffffff169060200190929190505050611c51565b604051808215151515815260200191505060405180910390f35b3480156107d357600080fd5b50610820600480360360408110156107ea57600080fd5b81019080803573ffffffffffffffffffffffffffffffffffffffff16906020019092919080359060200190929190505050612351565b604051808215151515815260200191505060405180910390f35b34801561084657600080fd5b5061084f612a57565b604051808273ffffffffffffffffffffffffffffffffffffffff1673ffffffffffffffffffffffffffffffffffffffff16815260200191505060405180910390f35b610928600480360360408110156108a757600080fd5b81019080803573ffffffffffffffffffffffffffffffffffffffff169060200190929190803590602001906401000000008111156108e457600080fd5b8201836020820111156108f657600080fd5b8035906020019184600183028401116401000000008311171561091857600080fd5b9091929391929390505050612b05565b005b34801561093657600080fd5b5061093f6131cb565b604051808273ffffffffffffffffffffffffffffffffffffffff1673ffffffffffffffffffffffffffffffffffffffff16815260200191505060405180910390f35b34801561098d57600080fd5b506109d0600480360360208110156109a457600080fd5b81019080803573ffffffffffffffffffffffffffffffffffffffff169060200190929190505050613279565b005b50565b600033905090565b6000610a0b7ff9b847c28a420128d53b4f4e7774ff8b31a0203fad35bd70555ed65d618516cd60001b6109d2565b610a377fdd1e53107295d827683e6422f96b29c2a1125ecf9e49fb4dd61e53ce9ab7d5a560001b6109d2565b610a637f9b06c08e62070cf4e84b0ddf3813469445508e393be0a45b3cff4dfdebec567b60001b6109d2565b600360009054906101000a900473ffffffffffffffffffffffffffffffffffffffff16905090565b6060610ab97f8e9e988b50a48b349c0f90f398fd688f8642784b6aed383fb80d13e8a4106a9760001b6109d2565b610ae57f039b0c104f649c33f0e0c4f51f6b96f5fe2810c18c7694fbff54fc4486bcd1bb60001b6109d2565b610b117fe33327d453dc9f713cda55c1e515064caad986767f61612e9b71e311cf632b2360001b6109d2565b6040518060400160405280600581526020017f322e302e30000000000000000000000000000000000000000000000000000000815250905090565b6000610b566109d5565b73ffffffffffffffffffffffffffffffffffffffff166000809054906101000a900473ffffffffffffffffffffffffffffffffffffffff1673ffffffffffffffffffffffffffffffffffffffff1614610c17576040517f08c379a00000000000000000000000000000000000000000000000000000000081526004018080602001828103825260208152602001807f4f776e61626c653a2063616c6c6572206973206e6f7420746865206f776e657281525060200191505060405180910390fd5b610c437fb244a45e680b62369aa93135d25d544dc822459c6a9024a2b6358509fe44dcbb60001b6109d2565b610c6f7f3efb5a448e2aab253c80095cb5a38e34d1ea258d971673e8ceaf4fc3a8bb020c60001b6109d2565b610c9b7f08886b1441ab2cd44a8bb88b0c6a64953349826955b33bcd778e30336aea9f5560001b6109d2565b600083519050610ccd7f67c7c86bdc715a4c5745c6b786a68a94080b74db929cb37c7bd8e719b0fe177860001b6109d2565b610cf97f0df1e7660e657797ec79fd3396dcd3dd9d58ffd3e7841c6644a96976cef7042760001b6109d2565b610d257f56447c0e6d737a9e2d6c540b1e8030a3d1f7be0a6f8ce8e9711827b9077b507b60001b6109d2565b82518114610d9b576040517f08c379a000000000000000000000000000000000000000000000000000000000815260040180806020018281038252600f8152602001807f526f757465723a204c454e47544853000000000000000000000000000000000081525060200191505060405180910390fd5b610dc77f15d5cf00c303748c22050a74c8ea2081c68bbb1ded3f7256dfb268784710249460001b6109d2565b610df37f8424e039362a714a603e9a7b7030631139a28dba670ecbd9743881b1421c028860001b6109d2565b610e1f7f38e489a05cf81f6109b18ae45884d981b854c31635c2508297b45c6b719ce76e60001b6109d2565b60008090505b81811015610fcb57610e597fa4ce65e9ce70564e91c03f446182ab1f5f99adccf82d72e63086bff181b81e2f60001b6109d2565b610e857f9abc1a9f9b5b4ffe3be65fdd60b2bb5908fb169303d0743a5ccb9587b4d438f160001b6109d2565b6000858281518110610e9357fe5b60200260200101519050610ec97ff0b46c9e19e4af50df64924072540da1046f1957c664608df66d31392f381f7660001b6109d2565b610ef57f8a019c995660394e75ca2afee2736dc2a03fd061bdb2b1a754b0322dd35a269c60001b6109d2565b6000858381518110610f0357fe5b60200260200101519050610f397f4c9a87e9b583932184cf47b9f6183f30f9c42938910499a79bf112e7e0366c5f60001b6109d2565b610f657f1ef85027ae5b4ee939fde63e9da0807bf3fc828d1b87eccbe29a349d36e8cc1d60001b6109d2565b80600760008473ffffffffffffffffffffffffffffffffffffffff1673ffffffffffffffffffffffffffffffffffffffff16815260200190815260200160002060006101000a81548160ff02191690831515021790555050508080600101915050610e25565b50610ff87f6bfb99fbf34267524ae5b495fde72efc8f09c966c0882f850a339147e12a1d7960001b6109d2565b6110247fd71f835d4f9ef5e2cb0eb368028e0c4813c8b29502456887f9ba49fd78f5c04460001b6109d2565b8360405180828051906020019060200280838360005b8381101561105557808201518184015260208101905061103a565b5050505090500191505060405180910390207fddf79900a722be2ea62e189e14c509d39f49d84e9ab1030870e2f2ba23b88e3c846040518080602001828103825283818151815260200191508051906020019060200280838360005b838110156110cc5780820151818401526020810190506110b1565b505050509050019250505060405180910390a261110b7fadecd20fc0c4c0371087519a829997dd3844d4c3722f71c15fecdbbafc50714660001b6109d2565b6111377f73ddbfbec7e018c5c7ad03ac3dce5382ff3a72e4f5aef426403b8bf6742e044460001b6109d2565b600191505092915050565b60006111707f6a541aa2c42fee16b6864edb7f258de06c60d880d2f48aa84790b8c5b67f613e60001b6109d2565b61119c7f0d588355869d55741f9191c6c215b3480d0094ad3e09818e58dee10ade39c91a60001b6109d2565b6111c87f31316f433abbd0bb787c70fa611688189f40b11c40ed855ae0308b14077e955760001b6109d2565b600260009054906101000a900473ffffffffffffffffffffffffffffffffffffffff16905090565b60008060149054906101000a900460ff16905090565b61120e6109d5565b73ffffffffffffffffffffffffffffffffffffffff166000809054906101000a900473ffffffffffffffffffffffffffffffffffffffff1673ffffffffffffffffffffffffffffffffffffffff16146112cf576040517f08c379a00000000000000000000000000000000000000000000000000000000081526004018080602001828103825260208152602001807f4f776e61626c653a2063616c6c6572206973206e6f7420746865206f776e657281525060200191505060405180910390fd5b6112fb7f660f2bfca9d5e60d3210371c96ae8856937ea08d5a22f37c6a6775ae23195da460001b6109d2565b6113277f9d90eb3dd661ada59005c8b23ed2fae59e789a2ba2d725c4ae614c67e62e0caa60001b6109d2565b6113537f59523070193ab988c72ddfbe23af470ebda3cca135b1030c730304c88209616060001b6109d2565b61135b6111f0565b156113f15761138c7f5aca7213c6de2d7a5955b7181728474a0a057e28d00cd7356832d7ff2a987d9160001b6109d2565b6113b87fa23dc4ceb5f2cda183b276b94316cc513cb36ad54a9cacc49636946eeca5090b60001b6109d2565b6113e47fc0262e3d2e554d34a577f85de075b257b3f1e21096cf660f99eee2e77828c4e460001b6109d2565b6113ec613486565b61147e565b61141d7fbe3b4a02e00564f1191d999abb0514d205b59b03a488c933f484066d883a873460001b6109d2565b6114497ffa3f8de7f43985c8c7d97e5bc4c6b1a4513ba5f4fa8e9abc245f590cbe5d64d060001b6109d2565b6114757f652e2b338ca2cab96dad626b0a5136e227c417ad287e128bdf458977873a296b60001b6109d2565b61147d61358e565b5b565b60006114ae7f78b52be9ac45f680a35a0b4ce9c36ce6d327387234cced46404e93d2b3e63d1c60001b6109d2565b6114da7fca70ee06bad2efbb65591fd25164a4c7d6a2cc2adc9de1d21c23ac30a37bb1c460001b6109d2565b6115067f5f21ed6e0474abd820ddd2be83f951dd19114085661bfa99a06ecfb8d8838c4f60001b6109d2565b600083839050905061153a7f1be804750ad4857ace9163668048c984831a047ef4e66e452b432661ce0a2c2c60001b6109d2565b6115667fb94c177c3c2d3c520ad835c56093e69fceb392c2135b3730cf7459c575daf87760001b6109d2565b60008090505b818110156117e2576115a07f700e7884b5c01e0d561bd8c60e9626667ec8800237247bc658530e8b12d539f560001b6109d2565b6115cc7f2703c521c3e6f87be131c990c48fadc4ba6bff052b1c85698ae4635ebbb0717060001b6109d2565b60008585838181106115da57fe5b9050602002013573ffffffffffffffffffffffffffffffffffffffff1690506116257fa1963ec3113102d06bc65970735edfdb63d7303bf450f42366fade8f13aa4bd060001b6109d2565b6116517fc330e03cfae6e0ae1485b2b7a88a57310269c3ae79d0ba71cb9601b4f2df2bb560001b6109d2565b61167d7f027f2f2bfbd602f9cf545b4da16488ff79e437844b685256d300242696a359b460001b6109d2565b61168681613698565b6116f8576040517f08c379a00000000000000000000000000000000000000000000000000000000081526004018080602001828103825260138152602001807f526f757465723a204556494c5f4f5054494f4e0000000000000000000000000081525060200191505060405180910390fd5b6117247f3a29b95b8dad6a20f8111e4005e4b409254798f709eb05f4f844b69d4d6c42ff60001b6109d2565b6117507fb8c38486c30bfad2cb54d0ea30cd6cb7b20c48aa4849661bf1a8b467b0e8481460001b6109d2565b61177c7f11b46947ba664dfd410ff92da1b0c9970a425e744bf1f00b659522ea0f29ee5660001b6109d2565b6001600860008373ffffffffffffffffffffffffffffffffffffffff1673ffffffffffffffffffffffffffffffffffffffff16815260200190815260200160002060006101000a81548160ff02191690831515021790555050808060010191505061156c565b5061180f7f5969c2a527dd280d3ce49e829b9d6e15f337ccf3edb8cbde15e7c672b056b0a060001b6109d2565b61183b7f02442742e7ce6ef63c1f22c4866bf8dc4c3bdc459c41b267408743483619ec2e60001b6109d2565b838360405180838360200280828437808301925050509250505060405180910390207fd5b92501d17df70c95cffab7a24e434673e899acd72ca2031ae679aadf22d14160405160405180910390a26118b57fc2c322362889d3fc76e1a55d252cebeae71bacf6e73567f3b087501d8161423960001b6109d2565b6118e17f421a95a37f65d7a28b96d9f9febb75313dc37730885f2403c7b04f3bf8c6406160001b6109d2565b600191505092915050565b6118f46109d5565b73ffffffffffffffffffffffffffffffffffffffff166000809054906101000a900473ffffffffffffffffffffffffffffffffffffffff1673ffffffffffffffffffffffffffffffffffffffff16146119b5576040517f08c379a00000000000000000000000000000000000000000000000000000000081526004018080602001828103825260208152602001807f4f776e61626c653a2063616c6c6572206973206e6f7420746865206f776e657281525060200191505060405180910390fd5b600073ffffffffffffffffffffffffffffffffffffffff166000809054906101000a900473ffffffffffffffffffffffffffffffffffffffff1673ffffffffffffffffffffffffffffffffffffffff167f8be0079c531659141344cd1fd0a4f28419497f9722a3daafe3b4186f6b6457e060405160405180910390a360008060006101000a81548173ffffffffffffffffffffffffffffffffffffffff021916908373ffffffffffffffffffffffffffffffffffffffff160217905550565b60008060009054906101000a900473ffffffffffffffffffffffffffffffffffffffff16905090565b6000611acb7f66658b248a06ae252aab7d09a320f5f08b1f94453bf58d5e70d348a6223d18aa60001b6109d2565b611af77f9aec240e4ce46a31103bf0591b399a0814b58a977bc654b68e90405aeefb8f5860001b6109d2565b611b237f186dda43d33f675e69fce31a6d70fbbadfe1b13bec0f9ff35791abab59b8eb0660001b6109d2565b600760008373ffffffffffffffffffffffffffffffffffffffff1673ffffffffffffffffffffffffffffffffffffffff16815260200190815260200160002060009054906101000a900460ff169050919050565b6000611ba57f84da62a1e3ef75d91718c625a75a087b760c3478bb308eb38b97e3b0b91ad41c60001b6109d2565b611bd17f93aebd30d8993a6b6c73bb44b87befcf76d45a70049ac7dec01097d3a21a2db560001b6109d2565b611bfd7f0123e8607e095fbd2c2b8fd23c12b3461ceee3f0bc71e07519b18aec699ea66760001b6109d2565b600860008373ffffffffffffffffffffffffffffffffffffffff1673ffffffffffffffffffffffffffffffffffffffff16815260200190815260200160002060009054906101000a900460ff169050919050565b6000611c7f7f92ed17c081bf405d519936002aecca1fc8805143ac0e2c8de2e8243928b443a660001b6109d2565b611cab7f7cfe3b563818e380bbb8c8fe9d84359cdfeb43d0a496e21085862d2fac4bc9ad60001b6109d2565b611cd77fa94d93d062acf04a002f0b47ebeee1c5971db67e62ee5eab46db324094b94e8960001b6109d2565b611d037f1d1fd4f66c6075b2c86d042ca472551856054bf98bf40363a31485974aa25f9a60001b6109d2565b611d0b6109d5565b73ffffffffffffffffffffffffffffffffffffffff16600560009054906101000a900473ffffffffffffffffffffffffffffffffffffffff1673ffffffffffffffffffffffffffffffffffffffff1614611dcd576040517f08c379a00000000000000000000000000000000000000000000000000000000081526004018080602001828103825260158152602001807f526f757465723a204e4f545f434f4e4e4543544f52000000000000000000000081525060200191505060405180910390fd5b611df97f3ed05ece24bb11358c395cbbdf581ebd2bfc684718991e11f85d8adf991d4c8260001b6109d2565b611e257f2da3f72a706f74eaa16da02bc7ccb295dbf354c33d87f56c04a19ee90f73cc6d60001b6109d2565b611e517f3485649866200dbe427f82389a7cde82a6040c220007a8ed785de47be19b278760001b6109d2565b611e7d7f59503ab6868c99c88a13fad164a3e018ef4b6b14c232ec2227972b4605c32e2260001b6109d2565b600073ffffffffffffffffffffffffffffffffffffffff16600660009054906101000a900473ffffffffffffffffffffffffffffffffffffffff1673ffffffffffffffffffffffffffffffffffffffff161415611f42576040517f08c379a00000000000000000000000000000000000000000000000000000000081526004018080602001828103825260118152602001807f526f757465723a204e4f5f43414c4c455200000000000000000000000000000081525060200191505060405180910390fd5b611f6e7f21dbd5605125a8f36f89be93a072247fee454f93cca6f00d0e7d0f2dc77363c260001b6109d2565b611f9a7f5bf1afd8abc022843924300335721d06256c3bb4debb9f43cf03da1c517df39660001b6109d2565b611fc67f8a24d8615d1ae6bed193ed72b9765c39dbad7d96ffeebc04f66b03e1b91f211960001b6109d2565b611ff27f287a9c7f3e478d722452208738d94a6a19f8172d181ee411b8ae4b65561be2f460001b6109d2565b600660149054906101000a900460ff1615612075576040517f08c379a00000000000000000000000000000000000000000000000000000000081526004018080602001828103825260148152602001807f526f757465723a20494e5f455845435554494f4e00000000000000000000000081525060200191505060405180910390fd5b6120a17f6afb657839b59d353edcb229a90142442d335aee5fffe7994388c8837ea566af60001b6109d2565b6120cd7f6f5d6979083b262b64bfa4a93a5433e6109b36da75543a867f0f4c03bf01b63c60001b6109d2565b6120f97f7a1d357cc8cfd8f074922477a81964b0a9b094cb5e7fa718e61b54764669d8a360001b6109d2565b6001600660146101000a81548160ff0219169083151502179055506121407f51632bdbb35719266c68129f5c109b930f18c747d2e49370296a6f647b29d7af60001b6109d2565b600060149054906101000a900460ff16156121c3576040517f08c379a00000000000000000000000000000000000000000000000000000000081526004018080602001828103825260108152602001807f5061757361626c653a207061757365640000000000000000000000000000000081525060200191505060405180910390fd5b6121ef7f7acffeee7d46c939e3601224b2f3dc1e255b2da96c62179b58c5573a41ab62ee60001b6109d2565b61221b7f0993c1ed52b6b0897470b2a8dd79bac3b712787eecac0b489ef605b11168a49460001b6109d2565b6122477f3881930369f6e2e5bdfe60a391f578b2450fdcfab262204a0477003dfd5bb77560001b6109d2565b61227b612252612a57565b83858773ffffffffffffffffffffffffffffffffffffffff16613b31909392919063ffffffff16565b6122a77f7df13583621518b7849b75a1e657068014ea5e38aa52810a8ea369ea156f364260001b6109d2565b6122d37fa2616a1a18691f1cb3ba2aa487c09a7f1930c5992f0f1b4bb37fc38b10c3811260001b6109d2565b600190506123037f050f72b79c31b6b0470e380fa6b4bf89fa41f91f22cee410dbfd19e09efe7c7860001b6109d2565b61232f7f561c5a510aec282abb1e6cde2f8a2884144bd48d03893336170d2cbe95c89afb60001b6109d2565b6000600660146101000a81548160ff0219169083151502179055509392505050565b600061237f7f92ed17c081bf405d519936002aecca1fc8805143ac0e2c8de2e8243928b443a660001b6109d2565b6123ab7f7cfe3b563818e380bbb8c8fe9d84359cdfeb43d0a496e21085862d2fac4bc9ad60001b6109d2565b6123d77fa94d93d062acf04a002f0b47ebeee1c5971db67e62ee5eab46db324094b94e8960001b6109d2565b6124037f1d1fd4f66c6075b2c86d042ca472551856054bf98bf40363a31485974aa25f9a60001b6109d2565b61240b6109d5565b73ffffffffffffffffffffffffffffffffffffffff16600560009054906101000a900473ffffffffffffffffffffffffffffffffffffffff1673ffffffffffffffffffffffffffffffffffffffff16146124cd576040517f08c379a00000000000000000000000000000000000000000000000000000000081526004018080602001828103825260158152602001807f526f757465723a204e4f545f434f4e4e4543544f52000000000000000000000081525060200191505060405180910390fd5b6124f97f3ed05ece24bb11358c395cbbdf581ebd2bfc684718991e11f85d8adf991d4c8260001b6109d2565b6125257f2da3f72a706f74eaa16da02bc7ccb295dbf354c33d87f56c04a19ee90f73cc6d60001b6109d2565b6125517f3485649866200dbe427f82389a7cde82a6040c220007a8ed785de47be19b278760001b6109d2565b61257d7f59503ab6868c99c88a13fad164a3e018ef4b6b14c232ec2227972b4605c32e2260001b6109d2565b600073ffffffffffffffffffffffffffffffffffffffff16600660009054906101000a900473ffffffffffffffffffffffffffffffffffffffff1673ffffffffffffffffffffffffffffffffffffffff161415612642576040517f08c379a00000000000000000000000000000000000000000000000000000000081526004018080602001828103825260118152602001807f526f757465723a204e4f5f43414c4c455200000000000000000000000000000081525060200191505060405180910390fd5b61266e7f21dbd5605125a8f36f89be93a072247fee454f93cca6f00d0e7d0f2dc77363c260001b6109d2565b61269a7f5bf1afd8abc022843924300335721d06256c3bb4debb9f43cf03da1c517df39660001b6109d2565b6126c67f8a24d8615d1ae6bed193ed72b9765c39dbad7d96ffeebc04f66b03e1b91f211960001b6109d2565b6126f27f287a9c7f3e478d722452208738d94a6a19f8172d181ee411b8ae4b65561be2f460001b6109d2565b600660149054906101000a900460ff1615612775576040517f08c379a00000000000000000000000000000000000000000000000000000000081526004018080602001828103825260148152602001807f526f757465723a20494e5f455845435554494f4e00000000000000000000000081525060200191505060405180910390fd5b6127a17f6afb657839b59d353edcb229a90142442d335aee5fffe7994388c8837ea566af60001b6109d2565b6127cd7f6f5d6979083b262b64bfa4a93a5433e6109b36da75543a867f0f4c03bf01b63c60001b6109d2565b6127f97f7a1d357cc8cfd8f074922477a81964b0a9b094cb5e7fa718e61b54764669d8a360001b6109d2565b6001600660146101000a81548160ff0219169083151502179055506128407f51632bdbb35719266c68129f5c109b930f18c747d2e49370296a6f647b29d7af60001b6109d2565b600060149054906101000a900460ff16156128c3576040517f08c379a00000000000000000000000000000000000000000000000000000000081526004018080602001828103825260108152602001807f5061757361626c653a207061757365640000000000000000000000000000000081525060200191505060405180910390fd5b6128ef7ffb6917c3802162a0fd876267daaa5e584e15f9e842a3edc6268208ee757f6ccc60001b6109d2565b61291b7f0954027f5d5825ee3b1d0084a870e6abbcaa235555a216df000f13b0c4f1753660001b6109d2565b6129477f77a182dfc58046d9000901c448070fba75731665392e1d639dc2a05e853dbd6860001b6109d2565b612982612952612a57565b61295a6109d5565b848673ffffffffffffffffffffffffffffffffffffffff16613b31909392919063ffffffff16565b6129ae7f74dcf01c466411ea717282040a4600e4412f52cda3cf4e7fbc84c7a19d17fa9960001b6109d2565b6129da7f747c23ad932bfed088374eaebefff995d06af1fc31d020eb3626a7435450352b60001b6109d2565b60019050612a0a7f050f72b79c31b6b0470e380fa6b4bf89fa41f91f22cee410dbfd19e09efe7c7860001b6109d2565b612a367f561c5a510aec282abb1e6cde2f8a2884144bd48d03893336170d2cbe95c89afb60001b6109d2565b6000600660146101000a81548160ff02191690831515021790555092915050565b6000612a857f3699f6b63392c31bc02a98fe83683f8051c90b45eda564b7deb437e2fafe912460001b6109d2565b612ab17fe54935ce39f7e28b20590cf2608afdf221db3d99f195d952f269ec5b0cd170f360001b6109d2565b612add7fa10b7b71b2ca8aa4b973de3a26a9adec911f6be197200f2094d973f3bfdb5f2160001b6109d2565b600660009054906101000a900473ffffffffffffffffffffffffffffffffffffffff16905090565b600060149054906101000a900460ff1615612b88576040517f08c379a00000000000000000000000000000000000000000000000000000000081526004018080602001828103825260108152602001807f5061757361626c653a207061757365640000000000000000000000000000000081525060200191505060405180910390fd5b612bb47f76eaad7884c3f6aa278e8da8ee4e0d1c252e4765141743ffc88a728f35fbff8f60001b6109d2565b612be07f718eb33cbf55e1c1d2bf19de3ebca7e56221b5b48f5e10eb66bb0341785187b060001b6109d2565b612c0c7f235ed6dd35313940704a931cc50a081020ba1947be716b1b277a6b5883ac407460001b6109d2565b612c387f583d74f14921cf7be9cf2185ec58d7b13df22bc67dcfe862c47a9aac01eb9f9360001b6109d2565b600760008473ffffffffffffffffffffffffffffffffffffffff1673ffffffffffffffffffffffffffffffffffffffff16815260200190815260200160002060009054906101000a900460ff16612cf7576040517f08c379a00000000000000000000000000000000000000000000000000000000081526004018080602001828103825260198152602001807f526f757465723a20494e56414c49445f434f4e4e4543544f520000000000000081525060200191505060405180910390fd5b612d237f69b3aa7af7ca81d5b8b6536d17eba14fb8e84e74d1d3f2a45197c51b7444c39660001b6109d2565b612d4f7fdebdb5961815661906c14f5b84a227dea86c8b3c433e35fc4b5b5da8da54700f60001b6109d2565b612d7b7f0191b9116150e0fd2ffbe69dc26b84389750f3aee8c077c56616d386ee21cfdd60001b6109d2565b612d836109d5565b600660006101000a81548173ffffffffffffffffffffffffffffffffffffffff021916908373ffffffffffffffffffffffffffffffffffffffff160217905550612def7fb9a8a4190715180b6d4359ccf6249a261ca23c3ddb3360f9e14c247174c5715f60001b6109d2565b612e1b7fe899480779ef762533858b18861ee1ab36d49b2972430727dd5f401ae3afecbf60001b6109d2565b82600560006101000a81548173ffffffffffffffffffffffffffffffffffffffff021916908373ffffffffffffffffffffffffffffffffffffffff160217905550612e887fbfa35afdc12d6e231c04cea3e4124a604bc5ba0972cfda572386e4663e3b743c60001b6109d2565b612eb47f99cd3d03191ec1d68452700321cadae63745c48d61ec4a832133bed0661cb2a660001b6109d2565b600460009054906101000a900473ffffffffffffffffffffffffffffffffffffffff1673ffffffffffffffffffffffffffffffffffffffff1663bca8c7b5348585856040518563ffffffff1660e01b8152600401808473ffffffffffffffffffffffffffffffffffffffff1673ffffffffffffffffffffffffffffffffffffffff168152602001806020018281038252848482818152602001925080828437600081840152601f19601f8201169050808301925050509450505050506000604051808303818588803b158015612f8957600080fd5b505af1158015612f9d573d6000803e3d6000fd5b5050505050612fce7fe81fbf7d8a3bc1ccfd67493c97c8c3782153ff564c86e54cfd674f3baf24d32c60001b6109d2565b612ffa7f888839e78f3f3b6928ca1a1786f63168bb8cc764df65a910f2edfdb382ff152360001b6109d2565b6000600660006101000a81548173ffffffffffffffffffffffffffffffffffffffff021916908373ffffffffffffffffffffffffffffffffffffffff1602179055506130687ffa9b7899bf7775856d8c18b1fe3daa120e95ca7206469015ce4fe626920b59b360001b6109d2565b6130947f97eeb82c5ac2a6ff7166255d0ffd92a152f8c190695cd61c127e8b03ac17a66460001b6109d2565b6000600560006101000a81548173ffffffffffffffffffffffffffffffffffffffff021916908373ffffffffffffffffffffffffffffffffffffffff1602179055506131027f0ad45da55232ee6152e1f292ee1fbeed65b514543c260fdf1b1260369432a23b60001b6109d2565b61312e7ffa104f7a4113dece798dc5098327e495d330796de45d5a84d293c8238eb77a5360001b6109d2565b8273ffffffffffffffffffffffffffffffffffffffff1661314d6109d5565b73ffffffffffffffffffffffffffffffffffffffff167fbd0123ee3a8dad3bc2777bd706a3d4b7b89a6f4f7d175b1e00e36558e94d83ab848460405180806020018281038252848482818152602001925080828437600081840152601f19601f820116905080830192505050935050505060405180910390a3505050565b60006131f97f719a7b4a665200e5d80617182ff0f2d4aec090453c7aefcfafcae6f409f2127460001b6109d2565b6132257fd8d5a8740c3199dc2633fd089e9c74c2e801e7cdc3681ab3a749c1b6606de89f60001b6109d2565b6132517f611b3b4a6d6d3deed8e0ca42c9fc6cacd68ba7d164d5a11e41fa5d67e1b18de960001b6109d2565b600460009054906101000a900473ffffffffffffffffffffffffffffffffffffffff16905090565b6132816109d5565b73ffffffffffffffffffffffffffffffffffffffff166000809054906101000a900473ffffffffffffffffffffffffffffffffffffffff1673ffffffffffffffffffffffffffffffffffffffff1614613342576040517f08c379a00000000000000000000000000000000000000000000000000000000081526004018080602001828103825260208152602001807f4f776e61626c653a2063616c6c6572206973206e6f7420746865206f776e657281525060200191505060405180910390fd5b600073ffffffffffffffffffffffffffffffffffffffff168173ffffffffffffffffffffffffffffffffffffffff1614156133c8576040517f08c379a0000000000000000000000000000000000000000000000000000000008152600401808060200182810382526026815260200180613f3f6026913960400191505060405180910390fd5b8073ffffffffffffffffffffffffffffffffffffffff166000809054906101000a900473ffffffffffffffffffffffffffffffffffffffff1673ffffffffffffffffffffffffffffffffffffffff167f8be0079c531659141344cd1fd0a4f28419497f9722a3daafe3b4186f6b6457e060405160405180910390a3806000806101000a81548173ffffffffffffffffffffffffffffffffffffffff021916908373ffffffffffffffffffffffffffffffffffffffff16021790555050565b600060149054906101000a900460ff16613508576040517f08c379a00000000000000000000000000000000000000000000000000000000081526004018080602001828103825260148152602001807f5061757361626c653a206e6f742070617573656400000000000000000000000081525060200191505060405180910390fd5b60008060146101000a81548160ff0219169083151502179055507f5db9ee0a495bf2e6ff9c91a7834c1ba4fdd244a5e8aa4e537bd38aeae4b073aa61354b6109d5565b604051808273ffffffffffffffffffffffffffffffffffffffff1673ffffffffffffffffffffffffffffffffffffffff16815260200191505060405180910390a1565b600060149054906101000a900460ff1615613611576040517f08c379a00000000000000000000000000000000000000000000000000000000081526004018080602001828103825260108152602001807f5061757361626c653a207061757365640000000000000000000000000000000081525060200191505060405180910390fd5b6001600060146101000a81548160ff0219169083151502179055507f62e78cea01bee320cd4e420270b5ea74000d11b0c9f74754ebdbfc544b05a2586136556109d5565b604051808273ffffffffffffffffffffffffffffffffffffffff1673ffffffffffffffffffffffffffffffffffffffff16815260200191505060405180910390a1565b60006136c67ff5154eee2b272576be66b4ff73a078e29e6b0dc975d60fadb79eb6cd06dac4b660001b6109d2565b6136f27fa345e2bb1c37e948471906949476a134d2b01b17e5f662754ba8f38b7272132460001b6109d2565b61371e7f9cf739a62ef8378ad51c7754a92cd498ea26c0c0bc3403842f1c56085fc04d8260001b6109d2565b600260009054906101000a900473ffffffffffffffffffffffffffffffffffffffff1673ffffffffffffffffffffffffffffffffffffffff1663b000e9ec8373ffffffffffffffffffffffffffffffffffffffff1663440f5fd26040518163ffffffff1660e01b815260040160206040518083038186803b1580156137a257600080fd5b505afa1580156137b6573d6000803e3d6000fd5b505050506040513d60208110156137cc57600080fd5b81019080805190602001909291905050508473ffffffffffffffffffffffffffffffffffffffff1663a1a407616040518163ffffffff1660e01b815260040160206040518083038186803b15801561382357600080fd5b505afa158015613837573d6000803e3d6000fd5b505050506040513d602081101561384d57600080fd5b81019080805190602001909291905050508573ffffffffffffffffffffffffffffffffffffffff1663b592a1386040518163ffffffff1660e01b815260040160206040518083038186803b1580156138a457600080fd5b505afa1580156138b8573d6000803e3d6000fd5b505050506040513d60208110156138ce57600080fd5b81019080805190602001909291905050508673ffffffffffffffffffffffffffffffffffffffff1662fe19fa6040518163ffffffff1660e01b815260040160206040518083038186803b15801561392457600080fd5b505afa158015613938573d6000803e3d6000fd5b505050506040513d602081101561394e57600080fd5b81019080805190602001909291905050508773ffffffffffffffffffffffffffffffffffffffff166325cb5bc06040518163ffffffff1660e01b815260040160206040518083038186803b1580156139a557600080fd5b505afa1580156139b9573d6000803e3d6000fd5b505050506040513d60208110156139cf57600080fd5b81019080805190602001909291905050506040518663ffffffff1660e01b8152600401808673ffffffffffffffffffffffffffffffffffffffff1673ffffffffffffffffffffffffffffffffffffffff1681526020018573ffffffffffffffffffffffffffffffffffffffff1673ffffffffffffffffffffffffffffffffffffffff1681526020018481526020018381526020018281526020019550505050505060206040518083038186803b158015613a8857600080fd5b505afa158015613a9c573d6000803e3d6000fd5b505050506040513d6020811015613ab257600080fd5b810190808051906020019092919050505073ffffffffffffffffffffffffffffffffffffffff168273ffffffffffffffffffffffffffffffffffffffff16148015613b2a5750600073ffffffffffffffffffffffffffffffffffffffff168273ffffffffffffffffffffffffffffffffffffffff1614155b9050919050565b613c18846323b872dd60e01b858585604051602401808473ffffffffffffffffffffffffffffffffffffffff1673ffffffffffffffffffffffffffffffffffffffff1681526020018373ffffffffffffffffffffffffffffffffffffffff1673ffffffffffffffffffffffffffffffffffffffff1681526020018281526020019350505050604051602081830303815290604052907bffffffffffffffffffffffffffffffffffffffffffffffffffffffff19166020820180517bffffffffffffffffffffffffffffffffffffffffffffffffffffffff8381831617835250505050613c1e565b50505050565b6060613c80826040518060400160405280602081526020017f5361666545524332303a206c6f772d6c6576656c2063616c6c206661696c65648152508573ffffffffffffffffffffffffffffffffffffffff16613d0d9092919063ffffffff16565b9050600081511115613d0857808060200190516020811015613ca157600080fd5b8101908080519060200190929190505050613d07576040517f08c379a000000000000000000000000000000000000000000000000000000000815260040180806020018281038252602a815260200180613f65602a913960400191505060405180910390fd5b5b505050565b6060613d1c8484600085613d25565b90509392505050565b6060613d3085613f2b565b613da2576040517f08c379a000000000000000000000000000000000000000000000000000000000815260040180806020018281038252601d8152602001807f416464726573733a2063616c6c20746f206e6f6e2d636f6e747261637400000081525060200191505060405180910390fd5b600060608673ffffffffffffffffffffffffffffffffffffffff1685876040518082805190602001908083835b60208310613df25780518252602082019150602081019050602083039250613dcf565b6001836020036101000a03801982511681845116808217855250505050505090500191505060006040518083038185875af1925050503d8060008114613e54576040519150601f19603f3d011682016040523d82523d6000602084013e613e59565b606091505b50915091508115613e6e578092505050613f23565b600081511115613e815780518082602001fd5b836040517f08c379a00000000000000000000000000000000000000000000000000000000081526004018080602001828103825283818151815260200191508051906020019080838360005b83811015613ee8578082015181840152602081019050613ecd565b50505050905090810190601f168015613f155780820380516001836020036101000a031916815260200191505b509250505060405180910390fd5b949350505050565b600080823b90506000811191505091905056fe4f776e61626c653a206e6577206f776e657220697320746865207a65726f20616464726573735361666545524332303a204552433230206f7065726174696f6e20646964206e6f742073756363656564a2646970667358221220a85adcd161dc85a16bcc96962191a49f0d7e81274d91300e3d2e5a4db471400464736f6c63430006020033608060405234801561001057600080fd5b50610363806100206000396000f3fe6080604052600436106100295760003560e01c806383f190801461002e578063bca8c7b514610069575b600080fd5b34801561003a57600080fd5b506100676004803603602081101561005157600080fd5b8101908080359060200190929190505050610102565b005b6101006004803603604081101561007f57600080fd5b81019080803573ffffffffffffffffffffffffffffffffffffffff169060200190929190803590602001906401000000008111156100bc57600080fd5b8201836020820111156100ce57600080fd5b803590602001918460018302840111640100000000831117156100f057600080fd5b9091929391929390505050610105565b005b50565b6101317f9c4d849b2871e09e62385b9cf24c0838dd4f2f8e10a6ab3074a55988bff8a7cc60001b610102565b61015d7fd0785727c1022024a3e8b132d2c4a9ece6304546ccf582c8716beb7ee96fe6dd60001b610102565b6101897fa8ba0f2b5683474988e6c0ee03bb051ea06383577a312c7225123ae8849f10b460001b610102565b600060608473ffffffffffffffffffffffffffffffffffffffff1634858560405180838380828437808301925050509250505060006040518083038185875af1925050503d80600081146101f9576040519150601f19603f3d011682016040523d82523d6000602084013e6101fe565b606091505b509150915061022f7fb99b54f82aba1f52a655b01b81c988e20b6f73a43cf7d8bb2e1984f10f6fe13460001b610102565b61025b7f184aaa7647f00566b35d7a856cca58b4c444444d2601c62a472a4b6349535c9860001b610102565b6102877f8d9cf6c7ec15a68aa5bec70217573ed143c7334a8055473bc174dfdc3cded55260001b610102565b816102fa576040517f08c379a00000000000000000000000000000000000000000000000000000000081526004018080602001828103825260158152602001807f526f7574653a20455845435554494f4e5f4641494c000000000000000000000081525060200191505060405180910390fd5b6103267f1f823f23ba624923024770dfc15a4ab0b89f9f879f0e0232a9c27db091d59d2e60001b610102565b505050505056fea26469706673582212201dcff8554d7342b03009c398376f9eaa28a102c0974c2602fd96385738b7d2f764736f6c63430006020033",
  "devdoc": {
    "methods": {
      "apiVersion()": {
        "details": "For the npm package: @primitivefi/v1-connectors         For the repository: github.com/primitivefinance/primitive-v1-connectors",
        "returns": {
          "_0": "The apiVersion string."
        }
      },
      "executeCall(address,bytes)": {
        "params": {
          "connector": "The Primitive Connector module to call.",
          "params": "The encoded function data to use."
        }
      },
      "getRegisteredConnector(address)": {
        "params": {
          "connector": "The address of the Connector contract to check if registered."
        }
      },
      "getRegisteredOption(address)": {
        "params": {
          "option": "The address of the Option to check if registered."
        }
      },
      "owner()": {
        "details": "Returns the address of the current owner."
      },
      "paused()": {
        "details": "Returns true if the contract is paused, and false otherwise."
      },
      "renounceOwnership()": {
        "details": "Leaves the contract without owner. It will not be possible to call `onlyOwner` functions anymore. Can only be called by the current owner.     * NOTE: Renouncing ownership will leave the contract without an owner, thereby removing any functionality that is only available to the owner."
      },
      "setRegisteredConnectors(address[],bool[])": {
        "details": "Sets `connectors` to `isValid` in the whitelisted connectors mapping.",
        "params": {
          "connectors": "The array of option addresses to update.",
          "isValid": "Whether or not the optionAddress is registered."
        }
      },
      "setRegisteredOptions(address[])": {
        "details": "Sets `optionAddresses` to true in the whitelisted options mapping, if from Registry.",
        "params": {
          "optionAddresses": "The array of option addresses to update."
        }
      },
      "transferFromCaller(address,uint256)": {
        "params": {
          "amount": "The amount of ERC20 to transfer.",
          "token": "The address of the ERC20."
        },
        "returns": {
          "_0": "Whether or not the transfer succeeded."
        }
      },
      "transferFromCallerToReceiver(address,uint256,address)": {
        "params": {
          "amount": "The amount of ERC20 to transfer.",
          "token": "The address of the ERC20."
        },
        "returns": {
          "_0": "Whether or not the transfer succeeded."
        }
      },
      "transferOwnership(address)": {
        "details": "Transfers ownership of the contract to a new account (`newOwner`). Can only be called by the current owner."
      }
    }
  },
  "userdoc": {
    "methods": {
      "apiVersion()": {
        "notice": "Returns the NPM package version and github version of this contract."
      },
      "executeCall(address,bytes)": {
        "notice": "Executes a call with `params` to the target `connector` contract from `_route`."
      },
      "getCaller()": {
        "notice": "Returns the `_CALLER` which is set to `_msgSender()` during an `executeCall` invocation."
      },
      "getRegisteredConnector(address)": {
        "notice": "Returns a bool if `connector` is registered or not."
      },
      "getRegisteredOption(address)": {
        "notice": "Returns a bool if `option` is registered or not."
      },
      "getRegistry()": {
        "notice": "Returns the Primitive Registry contract address."
      },
      "getRoute()": {
        "notice": "Returns the Route contract which executes functions on behalf of this contract."
      },
      "getWeth()": {
        "notice": "Returns the IWETH contract address."
      },
      "halt()": {
        "notice": "Halts use of `executeCall`, and other functions that change state."
      },
      "setRegisteredConnectors(address[],bool[])": {
        "notice": "Allows the `owner` to set whitelisted connector contracts."
      },
      "setRegisteredOptions(address[])": {
        "notice": "Checks option against Primitive Registry. If from Registry, registers as true.         NOTE: Purposefully does not have `onlyOwner` modifier."
      },
      "transferFromCaller(address,uint256)": {
        "notice": "Transfers ERC20 tokens from the executing `_CALLER` to the executing `_CONNECTOR`."
      },
      "transferFromCallerToReceiver(address,uint256,address)": {
        "notice": "Transfers ERC20 tokens from the executing `_CALLER` to an arbitrary address."
      }
    }
  },
  "storageLayout": {
    "storage": [
      {
        "astId": 29,
        "contract": "contracts/PrimitiveRouter.sol:PrimitiveRouter",
        "label": "_owner",
        "offset": 0,
        "slot": "0",
        "type": "t_address"
      },
      {
        "astId": 1282,
        "contract": "contracts/PrimitiveRouter.sol:PrimitiveRouter",
        "label": "_paused",
        "offset": 20,
        "slot": "0",
        "type": "t_bool"
      },
      {
        "astId": 1358,
        "contract": "contracts/PrimitiveRouter.sol:PrimitiveRouter",
        "label": "_status",
        "offset": 0,
        "slot": "1",
        "type": "t_uint256"
      },
      {
        "astId": 2537,
        "contract": "contracts/PrimitiveRouter.sol:PrimitiveRouter",
        "label": "_registry",
        "offset": 0,
        "slot": "2",
        "type": "t_contract(IRegistry)1618"
      },
      {
        "astId": 2539,
        "contract": "contracts/PrimitiveRouter.sol:PrimitiveRouter",
        "label": "_weth",
        "offset": 0,
        "slot": "3",
        "type": "t_contract(IWETH)10562"
      },
      {
        "astId": 2541,
        "contract": "contracts/PrimitiveRouter.sol:PrimitiveRouter",
        "label": "_route",
        "offset": 0,
        "slot": "4",
        "type": "t_contract(Route)2484"
      },
      {
        "astId": 2544,
        "contract": "contracts/PrimitiveRouter.sol:PrimitiveRouter",
        "label": "_CONNECTOR",
        "offset": 0,
        "slot": "5",
        "type": "t_address"
      },
      {
        "astId": 2547,
        "contract": "contracts/PrimitiveRouter.sol:PrimitiveRouter",
        "label": "_CALLER",
        "offset": 0,
        "slot": "6",
        "type": "t_address"
      },
      {
        "astId": 2549,
        "contract": "contracts/PrimitiveRouter.sol:PrimitiveRouter",
        "label": "_EXECUTING",
        "offset": 20,
        "slot": "6",
        "type": "t_bool"
      },
      {
        "astId": 2553,
        "contract": "contracts/PrimitiveRouter.sol:PrimitiveRouter",
        "label": "_registeredConnectors",
        "offset": 0,
        "slot": "7",
        "type": "t_mapping(t_address,t_bool)"
      },
      {
        "astId": 2557,
        "contract": "contracts/PrimitiveRouter.sol:PrimitiveRouter",
        "label": "_registeredOptions",
        "offset": 0,
        "slot": "8",
        "type": "t_mapping(t_address,t_bool)"
      }
    ],
    "types": {
      "t_address": {
        "encoding": "inplace",
        "label": "address",
        "numberOfBytes": "20"
      },
      "t_bool": {
        "encoding": "inplace",
        "label": "bool",
        "numberOfBytes": "1"
      },
      "t_contract(IRegistry)1618": {
        "encoding": "inplace",
        "label": "contract IRegistry",
        "numberOfBytes": "20"
      },
      "t_contract(IWETH)10562": {
        "encoding": "inplace",
        "label": "contract IWETH",
        "numberOfBytes": "20"
      },
      "t_contract(Route)2484": {
        "encoding": "inplace",
        "label": "contract Route",
        "numberOfBytes": "20"
      },
      "t_mapping(t_address,t_bool)": {
        "encoding": "mapping",
        "key": "t_address",
        "label": "mapping(address => bool)",
        "numberOfBytes": "32",
        "value": "t_bool"
      },
      "t_uint256": {
        "encoding": "inplace",
        "label": "uint256",
        "numberOfBytes": "32"
      }
    }
  }
}