{
  "address": "0x54cf535485510200c26f176E43Fb2622269E696d",
  "abi": [
    {
      "inputs": [
        {
          "internalType": "address",
          "name": "router_",
          "type": "address"
        },
        {
          "internalType": "address",
          "name": "factory_",
          "type": "address"
        },
        {
          "internalType": "address",
          "name": "trader_",
          "type": "address"
        }
      ],
      "stateMutability": "nonpayable",
      "type": "constructor"
    },
    {
      "anonymous": false,
      "inputs": [
        {
          "indexed": true,
          "internalType": "address",
          "name": "from",
          "type": "address"
        },
        {
          "indexed": false,
          "internalType": "uint256",
          "name": "quantity",
          "type": "uint256"
        },
        {
          "indexed": false,
          "internalType": "uint256",
          "name": "payout",
          "type": "uint256"
        }
      ],
      "name": "FlashClosed",
      "type": "event"
    },
    {
      "anonymous": false,
      "inputs": [
        {
          "indexed": true,
          "internalType": "address",
          "name": "from",
          "type": "address"
        },
        {
          "indexed": false,
          "internalType": "uint256",
          "name": "quantity",
          "type": "uint256"
        },
        {
          "indexed": false,
          "internalType": "uint256",
          "name": "premium",
          "type": "uint256"
        }
      ],
      "name": "FlashOpened",
      "type": "event"
    },
    {
      "anonymous": false,
      "inputs": [
        {
          "indexed": true,
          "internalType": "address",
          "name": "from",
          "type": "address"
        }
      ],
      "name": "Initialized",
      "type": "event"
    },
    {
      "inputs": [
        {
          "internalType": "address",
          "name": "optionAddress",
          "type": "address"
        },
        {
          "internalType": "uint256",
          "name": "quantityOptions",
          "type": "uint256"
        },
        {
          "internalType": "uint256",
          "name": "amountBMax",
          "type": "uint256"
        },
        {
          "internalType": "uint256",
          "name": "amountBMin",
          "type": "uint256"
        },
        {
          "internalType": "address",
          "name": "to",
          "type": "address"
        },
        {
          "internalType": "uint256",
          "name": "deadline",
          "type": "uint256"
        }
      ],
      "name": "addShortLiquidityWithUnderlying",
      "outputs": [
        {
          "internalType": "uint256",
          "name": "",
          "type": "uint256"
        },
        {
          "internalType": "uint256",
          "name": "",
          "type": "uint256"
        },
        {
          "internalType": "uint256",
          "name": "",
          "type": "uint256"
        }
      ],
      "stateMutability": "nonpayable",
      "type": "function"
    },
    {
      "inputs": [
        {
          "internalType": "contract IOption",
          "name": "optionToken",
          "type": "address"
        },
        {
          "internalType": "uint256",
          "name": "amountRedeems",
          "type": "uint256"
        },
        {
          "internalType": "uint256",
          "name": "minPayout",
          "type": "uint256"
        }
      ],
      "name": "closeFlashLong",
      "outputs": [
        {
          "internalType": "bool",
          "name": "",
          "type": "bool"
        }
      ],
      "stateMutability": "nonpayable",
      "type": "function"
    },
    {
      "inputs": [
        {
          "internalType": "address",
          "name": "optionAddress",
          "type": "address"
        },
        {
          "internalType": "address",
          "name": "otherToken",
          "type": "address"
        }
      ],
      "name": "deployUniswapMarket",
      "outputs": [
        {
          "internalType": "address",
          "name": "",
          "type": "address"
        }
      ],
      "stateMutability": "nonpayable",
      "type": "function"
    },
    {
      "inputs": [],
      "name": "factory",
      "outputs": [
        {
          "internalType": "contract IUniswapV2Factory",
          "name": "",
          "type": "address"
        }
      ],
      "stateMutability": "view",
      "type": "function"
    },
    {
      "inputs": [
        {
          "internalType": "address",
          "name": "pairAddress",
          "type": "address"
        },
        {
          "internalType": "address",
          "name": "optionAddress",
          "type": "address"
        },
        {
          "internalType": "uint256",
          "name": "flashLoanQuantity",
          "type": "uint256"
        },
        {
          "internalType": "uint256",
          "name": "minPayout",
          "type": "uint256"
        },
        {
          "internalType": "address[]",
          "name": "path",
          "type": "address[]"
        },
        {
          "internalType": "address",
          "name": "to",
          "type": "address"
        }
      ],
      "name": "flashCloseLongOptionsThenSwap",
      "outputs": [
        {
          "internalType": "uint256",
          "name": "",
          "type": "uint256"
        },
        {
          "internalType": "uint256",
          "name": "",
          "type": "uint256"
        }
      ],
      "stateMutability": "nonpayable",
      "type": "function"
    },
    {
      "inputs": [
        {
          "internalType": "address",
          "name": "pairAddress",
          "type": "address"
        },
        {
          "internalType": "address",
          "name": "optionAddress",
          "type": "address"
        },
        {
          "internalType": "uint256",
          "name": "flashLoanQuantity",
          "type": "uint256"
        },
        {
          "internalType": "uint256",
          "name": "maxPremium",
          "type": "uint256"
        },
        {
          "internalType": "address[]",
          "name": "path",
          "type": "address[]"
        },
        {
          "internalType": "address",
          "name": "to",
          "type": "address"
        }
      ],
      "name": "flashMintShortOptionsThenSwap",
      "outputs": [
        {
          "internalType": "uint256",
          "name": "",
          "type": "uint256"
        },
        {
          "internalType": "uint256",
          "name": "",
          "type": "uint256"
        }
      ],
      "stateMutability": "nonpayable",
      "type": "function"
    },
    {
      "inputs": [
        {
          "internalType": "contract IOption",
          "name": "optionToken",
          "type": "address"
        },
        {
          "internalType": "uint256",
          "name": "quantity",
          "type": "uint256"
        }
      ],
      "name": "getClosePremium",
      "outputs": [
        {
          "internalType": "uint256",
          "name": "",
          "type": "uint256"
        },
        {
          "internalType": "uint256",
          "name": "",
          "type": "uint256"
        }
      ],
      "stateMutability": "view",
      "type": "function"
    },
    {
      "inputs": [],
      "name": "getName",
      "outputs": [
        {
          "internalType": "string",
          "name": "",
          "type": "string"
        }
      ],
      "stateMutability": "pure",
      "type": "function"
    },
    {
      "inputs": [
        {
          "internalType": "contract IOption",
          "name": "optionToken",
          "type": "address"
        },
        {
          "internalType": "uint256",
          "name": "quantity",
          "type": "uint256"
        }
      ],
      "name": "getOpenPremium",
      "outputs": [
        {
          "internalType": "uint256",
          "name": "",
          "type": "uint256"
        },
        {
          "internalType": "uint256",
          "name": "",
          "type": "uint256"
        }
      ],
      "stateMutability": "view",
      "type": "function"
    },
    {
      "inputs": [
        {
          "internalType": "address",
          "name": "token0",
          "type": "address"
        },
        {
          "internalType": "address",
          "name": "token1",
          "type": "address"
        }
      ],
      "name": "getUniswapMarketForTokens",
      "outputs": [
        {
          "internalType": "address",
          "name": "",
          "type": "address"
        }
      ],
      "stateMutability": "view",
      "type": "function"
    },
    {
      "inputs": [],
      "name": "getVersion",
      "outputs": [
        {
          "internalType": "uint8",
          "name": "",
          "type": "uint8"
        }
      ],
      "stateMutability": "pure",
      "type": "function"
    },
    {
      "inputs": [
        {
          "internalType": "contract IOption",
          "name": "optionToken",
          "type": "address"
        },
        {
          "internalType": "uint256",
          "name": "amountIn",
          "type": "uint256"
        },
        {
          "internalType": "uint256",
          "name": "amountOutMin",
          "type": "uint256"
        },
        {
          "internalType": "address[]",
          "name": "path",
          "type": "address[]"
        },
        {
          "internalType": "address",
          "name": "to",
          "type": "address"
        },
        {
          "internalType": "uint256",
          "name": "deadline",
          "type": "uint256"
        }
      ],
      "name": "mintShortOptionsThenSwapToTokens",
      "outputs": [
        {
          "internalType": "bool",
          "name": "",
          "type": "bool"
        }
      ],
      "stateMutability": "nonpayable",
      "type": "function"
    },
    {
      "inputs": [
        {
          "internalType": "contract IOption",
          "name": "optionToken",
          "type": "address"
        },
        {
          "internalType": "uint256",
          "name": "amountOptions",
          "type": "uint256"
        },
        {
          "internalType": "uint256",
          "name": "maxPremium",
          "type": "uint256"
        }
      ],
      "name": "openFlashLong",
      "outputs": [
        {
          "internalType": "bool",
          "name": "",
          "type": "bool"
        }
      ],
      "stateMutability": "nonpayable",
      "type": "function"
    },
    {
      "inputs": [
        {
          "internalType": "address",
          "name": "optionAddress",
          "type": "address"
        },
        {
          "internalType": "uint256",
          "name": "liquidity",
          "type": "uint256"
        },
        {
          "internalType": "uint256",
          "name": "amountAMin",
          "type": "uint256"
        },
        {
          "internalType": "uint256",
          "name": "amountBMin",
          "type": "uint256"
        },
        {
          "internalType": "address",
          "name": "to",
          "type": "address"
        },
        {
          "internalType": "uint256",
          "name": "deadline",
          "type": "uint256"
        }
      ],
      "name": "removeShortLiquidityThenCloseOptions",
      "outputs": [
        {
          "internalType": "uint256",
          "name": "",
          "type": "uint256"
        },
        {
          "internalType": "uint256",
          "name": "",
          "type": "uint256"
        }
      ],
      "stateMutability": "nonpayable",
      "type": "function"
    },
    {
      "inputs": [],
      "name": "router",
      "outputs": [
        {
          "internalType": "contract IUniswapV2Router02",
          "name": "",
          "type": "address"
        }
      ],
      "stateMutability": "view",
      "type": "function"
    },
    {
      "inputs": [],
      "name": "trader",
      "outputs": [
        {
          "internalType": "contract ITrader",
          "name": "",
          "type": "address"
        }
      ],
      "stateMutability": "view",
      "type": "function"
    },
    {
      "inputs": [
        {
          "internalType": "address",
          "name": "sender",
          "type": "address"
        },
        {
          "internalType": "uint256",
          "name": "amount0",
          "type": "uint256"
        },
        {
          "internalType": "uint256",
          "name": "amount1",
          "type": "uint256"
        },
        {
          "internalType": "bytes",
          "name": "data",
          "type": "bytes"
        }
      ],
      "name": "uniswapV2Call",
      "outputs": [],
      "stateMutability": "nonpayable",
      "type": "function"
    }
  ],
  "transactionHash": "0xd903b315fe164592de0d300bb82a5cd4519cbd48d3dba0ce9336d9dcaf76316a",
  "args": [
    "0x7a250d5630B4cF539739dF2C5dAcb4c659F2488D",
    "0x5C69bEe701ef814a2B6a3EDD4B1652CB9cc5aA6f",
    "0x615a04282a457b2Dd73Fa297A22114ABE3E812cF"
  ],
  "solcInputHash": "ffb8a0d4daa23409c3ed1a8e91824d4f",
  "bytecode": "0x60806040523480156200001157600080fd5b506040516200448138038062004481833981810160405260608110156200003757600080fd5b508051602082015160409092015160016000556003549192916001600160a01b0316156200009e576040805162461bcd60e51b815260206004820152600f60248201526e11549497d253925512505312569151608a1b604482015290519081900360640190fd5b6002546001600160a01b031615620000ef576040805162461bcd60e51b815260206004820152600f60248201526e11549497d253925512505312569151608a1b604482015290519081900360640190fd5b6001546001600160a01b03161562000140576040805162461bcd60e51b815260206004820152600f60248201526e11549497d253925512505312569151608a1b604482015290519081900360640190fd5b600380546001600160a01b038086166001600160a01b03199283161790925560028054858416908316179055600180549284169290911691909117905560405133907f908408e307fc569b417f6cbec5d5a06f44a0a505ac0479b47d421a4b2fd6a1e690600090a25050506142c680620001bb6000396000f3fe608060405234801561001057600080fd5b506004361061010b5760003560e01c8063904f91dc116100a2578063c45a015511610071578063c45a0155146105f9578063cd04552414610601578063dd2c704e14610633578063f887ea401461065f578063fd52c6bb146106675761010b565b8063904f91dc1461041d5780639245d5831461044957806395f0ae761461048f578063b17d0570146105285761010b565b806317d7de7c116100de57806317d7de7c1461023d5780632e16cab3146102ba57806360060ccd1461031e57806369bd26cd146103ef5761010b565b806307f24906146101105780630d8e6e2c1461016f57806310d1e85c1461018d5780631758078b14610219575b600080fd5b610156600480360360c081101561012657600080fd5b506001600160a01b0381358116916020810135916040820135916060810135916080820135169060a00135610695565b6040805192835260208301919091528051918290030190f35b610177610975565b6040805160ff9092168252519081900360200190f35b610217600480360360808110156101a357600080fd5b6001600160a01b038235169160208101359160408201359190810190608081016060820135600160201b8111156101d957600080fd5b8201836020820111156101eb57600080fd5b803590602001918460018302840111600160201b8311171561020c57600080fd5b50909250905061097a565b005b610221610bcd565b604080516001600160a01b039092168252519081900360200190f35b610245610bdc565b6040805160208082528351818301528351919283929083019185019080838360005b8381101561027f578181015183820152602001610267565b50505050905090810190601f1680156102ac5780820380516001836020036101000a031916815260200191505b509250505060405180910390f35b610300600480360360c08110156102d057600080fd5b506001600160a01b0381358116916020810135916040820135916060810135916080820135169060a00135610c13565b60408051938452602084019290925282820152519081900360600190f35b610156600480360360c081101561033457600080fd5b6001600160a01b03823581169260208101359091169160408201359160608101359181019060a081016080820135600160201b81111561037357600080fd5b82018360208201111561038557600080fd5b803590602001918460208302840111600160201b831117156103a657600080fd5b919080806020026020016040519081016040528093929190818152602001838360200280828437600092019190915250929550505090356001600160a01b03169150610c959050565b6102216004803603604081101561040557600080fd5b506001600160a01b0381358116916020013516610d0a565b6101566004803603604081101561043357600080fd5b506001600160a01b038135169060200135610d98565b61047b6004803603606081101561045f57600080fd5b506001600160a01b038135169060208101359060400135610dc0565b604080519115158252519081900360200190f35b61047b600480360360c08110156104a557600080fd5b6001600160a01b038235169160208101359160408201359190810190608081016060820135600160201b8111156104db57600080fd5b8201836020820111156104ed57600080fd5b803590602001918460208302840111600160201b8311171561050e57600080fd5b91935091506001600160a01b038135169060200135611315565b610156600480360360c081101561053e57600080fd5b6001600160a01b03823581169260208101359091169160408201359160608101359181019060a081016080820135600160201b81111561057d57600080fd5b82018360208201111561058f57600080fd5b803590602001918460208302840111600160201b831117156105b057600080fd5b919080806020026020016040519081016040528093929190818152602001838360200280828437600092019190915250929550505090356001600160a01b031691506113c69050565b61022161143b565b61047b6004803603606081101561061757600080fd5b506001600160a01b03813516906020810135906040013561144a565b6101566004803603604081101561064957600080fd5b506001600160a01b038135169060200135611857565b610221611873565b6102216004803603604081101561067d57600080fd5b506001600160a01b0381358116916020013516611882565b600080600260005414156106de576040805162461bcd60e51b815260206004820152601f6024820152600080516020614161833981519152604482015290519081900360640190fd5b60026000819055506000886001600160a01b0316632f310bad6040518163ffffffff1660e01b815260040160206040518083038186803b15801561072157600080fd5b505afa158015610735573d6000803e3d6000fd5b505050506040513d602081101561074b57600080fd5b505160408051632207afe960e11b815290519192506000916001600160a01b038c169163440f5fd2916004808301926020929190829003018186803b15801561079357600080fd5b505afa1580156107a7573d6000803e3d6000fd5b505050506040513d60208110156107bd57600080fd5b5051604080516370a0823160e01b815230600482015290519192506000916001600160a01b038516916370a08231916024808301926020929190829003018186803b15801561080b57600080fd5b505afa15801561081f573d6000803e3d6000fd5b505050506040513d602081101561083557600080fd5b5051600354909150600090819061085a906001600160a01b031686868f8f8f8e611969565b600154919350915060009061087a906001600160a01b03168f858d611ba9565b9250505061091084876001600160a01b03166370a08231306040518263ffffffff1660e01b815260040180826001600160a01b03166001600160a01b0316815260200191505060206040518083038186803b1580156108d857600080fd5b505afa1580156108ec573d6000803e3d6000fd5b505050506040513d602081101561090257600080fd5b50519063ffffffff611df516565b93508315610932576109326001600160a01b0387168b8663ffffffff611e3716565b61094c6001600160a01b0386168b8463ffffffff611e3716565b61095c828263ffffffff611e8e16565b60016000559e939d50929b505050505050505050505050565b600390565b6000336001600160a01b0316630dfe16816040518163ffffffff1660e01b815260040160206040518083038186803b1580156109b557600080fd5b505afa1580156109c9573d6000803e3d6000fd5b505050506040513d60208110156109df57600080fd5b50516040805163d21220a760e01b81529051919250600091339163d21220a7916004808301926020929190829003018186803b158015610a1e57600080fd5b505afa158015610a32573d6000803e3d6000fd5b505050506040513d6020811015610a4857600080fd5b50516002546040805163e6a4390560e01b81526001600160a01b0386811660048301528085166024830152915193945091169163e6a4390591604480820192602092909190829003018186803b158015610aa157600080fd5b505afa158015610ab5573d6000803e3d6000fd5b505050506040513d6020811015610acb57600080fd5b50516001600160a01b03163314610ade57fe5b60006060306001600160a01b03168686604051808383808284376040519201945060009350909150508083038183865af19150503d8060008114610b3e576040519150601f19603f3d011682016040523d82523d6000602084013e610b43565b606091505b5091509150818015610b71575080511580610b715750808060200190516020811015610b6e57600080fd5b50515b610bc2576040805162461bcd60e51b815260206004820152601760248201527f4552525f554e495357415056325f43414c4c5f4641494c000000000000000000604482015290519081900360640190fd5b505050505050505050565b6001546001600160a01b031681565b60408051808201909152601d81527f5072696d69746976655631556e6973776170436f6e6e6563746f723033000000602082015290565b600080600060026000541415610c5e576040805162461bcd60e51b815260206004820152601f6024820152600080516020614161833981519152604482015290519081900360640190fd5b6002600055600354610c7e906001600160a01b03168a8a8a8a8a8a611ee8565b6001600055919b909a509098509650505050505050565b600354600090819081908190610cb9906001600160a01b03168b8b8b8b8b8b612081565b6040805183815260208101839052815193955091935033927f3725145ca6a6d192a761e3b6dbcf42cdc13147dd45a65fd1b29737ac584b557e9281900390910190a290999098509650505050505050565b600254604080516364e329cb60e11b81526001600160a01b038581166004830152848116602483015291516000938493169163c9c6539691604480830192602092919082900301818787803b158015610d6257600080fd5b505af1158015610d76573d6000803e3d6000fd5b505050506040513d6020811015610d8c57600080fd5b50519150505b92915050565b6003546000908190610db4906001600160a01b031685856124f9565b915091505b9250929050565b600060026000541415610e08576040805162461bcd60e51b815260206004820152601f6024820152600080516020614161833981519152604482015290519081900360640190fd5b60026000819055506000846001600160a01b0316632f310bad6040518163ffffffff1660e01b815260040160206040518083038186803b158015610e4b57600080fd5b505afa158015610e5f573d6000803e3d6000fd5b505050506040513d6020811015610e7557600080fd5b505160408051632207afe960e11b815290519192506000916001600160a01b0388169163440f5fd2916004808301926020929190829003018186803b158015610ebd57600080fd5b505afa158015610ed1573d6000803e3d6000fd5b505050506040513d6020811015610ee757600080fd5b50516002546040805163e6a4390560e01b81526001600160a01b03868116600483015280851660248301529151939450600093919092169163e6a43905916044808301926020929190829003018186803b158015610f4457600080fd5b505afa158015610f58573d6000803e3d6000fd5b505050506040513d6020811015610f6e57600080fd5b50516040805160028082526060808301845293945090916020830190803883390190505090508281600081518110610fa257fe5b60200260200101906001600160a01b031690816001600160a01b0316815250508381600181518110610fd057fe5b60200260200101906001600160a01b031690816001600160a01b031681525050600082905060006040518060800160405280605081526020016141a660509139805190602001209050606081858c8c8c883360405160240180876001600160a01b03166001600160a01b03168152602001866001600160a01b03166001600160a01b0316815260200185815260200184815260200180602001836001600160a01b03166001600160a01b03168152602001828103825284818151815260200191508051906020019060200280838360005b838110156110b95781810151838201526020016110a1565b50505050905001975050505050505050604051602081830303815290604052906001600160e01b0319166020820180516001600160e01b03838183161783525050505090506000876001600160a01b0316846001600160a01b0316630dfe16816040518163ffffffff1660e01b815260040160206040518083038186803b15801561114357600080fd5b505afa158015611157573d6000803e3d6000fd5b505050506040513d602081101561116d57600080fd5b50516001600160a01b031614611184576000611186565b8a5b90506000886001600160a01b0316856001600160a01b0316630dfe16816040518163ffffffff1660e01b815260040160206040518083038186803b1580156111cd57600080fd5b505afa1580156111e1573d6000803e3d6000fd5b505050506040513d60208110156111f757600080fd5b50516001600160a01b03161461120d578b611210565b60005b9050846001600160a01b031663022c0d9f838330876040518563ffffffff1660e01b815260040180858152602001848152602001836001600160a01b03166001600160a01b0316815260200180602001828103825283818151815260200191508051906020019080838360005b8381101561129557818101518382015260200161127d565b50505050905090810190601f1680156112c25780820380516001836020036101000a031916815260200191505b5095505050505050600060405180830381600087803b1580156112e457600080fd5b505af11580156112f8573d6000803e3d6000fd5b505050506001995050505050505050505060016000559392505050565b60006002600054141561135d576040805162461bcd60e51b815260206004820152601f6024820152600080516020614161833981519152604482015290519081900360640190fd5b6002600090815560035460408051602080890282810182019093528882526113b4936001600160a01b0316928d928d928d928d918d9182918501908490808284376000920191909152508c92508b91506128239050565b60016000559998505050505050505050565b6003546000908190819081906113ea906001600160a01b03168b8b8b8b8b8b612906565b6040805183815260208101839052815193955091935033927ff17aa7749e04732ce7bde5ee88376144e6c5669bd4d8c80358119eada62a1d009281900390910190a290999098509650505050505050565b6002546001600160a01b031681565b600060026000541415611492576040805162461bcd60e51b815260206004820152601f6024820152600080516020614161833981519152604482015290519081900360640190fd5b60026000819055506000846001600160a01b0316632f310bad6040518163ffffffff1660e01b815260040160206040518083038186803b1580156114d557600080fd5b505afa1580156114e9573d6000803e3d6000fd5b505050506040513d60208110156114ff57600080fd5b505160408051632207afe960e11b815290519192506000916001600160a01b0388169163440f5fd2916004808301926020929190829003018186803b15801561154757600080fd5b505afa15801561155b573d6000803e3d6000fd5b505050506040513d602081101561157157600080fd5b50516002546040805163e6a4390560e01b81526001600160a01b03868116600483015280851660248301529151939450600093919092169163e6a43905916044808301926020929190829003018186803b1580156115ce57600080fd5b505afa1580156115e2573d6000803e3d6000fd5b505050506040513d60208110156115f857600080fd5b5051604080516002808252606080830184529394509091602083019080388339019050509050838160008151811061162c57fe5b60200260200101906001600160a01b031690816001600160a01b031681525050828160018151811061165a57fe5b60200260200101906001600160a01b031690816001600160a01b0316815250506000829050600060405180608001604052806050815260200161421760509139805190602001209050606081858c8c8c883360405160240180876001600160a01b03166001600160a01b03168152602001866001600160a01b03166001600160a01b0316815260200185815260200184815260200180602001836001600160a01b03166001600160a01b03168152602001828103825284818151815260200191508051906020019060200280838360005b8381101561174357818101518382015260200161172b565b50505050905001975050505050505050604051602081830303815290604052906001600160e01b0319166020820180516001600160e01b03838183161783525050505090506000866001600160a01b0316846001600160a01b0316630dfe16816040518163ffffffff1660e01b815260040160206040518083038186803b1580156117cd57600080fd5b505afa1580156117e1573d6000803e3d6000fd5b505050506040513d60208110156117f757600080fd5b50516001600160a01b03161461180e576000611810565b8a5b90506000876001600160a01b0316856001600160a01b0316630dfe16816040518163ffffffff1660e01b815260040160206040518083038186803b1580156111cd57600080fd5b6003546000908190610db4906001600160a01b03168585612cfa565b6003546001600160a01b031681565b6002546040805163e6a4390560e01b81526001600160a01b038581166004830152848116602483015291516000938493169163e6a43905916044808301926020929190829003018186803b1580156118d957600080fd5b505afa1580156118ed573d6000803e3d6000fd5b505050506040513d602081101561190357600080fd5b505190506001600160a01b038116611962576040805162461bcd60e51b815260206004820152601760248201527f4552525f504149525f444f45535f4e4f545f4558495354000000000000000000604482015290519081900360640190fd5b9392505050565b6000806000896001600160a01b031663c45a01556040518163ffffffff1660e01b815260040160206040518083038186803b1580156119a757600080fd5b505afa1580156119bb573d6000803e3d6000fd5b505050506040513d60208110156119d157600080fd5b50516040805163e6a4390560e01b81526001600160a01b038c811660048301528b811660248301529151919092169163e6a43905916044808301926020929190829003018186803b158015611a2557600080fd5b505afa158015611a39573d6000803e3d6000fd5b505050506040513d6020811015611a4f57600080fd5b50519050611a6e6001600160a01b03821633308a63ffffffff6131d816565b6040805163095ea7b360e01b81526001600160a01b038c81166004830152600019602483015291519183169163095ea7b3916044808201926020929091908290030181600087803b158015611ac257600080fd5b505af1158015611ad6573d6000803e3d6000fd5b505050506040513d6020811015611aec57600080fd5b505060408051635d5155ef60e11b81526001600160a01b038b811660048301528a81166024830152604482018a905260648201899052608482018890523060a483015260c4820187905282516000938493928f169263baa2abde9260e4808301939282900301818787803b158015611b6357600080fd5b505af1158015611b77573d6000803e3d6000fd5b505050506040513d6040811015611b8d57600080fd5b508051602090910151909d909c509a5050505050505050505050565b6000806000856001600160a01b031663095ea7b3886000196040518363ffffffff1660e01b815260040180836001600160a01b03166001600160a01b0316815260200182815260200192505050602060405180830381600087803b158015611c1057600080fd5b505af1158015611c24573d6000803e3d6000fd5b505050506040513d6020811015611c3a57600080fd5b505060408051632f310bad60e01b815290516001600160a01b03881691632f310bad916004808301926020929190829003018186803b158015611c7c57600080fd5b505afa158015611c90573d6000803e3d6000fd5b505050506040513d6020811015611ca657600080fd5b50516040805163095ea7b360e01b81526001600160a01b038a8116600483015260001960248301529151919092169163095ea7b39160448083019260209291908290030181600087803b158015611cfc57600080fd5b505af1158015611d10573d6000803e3d6000fd5b505050506040513d6020811015611d2657600080fd5b5060009050611d358787613238565b9050611d526001600160a01b03881633308463ffffffff6131d816565b6040805163b8a6bb3b60e01b81526001600160a01b0389811660048301526024820184905287811660448301529151918a169163b8a6bb3b916064808201926060929091908290030181600087803b158015611dad57600080fd5b505af1158015611dc1573d6000803e3d6000fd5b505050506040513d6060811015611dd757600080fd5b5080516020820151604090920151909a919950975095505050505050565b600061196283836040518060400160405280601e81526020017f536166654d6174683a207375627472616374696f6e206f766572666c6f770000815250613328565b604080516001600160a01b038416602482015260448082018490528251808303909101815260649091019091526020810180516001600160e01b031663a9059cbb60e01b179052611e899084906133bf565b505050565b600082820183811015611962576040805162461bcd60e51b815260206004820152601b60248201527f536166654d6174683a206164646974696f6e206f766572666c6f770000000000604482015290519081900360640190fd5b6000806000806000806000611efd8d8d613470565b91505060008d905060008f90506000826001600160a01b031663440f5fd26040518163ffffffff1660e01b815260040160206040518083038186803b158015611f4557600080fd5b505afa158015611f59573d6000803e3d6000fd5b505050506040513d6020811015611f6f57600080fd5b81019080805190602001909291905050509050600084905060008f905060008f905060008f905060008f905061200f87896001600160a01b0316632f310bad6040518163ffffffff1660e01b815260040160206040518083038186803b158015611fd857600080fd5b505afa158015611fec573d6000803e3d6000fd5b505050506040513d602081101561200257600080fd5b50518888888888886134ab565b919d509b509950888c1461201f57fe5b60008b851161202f57600061203f565b61203f858d63ffffffff611df516565b90508015612061576120616001600160a01b038816338363ffffffff611e3716565b509a9d50989b509699505050505050505050509750975097945050505050565b6000803330146120c7576040805162461bcd60e51b815260206004820152600c60248201526b22a9292fa727aa2fa9a2a62360a11b604482015290519081900360640190fd5b6001600160a01b038316612118576040805162461bcd60e51b81526020600482015260136024820152724552525f544f5f414444524553535f5a45524f60681b604482015290519081900360640190fd5b6001600160a01b03831633141561216a576040805162461bcd60e51b815260206004820152601160248201527022a9292faa27afa6a9a3afa9a2a72222a960791b604482015290519081900360640190fd5b876001600160a01b031661220b8a6001600160a01b031663c45a01556040518163ffffffff1660e01b815260040160206040518083038186803b1580156121b057600080fd5b505afa1580156121c4573d6000803e3d6000fd5b505050506040513d60208110156121da57600080fd5b5051865187906000906121e957fe5b6020026020010151876001815181106121fe57fe5b6020026020010151613694565b6001600160a01b031614612259576040805162461bcd60e51b815260206004820152601060248201526f22a9292fa4a72b20a624a22fa820a4a960811b604482015290519081900360640190fd5b6000876001600160a01b031663440f5fd26040518163ffffffff1660e01b815260040160206040518083038186803b15801561229457600080fd5b505afa1580156122a8573d6000803e3d6000fd5b505050506040513d60208110156122be57600080fd5b505160408051632f310bad60e01b815290519192506000916001600160a01b038b1691632f310bad916004808301926020929190829003018186803b15801561230657600080fd5b505afa15801561231a573d6000803e3d6000fd5b505050506040513d602081101561233057600080fd5b505186519091506001600160a01b038216908790600190811061234f57fe5b60200260200101516001600160a01b0316146123b2576040805162461bcd60e51b815260206004820152601760248201527f4552525f454e445f504154485f4e4f545f52454445454d000000000000000000604482015290519081900360640190fd5b60006123bf868b8b613754565b90506000806123cf8e8d8d6124f9565b909250905081156123ed576123ea838363ffffffff611df516565b92505b821561240d5761240d6001600160a01b0386168e8563ffffffff611e3716565b801561247957818a111561245e576040805162461bcd60e51b815260206004820152601360248201527211549497d39151d05512559157d4105653d555606a1b604482015290519081900360640190fd5b6124796001600160a01b038616898f8463ffffffff6131d816565b81156124e657898210156124cc576040805162461bcd60e51b815260206004820152601560248201527422a9292fa82922a6a4aaa6afaaa72222a92fa6a4a760591b604482015290519081900360640190fd5b6124e66001600160a01b038616898463ffffffff611e3716565b50909c909b509950505050505050505050565b604080516002808252606080830184526000938493919290602083019080388339019050509050846001600160a01b031663440f5fd26040518163ffffffff1660e01b815260040160206040518083038186803b15801561255957600080fd5b505afa15801561256d573d6000803e3d6000fd5b505050506040513d602081101561258357600080fd5b50518151829060009061259257fe5b60200260200101906001600160a01b031690816001600160a01b031681525050846001600160a01b0316632f310bad6040518163ffffffff1660e01b815260040160206040518083038186803b1580156125eb57600080fd5b505afa1580156125ff573d6000803e3d6000fd5b505050506040513d602081101561261557600080fd5b505181518290600190811061262657fe5b60200260200101906001600160a01b031690816001600160a01b03168152505060006126528686613238565b90506000806060896001600160a01b0316631f00ca7489876040518363ffffffff1660e01b81526004018083815260200180602001828103825283818151815260200191508051906020019060200280838360005b838110156126bf5781810151838201526020016126a7565b50505050905001935050505060006040518083038186803b1580156126e357600080fd5b505afa1580156126f7573d6000803e3d6000fd5b505050506040513d6000823e601f3d908101601f19168201604052602081101561272057600080fd5b8101908080516040519392919084600160201b82111561273f57600080fd5b90830190602082018581111561275457600080fd5b82518660208202830111600160201b8211171561277057600080fd5b82525081516020918201928201910280838360005b8381101561279d578181015183820152602001612785565b5050505090500160405250505090506000816000815181106127bb57fe5b602002602001015190508085116127d35760006127e3565b6127e3858263ffffffff611df516565b925060008582116127f5576000612805565b612805828763ffffffff611df516565b90508015612811578094505b50919a92995091975050505050505050565b60008060006128328989613470565b915091506000896001600160a01b0316632f310bad6040518163ffffffff1660e01b815260040160206040518083038186803b15801561287157600080fd5b505afa158015612885573d6000803e3d6000fd5b505050506040513d602081101561289b57600080fd5b5051905060006128b08c83858c8c8c8c613883565b915050806128f7576040805162461bcd60e51b815260206004820152600f60248201526e11549497d4d5d05417d19052531151608a1b604482015290519081900360640190fd5b9b9a5050505050505050505050565b60008033301461294c576040805162461bcd60e51b815260206004820152600c60248201526b22a9292fa727aa2fa9a2a62360a11b604482015290519081900360640190fd5b6001600160a01b03831661299d576040805162461bcd60e51b81526020600482015260136024820152724552525f544f5f414444524553535f5a45524f60681b604482015290519081900360640190fd5b6001600160a01b0383163314156129ef576040805162461bcd60e51b815260206004820152601160248201527022a9292faa27afa6a9a3afa9a2a72222a960791b604482015290519081900360640190fd5b876001600160a01b0316612a358a6001600160a01b031663c45a01556040518163ffffffff1660e01b815260040160206040518083038186803b1580156121b057600080fd5b6001600160a01b031614612a83576040805162461bcd60e51b815260206004820152601060248201526f22a9292fa4a72b20a624a22fa820a4a960811b604482015290519081900360640190fd5b6000876001600160a01b031663440f5fd26040518163ffffffff1660e01b815260040160206040518083038186803b158015612abe57600080fd5b505afa158015612ad2573d6000803e3d6000fd5b505050506040513d6020811015612ae857600080fd5b505160408051632f310bad60e01b815290519192506000916001600160a01b038b1691632f310bad916004808301926020929190829003018186803b158015612b3057600080fd5b505afa158015612b44573d6000803e3d6000fd5b505050506040513d6020811015612b5a57600080fd5b505186519091506001600160a01b0383169087906001908110612b7957fe5b60200260200101516001600160a01b031614612bdc576040805162461bcd60e51b815260206004820152601b60248201527f4552525f454e445f504154485f4e4f545f554e4445524c59494e470000000000604482015290519081900360640190fd5b600080612be98b8b613aff565b91509150600080612bfb8f8e8e612cfa565b90925090508015612c1957612c16838263ffffffff611df516565b92505b8215612c3957612c396001600160a01b0386168f8563ffffffff611e3716565b8115612cab57818b1015612c8b576040805162461bcd60e51b815260206004820152601460248201527308aa4a4bea0a48a9a92aa9abe9eac8aa4be9a82b60631b604482015290519081900360640190fd5b612cab898f84896001600160a01b03166131d8909392919063ffffffff16565b8015612ccb57612ccb6001600160a01b0386168a8363ffffffff611e3716565b612ce56001600160a01b038e168a8663ffffffff611e3716565b50919d919c50909a5050505050505050505050565b604080516002808252606080830184526000938493919290602083019080388339019050509050846001600160a01b0316632f310bad6040518163ffffffff1660e01b815260040160206040518083038186803b158015612d5a57600080fd5b505afa158015612d6e573d6000803e3d6000fd5b505050506040513d6020811015612d8457600080fd5b505181518290600090612d9357fe5b60200260200101906001600160a01b031690816001600160a01b031681525050846001600160a01b031663440f5fd26040518163ffffffff1660e01b815260040160206040518083038186803b158015612dec57600080fd5b505afa158015612e00573d6000803e3d6000fd5b505050506040513d6020811015612e1657600080fd5b5051815182906001908110612e2757fe5b60200260200101906001600160a01b031690816001600160a01b0316815250506000612e538686613c08565b90506000806060896001600160a01b0316631f00ca7489876040518363ffffffff1660e01b81526004018083815260200180602001828103825283818151815260200191508051906020019060200280838360005b83811015612ec0578181015183820152602001612ea8565b50505050905001935050505060006040518083038186803b158015612ee457600080fd5b505afa158015612ef8573d6000803e3d6000fd5b505050506040513d6000823e601f3d908101601f191682016040526020811015612f2157600080fd5b8101908080516040519392919084600160201b821115612f4057600080fd5b908301906020820185811115612f5557600080fd5b82518660208202830111600160201b82111715612f7157600080fd5b82525081516020918201928201910280838360005b83811015612f9e578181015183820152602001612f86565b505050509050016040525050509050600081600081518110612fbc57fe5b602002602001015190506000858211612fd6576000612fe6565b612fe6828763ffffffff611df516565b9050818611612ff6576000613006565b613006868363ffffffff611df516565b935080156131c65760608c6001600160a01b031663d06ca61f838a6040518363ffffffff1660e01b81526004018083815260200180602001828103825283818151815260200191508051906020019060200280838360005b8381101561307657818101518382015260200161305e565b50505050905001935050505060006040518083038186803b15801561309a57600080fd5b505afa1580156130ae573d6000803e3d6000fd5b505050506040513d6000823e601f3d908101601f1916820160405260208110156130d757600080fd5b8101908080516040519392919084600160201b8211156130f657600080fd5b90830190602082018581111561310b57600080fd5b82518660208202830111600160201b8211171561312757600080fd5b82525081516020918201928201910280838360005b8381101561315457818101518382015260200161313c565b5050505090500160405250505090506131c2620186a06131b661319661012d8560018151811061318057fe5b6020026020010151613cb690919063ffffffff16565b6131aa620186a08660018151811061318057fe5b9063ffffffff611e8e16565b9063ffffffff613d0f16565b9550505b50929a91995090975050505050505050565b604080516001600160a01b0380861660248301528416604482015260648082018490528251808303909101815260849091019091526020810180516001600160e01b03166323b872dd60e01b1790526132329085906133bf565b50505050565b600080613320846001600160a01b031662fe19fa6040518163ffffffff1660e01b815260040160206040518083038186803b15801561327657600080fd5b505afa15801561328a573d6000803e3d6000fd5b505050506040513d60208110156132a057600080fd5b5051604080516316b2542760e31b815290516131b6916001600160a01b0389169163b592a13891600480820192602092909190829003018186803b1580156132e757600080fd5b505afa1580156132fb573d6000803e3d6000fd5b505050506040513d602081101561331157600080fd5b5051869063ffffffff613cb616565b949350505050565b600081848411156133b75760405162461bcd60e51b81526004018080602001828103825283818151815260200191508051906020019080838360005b8381101561337c578181015183820152602001613364565b50505050905090810190601f1680156133a95780820380516001836020036101000a031916815260200191505b509250505060405180910390fd5b505050900390565b6060613414826040518060400160405280602081526020017f5361666545524332303a206c6f772d6c6576656c2063616c6c206661696c6564815250856001600160a01b0316613d519092919063ffffffff16565b805190915015611e895780806020019051602081101561343357600080fd5b5051611e895760405162461bcd60e51b815260040180806020018281038252602a815260200180614267602a913960400191505060405180910390fd5b600080600080613481868630613d60565b90925090506134a06001600160a01b038716338763ffffffff611e3716565b909590945092505050565b600080806134ca6001600160a01b038a1633308a63ffffffff6131d816565b6040805163095ea7b360e01b81526001600160a01b038d8116600483015260001960248301529151918c169163095ea7b3916044808201926020929091908290030181600087803b15801561351e57600080fd5b505af1158015613532573d6000803e3d6000fd5b505050506040513d602081101561354857600080fd5b50506040805163095ea7b360e01b81526001600160a01b038d8116600483015260001960248301529151918b169163095ea7b3916044808201926020929091908290030181600087803b15801561359e57600080fd5b505af11580156135b2573d6000803e3d6000fd5b505050506040513d60208110156135c857600080fd5b50506040805162e8e33760e81b81526001600160a01b038c811660048301528b81166024830152604482018b9052606482018a9052608482018b905260a4820189905287811660c483015260e482018790529151918d169163e8e3370091610104808201926060929091908290030181600087803b15801561364957600080fd5b505af115801561365d573d6000803e3d6000fd5b505050506040513d606081101561367357600080fd5b5080516020820151604090920151909d919c509a5098505050505050505050565b60008060006136a38585613eb1565b604080516bffffffffffffffffffffffff19606094851b811660208084019190915293851b81166034830152825160288184030181526048830184528051908501206001600160f81b031960688401529a90941b9093166069840152607d8301989098527f96e8ac4277198ff8b6f785478aa9a39f403cb768dd02cbee326c3e7da348845f609d808401919091528851808403909101815260bd909201909752805196019590952095945050505050565b60006137d68383856001600160a01b0316632f310bad6040518163ffffffff1660e01b815260040160206040518083038186803b15801561379457600080fd5b505afa1580156137a8573d6000803e3d6000fd5b505050506040513d60208110156137be57600080fd5b50516001600160a01b0316919063ffffffff611e3716565b60006137e28484613238565b90506137ff6001600160a01b03851686868463ffffffff6131d816565b60408051638349980560e01b815230600482015290516000916001600160a01b0387169163834998059160248082019260609290919082900301818787803b15801561384a57600080fd5b505af115801561385e573d6000803e3d6000fd5b505050506040513d606081101561387457600080fd5b50604001519695505050505050565b60606000876001600160a01b03168560008151811061389e57fe5b60200260200101516001600160a01b0316146138f9576040805162461bcd60e51b815260206004820152601560248201527411549497d410551217d3d4151253d397d4d5105495605a1b604482015290519081900360640190fd5b6040805163095ea7b360e01b81526001600160a01b038b8116600483015260001960248301529151918a169163095ea7b3916044808201926020929091908290030181600087803b15801561394d57600080fd5b505af1158015613961573d6000803e3d6000fd5b505050506040513d602081101561397757600080fd5b50506040516338ed173960e01b815260048101888152602482018890526001600160a01b0386811660648401526084830186905260a060448401908152885160a48501528851918d16936338ed1739938c938c938c938c938c9390929160c401906020878101910280838360005b838110156139fd5781810151838201526020016139e5565b505050509050019650505050505050600060405180830381600087803b158015613a2657600080fd5b505af1158015613a3a573d6000803e3d6000fd5b505050506040513d6000823e601f3d908101601f191682016040526020811015613a6357600080fd5b8101908080516040519392919084600160201b821115613a8257600080fd5b908301906020820185811115613a9757600080fd5b82518660208202830111600160201b82111715613ab357600080fd5b82525081516020918201928201910280838360005b83811015613ae0578181015183820152602001613ac8565b5050505090500160405250505091506001905097509795505050505050565b6000806000846001600160a01b031663440f5fd26040518163ffffffff1660e01b815260040160206040518083038186803b158015613b3d57600080fd5b505afa158015613b51573d6000803e3d6000fd5b505050506040513d6020811015613b6757600080fd5b50519050613b856001600160a01b038216868663ffffffff611e3716565b60408051633ea6b5f160e21b815230600482015281516001600160a01b0388169263fa9ad7c492602480820193918290030181600087803b158015613bc957600080fd5b505af1158015613bdd573d6000803e3d6000fd5b505050506040513d6040811015613bf357600080fd5b50805160209091015190969095509350505050565b600080613320846001600160a01b031663b592a1386040518163ffffffff1660e01b815260040160206040518083038186803b158015613c4757600080fd5b505afa158015613c5b573d6000803e3d6000fd5b505050506040513d6020811015613c7157600080fd5b505160408051627f0cfd60e11b815290516131b6916001600160a01b0389169162fe19fa91600480820192602092909190829003018186803b1580156132e757600080fd5b600082613cc557506000610d92565b82820282848281613cd257fe5b04146119625760405162461bcd60e51b81526004018080602001828103825260218152602001806141f66021913960400191505060405180910390fd5b600061196283836040518060400160405280601a81526020017f536166654d6174683a206469766973696f6e206279207a65726f000000000000815250613f88565b60606133208484600085613fed565b60008060008411613da3576040805162461bcd60e51b81526020600482015260086024820152674552525f5a45524f60c01b604482015290519081900360640190fd5b613e25338686886001600160a01b031663440f5fd26040518163ffffffff1660e01b815260040160206040518083038186803b158015613de257600080fd5b505afa158015613df6573d6000803e3d6000fd5b505050506040513d6020811015613e0c57600080fd5b50516001600160a01b031692919063ffffffff6131d816565b60408051633ea6b5f160e21b81526001600160a01b03858116600483015282516000938493928a169263fa9ad7c4926024808301939282900301818787803b158015613e7057600080fd5b505af1158015613e84573d6000803e3d6000fd5b505050506040513d6040811015613e9a57600080fd5b508051602090910151909890975095505050505050565b600080826001600160a01b0316846001600160a01b03161415613f055760405162461bcd60e51b81526004018080602001828103825260258152602001806141816025913960400191505060405180910390fd5b826001600160a01b0316846001600160a01b031610613f25578284613f28565b83835b90925090506001600160a01b038216610db9576040805162461bcd60e51b815260206004820152601e60248201527f556e697377617056324c6962726172793a205a45524f5f414444524553530000604482015290519081900360640190fd5b60008183613fd75760405162461bcd60e51b815260206004820181815283516024840152835190928392604490910191908501908083836000831561337c578181015183820152602001613364565b506000838581613fe357fe5b0495945050505050565b6060613ff88561415a565b614049576040805162461bcd60e51b815260206004820152601d60248201527f416464726573733a2063616c6c20746f206e6f6e2d636f6e7472616374000000604482015290519081900360640190fd5b60006060866001600160a01b031685876040518082805190602001908083835b602083106140885780518252601f199092019160209182019101614069565b6001836020036101000a03801982511681845116808217855250505050505090500191505060006040518083038185875af1925050503d80600081146140ea576040519150601f19603f3d011682016040523d82523d6000602084013e6140ef565b606091505b509150915081156141035791506133209050565b8051156141135780518082602001fd5b60405162461bcd60e51b815260206004820181815286516024840152865187939192839260440191908501908083836000831561337c578181015183820152602001613364565b3b15159056fe5265656e7472616e637947756172643a207265656e7472616e742063616c6c00556e697377617056324c6962726172793a204944454e544943414c5f414444524553534553666c617368436c6f73654c6f6e674f7074696f6e735468656e5377617028616464726573732c616464726573732c75696e743235362c75696e743235362c616464726573735b5d2c6164647265737329536166654d6174683a206d756c7469706c69636174696f6e206f766572666c6f77666c6173684d696e7453686f72744f7074696f6e735468656e5377617028616464726573732c616464726573732c75696e743235362c75696e743235362c616464726573735b5d2c61646472657373295361666545524332303a204552433230206f7065726174696f6e20646964206e6f742073756363656564a26469706673582212200529cee9c41208b75d5810a4568a68a7d505d79b21cdd6e8812d9181504f1a6664736f6c63430006020033",
  "devdoc": {
    "methods": {
      "addShortLiquidityWithUnderlying(address,uint256,uint256,uint256,address,uint256)": {
        "details": "Adds redeemToken liquidity to a redeem<>token pair by minting shortOptionTokens with underlyingTokens.",
        "params": {
          "amountBMax": "The minimum quantity of shortOptionTokens expected to provide liquidity with.",
          "amountBMin": "The minimum quantity of otherTokens expected to provide liquidity with.",
          "deadline": "The timestamp to expire a pending transaction. \r",
          "optionAddress": "The address of the optionToken to get the redeemToken to mint then provide liquidity for.",
          "quantityOptions": "The quantity of underlyingTokens to use to mint option + redeem tokens.",
          "to": "The address that receives UNI-V2 shares."
        }
      },
      "closeFlashLong(address,uint256,uint256)": {
        "details": "Closes a longOptionToken position by flash swapping in redeemTokens,         closing the option, and paying back in underlyingTokens.",
        "params": {
          "amountRedeems": "The quantity of redeemTokens to borrow to close the options.",
          "minPayout": "The minimum payout of underlyingTokens sent out to the user. \r",
          "optionToken": "The address of the longOptionTokens to close."
        }
      },
      "deployUniswapMarket(address,address)": {
        "details": "Creates a UniswapV2Pair by calling `createPair` on the UniswapV2Factory."
      },
      "flashCloseLongOptionsThenSwap(address,address,uint256,uint256,address[],address)": {
        "details": "Sends shortOptionTokens to msg.sender, and pays back the UniswapV2Pair in underlyingTokens.",
        "params": {
          "flashLoanQuantity": "The quantity of shortOptionTokens borrowed to use to close longOptionTokens.",
          "minPayout": "The minimum payout of underlyingTokens sent to the `to` address.",
          "optionAddress": "The address of the longOptionTokes to close.",
          "pairAddress": "The address of the redeemToken<>underlyingToken UniswapV2Pair contract.",
          "path": "underlyingTokens -> shortOptionTokens, because we are paying the input of underlyingTokens.",
          "to": "The address which is sent the underlyingToken payout, or liable to pay for a negative payout."
        }
      },
      "flashMintShortOptionsThenSwap(address,address,uint256,uint256,address[],address)": {
        "details": "Receives underlyingTokens from a UniswapV2Pair.swap() call from a pair with         reserve0 = shortOptionTokens and reserve1 = underlyingTokens.         Uses underlyingTokens to mint long (option) + short (redeem) tokens.         Sends longOptionTokens to msg.sender, and pays back the UniswapV2Pair the shortOptionTokens,         AND any remainder quantity of underlyingTokens (paid by msg.sender).",
        "params": {
          "flashLoanQuantity": "The quantity of options to mint using borrowed underlyingTokens.",
          "maxPremium": "The maximum quantity of underlyingTokens to pay for the optionTokens.",
          "optionAddress": "The address of the Option contract.",
          "path": "The token addresses to trade through using their Uniswap V2 pools. Assumes path[0] = shortOptionToken.",
          "to": "The address to send the shortOptionToken proceeds and longOptionTokens to."
        },
        "returns": {
          "_0": "success bool Whether the transaction was successful or not. \r"
        }
      },
      "getClosePremium(address,uint256)": {
        "details": "Gets the total premium payout to sell `quantity` of `optionToken`s.",
        "returns": {
          "_0": "premiumPayout, premumCost"
        }
      },
      "getName()": {
        "details": "Gets the name of the contract."
      },
      "getOpenPremium(address,uint256)": {
        "details": "Gets the total premium cost to buy `quantity` of `optionToken`s.",
        "returns": {
          "_0": "premiumCost, premiumPayout"
        }
      },
      "getUniswapMarketForTokens(address,address)": {
        "details": "Gets a UniswapV2Pair address for two tokens by calling the UniswapV2Factory."
      },
      "getVersion()": {
        "details": "Gets the version of the contract."
      },
      "mintShortOptionsThenSwapToTokens(address,uint256,uint256,address[],address,uint256)": {
        "details": "Mints long + short option tokens, then swaps the shortOptionTokens (redeem) for tokens.",
        "params": {
          "amountIn": "The quantity of options to mint.",
          "amountOutMin": "The minimum quantity of tokens to receive in exchange for the shortOptionTokens.",
          "deadline": "The timestamp for a trade to fail at if not successful.",
          "optionToken": "The address of the Option contract.",
          "path": "The token addresses to trade through using their Uniswap V2 pools. Assumes path[0] = shortOptionToken.",
          "to": "The address to send the shortOptionToken proceeds and longOptionTokens to."
        },
        "returns": {
          "_0": "bool Whether the transaction was successful or not. \r"
        }
      },
      "openFlashLong(address,uint256,uint256)": {
        "details": "Opens a longOptionToken position by minting long + short tokens, then selling the short tokens.",
        "params": {
          "amountOptions": "The quantity of longOptionTokens to purchase.",
          "maxPremium": "The maximum quantity of underlyingTokens to pay for the optionTokens. \r",
          "optionToken": "The option address."
        }
      },
      "removeShortLiquidityThenCloseOptions(address,uint256,uint256,uint256,address,uint256)": {
        "details": "Combines Uniswap V2 Router \"removeLiquidity\" function with Primitive \"closeOptions\" function.",
        "params": {
          "amountAMin": "The minimum quantity of shortOptionTokens to receive from removing liquidity.",
          "amountBMin": "The minimum quantity of underlyingTokens to receive from removing liquidity.",
          "deadline": "The timestamp to expire a pending transaction. \r",
          "liquidity": "The quantity of liquidity tokens to pull from msg.sender and burn.",
          "optionAddress": "The address of the option that will be closed from burned UNI-V2 liquidity shares.",
          "to": "The address that receives underlyingTokens from burned UNI-V2, and underlyingTokens from closed options."
        }
      },
      "uniswapV2Call(address,uint256,uint256,bytes)": {
        "details": "The callback function triggered in a UniswapV2Pair.swap() call when the `data` parameter has data.",
        "params": {
          "amount0": "The quantity of token0 received to the `to` address in the swap() call.",
          "amount1": "The quantity of token1 received to the `to` address in the swap() call.",
          "data": "The payload passed in the `data` parameter of the swap() call. \r",
          "sender": "The original msg.sender of the UniswapV2Pair.swap() call."
        }
      }
    }
  },
  "userdoc": {
    "methods": {
      "addShortLiquidityWithUnderlying(address,uint256,uint256,uint256,address,uint256)": {
        "notice": "Pulls underlying tokens from msg.sender and pushes UNI-V2 liquidity tokens to the \"to\" address.         underlyingToken -> redeemToken -> UNI-V2."
      },
      "closeFlashLong(address,uint256,uint256)": {
        "notice": "IMPORTANT: If minPayout is 0, this function will cost the caller to close the option, for no gain."
      },
      "flashCloseLongOptionsThenSwap(address,address,uint256,uint256,address[],address)": {
        "notice": "IMPORTANT: If minPayout is 0, the `to` address is liable for negative payouts *if* that occurs."
      },
      "flashMintShortOptionsThenSwap(address,address,uint256,uint256,address[],address)": {
        "notice": "If the first address in the path is not the shortOptionToken address, the tx will fail."
      },
      "getClosePremium(address,uint256)": {
        "notice": "Also gets the cost, a negative payout, which will most often be 0."
      },
      "getOpenPremium(address,uint256)": {
        "notice": "Also returns the negative premium, which will be 0 in most cases."
      },
      "mintShortOptionsThenSwapToTokens(address,uint256,uint256,address[],address,uint256)": {
        "notice": "If the first address in the path is not the shortOptionToken address, the tx will fail.         underlyingToken -> shortOptionToken -> quoteToken.         IMPORTANT: redeemTokens = shortOptionTokens"
      },
      "openFlashLong(address,uint256,uint256)": {
        "notice": "IMPORTANT: amountOutMin parameter is the price to swap shortOptionTokens to underlyingTokens.         IMPORTANT: If the ratio between shortOptionTokens and underlyingTokens is 1:1, then only the swap fee (0.30%) has to be paid."
      },
      "removeShortLiquidityThenCloseOptions(address,uint256,uint256,uint256,address,uint256)": {
        "notice": "Pulls UNI-V2 liquidity shares with shortOption<>underlying token, and optionTokens from msg.sender.         Then closes the longOptionTokens and withdraws underlyingTokens to the \"to\" address.         Sends underlyingTokens from the burned UNI-V2 liquidity shares to the \"to\" address.         UNI-V2 -> optionToken -> underlyingToken."
      }
    }
  },
  "storageLayout": {
    "storage": [
      {
        "astId": 1174,
        "contract": "contracts/UniswapConnector03.sol:UniswapConnector03",
        "label": "_status",
        "offset": 0,
        "slot": "0",
        "type": "t_uint256"
      },
      {
        "astId": 2616,
        "contract": "contracts/UniswapConnector03.sol:UniswapConnector03",
        "label": "trader",
        "offset": 0,
        "slot": "1",
        "type": "t_contract(ITrader)1405"
      },
      {
        "astId": 2619,
        "contract": "contracts/UniswapConnector03.sol:UniswapConnector03",
        "label": "factory",
        "offset": 0,
        "slot": "2",
        "type": "t_contract(IUniswapV2Factory)1942"
      },
      {
        "astId": 2622,
        "contract": "contracts/UniswapConnector03.sol:UniswapConnector03",
        "label": "router",
        "offset": 0,
        "slot": "3",
        "type": "t_contract(IUniswapV2Router02)2580"
      }
    ],
    "types": {
      "t_contract(ITrader)1405": {
        "encoding": "inplace",
        "label": "contract ITrader",
        "numberOfBytes": "20"
      },
      "t_contract(IUniswapV2Factory)1942": {
        "encoding": "inplace",
        "label": "contract IUniswapV2Factory",
        "numberOfBytes": "20"
      },
      "t_contract(IUniswapV2Router02)2580": {
        "encoding": "inplace",
        "label": "contract IUniswapV2Router02",
        "numberOfBytes": "20"
      },
      "t_uint256": {
        "encoding": "inplace",
        "label": "uint256",
        "numberOfBytes": "32"
      }
    }
  }
}