{
  "address": "0x343262Da556ec056D7169454Bae4B83456de4ab5",
  "abi": [
    {
      "inputs": [
        {
          "internalType": "address",
          "name": "router_",
          "type": "address"
        },
        {
          "internalType": "address",
          "name": "factory_",
          "type": "address"
        },
        {
          "internalType": "address",
          "name": "trader_",
          "type": "address"
        }
      ],
      "stateMutability": "nonpayable",
      "type": "constructor"
    },
    {
      "anonymous": false,
      "inputs": [
        {
          "indexed": true,
          "internalType": "address",
          "name": "from",
          "type": "address"
        },
        {
          "indexed": false,
          "internalType": "uint256",
          "name": "quantity",
          "type": "uint256"
        },
        {
          "indexed": false,
          "internalType": "uint256",
          "name": "payout",
          "type": "uint256"
        }
      ],
      "name": "FlashClosed",
      "type": "event"
    },
    {
      "anonymous": false,
      "inputs": [
        {
          "indexed": true,
          "internalType": "address",
          "name": "from",
          "type": "address"
        },
        {
          "indexed": false,
          "internalType": "uint256",
          "name": "quantity",
          "type": "uint256"
        },
        {
          "indexed": false,
          "internalType": "uint256",
          "name": "premium",
          "type": "uint256"
        }
      ],
      "name": "FlashOpened",
      "type": "event"
    },
    {
      "anonymous": false,
      "inputs": [
        {
          "indexed": true,
          "internalType": "address",
          "name": "from",
          "type": "address"
        }
      ],
      "name": "Initialized",
      "type": "event"
    },
    {
      "inputs": [
        {
          "internalType": "address",
          "name": "optionAddress",
          "type": "address"
        },
        {
          "internalType": "uint256",
          "name": "quantityOptions",
          "type": "uint256"
        },
        {
          "internalType": "uint256",
          "name": "amountBMax",
          "type": "uint256"
        },
        {
          "internalType": "uint256",
          "name": "amountBMin",
          "type": "uint256"
        },
        {
          "internalType": "address",
          "name": "to",
          "type": "address"
        },
        {
          "internalType": "uint256",
          "name": "deadline",
          "type": "uint256"
        }
      ],
      "name": "addShortLiquidityWithUnderlying",
      "outputs": [
        {
          "internalType": "uint256",
          "name": "",
          "type": "uint256"
        },
        {
          "internalType": "uint256",
          "name": "",
          "type": "uint256"
        },
        {
          "internalType": "uint256",
          "name": "",
          "type": "uint256"
        }
      ],
      "stateMutability": "nonpayable",
      "type": "function"
    },
    {
      "inputs": [
        {
          "internalType": "contract IOption",
          "name": "optionToken",
          "type": "address"
        },
        {
          "internalType": "uint256",
          "name": "amountRedeems",
          "type": "uint256"
        },
        {
          "internalType": "uint256",
          "name": "minPayout",
          "type": "uint256"
        }
      ],
      "name": "closeFlashLong",
      "outputs": [
        {
          "internalType": "bool",
          "name": "",
          "type": "bool"
        }
      ],
      "stateMutability": "nonpayable",
      "type": "function"
    },
    {
      "inputs": [
        {
          "internalType": "address",
          "name": "optionAddress",
          "type": "address"
        },
        {
          "internalType": "address",
          "name": "otherToken",
          "type": "address"
        }
      ],
      "name": "deployUniswapMarket",
      "outputs": [
        {
          "internalType": "address",
          "name": "",
          "type": "address"
        }
      ],
      "stateMutability": "nonpayable",
      "type": "function"
    },
    {
      "inputs": [],
      "name": "factory",
      "outputs": [
        {
          "internalType": "contract IUniswapV2Factory",
          "name": "",
          "type": "address"
        }
      ],
      "stateMutability": "view",
      "type": "function"
    },
    {
      "inputs": [
        {
          "internalType": "address",
          "name": "pairAddress",
          "type": "address"
        },
        {
          "internalType": "address",
          "name": "optionAddress",
          "type": "address"
        },
        {
          "internalType": "uint256",
          "name": "flashLoanQuantity",
          "type": "uint256"
        },
        {
          "internalType": "uint256",
          "name": "minPayout",
          "type": "uint256"
        },
        {
          "internalType": "address[]",
          "name": "path",
          "type": "address[]"
        },
        {
          "internalType": "address",
          "name": "to",
          "type": "address"
        }
      ],
      "name": "flashCloseLongOptionsThenSwap",
      "outputs": [
        {
          "internalType": "uint256",
          "name": "",
          "type": "uint256"
        },
        {
          "internalType": "uint256",
          "name": "",
          "type": "uint256"
        }
      ],
      "stateMutability": "nonpayable",
      "type": "function"
    },
    {
      "inputs": [
        {
          "internalType": "address",
          "name": "pairAddress",
          "type": "address"
        },
        {
          "internalType": "address",
          "name": "optionAddress",
          "type": "address"
        },
        {
          "internalType": "uint256",
          "name": "flashLoanQuantity",
          "type": "uint256"
        },
        {
          "internalType": "uint256",
          "name": "maxPremium",
          "type": "uint256"
        },
        {
          "internalType": "address[]",
          "name": "path",
          "type": "address[]"
        },
        {
          "internalType": "address",
          "name": "to",
          "type": "address"
        }
      ],
      "name": "flashMintShortOptionsThenSwap",
      "outputs": [
        {
          "internalType": "uint256",
          "name": "",
          "type": "uint256"
        },
        {
          "internalType": "uint256",
          "name": "",
          "type": "uint256"
        }
      ],
      "stateMutability": "nonpayable",
      "type": "function"
    },
    {
      "inputs": [],
      "name": "getName",
      "outputs": [
        {
          "internalType": "string",
          "name": "",
          "type": "string"
        }
      ],
      "stateMutability": "pure",
      "type": "function"
    },
    {
      "inputs": [
        {
          "internalType": "address",
          "name": "token0",
          "type": "address"
        },
        {
          "internalType": "address",
          "name": "token1",
          "type": "address"
        }
      ],
      "name": "getUniswapMarketForTokens",
      "outputs": [
        {
          "internalType": "address",
          "name": "",
          "type": "address"
        }
      ],
      "stateMutability": "view",
      "type": "function"
    },
    {
      "inputs": [],
      "name": "getVersion",
      "outputs": [
        {
          "internalType": "uint8",
          "name": "",
          "type": "uint8"
        }
      ],
      "stateMutability": "pure",
      "type": "function"
    },
    {
      "inputs": [
        {
          "internalType": "contract IOption",
          "name": "optionToken",
          "type": "address"
        },
        {
          "internalType": "uint256",
          "name": "amountIn",
          "type": "uint256"
        },
        {
          "internalType": "uint256",
          "name": "amountOutMin",
          "type": "uint256"
        },
        {
          "internalType": "address[]",
          "name": "path",
          "type": "address[]"
        },
        {
          "internalType": "address",
          "name": "to",
          "type": "address"
        },
        {
          "internalType": "uint256",
          "name": "deadline",
          "type": "uint256"
        }
      ],
      "name": "mintShortOptionsThenSwapToTokens",
      "outputs": [
        {
          "internalType": "bool",
          "name": "",
          "type": "bool"
        }
      ],
      "stateMutability": "nonpayable",
      "type": "function"
    },
    {
      "inputs": [
        {
          "internalType": "contract IOption",
          "name": "optionToken",
          "type": "address"
        },
        {
          "internalType": "uint256",
          "name": "amountOptions",
          "type": "uint256"
        },
        {
          "internalType": "uint256",
          "name": "maxPremium",
          "type": "uint256"
        }
      ],
      "name": "openFlashLong",
      "outputs": [
        {
          "internalType": "bool",
          "name": "",
          "type": "bool"
        }
      ],
      "stateMutability": "nonpayable",
      "type": "function"
    },
    {
      "inputs": [
        {
          "internalType": "address",
          "name": "optionAddress",
          "type": "address"
        },
        {
          "internalType": "address",
          "name": "otherTokenAddress",
          "type": "address"
        },
        {
          "internalType": "uint256",
          "name": "liquidity",
          "type": "uint256"
        },
        {
          "internalType": "uint256",
          "name": "amountAMin",
          "type": "uint256"
        },
        {
          "internalType": "uint256",
          "name": "amountBMin",
          "type": "uint256"
        },
        {
          "internalType": "address",
          "name": "to",
          "type": "address"
        },
        {
          "internalType": "uint256",
          "name": "deadline",
          "type": "uint256"
        }
      ],
      "name": "removeShortLiquidityThenCloseOptions",
      "outputs": [
        {
          "internalType": "uint256",
          "name": "",
          "type": "uint256"
        },
        {
          "internalType": "uint256",
          "name": "",
          "type": "uint256"
        }
      ],
      "stateMutability": "nonpayable",
      "type": "function"
    },
    {
      "inputs": [],
      "name": "router",
      "outputs": [
        {
          "internalType": "contract IUniswapV2Router02",
          "name": "",
          "type": "address"
        }
      ],
      "stateMutability": "view",
      "type": "function"
    },
    {
      "inputs": [],
      "name": "trader",
      "outputs": [
        {
          "internalType": "contract ITrader",
          "name": "",
          "type": "address"
        }
      ],
      "stateMutability": "view",
      "type": "function"
    },
    {
      "inputs": [
        {
          "internalType": "address",
          "name": "sender",
          "type": "address"
        },
        {
          "internalType": "uint256",
          "name": "amount0",
          "type": "uint256"
        },
        {
          "internalType": "uint256",
          "name": "amount1",
          "type": "uint256"
        },
        {
          "internalType": "bytes",
          "name": "data",
          "type": "bytes"
        }
      ],
      "name": "uniswapV2Call",
      "outputs": [],
      "stateMutability": "nonpayable",
      "type": "function"
    }
  ],
  "transactionHash": "0x916d7f3457a975fa272e5f4b1399cb73ddc2be44b115897ef2a1261bfa371fe7",
  "args": [
    "0x7a250d5630B4cF539739dF2C5dAcb4c659F2488D",
    "0x5C69bEe701ef814a2B6a3EDD4B1652CB9cc5aA6f",
    "0x615a04282a457b2Dd73Fa297A22114ABE3E812cF"
  ],
  "solcInputHash": "d012b00f22f0a829e34d255d67f053a2",
  "bytecode": "0x60806040523480156200001157600080fd5b5060405162003a9338038062003a93833981810160405260608110156200003757600080fd5b508051602082015160409092015160016000556003549192916001600160a01b0316156200009e576040805162461bcd60e51b815260206004820152600f60248201526e11549497d253925512505312569151608a1b604482015290519081900360640190fd5b6002546001600160a01b031615620000ef576040805162461bcd60e51b815260206004820152600f60248201526e11549497d253925512505312569151608a1b604482015290519081900360640190fd5b6001546001600160a01b03161562000140576040805162461bcd60e51b815260206004820152600f60248201526e11549497d253925512505312569151608a1b604482015290519081900360640190fd5b600380546001600160a01b038086166001600160a01b03199283161790925560028054858416908316179055600180549284169290911691909117905560405133907f908408e307fc569b417f6cbec5d5a06f44a0a505ac0479b47d421a4b2fd6a1e690600090a25050506138d880620001bb6000396000f3fe608060405234801561001057600080fd5b50600436106100f55760003560e01c806369d12e1411610097578063c45a015511610066578063c45a0155146105c1578063cd045524146105c9578063f887ea40146105fb578063fd52c6bb14610603576100f5565b806369d12e14146103c15780639245d5831461041157806395f0ae7614610457578063b17d0570146104f0576100f5565b806317d7de7c116100d357806317d7de7c146101c85780632e16cab31461024557806360060ccd146102a957806369bd26cd14610393576100f5565b80630d8e6e2c146100fa57806310d1e85c146101185780631758078b146101a4575b600080fd5b610102610631565b6040805160ff9092168252519081900360200190f35b6101a26004803603608081101561012e57600080fd5b6001600160a01b038235169160208101359160408201359190810190608081016060820135600160201b81111561016457600080fd5b82018360208201111561017657600080fd5b803590602001918460018302840111600160201b8311171561019757600080fd5b509092509050610636565b005b6101ac610889565b604080516001600160a01b039092168252519081900360200190f35b6101d0610898565b6040805160208082528351818301528351919283929083019185019080838360005b8381101561020a5781810151838201526020016101f2565b50505050905090810190601f1680156102375780820380516001836020036101000a031916815260200191505b509250505060405180910390f35b61028b600480360360c081101561025b57600080fd5b506001600160a01b0381358116916020810135916040820135916060810135916080820135169060a001356108cf565b60408051938452602084019290925282820152519081900360600190f35b61037a600480360360c08110156102bf57600080fd5b6001600160a01b03823581169260208101359091169160408201359160608101359181019060a081016080820135600160201b8111156102fe57600080fd5b82018360208201111561031057600080fd5b803590602001918460208302840111600160201b8311171561033157600080fd5b919080806020026020016040519081016040528093929190818152602001838360200280828437600092019190915250929550505090356001600160a01b031691506109519050565b6040805192835260208301919091528051918290030190f35b6101ac600480360360408110156103a957600080fd5b506001600160a01b03813581169160200135166109c6565b61037a600480360360e08110156103d757600080fd5b506001600160a01b038135811691602081013582169160408201359160608101359160808201359160a08101359091169060c00135610a54565b6104436004803603606081101561042757600080fd5b506001600160a01b038135169060208101359060400135610ae0565b604080519115158252519081900360200190f35b610443600480360360c081101561046d57600080fd5b6001600160a01b038235169160208101359160408201359190810190608081016060820135600160201b8111156104a357600080fd5b8201836020820111156104b557600080fd5b803590602001918460208302840111600160201b831117156104d657600080fd5b91935091506001600160a01b038135169060200135611035565b61037a600480360360c081101561050657600080fd5b6001600160a01b03823581169260208101359091169160408201359160608101359181019060a081016080820135600160201b81111561054557600080fd5b82018360208201111561055757600080fd5b803590602001918460208302840111600160201b8311171561057857600080fd5b919080806020026020016040519081016040528093929190818152602001838360200280828437600092019190915250929550505090356001600160a01b031691506110e69050565b6101ac61115b565b610443600480360360608110156105df57600080fd5b506001600160a01b03813516906020810135906040013561116a565b6101ac611577565b6101ac6004803603604081101561061957600080fd5b506001600160a01b0381358116916020013516611586565b600390565b6000336001600160a01b0316630dfe16816040518163ffffffff1660e01b815260040160206040518083038186803b15801561067157600080fd5b505afa158015610685573d6000803e3d6000fd5b505050506040513d602081101561069b57600080fd5b50516040805163d21220a760e01b81529051919250600091339163d21220a7916004808301926020929190829003018186803b1580156106da57600080fd5b505afa1580156106ee573d6000803e3d6000fd5b505050506040513d602081101561070457600080fd5b50516002546040805163e6a4390560e01b81526001600160a01b0386811660048301528085166024830152915193945091169163e6a4390591604480820192602092909190829003018186803b15801561075d57600080fd5b505afa158015610771573d6000803e3d6000fd5b505050506040513d602081101561078757600080fd5b50516001600160a01b0316331461079a57fe5b60006060306001600160a01b03168686604051808383808284376040519201945060009350909150508083038183865af19150503d80600081146107fa576040519150601f19603f3d011682016040523d82523d6000602084013e6107ff565b606091505b509150915081801561082d57508051158061082d575080806020019051602081101561082a57600080fd5b50515b61087e576040805162461bcd60e51b815260206004820152601760248201527f4552525f554e495357415056325f43414c4c5f4641494c000000000000000000604482015290519081900360640190fd5b505050505050505050565b6001546001600160a01b031681565b60408051808201909152601d81527f5072696d69746976655631556e6973776170436f6e6e6563746f723033000000602082015290565b60008060006002600054141561091a576040805162461bcd60e51b815260206004820152601f6024820152600080516020613798833981519152604482015290519081900360640190fd5b600260005560035461093a906001600160a01b03168a8a8a8a8a8a61166d565b6001600055919b909a509098509650505050505050565b600354600090819081908190610975906001600160a01b03168b8b8b8b8b8b611a38565b6040805183815260208101839052815193955091935033927f3725145ca6a6d192a761e3b6dbcf42cdc13147dd45a65fd1b29737ac584b557e9281900390910190a290999098509650505050505050565b600254604080516364e329cb60e11b81526001600160a01b038581166004830152848116602483015291516000938493169163c9c6539691604480830192602092919082900301818787803b158015610a1e57600080fd5b505af1158015610a32573d6000803e3d6000fd5b505050506040513d6020811015610a4857600080fd5b50519150505b92915050565b60008060026000541415610a9d576040805162461bcd60e51b815260206004820152601f6024820152600080516020613798833981519152604482015290519081900360640190fd5b6002600081905554600354600154610acb926001600160a01b0390811692811691168c8c8c8c8c8c8c6120c6565b6001600055909a909950975050505050505050565b600060026000541415610b28576040805162461bcd60e51b815260206004820152601f6024820152600080516020613798833981519152604482015290519081900360640190fd5b60026000819055506000846001600160a01b0316632f310bad6040518163ffffffff1660e01b815260040160206040518083038186803b158015610b6b57600080fd5b505afa158015610b7f573d6000803e3d6000fd5b505050506040513d6020811015610b9557600080fd5b505160408051632207afe960e11b815290519192506000916001600160a01b0388169163440f5fd2916004808301926020929190829003018186803b158015610bdd57600080fd5b505afa158015610bf1573d6000803e3d6000fd5b505050506040513d6020811015610c0757600080fd5b50516002546040805163e6a4390560e01b81526001600160a01b03868116600483015280851660248301529151939450600093919092169163e6a43905916044808301926020929190829003018186803b158015610c6457600080fd5b505afa158015610c78573d6000803e3d6000fd5b505050506040513d6020811015610c8e57600080fd5b50516040805160028082526060808301845293945090916020830190803883390190505090508281600081518110610cc257fe5b60200260200101906001600160a01b031690816001600160a01b0316815250508381600181518110610cf057fe5b60200260200101906001600160a01b031690816001600160a01b031681525050600082905060006040518060800160405280605081526020016137b860509139805190602001209050606081858c8c8c883360405160240180876001600160a01b03166001600160a01b03168152602001866001600160a01b03166001600160a01b0316815260200185815260200184815260200180602001836001600160a01b03166001600160a01b03168152602001828103825284818151815260200191508051906020019060200280838360005b83811015610dd9578181015183820152602001610dc1565b50505050905001975050505050505050604051602081830303815290604052906001600160e01b0319166020820180516001600160e01b03838183161783525050505090506000876001600160a01b0316846001600160a01b0316630dfe16816040518163ffffffff1660e01b815260040160206040518083038186803b158015610e6357600080fd5b505afa158015610e77573d6000803e3d6000fd5b505050506040513d6020811015610e8d57600080fd5b50516001600160a01b031614610ea4576000610ea6565b8a5b90506000886001600160a01b0316856001600160a01b0316630dfe16816040518163ffffffff1660e01b815260040160206040518083038186803b158015610eed57600080fd5b505afa158015610f01573d6000803e3d6000fd5b505050506040513d6020811015610f1757600080fd5b50516001600160a01b031614610f2d578b610f30565b60005b9050846001600160a01b031663022c0d9f838330876040518563ffffffff1660e01b815260040180858152602001848152602001836001600160a01b03166001600160a01b0316815260200180602001828103825283818151815260200191508051906020019080838360005b83811015610fb5578181015183820152602001610f9d565b50505050905090810190601f168015610fe25780820380516001836020036101000a031916815260200191505b5095505050505050600060405180830381600087803b15801561100457600080fd5b505af1158015611018573d6000803e3d6000fd5b505050506001995050505050505050505060016000559392505050565b60006002600054141561107d576040805162461bcd60e51b815260206004820152601f6024820152600080516020613798833981519152604482015290519081900360640190fd5b6002600090815560035460408051602080890282810182019093528882526110d4936001600160a01b0316928d928d928d928d918d9182918501908490808284376000920191909152508c92508b91506126ba9050565b60016000559998505050505050505050565b60035460009081908190819061110a906001600160a01b03168b8b8b8b8b8b6127b8565b6040805183815260208101839052815193955091935033927ff17aa7749e04732ce7bde5ee88376144e6c5669bd4d8c80358119eada62a1d009281900390910190a290999098509650505050505050565b6002546001600160a01b031681565b6000600260005414156111b2576040805162461bcd60e51b815260206004820152601f6024820152600080516020613798833981519152604482015290519081900360640190fd5b60026000819055506000846001600160a01b0316632f310bad6040518163ffffffff1660e01b815260040160206040518083038186803b1580156111f557600080fd5b505afa158015611209573d6000803e3d6000fd5b505050506040513d602081101561121f57600080fd5b505160408051632207afe960e11b815290519192506000916001600160a01b0388169163440f5fd2916004808301926020929190829003018186803b15801561126757600080fd5b505afa15801561127b573d6000803e3d6000fd5b505050506040513d602081101561129157600080fd5b50516002546040805163e6a4390560e01b81526001600160a01b03868116600483015280851660248301529151939450600093919092169163e6a43905916044808301926020929190829003018186803b1580156112ee57600080fd5b505afa158015611302573d6000803e3d6000fd5b505050506040513d602081101561131857600080fd5b5051604080516002808252606080830184529394509091602083019080388339019050509050838160008151811061134c57fe5b60200260200101906001600160a01b031690816001600160a01b031681525050828160018151811061137a57fe5b60200260200101906001600160a01b031690816001600160a01b0316815250506000829050600060405180608001604052806050815260200161382960509139805190602001209050606081858c8c8c883360405160240180876001600160a01b03166001600160a01b03168152602001866001600160a01b03166001600160a01b0316815260200185815260200184815260200180602001836001600160a01b03166001600160a01b03168152602001828103825284818151815260200191508051906020019060200280838360005b8381101561146357818101518382015260200161144b565b50505050905001975050505050505050604051602081830303815290604052906001600160e01b0319166020820180516001600160e01b03838183161783525050505090506000866001600160a01b0316846001600160a01b0316630dfe16816040518163ffffffff1660e01b815260040160206040518083038186803b1580156114ed57600080fd5b505afa158015611501573d6000803e3d6000fd5b505050506040513d602081101561151757600080fd5b50516001600160a01b03161461152e576000611530565b8a5b90506000876001600160a01b0316856001600160a01b0316630dfe16816040518163ffffffff1660e01b815260040160206040518083038186803b158015610eed57600080fd5b6003546001600160a01b031681565b6002546040805163e6a4390560e01b81526001600160a01b038581166004830152848116602483015291516000938493169163e6a43905916044808301926020929190829003018186803b1580156115dd57600080fd5b505afa1580156115f1573d6000803e3d6000fd5b505050506040513d602081101561160757600080fd5b505190506001600160a01b038116611666576040805162461bcd60e51b815260206004820152601760248201527f4552525f504149525f444f45535f4e4f545f4558495354000000000000000000604482015290519081900360640190fd5b9392505050565b60008080808080808c611681818e30612ea5565b925061169f90506001600160a01b038216338f63ffffffff612ff616565b5060008e905060008e6001600160a01b0316632f310bad6040518163ffffffff1660e01b815260040160206040518083038186803b1580156116e057600080fd5b505afa1580156116f4573d6000803e3d6000fd5b505050506040513d602081101561170a57600080fd5b8101908080519060200190929190505050905060008f6001600160a01b031663440f5fd26040518163ffffffff1660e01b815260040160206040518083038186803b15801561175857600080fd5b505afa15801561176c573d6000803e3d6000fd5b505050506040513d602081101561178257600080fd5b505190508d8d8d8d6117a56001600160a01b03861633308763ffffffff61304d16565b6040805163095ea7b360e01b81526001600160a01b038981166004830152600019602483015291519188169163095ea7b3916044808201926020929091908290030181600087803b1580156117f957600080fd5b505af115801561180d573d6000803e3d6000fd5b505050506040513d602081101561182357600080fd5b50506040805163095ea7b360e01b81526001600160a01b038981166004830152600019602483015291519187169163095ea7b3916044808201926020929091908290030181600087803b15801561187957600080fd5b505af115801561188d573d6000803e3d6000fd5b505050506040513d60208110156118a357600080fd5b50506040805162e8e33760e81b81526001600160a01b0388811660048301528781166024830152604482018b905260648201879052608482018b905260a4820186905284811660c483015260e4820184905291519189169163e8e3370091610104808201926060929091908290030181600087803b15801561192457600080fd5b505af1158015611938573d6000803e3d6000fd5b505050506040513d606081101561194e57600080fd5b5080516020820151604090920151909c50909a509850878b1461196d57fe5b5050505050505060008d90506000848d11611989576000611999565b6119998d8663ffffffff6130ad16565b90508015611a2157611a213382846001600160a01b031663440f5fd26040518163ffffffff1660e01b815260040160206040518083038186803b1580156119df57600080fd5b505afa1580156119f3573d6000803e3d6000fd5b505050506040513d6020811015611a0957600080fd5b50516001600160a01b0316919063ffffffff612ff616565b50939e929d50909b50909950505050505050505050565b600080333014611a7e576040805162461bcd60e51b815260206004820152600c60248201526b22a9292fa727aa2fa9a2a62360a11b604482015290519081900360640190fd5b60008611611abe576040805162461bcd60e51b81526020600482015260086024820152674552525f5a45524f60c01b604482015290519081900360640190fd5b6000876001600160a01b031663440f5fd26040518163ffffffff1660e01b815260040160206040518083038186803b158015611af957600080fd5b505afa158015611b0d573d6000803e3d6000fd5b505050506040513d6020811015611b2357600080fd5b505160408051632f310bad60e01b815290519192506000916001600160a01b038b1691632f310bad916004808301926020929190829003018186803b158015611b6b57600080fd5b505afa158015611b7f573d6000803e3d6000fd5b505050506040513d6020811015611b9557600080fd5b505186519091506001600160a01b0382169087906001908110611bb457fe5b60200260200101516001600160a01b031614611c17576040805162461bcd60e51b815260206004820152601760248201527f4552525f454e445f504154485f4e4f545f52454445454d000000000000000000604482015290519081900360640190fd5b611c316001600160a01b0382168a8a63ffffffff612ff616565b6000611d248a6001600160a01b031662fe19fa6040518163ffffffff1660e01b815260040160206040518083038186803b158015611c6e57600080fd5b505afa158015611c82573d6000803e3d6000fd5b505050506040513d6020811015611c9857600080fd5b5051604080516316b2542760e31b81529051611d18916001600160a01b038f169163b592a13891600480820192602092909190829003018186803b158015611cdf57600080fd5b505afa158015611cf3573d6000803e3d6000fd5b505050506040513d6020811015611d0957600080fd5b50518c9063ffffffff6130ef16565b9063ffffffff61314816565b9050611d416001600160a01b038b16878c8463ffffffff61304d16565b60408051638349980560e01b815230600482015290516000916001600160a01b038d169163834998059160248082019260609290919082900301818787803b158015611d8c57600080fd5b505af1158015611da0573d6000803e3d6000fd5b505050506040513d6060811015611db657600080fd5b810190808051906020019092919080519060200190929190805190602001909291905050509250505060008060008f90506060816001600160a01b0316631f00ca748f8e6040518363ffffffff1660e01b81526004018083815260200180602001828103825283818151815260200191508051906020019060200280838360005b83811015611e4f578181015183820152602001611e37565b50505050905001935050505060006040518083038186803b158015611e7357600080fd5b505afa158015611e87573d6000803e3d6000fd5b505050506040513d6000823e601f3d908101601f191682016040526020811015611eb057600080fd5b8101908080516040519392919084600160201b821115611ecf57600080fd5b908301906020820185811115611ee457600080fd5b82518660208202830111600160201b82111715611f0057600080fd5b82525081516020918201928201910280838360005b83811015611f2d578181015183820152602001611f15565b505050509050016040525050509050600081600081518110611f4b57fe5b60200260200101519050808611611f63576000611f73565b611f73868263ffffffff6130ad16565b93506000868211611f85576000611f95565b611f95828863ffffffff6130ad16565b90508015611fa1578095505b8415611fba57611fb7878663ffffffff6130ad16565b96505b50611fd3925050506001600160a01b0387168f85612ff6565b811561204457808b1115612024576040805162461bcd60e51b815260206004820152601360248201527211549497d39151d05512559157d4105653d555606a1b604482015290519081900360640190fd5b612044898f84896001600160a01b031661304d909392919063ffffffff16565b80156120b1578a811015612097576040805162461bcd60e51b815260206004820152601560248201527422a9292fa82922a6a4aaa6afaaa72222a92fa6a4a760591b604482015290519081900360640190fd5b6120b16001600160a01b0387168a8363ffffffff612ff616565b919e919d50909b505050505050505050505050565b6000806000896001600160a01b0316632f310bad6040518163ffffffff1660e01b815260040160206040518083038186803b15801561210457600080fd5b505afa158015612118573d6000803e3d6000fd5b505050506040513d602081101561212e57600080fd5b8101908080519060200190929190505050905060008d6001600160a01b031663e6a43905838c6040518363ffffffff1660e01b815260040180836001600160a01b03166001600160a01b03168152602001826001600160a01b03166001600160a01b031681526020019250505060206040518083038186803b1580156121b357600080fd5b505afa1580156121c7573d6000803e3d6000fd5b505050506040513d60208110156121dd57600080fd5b505190506121fc6001600160a01b03821633308c63ffffffff61304d16565b6040805163095ea7b360e01b81526001600160a01b038f81166004830152600019602483015291519183169163095ea7b3916044808201926020929091908290030181600087803b15801561225057600080fd5b505af1158015612264573d6000803e3d6000fd5b505050506040513d602081101561227a57600080fd5b810190808051906020019092919050505050506000808d6001600160a01b031663baa2abde848d8d8d8d308d6040518863ffffffff1660e01b815260040180886001600160a01b03166001600160a01b03168152602001876001600160a01b03166001600160a01b03168152602001868152602001858152602001848152602001836001600160a01b03166001600160a01b031681526020018281526020019750505050505050506040805180830381600087803b15801561233b57600080fd5b505af115801561234f573d6000803e3d6000fd5b505050506040513d604081101561236557600080fd5b8101908080519060200190929190805190602001909291905050509150915060008c9050806001600160a01b031663095ea7b38f6000196040518363ffffffff1660e01b815260040180836001600160a01b03166001600160a01b0316815260200182815260200192505050602060405180830381600087803b1580156123eb57600080fd5b505af11580156123ff573d6000803e3d6000fd5b505050506040513d602081101561241557600080fd5b810190808051906020019092919050505050836001600160a01b031663095ea7b38f6000196040518363ffffffff1660e01b815260040180836001600160a01b03166001600160a01b0316815260200182815260200192505050602060405180830381600087803b15801561248957600080fd5b505af115801561249d573d6000803e3d6000fd5b505050506040513d60208110156124b357600080fd5b505060408051627f0cfd60e11b815290516000916125cc91670de0b6b3a764000091611d18916001600160a01b0387169162fe19fa916004808301926020929190829003018186803b15801561250857600080fd5b505afa15801561251c573d6000803e3d6000fd5b505050506040513d602081101561253257600080fd5b5051604080516316b2542760e31b81529051611d1891670de0b6b3a7640000916125c0916001600160a01b038b169163b592a13891600480820192602092909190829003018186803b15801561258757600080fd5b505afa15801561259b573d6000803e3d6000fd5b505050506040513d60208110156125b157600080fd5b50518b9063ffffffff6130ef16565b9063ffffffff6130ef16565b90506125e96001600160a01b03831633308463ffffffff61304d16565b8e6001600160a01b031663b8a6bb3b83838c6040518463ffffffff1660e01b815260040180846001600160a01b03166001600160a01b03168152602001838152602001826001600160a01b03166001600160a01b031681526020019350505050606060405180830381600087803b15801561266357600080fd5b505af1158015612677573d6000803e3d6000fd5b505050506040513d606081101561268d57600080fd5b506126a6925050506001600160a01b038c168883612ff6565b909e909d509b505050505050505050505050565b60008060006126ca898930612ea5565b915091506000896001600160a01b0316632f310bad6040518163ffffffff1660e01b815260040160206040518083038186803b15801561270957600080fd5b505afa15801561271d573d6000803e3d6000fd5b505050506040513d602081101561273357600080fd5b5051905060006127488c83858c8c8c8c61318a565b9150508061278f576040805162461bcd60e51b815260206004820152600f60248201526e11549497d4d5d05417d19052531151608a1b604482015290519081900360640190fd5b6127a96001600160a01b038c16888663ffffffff612ff616565b9b9a5050505050505050505050565b6000803330146127fe576040805162461bcd60e51b815260206004820152600c60248201526b22a9292fa727aa2fa9a2a62360a11b604482015290519081900360640190fd5b6000861161283e576040805162461bcd60e51b81526020600482015260086024820152674552525f5a45524f60c01b604482015290519081900360640190fd5b6000806000896001600160a01b031663440f5fd26040518163ffffffff1660e01b815260040160206040518083038186803b15801561287c57600080fd5b505afa158015612890573d6000803e3d6000fd5b505050506040513d60208110156128a657600080fd5b505187519091506001600160a01b03821690889060019081106128c557fe5b60200260200101516001600160a01b031614612928576040805162461bcd60e51b815260206004820152601b60248201527f4552525f454e445f504154485f4e4f545f554e4445524c59494e470000000000604482015290519081900360640190fd5b6129426001600160a01b0382168b8b63ffffffff612ff616565b60408051633ea6b5f160e21b815230600482015281516001600160a01b038d169263fa9ad7c492602480820193918290030181600087803b15801561298657600080fd5b505af115801561299a573d6000803e3d6000fd5b505050506040513d60408110156129b057600080fd5b810190808051906020019092919080519060200190929190505050809350819450505060008060008e90506060816001600160a01b0316631f00ca748e8d6040518363ffffffff1660e01b81526004018083815260200180602001828103825283818151815260200191508051906020019060200280838360005b83811015612a43578181015183820152602001612a2b565b50505050905001935050505060006040518083038186803b158015612a6757600080fd5b505afa158015612a7b573d6000803e3d6000fd5b505050506040513d6000823e601f3d908101601f191682016040526020811015612aa457600080fd5b8101908080516040519392919084600160201b821115612ac357600080fd5b908301906020820185811115612ad857600080fd5b82518660208202830111600160201b82111715612af457600080fd5b82525081516020918201928201910280838360005b83811015612b21578181015183820152602001612b09565b505050509050016040525050509050600081600081518110612b3f57fe5b602002602001015190506000878211612b59576000612b69565b612b69828963ffffffff6130ad16565b9050818811612b79576000612b89565b612b89888363ffffffff6130ad16565b94508015612d455760608d90506060856001600160a01b031663d06ca61f84846040518363ffffffff1660e01b81526004018083815260200180602001828103825283818151815260200191508051906020019060200280838360005b83811015612bfe578181015183820152602001612be6565b50505050905001935050505060006040518083038186803b158015612c2257600080fd5b505afa158015612c36573d6000803e3d6000fd5b505050506040513d6000823e601f3d908101601f191682016040526020811015612c5f57600080fd5b8101908080516040519392919084600160201b821115612c7e57600080fd5b908301906020820185811115612c9357600080fd5b82518660208202830111600160201b82111715612caf57600080fd5b82525081516020918201928201910280838360005b83811015612cdc578181015183820152602001612cc4565b505050509050016040525050509050612d40620186a0611d1883600181518110612d0257fe5b6020026020010151612d346201870586600181518110612d1e57fe5b60200260200101516130ef90919063ffffffff16565b9063ffffffff61340616565b975050505b8415612d5e57612d5b888663ffffffff6130ad16565b97505b5050505060008c6001600160a01b0316632f310bad6040518163ffffffff1660e01b815260040160206040518083038186803b158015612d9d57600080fd5b505afa158015612db1573d6000803e3d6000fd5b505050506040513d6020811015612dc757600080fd5b50519050612de56001600160a01b0382168f8763ffffffff612ff616565b8215612e5757828b1015612e37576040805162461bcd60e51b815260206004820152601460248201527308aa4a4bea0a48a9a92aa9abe9eac8aa4be9a82b60631b604482015290519081900360640190fd5b612e57898f85876001600160a01b031661304d909392919063ffffffff16565b8115612e7757612e776001600160a01b0382168a8463ffffffff612ff616565b612e916001600160a01b038e168a8863ffffffff612ff616565b50939d909c509a5050505050505050505050565b60008060008411612ee8576040805162461bcd60e51b81526020600482015260086024820152674552525f5a45524f60c01b604482015290519081900360640190fd5b612f6a338686886001600160a01b031663440f5fd26040518163ffffffff1660e01b815260040160206040518083038186803b158015612f2757600080fd5b505afa158015612f3b573d6000803e3d6000fd5b505050506040513d6020811015612f5157600080fd5b50516001600160a01b031692919063ffffffff61304d16565b60408051633ea6b5f160e21b81526001600160a01b03858116600483015282516000938493928a169263fa9ad7c4926024808301939282900301818787803b158015612fb557600080fd5b505af1158015612fc9573d6000803e3d6000fd5b505050506040513d6040811015612fdf57600080fd5b508051602090910151909890975095505050505050565b604080516001600160a01b038416602482015260448082018490528251808303909101815260649091019091526020810180516001600160e01b031663a9059cbb60e01b179052613048908490613460565b505050565b604080516001600160a01b0380861660248301528416604482015260648082018490528251808303909101815260849091019091526020810180516001600160e01b03166323b872dd60e01b1790526130a7908590613460565b50505050565b600061166683836040518060400160405280601e81526020017f536166654d6174683a207375627472616374696f6e206f766572666c6f770000815250613511565b6000826130fe57506000610a4e565b8282028284828161310b57fe5b04146116665760405162461bcd60e51b81526004018080602001828103825260218152602001806138086021913960400191505060405180910390fd5b600061166683836040518060400160405280601a81526020017f536166654d6174683a206469766973696f6e206279207a65726f0000000000008152506135a8565b60606000876001600160a01b0316856000815181106131a557fe5b60200260200101516001600160a01b031614613200576040805162461bcd60e51b815260206004820152601560248201527411549497d410551217d3d4151253d397d4d5105495605a1b604482015290519081900360640190fd5b6040805163095ea7b360e01b81526001600160a01b038b8116600483015260001960248301529151918a169163095ea7b3916044808201926020929091908290030181600087803b15801561325457600080fd5b505af1158015613268573d6000803e3d6000fd5b505050506040513d602081101561327e57600080fd5b50506040516338ed173960e01b815260048101888152602482018890526001600160a01b0386811660648401526084830186905260a060448401908152885160a48501528851918d16936338ed1739938c938c938c938c938c9390929160c401906020878101910280838360005b838110156133045781810151838201526020016132ec565b505050509050019650505050505050600060405180830381600087803b15801561332d57600080fd5b505af1158015613341573d6000803e3d6000fd5b505050506040513d6000823e601f3d908101601f19168201604052602081101561336a57600080fd5b8101908080516040519392919084600160201b82111561338957600080fd5b90830190602082018581111561339e57600080fd5b82518660208202830111600160201b821117156133ba57600080fd5b82525081516020918201928201910280838360005b838110156133e75781810151838201526020016133cf565b5050505090500160405250505091506001905097509795505050505050565b600082820183811015611666576040805162461bcd60e51b815260206004820152601b60248201527f536166654d6174683a206164646974696f6e206f766572666c6f770000000000604482015290519081900360640190fd5b60606134b5826040518060400160405280602081526020017f5361666545524332303a206c6f772d6c6576656c2063616c6c206661696c6564815250856001600160a01b031661360d9092919063ffffffff16565b805190915015613048578080602001905160208110156134d457600080fd5b50516130485760405162461bcd60e51b815260040180806020018281038252602a815260200180613879602a913960400191505060405180910390fd5b600081848411156135a05760405162461bcd60e51b81526004018080602001828103825283818151815260200191508051906020019080838360005b8381101561356557818101518382015260200161354d565b50505050905090810190601f1680156135925780820380516001836020036101000a031916815260200191505b509250505060405180910390fd5b505050900390565b600081836135f75760405162461bcd60e51b815260206004820181815283516024840152835190928392604490910191908501908083836000831561356557818101518382015260200161354d565b50600083858161360357fe5b0495945050505050565b606061361c8484600085613624565b949350505050565b606061362f85613791565b613680576040805162461bcd60e51b815260206004820152601d60248201527f416464726573733a2063616c6c20746f206e6f6e2d636f6e7472616374000000604482015290519081900360640190fd5b60006060866001600160a01b031685876040518082805190602001908083835b602083106136bf5780518252601f1990920191602091820191016136a0565b6001836020036101000a03801982511681845116808217855250505050505090500191505060006040518083038185875af1925050503d8060008114613721576040519150601f19603f3d011682016040523d82523d6000602084013e613726565b606091505b5091509150811561373a57915061361c9050565b80511561374a5780518082602001fd5b60405162461bcd60e51b815260206004820181815286516024840152865187939192839260440191908501908083836000831561356557818101518382015260200161354d565b3b15159056fe5265656e7472616e637947756172643a207265656e7472616e742063616c6c00666c617368436c6f73654c6f6e674f7074696f6e735468656e5377617028616464726573732c616464726573732c75696e743235362c75696e743235362c616464726573735b5d2c6164647265737329536166654d6174683a206d756c7469706c69636174696f6e206f766572666c6f77666c6173684d696e7453686f72744f7074696f6e735468656e5377617028616464726573732c616464726573732c75696e743235362c75696e743235362c616464726573735b5d2c61646472657373295361666545524332303a204552433230206f7065726174696f6e20646964206e6f742073756363656564a2646970667358221220d9af275090abe1ff58227ff414cd87b954c6ced1bb5f4e5c39ba5cf2b8c1ece664736f6c63430006020033",
  "devdoc": {
    "methods": {
      "addShortLiquidityWithUnderlying(address,uint256,uint256,uint256,address,uint256)": {
        "details": "Adds redeemToken liquidity to a redeem<>token pair by minting shortOptionTokens with underlyingTokens.",
        "params": {
          "amountBMax": "The minimum quantity of shortOptionTokens expected to provide liquidity with.",
          "amountBMin": "The minimum quantity of otherTokens expected to provide liquidity with.",
          "deadline": "The timestamp to expire a pending transaction. \r",
          "optionAddress": "The address of the optionToken to get the redeemToken to mint then provide liquidity for.",
          "quantityOptions": "The quantity of underlyingTokens to use to mint option + redeem tokens.",
          "to": "The address that receives UNI-V2 shares."
        }
      },
      "closeFlashLong(address,uint256,uint256)": {
        "details": "Closes a longOptionToken position by flash swapping in redeemTokens, closing the option, and paying back in underlyingTokens.",
        "params": {
          "amountRedeems": "The quantity of redeemTokens to borrow to close the options.",
          "minPayout": "The minimum payout of underlyingTokens sent out to the user. \r",
          "optionToken": "The address of the longOptionTokens to close."
        }
      },
      "deployUniswapMarket(address,address)": {
        "details": "Creates a UniswapV2Pair by calling `createPair` on the UniswapV2Factory."
      },
      "flashCloseLongOptionsThenSwap(address,address,uint256,uint256,address[],address)": {
        "details": "Sends shortOptionTokens to msg.sender, and pays back the UniswapV2Pair in underlyingTokens.",
        "params": {
          "flashLoanQuantity": "The quantity of shortOptionTokens borrowed to use to close longOptionTokens.",
          "minPayout": "The minimum payout of underlyingTokens sent to the `to` address.",
          "optionAddress": "The address of the longOptionTokes to close.",
          "pairAddress": "The address of the redeemToken<>underlyingToken UniswapV2Pair contract.",
          "path": "underlyingTokens -> shortOptionTokens, because we are paying the input of underlyingTokens.",
          "to": "The address which is sent the underlyingToken payout, or liable to pay for a negative payout."
        }
      },
      "flashMintShortOptionsThenSwap(address,address,uint256,uint256,address[],address)": {
        "details": "Receives underlyingTokens from a UniswapV2Pair.swap() call from a pair with reserve0 = shortOptionTokens and reserve1 = underlyingTokens. Uses underlyingTokens to mint long (option) + short (redeem) tokens. Sends longOptionTokens to msg.sender, and pays back the UniswapV2Pair the shortOptionTokens, AND any remainder quantity of underlyingTokens (paid by msg.sender).",
        "params": {
          "flashLoanQuantity": "The quantity of options to mint using borrowed underlyingTokens.",
          "maxPremium": "The maximum quantity of underlyingTokens to pay for the optionTokens.",
          "optionAddress": "The address of the Option contract.",
          "path": "The token addresses to trade through using their Uniswap V2 pools. Assumes path[0] = shortOptionToken.",
          "to": "The address to send the shortOptionToken proceeds and longOptionTokens to."
        },
        "returns": {
          "_0": "success bool Whether the transaction was successful or not. \r"
        }
      },
      "getName()": {
        "details": "Gets the name of the contract."
      },
      "getUniswapMarketForTokens(address,address)": {
        "details": "Gets a UniswapV2Pair address for two tokens by calling the UniswapV2Factory."
      },
      "getVersion()": {
        "details": "Gets the version of the contract."
      },
      "mintShortOptionsThenSwapToTokens(address,uint256,uint256,address[],address,uint256)": {
        "details": "Mints long + short option tokens, then swaps the shortOptionTokens (redeem) for tokens.",
        "params": {
          "amountIn": "The quantity of options to mint.",
          "amountOutMin": "The minimum quantity of tokens to receive in exchange for the shortOptionTokens.",
          "deadline": "The timestamp for a trade to fail at if not successful.",
          "optionToken": "The address of the Option contract.",
          "path": "The token addresses to trade through using their Uniswap V2 pools. Assumes path[0] = shortOptionToken.",
          "to": "The address to send the shortOptionToken proceeds and longOptionTokens to."
        },
        "returns": {
          "_0": "bool Whether the transaction was successful or not. \r"
        }
      },
      "openFlashLong(address,uint256,uint256)": {
        "details": "Opens a longOptionToken position by minting long + short tokens, then selling the short tokens.",
        "params": {
          "amountOptions": "The quantity of longOptionTokens to purchase.",
          "maxPremium": "The maximum quantity of underlyingTokens to pay for the optionTokens. \r",
          "optionToken": "The option address."
        }
      },
      "removeShortLiquidityThenCloseOptions(address,address,uint256,uint256,uint256,address,uint256)": {
        "details": "Combines Uniswap V2 Router \"removeLiquidity\" function with Primitive \"closeOptions\" function.",
        "params": {
          "amountAMin": "The minimum quantity of shortOptionTokens to receive from removing liquidity.",
          "amountBMin": "The minimum quantity of quoteTokens to receive from removing liquidity.",
          "deadline": "The timestamp to expire a pending transaction. \r",
          "liquidity": "The quantity of liquidity tokens to pull from msg.sender and burn.",
          "optionAddress": "The address of the option that will be closed from burned UNI-V2 liquidity shares.",
          "otherTokenAddress": "The address of the other token in the option pair.",
          "to": "The address that receives quoteTokens from burned UNI-V2, and underlyingTokens from closed options."
        }
      },
      "uniswapV2Call(address,uint256,uint256,bytes)": {
        "details": "The callback function triggered in a UniswapV2Pair.swap() call when the `data` parameter has data.",
        "params": {
          "amount0": "The quantity of token0 received to the `to` address in the swap() call.",
          "amount1": "The quantity of token1 received to the `to` address in the swap() call.",
          "data": "The payload passed in the `data` parameter of the swap() call. \r",
          "sender": "The original msg.sender of the UniswapV2Pair.swap() call."
        }
      }
    }
  },
  "userdoc": {
    "methods": {
      "addShortLiquidityWithUnderlying(address,uint256,uint256,uint256,address,uint256)": {
        "notice": "Pulls underlying tokens from msg.sender and pushes UNI-V2 liquidity tokens to the \"to\" address. underlyingToken -> redeemToken -> UNI-V2."
      },
      "closeFlashLong(address,uint256,uint256)": {
        "notice": "IMPORTANT: If minPayout is 0, this function will cost the caller to close the option, for no gain."
      },
      "flashCloseLongOptionsThenSwap(address,address,uint256,uint256,address[],address)": {
        "notice": "IMPORTANT: If minPayout is 0, the `to` address is liable for negative payouts *if* that occurs."
      },
      "flashMintShortOptionsThenSwap(address,address,uint256,uint256,address[],address)": {
        "notice": "If the first address in the path is not the shortOptionToken address, the tx will fail."
      },
      "mintShortOptionsThenSwapToTokens(address,uint256,uint256,address[],address,uint256)": {
        "notice": "If the first address in the path is not the shortOptionToken address, the tx will fail. underlyingToken -> shortOptionToken -> quoteToken. IMPORTANT: redeemTokens = shortOptionTokens"
      },
      "openFlashLong(address,uint256,uint256)": {
        "notice": "IMPORTANT: amountOutMin parameter is the price to swap shortOptionTokens to underlyingTokens. IMPORTANT: If the ratio between shortOptionTokens and underlyingTokens is 1:1, then only the swap fee (0.30%) has to be paid."
      },
      "removeShortLiquidityThenCloseOptions(address,address,uint256,uint256,uint256,address,uint256)": {
        "notice": "Pulls UNI-V2 liquidity shares with shortOption<>quote token, and optionTokens from msg.sender. Then closes the longOptionTokens and withdraws underlyingTokens to the \"to\" address. Sends quoteTokens from the burned UNI-V2 liquidity shares to the \"to\" address. UNI-V2 -> optionToken -> underlyingToken."
      }
    }
  },
  "storageLayout": {
    "storage": [
      {
        "astId": 1174,
        "contract": "contracts/UniswapConnector03.sol:UniswapConnector03",
        "label": "_status",
        "offset": 0,
        "slot": "0",
        "type": "t_uint256"
      },
      {
        "astId": 2616,
        "contract": "contracts/UniswapConnector03.sol:UniswapConnector03",
        "label": "trader",
        "offset": 0,
        "slot": "1",
        "type": "t_contract(ITrader)1405"
      },
      {
        "astId": 2619,
        "contract": "contracts/UniswapConnector03.sol:UniswapConnector03",
        "label": "factory",
        "offset": 0,
        "slot": "2",
        "type": "t_contract(IUniswapV2Factory)1942"
      },
      {
        "astId": 2622,
        "contract": "contracts/UniswapConnector03.sol:UniswapConnector03",
        "label": "router",
        "offset": 0,
        "slot": "3",
        "type": "t_contract(IUniswapV2Router02)2580"
      }
    ],
    "types": {
      "t_contract(ITrader)1405": {
        "encoding": "inplace",
        "label": "contract ITrader",
        "numberOfBytes": "20"
      },
      "t_contract(IUniswapV2Factory)1942": {
        "encoding": "inplace",
        "label": "contract IUniswapV2Factory",
        "numberOfBytes": "20"
      },
      "t_contract(IUniswapV2Router02)2580": {
        "encoding": "inplace",
        "label": "contract IUniswapV2Router02",
        "numberOfBytes": "20"
      },
      "t_uint256": {
        "encoding": "inplace",
        "label": "uint256",
        "numberOfBytes": "32"
      }
    }
  }
}