{
  "address": "0xF7d9cB5fC4F55f26bC1d8640eDc5fd36469422a8",
  "abi": [
    {
      "inputs": [
        {
          "internalType": "address",
          "name": "weth_",
          "type": "address"
        },
        {
          "internalType": "address",
          "name": "primitiveRouter_",
          "type": "address"
        }
      ],
      "stateMutability": "nonpayable",
      "type": "constructor"
    },
    {
      "anonymous": false,
      "inputs": [
        {
          "indexed": true,
          "internalType": "address",
          "name": "from",
          "type": "address"
        },
        {
          "indexed": true,
          "internalType": "address",
          "name": "option",
          "type": "address"
        },
        {
          "indexed": false,
          "internalType": "uint256",
          "name": "quantity",
          "type": "uint256"
        }
      ],
      "name": "Closed",
      "type": "event"
    },
    {
      "anonymous": false,
      "inputs": [
        {
          "indexed": true,
          "internalType": "address",
          "name": "from",
          "type": "address"
        },
        {
          "indexed": true,
          "internalType": "address",
          "name": "option",
          "type": "address"
        },
        {
          "indexed": false,
          "internalType": "uint256",
          "name": "quantity",
          "type": "uint256"
        }
      ],
      "name": "Exercised",
      "type": "event"
    },
    {
      "anonymous": false,
      "inputs": [
        {
          "indexed": true,
          "internalType": "address",
          "name": "from",
          "type": "address"
        }
      ],
      "name": "Initialized",
      "type": "event"
    },
    {
      "anonymous": false,
      "inputs": [
        {
          "indexed": true,
          "internalType": "address",
          "name": "from",
          "type": "address"
        },
        {
          "indexed": true,
          "internalType": "address",
          "name": "option",
          "type": "address"
        },
        {
          "indexed": false,
          "internalType": "uint256",
          "name": "longQuantity",
          "type": "uint256"
        },
        {
          "indexed": false,
          "internalType": "uint256",
          "name": "shortQuantity",
          "type": "uint256"
        }
      ],
      "name": "Minted",
      "type": "event"
    },
    {
      "anonymous": false,
      "inputs": [
        {
          "indexed": true,
          "internalType": "address",
          "name": "from",
          "type": "address"
        },
        {
          "indexed": true,
          "internalType": "address",
          "name": "option",
          "type": "address"
        },
        {
          "indexed": false,
          "internalType": "uint256",
          "name": "quantity",
          "type": "uint256"
        }
      ],
      "name": "Redeemed",
      "type": "event"
    },
    {
      "inputs": [
        {
          "internalType": "address",
          "name": "token",
          "type": "address"
        },
        {
          "internalType": "address",
          "name": "spender",
          "type": "address"
        }
      ],
      "name": "checkApproval",
      "outputs": [
        {
          "internalType": "bool",
          "name": "",
          "type": "bool"
        }
      ],
      "stateMutability": "nonpayable",
      "type": "function"
    },
    {
      "inputs": [],
      "name": "getCaller",
      "outputs": [
        {
          "internalType": "address",
          "name": "",
          "type": "address"
        }
      ],
      "stateMutability": "view",
      "type": "function"
    },
    {
      "inputs": [],
      "name": "getPrimitiveRouter",
      "outputs": [
        {
          "internalType": "contract IPrimitiveRouter",
          "name": "",
          "type": "address"
        }
      ],
      "stateMutability": "view",
      "type": "function"
    },
    {
      "inputs": [],
      "name": "getWeth",
      "outputs": [
        {
          "internalType": "contract IWETH",
          "name": "",
          "type": "address"
        }
      ],
      "stateMutability": "view",
      "type": "function"
    },
    {
      "inputs": [
        {
          "internalType": "address",
          "name": "token",
          "type": "address"
        },
        {
          "internalType": "address",
          "name": "spender",
          "type": "address"
        }
      ],
      "name": "isApproved",
      "outputs": [
        {
          "internalType": "bool",
          "name": "",
          "type": "bool"
        }
      ],
      "stateMutability": "view",
      "type": "function"
    },
    {
      "inputs": [
        {
          "internalType": "contract IOption",
          "name": "optionToken",
          "type": "address"
        },
        {
          "internalType": "uint256",
          "name": "closeQuantity",
          "type": "uint256"
        }
      ],
      "name": "safeCloseForETH",
      "outputs": [
        {
          "internalType": "uint256",
          "name": "",
          "type": "uint256"
        },
        {
          "internalType": "uint256",
          "name": "",
          "type": "uint256"
        },
        {
          "internalType": "uint256",
          "name": "",
          "type": "uint256"
        }
      ],
      "stateMutability": "nonpayable",
      "type": "function"
    },
    {
      "inputs": [
        {
          "internalType": "contract IOption",
          "name": "optionToken",
          "type": "address"
        },
        {
          "internalType": "uint256",
          "name": "exerciseQuantity",
          "type": "uint256"
        }
      ],
      "name": "safeExerciseForETH",
      "outputs": [
        {
          "internalType": "uint256",
          "name": "",
          "type": "uint256"
        },
        {
          "internalType": "uint256",
          "name": "",
          "type": "uint256"
        }
      ],
      "stateMutability": "nonpayable",
      "type": "function"
    },
    {
      "inputs": [
        {
          "internalType": "contract IOption",
          "name": "optionToken",
          "type": "address"
        }
      ],
      "name": "safeExerciseWithETH",
      "outputs": [
        {
          "internalType": "uint256",
          "name": "",
          "type": "uint256"
        },
        {
          "internalType": "uint256",
          "name": "",
          "type": "uint256"
        }
      ],
      "stateMutability": "payable",
      "type": "function"
    },
    {
      "inputs": [
        {
          "internalType": "contract IOption",
          "name": "optionToken",
          "type": "address"
        }
      ],
      "name": "safeMintWithETH",
      "outputs": [
        {
          "internalType": "uint256",
          "name": "",
          "type": "uint256"
        },
        {
          "internalType": "uint256",
          "name": "",
          "type": "uint256"
        }
      ],
      "stateMutability": "payable",
      "type": "function"
    },
    {
      "inputs": [
        {
          "internalType": "contract IOption",
          "name": "optionToken",
          "type": "address"
        },
        {
          "internalType": "uint256",
          "name": "amount",
          "type": "uint256"
        },
        {
          "internalType": "uint256",
          "name": "deadline",
          "type": "uint256"
        },
        {
          "internalType": "uint8",
          "name": "v",
          "type": "uint8"
        },
        {
          "internalType": "bytes32",
          "name": "r",
          "type": "bytes32"
        },
        {
          "internalType": "bytes32",
          "name": "s",
          "type": "bytes32"
        }
      ],
      "name": "safeMintWithPermit",
      "outputs": [
        {
          "internalType": "uint256",
          "name": "",
          "type": "uint256"
        },
        {
          "internalType": "uint256",
          "name": "",
          "type": "uint256"
        }
      ],
      "stateMutability": "nonpayable",
      "type": "function"
    },
    {
      "inputs": [
        {
          "internalType": "contract IOption",
          "name": "optionToken",
          "type": "address"
        },
        {
          "internalType": "uint256",
          "name": "redeemQuantity",
          "type": "uint256"
        }
      ],
      "name": "safeRedeemForETH",
      "outputs": [
        {
          "internalType": "uint256",
          "name": "",
          "type": "uint256"
        }
      ],
      "stateMutability": "nonpayable",
      "type": "function"
    },
    {
      "stateMutability": "payable",
      "type": "receive"
    }
  ],
  "transactionHash": "0xd7a04ad98f091b55690692c772261a1e1e909d8ac15e2adc0bb7aece560b31b2",
  "args": [
    "0xd0A1E359811322d97991E03f863a0C30C2cF029C",
    "0x6A713071dcc5dDd5F5f36e9B92f15f5fBe9d7EC5"
  ],
  "solcInputHash": "c9dcfba636be70a61fb642f1ed49c33f",
  "bytecode": "0x60806040523480156200001157600080fd5b50604051620028ae380380620028ae833981810160405260408110156200003757600080fd5b508051602090910151600080546001600160a01b038085166001600160a01b031992831617909255600180549284169290911691909117905581816200008782826001600160e01b03620000df16565b5050600160035550620000a26001600160e01b036200017016565b6001600160a01b03167f908408e307fc569b417f6cbec5d5a06f44a0a505ac0479b47d421a4b2fd6a1e660405160405180910390a250506200053d565b6001600160a01b03808316600090815260026020908152604080832093851683529290529081205460ff1662000167576200013682600019856001600160a01b03166200017460201b62001bdb179092919060201c565b6001600160a01b038084166000908152600260209081526040808320938616835292905220805460ff191660011790555b50600192915050565b3390565b801580620001fe575060408051636eb1769f60e11b81523060048201526001600160a01b03848116602483015291519185169163dd62ed3e91604480820192602092909190829003018186803b158015620001ce57600080fd5b505afa158015620001e3573d6000803e3d6000fd5b505050506040513d6020811015620001fa57600080fd5b5051155b6200023b5760405162461bcd60e51b8152600401808060200182810382526036815260200180620028786036913960400191505060405180910390fd5b604080516001600160a01b038416602482015260448082018490528251808303909101815260649091019091526020810180516001600160e01b0390811663095ea7b360e01b17909152620002939185916200029816565b505050565b6060620002f4826040518060400160405280602081526020017f5361666545524332303a206c6f772d6c6576656c2063616c6c206661696c6564815250856001600160a01b03166200035460201b62002080179092919060201c565b80519091501562000293578080602001905160208110156200031557600080fd5b5051620002935760405162461bcd60e51b815260040180806020018281038252602a8152602001806200284e602a913960400191505060405180910390fd5b60606200036e84846000856001600160e01b036200037616565b949350505050565b60606200038c856001600160e01b036200053716565b620003de576040805162461bcd60e51b815260206004820152601d60248201527f416464726573733a2063616c6c20746f206e6f6e2d636f6e7472616374000000604482015290519081900360640190fd5b60006060866001600160a01b031685876040518082805190602001908083835b602083106200041f5780518252601f199092019160209182019101620003fe565b6001836020036101000a03801982511681845116808217855250505050505090500191505060006040518083038185875af1925050503d806000811462000483576040519150601f19603f3d011682016040523d82523d6000602084013e62000488565b606091505b509150915081156200049e5791506200036e9050565b805115620004af5780518082602001fd5b8360405162461bcd60e51b81526004018080602001828103825283818151815260200191508051906020019080838360005b83811015620004fb578181015183820152602001620004e1565b50505050905090810190601f168015620005295780820380516001836020036101000a031916815260200191505b509250505060405180910390fd5b3b151590565b612301806200054d6000396000f3fe6080604052600436106100a05760003560e01c8063325d643511610064578063325d6435146102135780633c5213de146102395780635cda4b4114610284578063882c3c22146102d3578063a389783e146102f9578063ab470f0514610334576100cb565b80630e10a66d146100d0578063107c279f1461013d57806312eded461461016e578063161a9a37146101c557806327fb8380146101fe576100cb565b366100cb576000546001600160a01b03166100b9610349565b6001600160a01b0316146100c957fe5b005b600080fd5b3480156100dc57600080fd5b50610124600480360360c08110156100f357600080fd5b506001600160a01b038135169060208101359060408101359060ff6060820135169060808101359060a0013561034e565b6040805192835260208301919091528051918290030190f35b34801561014957600080fd5b506101526105e1565b604080516001600160a01b039092168252519081900360200190f35b34801561017a57600080fd5b506101a76004803603604081101561019157600080fd5b506001600160a01b0381351690602001356105f0565b60408051938452602084019290925282820152519081900360600190f35b3480156101d157600080fd5b50610124600480360360408110156101e857600080fd5b506001600160a01b038135169060200135610904565b34801561020a57600080fd5b50610152610c93565b6101246004803603602081101561022957600080fd5b50356001600160a01b0316610ca2565b34801561024557600080fd5b506102726004803603604081101561025c57600080fd5b506001600160a01b038135169060200135610e85565b60408051918252519081900360200190f35b34801561029057600080fd5b506102bf600480360360408110156102a757600080fd5b506001600160a01b03813581169160200135166110e4565b604080519115158252519081900360200190f35b610124600480360360208110156102e957600080fd5b50356001600160a01b031661116a565b34801561030557600080fd5b506102bf6004803603604081101561031c57600080fd5b506001600160a01b0381358116916020013516611352565b34801561034057600080fd5b50610152611380565b335b90565b60008060026003541415610397576040805162461bcd60e51b815260206004820152601f602482015260008051602061220b833981519152604482015290519081900360640190fd5b6002600355600154604080516394669bf560e01b81526001600160a01b03808c16600483015291518b9392909216916394669bf591602480820192602092909190829003018186803b1580156103ec57600080fd5b505afa158015610400573d6000803e3d6000fd5b505050506040513d602081101561041657600080fd5b5051610457576040805162461bcd60e51b815260206004820152601b602482015260008051602061224c833981519152604482015290519081900360640190fd5b886001600160a01b031663440f5fd26040518163ffffffff1660e01b815260040160206040518083038186803b15801561049057600080fd5b505afa1580156104a4573d6000803e3d6000fd5b505050506040513d60208110156104ba57600080fd5b50516001600160a01b031663d505accf6104d2611380565b600154604080516001600160e01b031960e086901b1681526001600160a01b039384166004820152929091166024830152604482018c9052606482018b905260ff8a16608483015260a4820189905260c482018890525160e480830192600092919082900301818387803b15801561054957600080fd5b505af115801561055d573d6000803e3d6000fd5b5050505060008061056e8b8b6113f6565b915091508a6001600160a01b0316610584611380565b6001600160a01b03167f03f17d66ad3bf18e9412eb06582908831508cdb9b8da9cddb1431f645a5b86328484604051808381526020018281526020019250505060405180910390a36001600355909a909950975050505050505050565b6000546001600160a01b031690565b60008060006002600354141561063b576040805162461bcd60e51b815260206004820152601f602482015260008051602061220b833981519152604482015290519081900360640190fd5b6002600355600154604080516394669bf560e01b81526001600160a01b0380891660048301529151889392909216916394669bf591602480820192602092909190829003018186803b15801561069057600080fd5b505afa1580156106a4573d6000803e3d6000fd5b505050506040513d60208110156106ba57600080fd5b50516106fb576040805162461bcd60e51b815260206004820152601b602482015260008051602061224c833981519152604482015290519081900360640190fd5b6000866001600160a01b0316632f310bad6040518163ffffffff1660e01b815260040160206040518083038186803b15801561073657600080fd5b505afa15801561074a573d6000803e3d6000fd5b505050506040513d602081101561076057600080fd5b505190506000610770888861152b565b905061077d82828a611624565b5042886001600160a01b03166325cb5bc06040518163ffffffff1660e01b815260040160206040518083038186803b1580156107b857600080fd5b505afa1580156107cc573d6000803e3d6000fd5b505050506040513d60208110156107e257600080fd5b5051106107f6576107f488888a611624565b505b60008060008a6001600160a01b03166383499805306040518263ffffffff1660e01b815260040180826001600160a01b03166001600160a01b03168152602001915050606060405180830381600087803b15801561085357600080fd5b505af1158015610867573d6000803e3d6000fd5b505050506040513d606081101561087d57600080fd5b5080516020820151604090920151909450909250905061089b6116ca565b508a6001600160a01b03166108ae611380565b6001600160a01b03167f62d095e2c4513ab737ede7cbd30334eccb10424cbc543ebb5c458b5174cddcd58c6040518082815260200191505060405180910390a36001600355919a90995090975095505050505050565b6000806002600354141561094d576040805162461bcd60e51b815260206004820152601f602482015260008051602061220b833981519152604482015290519081900360640190fd5b6002600355600154604080516394669bf560e01b81526001600160a01b0380881660048301529151879392909216916394669bf591602480820192602092909190829003018186803b1580156109a257600080fd5b505afa1580156109b6573d6000803e3d6000fd5b505050506040513d60208110156109cc57600080fd5b5051610a0d576040805162461bcd60e51b815260206004820152601b602482015260008051602061224c833981519152604482015290519081900360640190fd5b6000856001600160a01b031663440f5fd26040518163ffffffff1660e01b815260040160206040518083038186803b158015610a4857600080fd5b505afa158015610a5c573d6000803e3d6000fd5b505050506040513d6020811015610a7257600080fd5b50516040805163a1a4076160e01b815290519192506000916001600160a01b0389169163a1a40761916004808301926020929190829003018186803b158015610aba57600080fd5b505afa158015610ace573d6000803e3d6000fd5b505050506040513d6020811015610ae457600080fd5b505190506000610af4888861152b565b9050610b0188888a611624565b50610b0d82828a611624565b506040805160008082526020820190925281906001600160a01b038b169063787eae309030908c906040518463ffffffff1660e01b815260040180846001600160a01b03166001600160a01b0316815260200183815260200180602001828103825283818151815260200191508051906020019080838360005b83811015610b9f578181015183820152602001610b87565b50505050905090810190601f168015610bcc5780820380516001836020036101000a031916815260200191505b509450505050506040805180830381600087803b158015610bec57600080fd5b505af1158015610c00573d6000803e3d6000fd5b505050506040513d6040811015610c1657600080fd5b5080516020909101519092509050610c2c6116ca565b50896001600160a01b0316610c3f611380565b6001600160a01b03167f3cea488905b3fa93b6aaaf21e913395e548b6e79dbe6099a527f6aa8059b23d18b6040518082815260200191505060405180910390a3600160035590999098509650505050505050565b6001546001600160a01b031690565b60008060026003541415610ceb576040805162461bcd60e51b815260206004820152601f602482015260008051602061220b833981519152604482015290519081900360640190fd5b6002600355600154604080516394669bf560e01b81526001600160a01b0380871660048301529151869392909216916394669bf591602480820192602092909190829003018186803b158015610d4057600080fd5b505afa158015610d54573d6000803e3d6000fd5b505050506040513d6020811015610d6a57600080fd5b5051610dab576040805162461bcd60e51b815260206004820152601b602482015260008051602061224c833981519152604482015290519081900360640190fd5b60003411610df6576040805162461bcd60e51b81526020600482015260136024820152725072696d6974697665436f72653a205a45524f60681b604482015290519081900360640190fd5b610dfe61186a565b506000610e0b85346118df565b9050610e17858261198d565b50846001600160a01b0316610e2a611380565b6001600160a01b03167f3cea488905b3fa93b6aaaf21e913395e548b6e79dbe6099a527f6aa8059b23d1836040518082815260200191505060405180910390a3610e748582611a2a565b600160035590969095509350505050565b600060026003541415610ecd576040805162461bcd60e51b815260206004820152601f602482015260008051602061220b833981519152604482015290519081900360640190fd5b6002600355600154604080516394669bf560e01b81526001600160a01b0380871660048301529151869392909216916394669bf591602480820192602092909190829003018186803b158015610f2257600080fd5b505afa158015610f36573d6000803e3d6000fd5b505050506040513d6020811015610f4c57600080fd5b5051610f8d576040805162461bcd60e51b815260206004820152601b602482015260008051602061224c833981519152604482015290519081900360640190fd5b6000846001600160a01b0316632f310bad6040518163ffffffff1660e01b815260040160206040518083038186803b158015610fc857600080fd5b505afa158015610fdc573d6000803e3d6000fd5b505050506040513d6020811015610ff257600080fd5b50519050611001818587611624565b5060408051635e86929d60e01b815230600482015290516000916001600160a01b03881691635e86929d9160248082019260209290919082900301818787803b15801561104d57600080fd5b505af1158015611061573d6000803e3d6000fd5b505050506040513d602081101561107757600080fd5b505190506110836116ca565b50856001600160a01b0316611096611380565b6001600160a01b03167f27d4634c833b7622a0acddbf7f746183625f105945e95c723ad1d5a9f2a0b6fc876040518082815260200191505060405180910390a3600160035595945050505050565b6001600160a01b03808316600090815260026020908152604080832093851683529290529081205460ff166111605761112f6001600160a01b0384168360001963ffffffff611bdb16565b6001600160a01b038084166000908152600260209081526040808320938616835292905220805460ff191660011790555b5060015b92915050565b600080600260035414156111b3576040805162461bcd60e51b815260206004820152601f602482015260008051602061220b833981519152604482015290519081900360640190fd5b6002600355600154604080516394669bf560e01b81526001600160a01b0380871660048301529151869392909216916394669bf591602480820192602092909190829003018186803b15801561120857600080fd5b505afa15801561121c573d6000803e3d6000fd5b505050506040513d602081101561123257600080fd5b5051611273576040805162461bcd60e51b815260206004820152601b602482015260008051602061224c833981519152604482015290519081900360640190fd5b600034116112c8576040805162461bcd60e51b815260206004820152601760248201527f5072696d6974697665436f72653a204552525f5a45524f000000000000000000604482015290519081900360640190fd5b60006112d2611380565b90506112dc61186a565b506000806112ea8784611cf3565b91509150866001600160a01b0316836001600160a01b03167f03f17d66ad3bf18e9412eb06582908831508cdb9b8da9cddb1431f645a5b86328484604051808381526020018281526020019250505060405180910390a3600160035590969095509350505050565b6001600160a01b03918216600090815260026020908152604080832093909416825291909152205460ff1690565b6001546040805163ab470f0560e01b815290516000926001600160a01b03169163ab470f05916004808301926020929190829003018186803b1580156113c557600080fd5b505afa1580156113d9573d6000803e3d6000fd5b505050506040513d60208110156113ef57600080fd5b5051905090565b60008060008311611439576040805162461bcd60e51b81526020600482015260086024820152674552525f5a45524f60c01b604482015290519081900360640190fd5b6114a8846001600160a01b031663440f5fd26040518163ffffffff1660e01b815260040160206040518083038186803b15801561147557600080fd5b505afa158015611489573d6000803e3d6000fd5b505050506040513d602081101561149f57600080fd5b50518486611624565b5060408051633ea6b5f160e21b815230600482015281516001600160a01b0387169263fa9ad7c492602480820193918290030181600087803b1580156114ed57600080fd5b505af1158015611501573d6000803e3d6000fd5b505050506040513d604081101561151757600080fd5b508051602090910151909590945092505050565b600061161d836001600160a01b031663b592a1386040518163ffffffff1660e01b815260040160206040518083038186803b15801561156957600080fd5b505afa15801561157d573d6000803e3d6000fd5b505050506040513d602081101561159357600080fd5b505160408051627f0cfd60e11b81529051611611916001600160a01b0388169162fe19fa91600480820192602092909190829003018186803b1580156115d857600080fd5b505afa1580156115ec573d6000803e3d6000fd5b505050506040513d602081101561160257600080fd5b5051859063ffffffff611db116565b9063ffffffff611e0a16565b9392505050565b600082156116c0576001546040805163a2e49f1760e01b81526001600160a01b0387811660048301526024820187905285811660448301529151919092169163a2e49f179160648083019260209291908290030181600087803b15801561168a57600080fd5b505af115801561169e573d6000803e3d6000fd5b505050506040513d60208110156116b457600080fd5b506001915061161d9050565b5060009392505050565b60008054604080516370a0823160e01b8152306004820152905183926001600160a01b0316916370a08231916024808301926020929190829003018186803b15801561171557600080fd5b505afa158015611729573d6000803e3d6000fd5b505050506040513d602081101561173f57600080fd5b505190508015611862576000805460408051632e1a7d4d60e01b81526004810185905290516001600160a01b0390921692632e1a7d4d9260248084019382900301818387803b15801561179157600080fd5b505af11580156117a5573d6000803e3d6000fd5b5050505060006117b3611380565b6040516001600160a01b0391909116908390600081818185875af1925050503d80600081146117fe576040519150601f19603f3d011682016040523d82523d6000602084013e611803565b606091505b5050905080611859576040805162461bcd60e51b815260206004820152601c60248201527f436f6e6e6563746f723a204552525f53454e44494e475f455448455200000000604482015290519081900360640190fd5b915061034b9050565b600191505090565b600034156118d9576000805460408051630d0e30db60e41b815290516001600160a01b039092169263d0e30db0923492600480820193929182900301818588803b1580156118b757600080fd5b505af11580156118cb573d6000803e3d6000fd5b50505050506001905061034b565b50600090565b600061161d836001600160a01b031662fe19fa6040518163ffffffff1660e01b815260040160206040518083038186803b15801561191c57600080fd5b505afa158015611930573d6000803e3d6000fd5b505050506040513d602081101561194657600080fd5b5051604080516316b2542760e31b81529051611611916001600160a01b0388169163b592a13891600480820192602092909190829003018186803b1580156115d857600080fd5b60008115611a21576001546040805163a3e3808f60e01b81526001600160a01b038681166004830152602482018690529151919092169163a3e3808f9160448083019260209291908290030181600087803b1580156119eb57600080fd5b505af11580156119ff573d6000803e3d6000fd5b505050506040513d6020811015611a1557600080fd5b50600191506111649050565b50600092915050565b6000806000846001600160a01b031663a1a407616040518163ffffffff1660e01b815260040160206040518083038186803b158015611a6857600080fd5b505afa158015611a7c573d6000803e3d6000fd5b505050506040513d6020811015611a9257600080fd5b50519050611aa08186611e4c565b50611abb6001600160a01b038616868663ffffffff611edf16565b846001600160a01b031663787eae30611ad2611380565b604080516000808252602082019092528891506040518463ffffffff1660e01b815260040180846001600160a01b03166001600160a01b0316815260200183815260200180602001828103825283818151815260200191508051906020019080838360005b83811015611b4f578181015183820152602001611b37565b50505050905090810190601f168015611b7c5780820380516001836020036101000a031916815260200191505b509450505050506040805180830381600087803b158015611b9c57600080fd5b505af1158015611bb0573d6000803e3d6000fd5b505050506040513d6040811015611bc657600080fd5b50805160209091015190969095509350505050565b801580611c61575060408051636eb1769f60e11b81523060048201526001600160a01b03848116602483015291519185169163dd62ed3e91604480820192602092909190829003018186803b158015611c3357600080fd5b505afa158015611c47573d6000803e3d6000fd5b505050506040513d6020811015611c5d57600080fd5b5051155b611c9c5760405162461bcd60e51b81526004018080602001828103825260368152602001806122966036913960400191505060405180910390fd5b604080516001600160a01b038416602482015260448082018490528251808303909101815260649091019091526020810180516001600160e01b031663095ea7b360e01b179052611cee908490611f2d565b505050565b6000806000846001600160a01b031663440f5fd26040518163ffffffff1660e01b815260040160206040518083038186803b158015611d3157600080fd5b505afa158015611d45573d6000803e3d6000fd5b505050506040513d6020811015611d5b57600080fd5b50519050611d698186611e4c565b5060408051633ea6b5f160e21b81526001600160a01b03868116600483015282519088169263fa9ad7c492602480820193918290030181600087803b158015611b9c57600080fd5b600082611dc057506000611164565b82820282848281611dcd57fe5b041461161d5760405162461bcd60e51b815260040180806020018281038252602181526020018061222b6021913960400191505060405180910390fd5b600061161d83836040518060400160405280601a81526020017f536166654d6174683a206469766973696f6e206279207a65726f000000000000815250611fde565b604080516370a0823160e01b8152306004820152905160009182916001600160a01b038616916370a08231916024808301926020929190829003018186803b158015611e9757600080fd5b505afa158015611eab573d6000803e3d6000fd5b505050506040513d6020811015611ec157600080fd5b5051905061161d6001600160a01b038516848363ffffffff611edf16565b604080516001600160a01b038416602482015260448082018490528251808303909101815260649091019091526020810180516001600160e01b031663a9059cbb60e01b179052611cee9084905b6060611f82826040518060400160405280602081526020017f5361666545524332303a206c6f772d6c6576656c2063616c6c206661696c6564815250856001600160a01b03166120809092919063ffffffff16565b805190915015611cee57808060200190516020811015611fa157600080fd5b5051611cee5760405162461bcd60e51b815260040180806020018281038252602a81526020018061226c602a913960400191505060405180910390fd5b6000818361206a5760405162461bcd60e51b81526004018080602001828103825283818151815260200191508051906020019080838360005b8381101561202f578181015183820152602001612017565b50505050905090810190601f16801561205c5780820380516001836020036101000a031916815260200191505b509250505060405180910390fd5b50600083858161207657fe5b0495945050505050565b606061208f8484600085612097565b949350505050565b60606120a285612204565b6120f3576040805162461bcd60e51b815260206004820152601d60248201527f416464726573733a2063616c6c20746f206e6f6e2d636f6e7472616374000000604482015290519081900360640190fd5b60006060866001600160a01b031685876040518082805190602001908083835b602083106121325780518252601f199092019160209182019101612113565b6001836020036101000a03801982511681845116808217855250505050505090500191505060006040518083038185875af1925050503d8060008114612194576040519150601f19603f3d011682016040523d82523d6000602084013e612199565b606091505b509150915081156121ad57915061208f9050565b8051156121bd5780518082602001fd5b60405162461bcd60e51b815260206004820181815286516024840152865187939192839260440191908501908083836000831561202f578181015183820152602001612017565b3b15159056fe5265656e7472616e637947756172643a207265656e7472616e742063616c6c00536166654d6174683a206d756c7469706c69636174696f6e206f766572666c6f775072696d697469766553776170733a204556494c5f4f5054494f4e00000000005361666545524332303a204552433230206f7065726174696f6e20646964206e6f7420737563636565645361666545524332303a20617070726f76652066726f6d206e6f6e2d7a65726f20746f206e6f6e2d7a65726f20616c6c6f77616e6365a264697066735822122099450cd063dc19e336130e56f5e7a3bd86dcfdec71b05dba89bee41d1292c9d764736f6c634300060200335361666545524332303a204552433230206f7065726174696f6e20646964206e6f7420737563636565645361666545524332303a20617070726f76652066726f6d206e6f6e2d7a65726f20746f206e6f6e2d7a65726f20616c6c6f77616e6365",
  "devdoc": {
    "methods": {
      "checkApproval(address,address)": {
        "details": "This contract does not hold funds, infinite approvals cannot be exploited for profit.",
        "params": {
          "spender": "The address to allow to spend `token`.",
          "token": "The token to approve spending for."
        }
      },
      "safeCloseForETH(address,uint256)": {
        "details": "Burn optionTokens and redeemTokens to withdraw underlyingTokens (ethers).",
        "params": {
          "closeQuantity": "Quantity of optionTokens to burn and an input to calculate how many redeems to burn.",
          "optionToken": "The address of the option contract."
        }
      },
      "safeExerciseForETH(address,uint256)": {
        "details": "Swaps strikeTokens to underlyingTokens, WETH, which is converted to ethers before withdrawn.         Uses the strike ratio as the exchange rate. Strike ratio = base / quote.",
        "params": {
          "exerciseQuantity": "Quantity of optionTokens to exercise.",
          "optionToken": "The address of the option contract."
        }
      },
      "safeExerciseWithETH(address)": {
        "details": "Swaps msg.value of strikeTokens (ethers) to underlyingTokens.         Uses the strike ratio as the exchange rate. Strike ratio = base / quote.         Msg.value (quote units) * base / quote = base units (underlyingTokens) to withdraw.",
        "params": {
          "optionToken": "The address of the option contract."
        }
      },
      "safeMintWithETH(address)": {
        "details": "Mints msg.value quantity of options and \"quote\" (option parameter) quantity of redeem tokens.",
        "params": {
          "optionToken": "The address of the option token to mint."
        },
        "returns": {
          "_0": "(uint, uint) Returns the (long, short) option tokens minted"
        }
      },
      "safeMintWithPermit(address,uint256,uint256,uint8,bytes32,bytes32)": {
        "details": "Mints \"amount\" quantity of options and \"quote\" (option parameter) quantity of redeem tokens.",
        "params": {
          "amount": "The quantity of options to mint.",
          "deadline": "The timestamp which expires the `permit` call.",
          "optionToken": "The address of the option token to mint."
        },
        "returns": {
          "_0": "(uint, uint) Returns the (long, short) option tokens minted"
        }
      },
      "safeRedeemForETH(address,uint256)": {
        "details": "Burns redeem tokens to withdraw strike tokens (ethers) at a 1:1 ratio.",
        "params": {
          "optionToken": "The address of the option contract.",
          "redeemQuantity": "The quantity of redeemTokens to burn."
        }
      }
    }
  },
  "userdoc": {
    "methods": {
      "checkApproval(address,address)": {
        "notice": "Approves the `spender` to pull `token` from this contract."
      },
      "getCaller()": {
        "notice": "Returns the state variable `_CALLER` in the Primitive Router."
      },
      "getPrimitiveRouter()": {
        "notice": "Returns the Primitive Router contract address."
      },
      "getWeth()": {
        "notice": "Returns the Weth contract address."
      },
      "isApproved(address,address)": {
        "notice": "Returns whether or not `spender` is approved to spend `token`, from this contract."
      },
      "safeCloseForETH(address,uint256)": {
        "notice": "This function is for options with WETH as the underlying asset. WETH underlyingTokens are converted to ethers before being sent to receiver. The redeemTokens to burn is equal to the optionTokens * strike ratio. inputOptions = inputRedeems / strike ratio = outUnderlyings"
      },
      "safeExerciseForETH(address,uint256)": {
        "notice": "This function is for options with WETH as the underlying asset.         Burns option tokens, pulls strikeTokens, and pushes out ethers."
      },
      "safeExerciseWithETH(address)": {
        "notice": "This function is for options with WETH as the strike asset.         Burns option tokens, accepts ethers, and pushes out underlyingTokens."
      },
      "safeMintWithETH(address)": {
        "notice": "This function is for options that have WETH as the underlying asset."
      },
      "safeMintWithPermit(address,uint256,uint256,uint8,bytes32,bytes32)": {
        "notice": "This function is for options that have an EIP2612 (permit) enabled token as the underlying asset."
      },
      "safeRedeemForETH(address,uint256)": {
        "notice": "This function is for options that have WETH as the strike asset.         Converts WETH to ethers, and withdraws ethers to the receiver address."
      }
    }
  },
  "storageLayout": {
    "storage": [
      {
        "astId": 3000,
        "contract": "contracts/connectors/PrimitiveCore.sol:PrimitiveCore",
        "label": "_weth",
        "offset": 0,
        "slot": "0",
        "type": "t_contract(IWETH)6957"
      },
      {
        "astId": 3002,
        "contract": "contracts/connectors/PrimitiveCore.sol:PrimitiveCore",
        "label": "_primitiveRouter",
        "offset": 0,
        "slot": "1",
        "type": "t_contract(IPrimitiveRouter)6790"
      },
      {
        "astId": 3008,
        "contract": "contracts/connectors/PrimitiveCore.sol:PrimitiveCore",
        "label": "_approved",
        "offset": 0,
        "slot": "2",
        "type": "t_mapping(t_address,t_mapping(t_address,t_bool))"
      },
      {
        "astId": 1358,
        "contract": "contracts/connectors/PrimitiveCore.sol:PrimitiveCore",
        "label": "_status",
        "offset": 0,
        "slot": "3",
        "type": "t_uint256"
      }
    ],
    "types": {
      "t_address": {
        "encoding": "inplace",
        "label": "address",
        "numberOfBytes": "20"
      },
      "t_bool": {
        "encoding": "inplace",
        "label": "bool",
        "numberOfBytes": "1"
      },
      "t_contract(IPrimitiveRouter)6790": {
        "encoding": "inplace",
        "label": "contract IPrimitiveRouter",
        "numberOfBytes": "20"
      },
      "t_contract(IWETH)6957": {
        "encoding": "inplace",
        "label": "contract IWETH",
        "numberOfBytes": "20"
      },
      "t_mapping(t_address,t_bool)": {
        "encoding": "mapping",
        "key": "t_address",
        "label": "mapping(address => bool)",
        "numberOfBytes": "32",
        "value": "t_bool"
      },
      "t_mapping(t_address,t_mapping(t_address,t_bool))": {
        "encoding": "mapping",
        "key": "t_address",
        "label": "mapping(address => mapping(address => bool))",
        "numberOfBytes": "32",
        "value": "t_mapping(t_address,t_bool)"
      },
      "t_uint256": {
        "encoding": "inplace",
        "label": "uint256",
        "numberOfBytes": "32"
      }
    }
  }
}