{
  "address": "0xfEefbCe1C659f8ef54fF7980526EdFDf16E00Da2",
  "abi": [
    {
      "inputs": [
        {
          "internalType": "address",
          "name": "weth_",
          "type": "address"
        },
        {
          "internalType": "address",
          "name": "primitiveRouter_",
          "type": "address"
        },
        {
          "internalType": "address",
          "name": "factory_",
          "type": "address"
        },
        {
          "internalType": "address",
          "name": "router_",
          "type": "address"
        }
      ],
      "stateMutability": "nonpayable",
      "type": "constructor"
    },
    {
      "anonymous": false,
      "inputs": [
        {
          "indexed": true,
          "internalType": "address",
          "name": "from",
          "type": "address"
        },
        {
          "indexed": true,
          "internalType": "address",
          "name": "option",
          "type": "address"
        },
        {
          "indexed": false,
          "internalType": "uint256",
          "name": "sum",
          "type": "uint256"
        }
      ],
      "name": "AddLiquidity",
      "type": "event"
    },
    {
      "anonymous": false,
      "inputs": [
        {
          "indexed": true,
          "internalType": "address",
          "name": "from",
          "type": "address"
        }
      ],
      "name": "Initialized",
      "type": "event"
    },
    {
      "anonymous": false,
      "inputs": [
        {
          "indexed": true,
          "internalType": "address",
          "name": "from",
          "type": "address"
        },
        {
          "indexed": true,
          "internalType": "address",
          "name": "option",
          "type": "address"
        },
        {
          "indexed": false,
          "internalType": "uint256",
          "name": "sum",
          "type": "uint256"
        }
      ],
      "name": "RemoveLiquidity",
      "type": "event"
    },
    {
      "inputs": [
        {
          "internalType": "address",
          "name": "optionAddress",
          "type": "address"
        },
        {
          "internalType": "uint256",
          "name": "quantityOptions",
          "type": "uint256"
        },
        {
          "internalType": "uint256",
          "name": "amountBMax",
          "type": "uint256"
        },
        {
          "internalType": "uint256",
          "name": "amountBMin",
          "type": "uint256"
        },
        {
          "internalType": "uint256",
          "name": "deadline",
          "type": "uint256"
        },
        {
          "internalType": "uint8",
          "name": "v",
          "type": "uint8"
        },
        {
          "internalType": "bytes32",
          "name": "r",
          "type": "bytes32"
        },
        {
          "internalType": "bytes32",
          "name": "s",
          "type": "bytes32"
        }
      ],
      "name": "addShortLiquidityDAIWithPermit",
      "outputs": [
        {
          "internalType": "uint256",
          "name": "",
          "type": "uint256"
        },
        {
          "internalType": "uint256",
          "name": "",
          "type": "uint256"
        },
        {
          "internalType": "uint256",
          "name": "",
          "type": "uint256"
        }
      ],
      "stateMutability": "nonpayable",
      "type": "function"
    },
    {
      "inputs": [
        {
          "internalType": "address",
          "name": "optionAddress",
          "type": "address"
        },
        {
          "internalType": "uint256",
          "name": "quantityOptions",
          "type": "uint256"
        },
        {
          "internalType": "uint256",
          "name": "amountBMax",
          "type": "uint256"
        },
        {
          "internalType": "uint256",
          "name": "amountBMin",
          "type": "uint256"
        },
        {
          "internalType": "uint256",
          "name": "deadline",
          "type": "uint256"
        }
      ],
      "name": "addShortLiquidityWithETH",
      "outputs": [
        {
          "internalType": "uint256",
          "name": "",
          "type": "uint256"
        },
        {
          "internalType": "uint256",
          "name": "",
          "type": "uint256"
        },
        {
          "internalType": "uint256",
          "name": "",
          "type": "uint256"
        }
      ],
      "stateMutability": "payable",
      "type": "function"
    },
    {
      "inputs": [
        {
          "internalType": "address",
          "name": "optionAddress",
          "type": "address"
        },
        {
          "internalType": "uint256",
          "name": "quantityOptions",
          "type": "uint256"
        },
        {
          "internalType": "uint256",
          "name": "amountBMax",
          "type": "uint256"
        },
        {
          "internalType": "uint256",
          "name": "amountBMin",
          "type": "uint256"
        },
        {
          "internalType": "uint256",
          "name": "deadline",
          "type": "uint256"
        }
      ],
      "name": "addShortLiquidityWithUnderlying",
      "outputs": [
        {
          "internalType": "uint256",
          "name": "",
          "type": "uint256"
        },
        {
          "internalType": "uint256",
          "name": "",
          "type": "uint256"
        },
        {
          "internalType": "uint256",
          "name": "",
          "type": "uint256"
        }
      ],
      "stateMutability": "nonpayable",
      "type": "function"
    },
    {
      "inputs": [
        {
          "internalType": "address",
          "name": "optionAddress",
          "type": "address"
        },
        {
          "internalType": "uint256",
          "name": "quantityOptions",
          "type": "uint256"
        },
        {
          "internalType": "uint256",
          "name": "amountBMax",
          "type": "uint256"
        },
        {
          "internalType": "uint256",
          "name": "amountBMin",
          "type": "uint256"
        },
        {
          "internalType": "uint256",
          "name": "deadline",
          "type": "uint256"
        },
        {
          "internalType": "uint8",
          "name": "v",
          "type": "uint8"
        },
        {
          "internalType": "bytes32",
          "name": "r",
          "type": "bytes32"
        },
        {
          "internalType": "bytes32",
          "name": "s",
          "type": "bytes32"
        }
      ],
      "name": "addShortLiquidityWithUnderlyingWithPermit",
      "outputs": [
        {
          "internalType": "uint256",
          "name": "",
          "type": "uint256"
        },
        {
          "internalType": "uint256",
          "name": "",
          "type": "uint256"
        },
        {
          "internalType": "uint256",
          "name": "",
          "type": "uint256"
        }
      ],
      "stateMutability": "nonpayable",
      "type": "function"
    },
    {
      "inputs": [
        {
          "internalType": "address",
          "name": "token",
          "type": "address"
        },
        {
          "internalType": "address",
          "name": "spender",
          "type": "address"
        }
      ],
      "name": "checkApproval",
      "outputs": [
        {
          "internalType": "bool",
          "name": "",
          "type": "bool"
        }
      ],
      "stateMutability": "nonpayable",
      "type": "function"
    },
    {
      "inputs": [],
      "name": "getCaller",
      "outputs": [
        {
          "internalType": "address",
          "name": "",
          "type": "address"
        }
      ],
      "stateMutability": "view",
      "type": "function"
    },
    {
      "inputs": [],
      "name": "getFactory",
      "outputs": [
        {
          "internalType": "contract IUniswapV2Factory",
          "name": "",
          "type": "address"
        }
      ],
      "stateMutability": "view",
      "type": "function"
    },
    {
      "inputs": [
        {
          "internalType": "contract IOption",
          "name": "option",
          "type": "address"
        }
      ],
      "name": "getOptionPair",
      "outputs": [
        {
          "internalType": "contract IUniswapV2Pair",
          "name": "",
          "type": "address"
        },
        {
          "internalType": "address",
          "name": "",
          "type": "address"
        },
        {
          "internalType": "address",
          "name": "",
          "type": "address"
        }
      ],
      "stateMutability": "view",
      "type": "function"
    },
    {
      "inputs": [],
      "name": "getPrimitiveRouter",
      "outputs": [
        {
          "internalType": "contract IPrimitiveRouter",
          "name": "",
          "type": "address"
        }
      ],
      "stateMutability": "view",
      "type": "function"
    },
    {
      "inputs": [],
      "name": "getRouter",
      "outputs": [
        {
          "internalType": "contract IUniswapV2Router02",
          "name": "",
          "type": "address"
        }
      ],
      "stateMutability": "view",
      "type": "function"
    },
    {
      "inputs": [],
      "name": "getWeth",
      "outputs": [
        {
          "internalType": "contract IWETH",
          "name": "",
          "type": "address"
        }
      ],
      "stateMutability": "view",
      "type": "function"
    },
    {
      "inputs": [
        {
          "internalType": "address",
          "name": "token",
          "type": "address"
        },
        {
          "internalType": "address",
          "name": "spender",
          "type": "address"
        }
      ],
      "name": "isApproved",
      "outputs": [
        {
          "internalType": "bool",
          "name": "",
          "type": "bool"
        }
      ],
      "stateMutability": "view",
      "type": "function"
    },
    {
      "inputs": [
        {
          "internalType": "address",
          "name": "optionAddress",
          "type": "address"
        },
        {
          "internalType": "uint256",
          "name": "liquidity",
          "type": "uint256"
        },
        {
          "internalType": "uint256",
          "name": "amountAMin",
          "type": "uint256"
        },
        {
          "internalType": "uint256",
          "name": "amountBMin",
          "type": "uint256"
        }
      ],
      "name": "removeShortLiquidityThenCloseOptions",
      "outputs": [
        {
          "internalType": "uint256",
          "name": "",
          "type": "uint256"
        }
      ],
      "stateMutability": "nonpayable",
      "type": "function"
    },
    {
      "inputs": [
        {
          "internalType": "address",
          "name": "optionAddress",
          "type": "address"
        },
        {
          "internalType": "uint256",
          "name": "liquidity",
          "type": "uint256"
        },
        {
          "internalType": "uint256",
          "name": "amountAMin",
          "type": "uint256"
        },
        {
          "internalType": "uint256",
          "name": "amountBMin",
          "type": "uint256"
        },
        {
          "internalType": "uint256",
          "name": "deadline",
          "type": "uint256"
        },
        {
          "internalType": "uint8",
          "name": "v",
          "type": "uint8"
        },
        {
          "internalType": "bytes32",
          "name": "r",
          "type": "bytes32"
        },
        {
          "internalType": "bytes32",
          "name": "s",
          "type": "bytes32"
        }
      ],
      "name": "removeShortLiquidityThenCloseOptionsWithPermit",
      "outputs": [
        {
          "internalType": "uint256",
          "name": "",
          "type": "uint256"
        }
      ],
      "stateMutability": "nonpayable",
      "type": "function"
    },
    {
      "stateMutability": "payable",
      "type": "receive"
    }
  ],
  "transactionHash": "0x5161a1ea6cb49b3fbb50423d5c427097a78fb5727fdf76665917a27eee6320c4",
  "args": [
    "0xd0A1E359811322d97991E03f863a0C30C2cF029C",
    "0x6A713071dcc5dDd5F5f36e9B92f15f5fBe9d7EC5",
    "0xc35DADB65012eC5796536bD9864eD8773aBc74C4",
    "0x1b02dA8Cb0d097eB8D57A175b88c7D8b47997506"
  ],
  "solcInputHash": "c9dcfba636be70a61fb642f1ed49c33f",
  "bytecode": "0x60806040523480156200001157600080fd5b5060405162002dad38038062002dad833981810160405260808110156200003757600080fd5b50805160208201516040830151606090930151600080546001600160a01b038086166001600160a01b03199283161790925560018054928516929091169190911790559192909183836200009582826001600160e01b036200011f16565b5050600160035550600480546001600160a01b038085166001600160a01b0319928316179092556005805492841692909116919091179055620000e06001600160e01b03620001b016565b6001600160a01b03167f908408e307fc569b417f6cbec5d5a06f44a0a505ac0479b47d421a4b2fd6a1e660405160405180910390a2505050506200057d565b6001600160a01b03808316600090815260026020908152604080832093851683529290529081205460ff16620001a7576200017682600019856001600160a01b0316620001b460201b62001eb3179092919060201c565b6001600160a01b038084166000908152600260209081526040808320938616835292905220805460ff191660011790555b50600192915050565b3390565b8015806200023e575060408051636eb1769f60e11b81523060048201526001600160a01b03848116602483015291519185169163dd62ed3e91604480820192602092909190829003018186803b1580156200020e57600080fd5b505afa15801562000223573d6000803e3d6000fd5b505050506040513d60208110156200023a57600080fd5b5051155b6200027b5760405162461bcd60e51b815260040180806020018281038252603681526020018062002d776036913960400191505060405180910390fd5b604080516001600160a01b038416602482015260448082018490528251808303909101815260649091019091526020810180516001600160e01b0390811663095ea7b360e01b17909152620002d3918591620002d816565b505050565b606062000334826040518060400160405280602081526020017f5361666545524332303a206c6f772d6c6576656c2063616c6c206661696c6564815250856001600160a01b03166200039460201b62002424179092919060201c565b805190915015620002d3578080602001905160208110156200035557600080fd5b5051620002d35760405162461bcd60e51b815260040180806020018281038252602a81526020018062002d4d602a913960400191505060405180910390fd5b6060620003ae84846000856001600160e01b03620003b616565b949350505050565b6060620003cc856001600160e01b036200057716565b6200041e576040805162461bcd60e51b815260206004820152601d60248201527f416464726573733a2063616c6c20746f206e6f6e2d636f6e7472616374000000604482015290519081900360640190fd5b60006060866001600160a01b031685876040518082805190602001908083835b602083106200045f5780518252601f1990920191602091820191016200043e565b6001836020036101000a03801982511681845116808217855250505050505090500191505060006040518083038185875af1925050503d8060008114620004c3576040519150601f19603f3d011682016040523d82523d6000602084013e620004c8565b606091505b50915091508115620004de579150620003ae9050565b805115620004ef5780518082602001fd5b8360405162461bcd60e51b81526004018080602001828103825283818151815260200191508051906020019080838360005b838110156200053b57818101518382015260200162000521565b50505050905090810190601f168015620005695780820380516001836020036101000a031916815260200191505b509250505060405180910390fd5b3b151590565b6127c0806200058d6000396000f3fe6080604052600436106100e15760003560e01c80635cda4b411161007f578063ab470f0511610059578063ab470f05146103c9578063b0f479a1146103de578063cfae2273146103f3578063dfaa35cc146104545761010c565b80635cda4b411461032a57806388cc58e414610379578063a389783e1461038e5761010c565b806327fb8380116100bb57806327fb8380146101f75780632da318c11461020c5780632f10e49a1461028b5780635369ee46146102ec5761010c565b8063107c279f1461011157806322ef3f851461014257806324e01330146101a05761010c565b3661010c576000546001600160a01b03166100fa61049f565b6001600160a01b03161461010a57fe5b005b600080fd5b34801561011d57600080fd5b506101266104a4565b604080516001600160a01b039092168252519081900360200190f35b34801561014e57600080fd5b506101756004803603602081101561016557600080fd5b50356001600160a01b03166104b3565b604080516001600160a01b039485168152928416602084015292168183015290519081900360600190f35b3480156101ac57600080fd5b506101e5600480360360808110156101c357600080fd5b506001600160a01b038135169060208101359060408101359060600135610628565b60408051918252519081900360200190f35b34801561020357600080fd5b50610126610844565b34801561021857600080fd5b5061026d600480360361010081101561023057600080fd5b506001600160a01b038135169060208101359060408101359060608101359060808101359060ff60a0820135169060c08101359060e00135610853565b60408051938452602084019290925282820152519081900360600190f35b34801561029757600080fd5b506101e560048036036101008110156102af57600080fd5b506001600160a01b038135169060208101359060408101359060608101359060808101359060ff60a0820135169060c08101359060e00135610a07565b61026d600480360360a081101561030257600080fd5b506001600160a01b038135169060208101359060408101359060608101359060800135610ad9565b34801561033657600080fd5b506103656004803603604081101561034d57600080fd5b506001600160a01b0381358116916020013516610f89565b604080519115158252519081900360200190f35b34801561038557600080fd5b5061012661100f565b34801561039a57600080fd5b50610365600480360360408110156103b157600080fd5b506001600160a01b038135811691602001351661101e565b3480156103d557600080fd5b5061012661104c565b3480156103ea57600080fd5b506101266110c2565b3480156103ff57600080fd5b5061026d600480360361010081101561041757600080fd5b506001600160a01b038135169060208101359060408101359060608101359060808101359060ff60a0820135169060c08101359060e001356110d1565b34801561046057600080fd5b5061026d600480360360a081101561047757600080fd5b506001600160a01b0381351690602081013590604081013590606081013590608001356111e0565b335b90565b6000546001600160a01b031690565b600080600080846001600160a01b0316632f310bad6040518163ffffffff1660e01b815260040160206040518083038186803b1580156104f257600080fd5b505afa158015610506573d6000803e3d6000fd5b505050506040513d602081101561051c57600080fd5b505160408051632207afe960e11b815290519192506000916001600160a01b0388169163440f5fd2916004808301926020929190829003018186803b15801561056457600080fd5b505afa158015610578573d6000803e3d6000fd5b505050506040513d602081101561058e57600080fd5b5051600480546040805163e6a4390560e01b81526001600160a01b038781169482019490945283851660248201529051939450600093929091169163e6a4390591604480820192602092909190829003018186803b1580156105ef57600080fd5b505afa158015610603573d6000803e3d6000fd5b505050506040513d602081101561061957600080fd5b50519791965091945092505050565b600060026003541415610682576040805162461bcd60e51b815260206004820152601f60248201527f5265656e7472616e637947756172643a207265656e7472616e742063616c6c00604482015290519081900360640190fd5b6002600355600154604080516394669bf560e01b81526001600160a01b0380891660048301529151889392909216916394669bf591602480820192602092909190829003018186803b1580156106d757600080fd5b505afa1580156106eb573d6000803e3d6000fd5b505050506040513d602081101561070157600080fd5b5051610754576040805162461bcd60e51b815260206004820152601b60248201527f5072696d697469766553776170733a204556494c5f4f5054494f4e0000000000604482015290519081900360640190fd5b8560008080610762846104b3565b925092509250610770612650565b898152602081018990526040810188905261078c848b81611541565b50600061079b858486856115e8565b91505060006107a98761173b565b90506107b3611a0a565b506107bd84611baa565b506107c785611baa565b5060006107da828463ffffffff611c5e16565b9050876001600160a01b03166107ee61104c565b6001600160a01b03167fd8ae9b9ba89e637bcb66a69ac91e8f688018e81d6f92c57e02226425c8efbdf6836040518082815260200191505060405180910390a360016003559d9c50505050505050505050505050565b6001546001600160a01b031690565b6000806000808b6001600160a01b031663440f5fd26040518163ffffffff1660e01b815260040160206040518083038186803b15801561089257600080fd5b505afa1580156108a6573d6000803e3d6000fd5b505050506040513d60208110156108bc57600080fd5b5051905060006108ca61104c565b60015460408051623f675f60e91b81526001600160a01b038085166004830152915193945081861693638fcbaf0c93869316918591637ecebe0091602480820192602092909190829003018186803b15801561092557600080fd5b505afa158015610939573d6000803e3d6000fd5b505050506040513d602081101561094f57600080fd5b5051604080516001600160e01b031960e087901b1681526001600160a01b0394851660048201529290931660248301526044820152606481018d90526001608482015260ff8c1660a482015260c481018b905260e481018a9052905161010480830192600092919082900301818387803b1580156109cc57600080fd5b505af11580156109e0573d6000803e3d6000fd5b505050506109f18d8d8d8d8d6111e0565b9450945094505050985098509895505050505050565b60008881610a14826104b3565b50509050806001600160a01b031663d505accf610a2f61104c565b600154604080516001600160e01b031960e086901b1681526001600160a01b039384166004820152929091166024830152604482018e9052606482018b905260ff8a16608483015260a4820189905260c482018890525160e480830192600092919082900301818387803b158015610aa657600080fd5b505af1158015610aba573d6000803e3d6000fd5b50505050610aca828b8b8b610628565b9b9a5050505050505050505050565b600080600060026003541415610b36576040805162461bcd60e51b815260206004820152601f60248201527f5265656e7472616e637947756172643a207265656e7472616e742063616c6c00604482015290519081900360640190fd5b6002600355600154604080516394669bf560e01b81526001600160a01b03808c16600483015291518b9392909216916394669bf591602480820192602092909190829003018186803b158015610b8b57600080fd5b505afa158015610b9f573d6000803e3d6000fd5b505050506040513d6020811015610bb557600080fd5b5051610c08576040805162461bcd60e51b815260206004820152601b60248201527f5072696d697469766553776170733a204556494c5f4f5054494f4e0000000000604482015290519081900360640190fd5b610c18888863ffffffff611c5e16565b341015610c6c576040805162461bcd60e51b815260206004820181905260248201527f5072696d69746976654c69717569646974793a20494e53554646494349454e54604482015290519081900360640190fd5b6000806000808c6001600160a01b031663440f5fd26040518163ffffffff1660e01b815260040160206040518083038186803b158015610cab57600080fd5b505afa158015610cbf573d6000803e3d6000fd5b505050506040513d6020811015610cd557600080fd5b50516000549091506001600160a01b03808316911614610d3c576040805162461bcd60e51b815260206004820152601c60248201527f5072696d69746976654c69717569646974793a204e4f545f5745544800000000604482015290519081900360640190fd5b610d44611cb8565b50610d5f6001600160a01b0382168e8e63ffffffff611d2d16565b60008d6001600160a01b031663fa9ad7c4306040518263ffffffff1660e01b815260040180826001600160a01b03166001600160a01b031681526020019150506040805180830381600087803b158015610db857600080fd5b505af1158015610dcc573d6000803e3d6000fd5b505050506040513d6040811015610de257600080fd5b81019080805190602001909291908051906020019092919050505091505060008e90506000816001600160a01b0316632f310bad6040518163ffffffff1660e01b815260040160206040518083038186803b158015610e4057600080fd5b505afa158015610e54573d6000803e3d6000fd5b505050506040513d6020811015610e6a57600080fd5b50519050610e76612671565b838152602081018f905260408101849052606081018e9052608081018d9052600554610eac9083906001600160a01b0316610f89565b50600554610ec49086906001600160a01b0316610f89565b50610ed0828683611d84565b91995097509550838814610ee057fe5b610ee8611a0a565b50610ef282611baa565b50610efc83611baa565b5050505060008e905060008e905060008e9050826001600160a01b0316610f2161104c565b6001600160a01b03167f668256213e6a9a0247adc238fcbf44cc6b98921642fca93479c5dc3873660837610f5b858563ffffffff611c5e16565b60408051918252519081900360200190a35050600160035550939d929c50909a509098505050505050505050565b6001600160a01b03808316600090815260026020908152604080832093851683529290529081205460ff1661100557610fd46001600160a01b0384168360001963ffffffff611eb316565b6001600160a01b038084166000908152600260209081526040808320938616835292905220805460ff191660011790555b5060015b92915050565b6004546001600160a01b031690565b6001600160a01b03918216600090815260026020908152604080832093909416825291909152205460ff1690565b6001546040805163ab470f0560e01b815290516000926001600160a01b03169163ab470f05916004808301926020929190829003018186803b15801561109157600080fd5b505afa1580156110a5573d6000803e3d6000fd5b505050506040513d60208110156110bb57600080fd5b5051905090565b6005546001600160a01b031690565b6000806000808b6001600160a01b031663440f5fd26040518163ffffffff1660e01b815260040160206040518083038186803b15801561111057600080fd5b505afa158015611124573d6000803e3d6000fd5b505050506040513d602081101561113a57600080fd5b5051905060006111508c8c63ffffffff611c5e16565b9050816001600160a01b031663d505accf61116961104c565b600154604080516001600160e01b031960e086901b1681526001600160a01b03938416600482015292909116602483015260448201859052606482018d905260ff8c16608483015260a482018b905260c482018a90525160e480830192600092919082900301818387803b1580156109cc57600080fd5b60008060006002600354141561123d576040805162461bcd60e51b815260206004820152601f60248201527f5265656e7472616e637947756172643a207265656e7472616e742063616c6c00604482015290519081900360640190fd5b6002600355600154604080516394669bf560e01b81526001600160a01b03808c16600483015291518b9392909216916394669bf591602480820192602092909190829003018186803b15801561129257600080fd5b505afa1580156112a6573d6000803e3d6000fd5b505050506040513d60208110156112bc57600080fd5b505161130f576040805162461bcd60e51b815260206004820152601b60248201527f5072696d697469766553776170733a204556494c5f4f5054494f4e0000000000604482015290519081900360640190fd5b6000806000808c6001600160a01b031663440f5fd26040518163ffffffff1660e01b815260040160206040518083038186803b15801561134e57600080fd5b505afa158015611362573d6000803e3d6000fd5b505050506040513d602081101561137857600080fd5b50519050600061138e8d8d63ffffffff611c5e16565b905061139a8282611fc6565b506113b790506001600160a01b0382168e8e63ffffffff611d2d16565b60008d6001600160a01b031663fa9ad7c4306040518263ffffffff1660e01b815260040180826001600160a01b03166001600160a01b031681526020019150506040805180830381600087803b15801561141057600080fd5b505af1158015611424573d6000803e3d6000fd5b505050506040513d604081101561143a57600080fd5b81019080805190602001909291908051906020019092919050505091505060008e90506000816001600160a01b0316632f310bad6040518163ffffffff1660e01b815260040160206040518083038186803b15801561149857600080fd5b505afa1580156114ac573d6000803e3d6000fd5b505050506040513d60208110156114c257600080fd5b505190506114ce612671565b838152602081018f905260408101849052606081018e9052608081018d90526005546115049083906001600160a01b0316610f89565b5060055461151c9086906001600160a01b0316610f89565b50611528828683611d84565b9199509750955083881461153857fe5b610ee885611baa565b600082156115dd576001546040805163a2e49f1760e01b81526001600160a01b0387811660048301526024820187905285811660448301529151919092169163a2e49f179160648083019260209291908290030181600087803b1580156115a757600080fd5b505af11580156115bb573d6000803e3d6000fd5b505050506040513d60208110156115d157600080fd5b50600191506115e19050565b5060005b9392505050565b6040805163226bf2d160e21b815230600482015281516000928392839283926001600160a01b038b16926389afcb44926024808301939282900301818787803b15801561163457600080fd5b505af1158015611648573d6000803e3d6000fd5b505050506040513d604081101561165e57600080fd5b50805160209091015190925090506000611678888861205a565b509050600080826001600160a01b03168a6001600160a01b03161461169e5783856116a1565b84845b9150915087602001518210156116e85760405162461bcd60e51b81526004018080602001828103825260228152602001806127096022913960400191505060405180910390fd5b876040015181101561172b5760405162461bcd60e51b81526004018080602001828103825260228152602001806126a16022913960400191505060405180910390fd5b909a909950975050505050505050565b600080826001600160a01b0316632f310bad6040518163ffffffff1660e01b815260040160206040518083038186803b15801561177757600080fd5b505afa15801561178b573d6000803e3d6000fd5b505050506040513d60208110156117a157600080fd5b5051604080516370a0823160e01b815230600482015290519192506000916001600160a01b038416916370a08231916024808301926020929190829003018186803b1580156117ef57600080fd5b505afa158015611803573d6000803e3d6000fd5b505050506040513d602081101561181957600080fd5b5051905060006001600160a01b0385166370a0823161183661104c565b6040518263ffffffff1660e01b815260040180826001600160a01b03166001600160a01b0316815260200191505060206040518083038186803b15801561187c57600080fd5b505afa158015611890573d6000803e3d6000fd5b505050506040513d60208110156118a657600080fd5b5051905060006118b68683612138565b9050828111156118c35750815b42866001600160a01b03166325cb5bc06040518163ffffffff1660e01b815260040160206040518083038186803b1580156118fd57600080fd5b505afa158015611911573d6000803e3d6000fd5b505050506040513d602081101561192757600080fd5b505110611962576119486001600160a01b038516878363ffffffff611d2d16565b61195c86611956888461222a565b88611541565b5061197c565b61197c6001600160a01b038516878563ffffffff611d2d16565b600081156119fe5760408051638349980560e01b815230600482015290516001600160a01b0389169163834998059160248083019260609291908290030181600087803b1580156119cc57600080fd5b505af11580156119e0573d6000803e3d6000fd5b505050506040513d60608110156119f657600080fd5b506040015190505b9450505050505b919050565b60008054604080516370a0823160e01b8152306004820152905183926001600160a01b0316916370a08231916024808301926020929190829003018186803b158015611a5557600080fd5b505afa158015611a69573d6000803e3d6000fd5b505050506040513d6020811015611a7f57600080fd5b505190508015611ba2576000805460408051632e1a7d4d60e01b81526004810185905290516001600160a01b0390921692632e1a7d4d9260248084019382900301818387803b158015611ad157600080fd5b505af1158015611ae5573d6000803e3d6000fd5b505050506000611af361104c565b6040516001600160a01b0391909116908390600081818185875af1925050503d8060008114611b3e576040519150601f19603f3d011682016040523d82523d6000602084013e611b43565b606091505b5050905080611b99576040805162461bcd60e51b815260206004820152601c60248201527f436f6e6e6563746f723a204552525f53454e44494e475f455448455200000000604482015290519081900360640190fd5b91506104a19050565b600191505090565b604080516370a0823160e01b8152306004820152905160009182916001600160a01b038516916370a08231916024808301926020929190829003018186803b158015611bf557600080fd5b505afa158015611c09573d6000803e3d6000fd5b505050506040513d6020811015611c1f57600080fd5b505190508015611c5557611c4b611c3461104c565b6001600160a01b038516908363ffffffff611d2d16565b6001915050611a05565b50600092915050565b6000828201838110156115e1576040805162461bcd60e51b815260206004820152601b60248201527f536166654d6174683a206164646974696f6e206f766572666c6f770000000000604482015290519081900360640190fd5b60003415611d27576000805460408051630d0e30db60e41b815290516001600160a01b039092169263d0e30db0923492600480820193929182900301818588803b158015611d0557600080fd5b505af1158015611d19573d6000803e3d6000fd5b5050505050600190506104a1565b50600090565b604080516001600160a01b038416602482015260448082018490528251808303909101815260649091019091526020810180516001600160e01b031663a9059cbb60e01b179052611d7f9084906122d8565b505050565b6000806000600560009054906101000a90046001600160a01b03166001600160a01b031663e8e3370087878760000151886020015189604001518a60600151611dcb61104c565b8c608001516040518963ffffffff1660e01b815260040180896001600160a01b03166001600160a01b03168152602001886001600160a01b03166001600160a01b03168152602001878152602001868152602001858152602001848152602001836001600160a01b03166001600160a01b0316815260200182815260200198505050505050505050606060405180830381600087803b158015611e6d57600080fd5b505af1158015611e81573d6000803e3d6000fd5b505050506040513d6060811015611e9757600080fd5b5080516020820151604090920151909891975095509350505050565b801580611f39575060408051636eb1769f60e11b81523060048201526001600160a01b03848116602483015291519185169163dd62ed3e91604480820192602092909190829003018186803b158015611f0b57600080fd5b505afa158015611f1f573d6000803e3d6000fd5b505050506040513d6020811015611f3557600080fd5b5051155b611f745760405162461bcd60e51b81526004018080602001828103825260368152602001806127556036913960400191505060405180910390fd5b604080516001600160a01b038416602482015260448082018490528251808303909101815260649091019091526020810180516001600160e01b031663095ea7b360e01b179052611d7f9084906122d8565b60008115611c55576001546040805163a3e3808f60e01b81526001600160a01b038681166004830152602482018690529151919092169163a3e3808f9160448083019260209291908290030181600087803b15801561202457600080fd5b505af1158015612038573d6000803e3d6000fd5b505050506040513d602081101561204e57600080fd5b50600191506110099050565b600080826001600160a01b0316846001600160a01b031614156120ae5760405162461bcd60e51b81526004018080602001828103825260258152602001806126c36025913960400191505060405180910390fd5b826001600160a01b0316846001600160a01b0316106120ce5782846120d1565b83835b90925090506001600160a01b038216612131576040805162461bcd60e51b815260206004820152601e60248201527f556e697377617056324c6962726172793a205a45524f5f414444524553530000604482015290519081900360640190fd5b9250929050565b60006115e1836001600160a01b031663b592a1386040518163ffffffff1660e01b815260040160206040518083038186803b15801561217657600080fd5b505afa15801561218a573d6000803e3d6000fd5b505050506040513d60208110156121a057600080fd5b505160408051627f0cfd60e11b8152905161221e916001600160a01b0388169162fe19fa91600480820192602092909190829003018186803b1580156121e557600080fd5b505afa1580156121f9573d6000803e3d6000fd5b505050506040513d602081101561220f57600080fd5b5051859063ffffffff61238916565b9063ffffffff6123e216565b60006115e1836001600160a01b031662fe19fa6040518163ffffffff1660e01b815260040160206040518083038186803b15801561226757600080fd5b505afa15801561227b573d6000803e3d6000fd5b505050506040513d602081101561229157600080fd5b5051604080516316b2542760e31b8152905161221e916001600160a01b0388169163b592a13891600480820192602092909190829003018186803b1580156121e557600080fd5b606061232d826040518060400160405280602081526020017f5361666545524332303a206c6f772d6c6576656c2063616c6c206661696c6564815250856001600160a01b03166124249092919063ffffffff16565b805190915015611d7f5780806020019051602081101561234c57600080fd5b5051611d7f5760405162461bcd60e51b815260040180806020018281038252602a81526020018061272b602a913960400191505060405180910390fd5b60008261239857506000611009565b828202828482816123a557fe5b04146115e15760405162461bcd60e51b81526004018080602001828103825260218152602001806126e86021913960400191505060405180910390fd5b60006115e183836040518060400160405280601a81526020017f536166654d6174683a206469766973696f6e206279207a65726f00000000000081525061243b565b606061243384846000856124dd565b949350505050565b600081836124c75760405162461bcd60e51b81526004018080602001828103825283818151815260200191508051906020019080838360005b8381101561248c578181015183820152602001612474565b50505050905090810190601f1680156124b95780820380516001836020036101000a031916815260200191505b509250505060405180910390fd5b5060008385816124d357fe5b0495945050505050565b60606124e88561264a565b612539576040805162461bcd60e51b815260206004820152601d60248201527f416464726573733a2063616c6c20746f206e6f6e2d636f6e7472616374000000604482015290519081900360640190fd5b60006060866001600160a01b031685876040518082805190602001908083835b602083106125785780518252601f199092019160209182019101612559565b6001836020036101000a03801982511681845116808217855250505050505090500191505060006040518083038185875af1925050503d80600081146125da576040519150601f19603f3d011682016040523d82523d6000602084013e6125df565b606091505b509150915081156125f35791506124339050565b8051156126035780518082602001fd5b60405162461bcd60e51b815260206004820181815286516024840152865187939192839260440191908501908083836000831561248c578181015183820152602001612474565b3b151590565b60405180606001604052806000815260200160008152602001600081525090565b6040518060a001604052806000815260200160008152602001600081526020016000815260200160008152509056fe5072696d69746976654c69717569646974793a20494e53554646494349454e545f42556e697377617056324c6962726172793a204944454e544943414c5f414444524553534553536166654d6174683a206d756c7469706c69636174696f6e206f766572666c6f775072696d69746976654c69717569646974793a20494e53554646494349454e545f415361666545524332303a204552433230206f7065726174696f6e20646964206e6f7420737563636565645361666545524332303a20617070726f76652066726f6d206e6f6e2d7a65726f20746f206e6f6e2d7a65726f20616c6c6f77616e6365a26469706673582212203a1e694d13fea4f12731209fd94497be9a1cdfa2d4f923402a519dc889f8c2b164736f6c634300060200335361666545524332303a204552433230206f7065726174696f6e20646964206e6f7420737563636565645361666545524332303a20617070726f76652066726f6d206e6f6e2d7a65726f20746f206e6f6e2d7a65726f20616c6c6f77616e6365",
  "devdoc": {
    "methods": {
      "addShortLiquidityDAIWithPermit(address,uint256,uint256,uint256,uint256,uint8,bytes32,bytes32)": {
        "details": "Doesn't check for registered optionAddress because the returned function does."
      },
      "addShortLiquidityWithETH(address,uint256,uint256,uint256,uint256)": {
        "details": "Adds redeemToken liquidity to a redeem<>underlyingToken pair by minting shortOptionTokens with underlyingTokens.",
        "params": {
          "amountBMax": "The quantity of underlyingTokens to add with shortOptionTokens to the Uniswap V2 Pair.",
          "amountBMin": "The minimum quantity of underlyingTokens expected to provide liquidity with.",
          "deadline": "The timestamp to expire a pending transaction.",
          "optionAddress": "The address of the optionToken to get the redeemToken to mint then provide liquidity for.",
          "quantityOptions": "The quantity of underlyingTokens to use to mint option + redeem tokens."
        },
        "returns": {
          "_0": "Returns (amountA, amountB, liquidity) amounts."
        }
      },
      "addShortLiquidityWithUnderlying(address,uint256,uint256,uint256,uint256)": {
        "details": "Adds redeemToken liquidity to a redeem<>underlyingToken pair by minting redeemTokens with underlyingTokens.",
        "params": {
          "amountBMax": "The quantity of underlyingTokens to add with redeemTokens to the Uniswap V2 Pair.",
          "amountBMin": "The minimum quantity of underlyingTokens expected to provide liquidity with.",
          "deadline": "The timestamp to expire a pending transaction.",
          "optionAddress": "The address of the optionToken to get the redeemToken to mint then provide liquidity for.",
          "quantityOptions": "The quantity of underlyingTokens to use to mint option + redeem tokens."
        },
        "returns": {
          "_0": "Returns (amountA, amountB, liquidity) amounts."
        }
      },
      "addShortLiquidityWithUnderlyingWithPermit(address,uint256,uint256,uint256,uint256,uint8,bytes32,bytes32)": {
        "details": "Adds redeemToken liquidity to a redeem<>underlyingToken pair by minting shortOptionTokens with underlyingTokens.         Doesn't check for registered optionAddress because the returned function does.",
        "params": {
          "amountBMax": "The quantity of underlyingTokens to add with shortOptionTokens to the Uniswap V2 Pair.",
          "amountBMin": "The minimum quantity of underlyingTokens expected to provide liquidity with.",
          "deadline": "The timestamp to expire a pending transaction.",
          "optionAddress": "The address of the optionToken to get the redeemToken to mint then provide liquidity for.",
          "quantityOptions": "The quantity of underlyingTokens to use to mint option + redeem tokens."
        },
        "returns": {
          "_0": "Returns (amountA, amountB, liquidity) amounts."
        }
      },
      "checkApproval(address,address)": {
        "details": "This contract does not hold funds, infinite approvals cannot be exploited for profit.",
        "params": {
          "spender": "The address to allow to spend `token`.",
          "token": "The token to approve spending for."
        }
      },
      "getOptionPair(address)": {
        "params": {
          "option": "The option token to get the corresponding UniswapV2Pair market."
        },
        "returns": {
          "_0": "The pair address, as well as the tokens of the pair."
        }
      },
      "removeShortLiquidityThenCloseOptions(address,uint256,uint256,uint256)": {
        "details": "Combines Uniswap V2 Router \"removeLiquidity\" function with Primitive \"closeOptions\" function.",
        "params": {
          "amountAMin": "The minimum quantity of shortOptionTokens to receive from removing liquidity.",
          "amountBMin": "The minimum quantity of underlyingTokens to receive from removing liquidity.",
          "liquidity": "The quantity of liquidity tokens to pull from `getCaller()` and burn.",
          "optionAddress": "The address of the option that will be closed from burned UNI-V2 liquidity shares."
        },
        "returns": {
          "_0": "Returns the sum of the removed underlying tokens."
        }
      },
      "removeShortLiquidityThenCloseOptionsWithPermit(address,uint256,uint256,uint256,uint256,uint8,bytes32,bytes32)": {
        "details": "Uses permit to pull LP tokens.",
        "params": {
          "amountAMin": "The minimum quantity of shortOptionTokens to receive from removing liquidity.",
          "amountBMin": "The minimum quantity of underlyingTokens to receive from removing liquidity.",
          "deadline": "The timestamp to expire a pending transaction and `permit` call.",
          "liquidity": "The quantity of liquidity tokens to pull from _msgSender() and burn.",
          "optionAddress": "The address of the option that will be closed from burned UNI-V2 liquidity shares."
        },
        "returns": {
          "_0": "Returns the sum of the removed underlying tokens."
        }
      }
    }
  },
  "userdoc": {
    "methods": {
      "addShortLiquidityDAIWithPermit(address,uint256,uint256,uint256,uint256,uint8,bytes32,bytes32)": {
        "notice": "Specialized function for `permit` calling on Put options (DAI)."
      },
      "addShortLiquidityWithETH(address,uint256,uint256,uint256,uint256)": {
        "notice": "Pulls underlying tokens from `getCaller()` and pushes UNI-V2 liquidity tokens to the `getCaller()` address.         underlyingToken -> redeemToken -> UNI-V2."
      },
      "addShortLiquidityWithUnderlying(address,uint256,uint256,uint256,uint256)": {
        "notice": "Pulls underlying tokens from `getCaller()` and pushes UNI-V2 liquidity tokens to the \"getCaller()\" address.         underlyingToken -> redeemToken -> UNI-V2."
      },
      "addShortLiquidityWithUnderlyingWithPermit(address,uint256,uint256,uint256,uint256,uint8,bytes32,bytes32)": {
        "notice": "Pulls underlying tokens from `getCaller()` and pushes UNI-V2 liquidity tokens to the \"getCaller()\" address.         underlyingToken -> redeemToken -> UNI-V2. Uses permit so user does not need to `approve()` our contracts."
      },
      "checkApproval(address,address)": {
        "notice": "Approves the `spender` to pull `token` from this contract."
      },
      "getCaller()": {
        "notice": "Returns the state variable `_CALLER` in the Primitive Router."
      },
      "getFactory()": {
        "notice": "Gets the UniswapV2Factory contract address."
      },
      "getOptionPair(address)": {
        "notice": "Fetchs the Uniswap Pair for an option's redeemToken and underlyingToken params."
      },
      "getPrimitiveRouter()": {
        "notice": "Returns the Primitive Router contract address."
      },
      "getRouter()": {
        "notice": "Gets the UniswapV2Router02 contract address."
      },
      "getWeth()": {
        "notice": "Returns the Weth contract address."
      },
      "isApproved(address,address)": {
        "notice": "Returns whether or not `spender` is approved to spend `token`, from this contract."
      },
      "removeShortLiquidityThenCloseOptions(address,uint256,uint256,uint256)": {
        "notice": "Pulls UNI-V2 liquidity shares with shortOption<>underlying token, and optionTokens from `getCaller()`.         Then closes the longOptionTokens and withdraws underlyingTokens to the `getCaller()` address.         Sends underlyingTokens from the burned UNI-V2 liquidity shares to the `getCaller()` address.         UNI-V2 -> optionToken -> underlyingToken."
      },
      "removeShortLiquidityThenCloseOptionsWithPermit(address,uint256,uint256,uint256,uint256,uint8,bytes32,bytes32)": {
        "notice": "Pulls LP tokens, burns them, removes liquidity, pull option token, burns then, pushes all underlying tokens."
      }
    }
  },
  "storageLayout": {
    "storage": [
      {
        "astId": 3000,
        "contract": "contracts/connectors/PrimitiveLiquidity.sol:PrimitiveLiquidity",
        "label": "_weth",
        "offset": 0,
        "slot": "0",
        "type": "t_contract(IWETH)6957"
      },
      {
        "astId": 3002,
        "contract": "contracts/connectors/PrimitiveLiquidity.sol:PrimitiveLiquidity",
        "label": "_primitiveRouter",
        "offset": 0,
        "slot": "1",
        "type": "t_contract(IPrimitiveRouter)6790"
      },
      {
        "astId": 3008,
        "contract": "contracts/connectors/PrimitiveLiquidity.sol:PrimitiveLiquidity",
        "label": "_approved",
        "offset": 0,
        "slot": "2",
        "type": "t_mapping(t_address,t_mapping(t_address,t_bool))"
      },
      {
        "astId": 1358,
        "contract": "contracts/connectors/PrimitiveLiquidity.sol:PrimitiveLiquidity",
        "label": "_status",
        "offset": 0,
        "slot": "3",
        "type": "t_uint256"
      },
      {
        "astId": 4243,
        "contract": "contracts/connectors/PrimitiveLiquidity.sol:PrimitiveLiquidity",
        "label": "_factory",
        "offset": 0,
        "slot": "4",
        "type": "t_contract(IUniswapV2Factory)1767"
      },
      {
        "astId": 4245,
        "contract": "contracts/connectors/PrimitiveLiquidity.sol:PrimitiveLiquidity",
        "label": "_router",
        "offset": 0,
        "slot": "5",
        "type": "t_contract(IUniswapV2Router02)2405"
      }
    ],
    "types": {
      "t_address": {
        "encoding": "inplace",
        "label": "address",
        "numberOfBytes": "20"
      },
      "t_bool": {
        "encoding": "inplace",
        "label": "bool",
        "numberOfBytes": "1"
      },
      "t_contract(IPrimitiveRouter)6790": {
        "encoding": "inplace",
        "label": "contract IPrimitiveRouter",
        "numberOfBytes": "20"
      },
      "t_contract(IUniswapV2Factory)1767": {
        "encoding": "inplace",
        "label": "contract IUniswapV2Factory",
        "numberOfBytes": "20"
      },
      "t_contract(IUniswapV2Router02)2405": {
        "encoding": "inplace",
        "label": "contract IUniswapV2Router02",
        "numberOfBytes": "20"
      },
      "t_contract(IWETH)6957": {
        "encoding": "inplace",
        "label": "contract IWETH",
        "numberOfBytes": "20"
      },
      "t_mapping(t_address,t_bool)": {
        "encoding": "mapping",
        "key": "t_address",
        "label": "mapping(address => bool)",
        "numberOfBytes": "32",
        "value": "t_bool"
      },
      "t_mapping(t_address,t_mapping(t_address,t_bool))": {
        "encoding": "mapping",
        "key": "t_address",
        "label": "mapping(address => mapping(address => bool))",
        "numberOfBytes": "32",
        "value": "t_mapping(t_address,t_bool)"
      },
      "t_uint256": {
        "encoding": "inplace",
        "label": "uint256",
        "numberOfBytes": "32"
      }
    }
  }
}